:020000040800F2
:1000000028140124F9030008291F0008631D0008B3
:10001000C11E00084B060008B922000800000000BD
:10002000000000000000000000000000390300088C
:100030004F0600080000000095030008C51F0008D7
:100040001704000817040008170400081704000824
:100050001704000817040008170400081704000814
:100060001704000817040008170400081704000804
:1000700017040008170400081704000817040008F4
:1000800017040008170400081704000817040008E4
:1000900017040008170400081704000817040008D4
:1000A00017040008170400081704000817040008C4
:1000B00017040008170400081704000817040008B4
:1000C00017040008170400081704000817040008A4
:1000D0001704000817040008170400081704000894
:1000E00017040008170400080000000017040008A7
:1000F0001704000817040008170400081704000874
:100100001704000817040008170400081704000863
:100110001704000817040008D52100081704000878
:100120001704000817040008170400081704000843
:100130001704000817040008170400081704000833
:1001400000000000000000000000000000000000AF
:100150001704000817040008170400081704000813
:100160001704000817040008170400081704000803
:100170001704000817040008170400080000000016
:1001800017040008170400081704000817040008E3
:1001900017040008170400081704000817040008D3
:1001A00017040008170400081704000817040008C3
:1001B00017040008170400081704000817040008B3
:1001C00017040008170400081704000817040008A3
:1001D0001704000817040008170400081704000893
:1001E0001704000817040008170400081704000883
:1001F0001704000817040008170400081704000873
:100200001704000817040008170400081704000862
:100210001704000817040008170400081704000852
:100220001704000817040008170400080000000065
:100230001704000817040008000000001704000855
:100240001704000817040008170400081704000822
:100250001704000817040008170400081704000812
:100260001704000817040008170400081704000802
:100270001704000817040008170400080000000015
:100280001704000817040008170400080000000005
:10029000000000001704000800F002F800F03CF82D
:1002A0000AA090E8000C82448344AAF10107DA45D1
:1002B00001D100F031F8AFF2090EBAE80F0013F0E7
:1002C000010F18BFFB1A43F0010318473841000023
:1002D00058410000103A24BF78C878C1FAD85207B4
:1002E00024BF30C830C144BF04680C6070470000B0
:1002F0000023002400250026103A28BF78C1FBD82F
:10030000520728BF30C148BF0B6070471FB504F0CB
:1003100053F81FBD10B510BD00F05DF91146FFF791
:10032000F5FF01F0EAFF00F07BF903B4FFF7F2FFFD
:1003300003BC00F083F900002C4B19680868B0E892
:10034000F04F80F30988BFF36F8F4FF0000080F308
:10035000118870470000000008480068006880F3BA
:1003600008884FF0000080F3148862B661B6BFF3CE
:100370004F8FBFF36F8F00DF00BF00BF08ED00E0BD
:10038000DFF80C00016841F470010160704700BFA4
:1003900088ED00E0EFF30980BFF36F8F134B1A680D
:1003A0001EF0100F08BF20ED108A20E9F04F1060FA
:1003B00009B44FF0500080F31188BFF34F8FBFF3A3
:1003C0006F8F03F0F5F84FF0000080F3118809BC3F
:1003D00019680868B0E8F04F1EF0100F08BFB0ECC5
:1003E000108A80F30988BFF36F8F704728000024BC
:1003F000EFF30580704700000A4880470A488047AD
:100400000A480047FEE7FEE7FEE7FEE7FEE7FEE7F5
:10041000FEE7FEE7FEE7FEE705480649064A074B0A
:100420007047000059060008AD2000089902000836
:10043000280E012428140124281001242810012446
:10044000032A40F2308010F0030C00F0158011F800
:10045000013BBCF1020F624498BF11F801CB00F8D8
:10046000013B38BF11F8013BA2F1040298BF00F82C
:1004700001CB38BF00F8013B11F0030300F05780B7
:10048000083AC0F0088051F8043B083A51F804CB10
:10049000A0E80810F5E7121D5CBF51F8043B40F8D6
:1004A000043BAFF30080D20724BF11F8013B11F8E1
:1004B00001CB48BF11F8012B24BF00F8013B00F825
:1004C00001CB48BF00F8012B704702F0FF0343EA5D
:1004D000032242EA024200F05EB84FF0000200B58B
:1004E000134694469646203922BFA0E80C50A0E857
:1004F0000C50B1F12001BFF4F7AF090728BFA0E805
:100500000C5048BF0CC05DF804EB890028BF40F8D0
:10051000042B08BF704748BF20F8022B11F0804F12
:1005200018BF00F8012B704770477047704710B52F
:10053000203AC0F00B80B1E81850203AA0E81850DB
:10054000B1E81850A0E81850BFF4F5AF5FEA027C9C
:1005500024BFB1E81850A0E8185044BF18C918C00B
:10056000BDE810405FEA827C24BF51F8043B40F8AC
:10057000043B08BF7047D20728BF31F8023B48BF91
:1005800011F8012B28BF20F8023B48BF00F8012BCF
:1005900070474FF000020429C0F0128010F0030CE5
:1005A0003FF49DAFCCF1040CBCF1020F18BF00F872
:1005B000012BA8BF20F8022BA1EB0C01FFF78FBF86
:1005C0005FEAC17C24BF00F8012B00F8012B48BF73
:1005D00000F8012B7047754600F02CF8AE46050078
:1005E0006946534620F00700854618B020B5FFF74E
:1005F00013FFBDE820404FF000064FF000074FF01A
:1006000000084FF0000B21F00701AC46ACE8C00930
:10061000ACE8C009ACE8C009ACE8C0098D46704739
:1006200010B50446AFF300802046BDE81040FFF748
:100630007CBE000000487047C80D01240149182005
:10064000ABBEFEE726000200704700BFFEE7704722
:1006500072B600BFFEE700000748006840F00200E5
:100660000549086000BF04480838006800F40050DD
:100670000028F8D0704700000C480258F8B5024630
:100680000B4600216F4DD7E001278F401E6806EA18
:100690000704002C72D01E7906F00306012E04D048
:1006A0001E7906F00306022E13D190684F00032630
:1006B000BE40B0434F00DE68BE403043906050689B
:1006C00001268E40B0431E79C6F300168E4030439B
:1006D00050601E7906F00306032E09D0D0684F0043
:1006E0000326BE40B0434F009E68BE403043D060FA
:1006F0001E7906F00306022E13D1CF0802F1200660
:1007000056F827004E07F70E0F26BE40B0434F079E
:10071000FF0E1E69BE403043CF0802F1200646F8A6
:10072000270010684F000326BE40B0431E7906F034
:1007300003064F00BE40304310605E6806F440364A
:10074000002E78D000BF404E366846F002063E4F7D
:100750003E603E46366806F00206009600BF00BFC7
:100760003A4E8F0856F827008E07370F0F26BE40E7
:10077000B043374EB24202D100262EE05BE0354E48
:10078000B24201D1012628E0334EB24201D1022605
:1007900023E0324EB24201D103261EE0304EB24277
:1007A00001D1042619E02F4EB24201D1052614E0F2
:1007B0002D4EB24201D106260FE02C4EB24201D19D
:1007C00007260AE02A4EB24201D1082605E0294E4A
:1007D000B24201D1092600E00A268F073F0FBE4032
:1007E00030431A4E8F0846F827004FF0B046306865
:1007F000A0435E6806F4801606B120434FF0B04671
:1008000030607068A0435E6806F4001606B12043AD
:100810004FF0B04670606868A0435E6806F400362A
:1008200006B1204368602868A0435E6806F48036FD
:1008300006B120432860491C1E68CE40002E7FF47C
:1008400023AFF8BD80000058F44402580804005853
:10085000000002580004025800080258000C025818
:10086000001002580014025800180258001C0258C8
:100870000020025800240258024613690B400BB1B5
:10088000012000E00020704710B5426921EA020310
:1008900002EA010443EA0443836110BD0AB18161A5
:1008A00001E00B048361704701480068000C704749
:1008B0000010005C0148006870470000140000242C
:1008C00003480068034909780844014908607047F3
:1008D000140000241C00002410B5032000F04AF985
:1008E00000F08AFB10490968C1F303210F4A515CEB
:1008F00001F01F0120FA01F40B48006800F00F001E
:100900001146085C00F01F0024FA00F00849086056
:10091000084804600F2000F00FF808B1012010BD56
:1009200000F0BEF80020FAE718440258E843000837
:100930002400002420000024F0B58BB00446102CC5
:100940000AD200222146362000F0D6F8362000F0E8
:10095000BFF81C48046002E001200BB0F0BD00BFEE
:100960001948006840F01000174908600846006800
:1009700000F01000019000BF00BF02A903A800F022
:10098000CDFA089E1EB900F025FB054602E000F0F6
:1009900021FB45000D48B5FBF0F0471E0C480D4902
:1009A000086040F2E7310B48C160476000210161F7
:1009B000816001F066F818B9064801F09BF8CCE7B1
:1009C0000120CAE718000024E844025840420F0002
:1009D00000100040A80000244178154A1160144915
:1009E0000831096821F00101114A08321160121F13
:1009F00041681160017B0907C27A41EA0261827A8B
:100A000041EAC241427B41EA8241827B41EA424162
:100A1000C27B41EA0241427A41EA0221027A41EA7A
:100A2000420102781143024A083211607047000007
:100A300098ED00E000BF00BF00BFBFF35F8F00BFB5
:100A400000BF00BF0548006820F4803003490860FB
:100A500000200249703108607047000024ED00E07A
:100A600040F001010D4A11600C497039096841F4E8
:100A700080310A4A703A116000BF00BF00BFBFF367
:100A80004F8F00BF00BF00BF00BF00BF00BFBFF35C
:100A90006F8F00BF00BF00BF7047000094ED00E003
:100AA00008B500BF0948006840F002000749086027
:100AB0000846006800F00200009000BF00BF00225E
:100AC0000F21901E00F018F808BD0000F4440258F1
:100AD0000146084600280DDB00BF00BF00F01F03E1
:100AE00001229A4043099B0003F1E023C3F800214F
:100AF00000BF00BF00BF70472DE9F05F80460D4684
:100B0000164601F0DBFB074639462A46334601F01C
:100B10000700C0F1070ABAF1040F02D94FF0040A26
:100B200001E0C0F1070AD14600F1040ABAF1070F4B
:100B300002D24FF0000A01E0A0F1030AD4464FF0C0
:100B4000010A0AFA09FAAAF1010A0AEA020A0AFAE9
:100B50000CFA4FF0010B0BFA0CFBABF1010B0BEA9B
:100B6000030B4AEA0B042146404601F0AFFBBDE807
:100B7000F09F000000BF00F00702064B19684FF617
:100B8000FF031940044B0B4343EA0221014B196058
:100B900000BF70470CED00E00000FA0570B5044698
:100BA00015480068C0F3800048B91348006800F099
:100BB0000700A04201D0012070BD0020FCE70E48D4
:100BC000006820F0070020430B490860FFF772FE21
:100BD000054607E0FFF76EFE401BB0F57A7F01D9AE
:100BE0000120E9E7044808380068C0F340300028D5
:100BF000F0D00020E0E700000C4802582DE9F04159
:100C000004460D4614B90120BDE8F081BD480068D6
:100C100000F00F00A8420ED2BA48006820F00F0082
:100C20002843B84908600846006800F00F00A84251
:100C300001D00120E8E7207800F0040004280ED15C
:100C4000B1492069096801F07001884207D9AE48AE
:100C5000006820F0700021690843AB4908602078E3
:100C600000F00800082811D1A749091D606909682A
:100C700001F07001884209D9A348001D006820F0E6
:100C8000700061690843A049091D0860207800F0E0
:100C90001000102811D19C49091DA069096801F4B0
:100CA000E061884209D99848001D006820F4E0609E
:100CB000A16908439449091D0860207800F02000CC
:100CC000202811D190490831E069096801F07001CC
:100CD000884209D98C480830006820F07000E1692A
:100CE0000843894908310860207800F00200022892
:100CF0000ED18549E068096801F00F01884207D9E3
:100D00008148006820F00F00E16808437E490860D0
:100D1000207800F00100002850D07B48006820F4C3
:100D20007060A1680843784908606068022807D1AC
:100D3000754818380068C0F34040F8B9012063E7EF
:100D40006068032807D1704818380068C0F3406015
:100D5000A0B9012058E76068012807D16A4818380F
:100D60000068C0F3002048B901204DE766481838F4
:100D70000068C0F3800008B9012045E762480838E0
:100D8000006820F00700616808435F49083908607F
:100D9000FFF790FD064608E0FFF78CFD801B41F24F
:100DA0008831884201D903202EE757480838006867
:100DB00000F038006168B0EBC10FEDD1207800F091
:100DC000020002280ED15049E068096801F00F01C5
:100DD000884207D24C48006820F00F00E1680843C1
:100DE000494908604748006800F00F00A8420ED942
:100DF0004448006820F00F00284342490860084634
:100E0000006800F00F00A84201D00120FCE6207825
:100E100000F0040004280ED13B492069096801F064
:100E20007001884207D23848006820F070002169BC
:100E3000084335490860207800F00800082811D1DF
:100E40003149091D6069096801F07001884209D2C1
:100E50002D48001D006820F07000616908432A4990
:100E6000091D0860207800F01000102811D12649D3
:100E7000091DA069096801F4E061884209D222488D
:100E8000001D006820F4E060A16908431E49091DA7
:100E90000860207800F02000202811D11A4908317C
:100EA000E069096801F07001884209D216480830EB
:100EB000006820F07000E1690843134908310860B8
:100EC00000F09AF810490968C1F303210F4A515CF8
:100ED00001F01F0120FA01F70B48006800F00F0035
:100EE0001146085C00F01F0027FA00F0084908606E
:100EF0000848076008480068FFF71EFD8046404626
:100F000082E600000020005218440258E84300081E
:100F10002400002420000024180000243F22026046
:100F2000174A126802F007024260154A0832126836
:100F300002F470628260124A0832126802F00F02F4
:100F4000C2600F4A0832126802F0700202610C4A55
:100F50000C32126802F070024261094A0C321268C7
:100F600002F4E0628261064A1032126802F07002F6
:100F7000C261044A126802F00F020A607047000062
:100F8000104402580020005210B500F035F80D4909
:100F90000968C1F303210C4A515C01F01F0120FADA
:100FA00001F40848006800F00F001146085C00F0EA
:100FB0001F0024FA00F0054908600548046008464F
:100FC000006810BD18440258E843000824000024BB
:100FD0002000002400B5FFF7D7FF05490968C1F3D9
:100FE0000211044A515C01F01F01C84000BD00001D
:100FF0001C440258E8430008F0B5824E366806F0FB
:10100000380636B1082E15D0102E15D0182E7DD1E9
:1010100014E07C4E103E3668C6F3401646B1794E59
:10102000103E3668C6F3C107774E26FA07F000E097
:101030007548E5E07548E3E07548E1E0714E183623
:10104000366806F003046F4E18363668C6F305118D
:101050006C4E1C36366806F001056A4E243636683A
:10106000C6F3CC0616FB05F601EE106AB8EE410A8F
:10107000002971D024B1012C50D0022C6DD16DE02B
:10108000604E103E3668C6F340163EB35D4E103ECD
:101090003668C6F3C1075C4E26FA07F301EE103A34
:1010A000F8EE411A01EE101AB8EE411A81EE812ACB
:1010B0009FED581AC0EE011A524E20363668C6F31C
:1010C000080601EE106AB8EE411A31EE811AF7EE09
:1010D000001A31EE211A62EE010A1EE001EE101A2A
:1010E000B8EE411ADFED4C1A81EE812A9FED491AC4
:1010F000C0EE011A434E20363668C6F3080601EEEC
:10110000106AB8EE411A31EE811A00E076E0F7EE8F
:10111000001A31EE211A62EE010A5BE001EE101AAC
:10112000B8EE411A9FED3D2AC2EE011A9FED391A21
:1011300080EE012A334E20363668C6F3080601EEEB
:10114000106AB8EE411A32EE011AB7EE002A31EEFB
:10115000021A61EE810A3DE04EE01DE001EE101A38
:10116000B8EE411ADFED2E1A81EE812A9FED291A81
:10117000C0EE011A234E20363668C6F3080601EE8B
:10118000106AB8EE411A31EE811AF7EE001A31EE0C
:10119000211A62EE010A1DE001EE101AB8EE411AA2
:1011A0009FED1E2AC2EE011A9FED1A1A80EE012A47
:1011B000144E20363668C6F3080601EE106AB8EE03
:1011C000411A32EE011AB7EE002A31EE021A61EE30
:1011D000810A00BF00BF0B4E20363668C6F3462694
:1011E000721C01EE102AB8EE411AC0EE811ABCEE54
:1011F000E11A11EE100A00E0002001E0034800BFF0
:1012000000BFF0BD104402580090D00300093D001B
:1012100040787D01000000460024744C0024744A8C
:1012200020BCBE4B2DE9F047044614B90120BDE8AF
:10123000F087207800F00100002870D0FA4800689C
:1012400000F03808F8481830D0F80090B8F1100FC6
:1012500006D0B8F1180F0FD109F0030002280BD106
:10126000F14810380068C0F3404000286AD0606838
:10127000002867D10120DAE700BF6068B0F5803F41
:1012800008D1E9481038006840F48030E649103948
:1012900008602EE0606868B9E3481038006820F400
:1012A0008030E149103908600846006820F4802049
:1012B00008601EE06068B0F5A02F0DD1DA48103844
:1012C000006840F48020D84910390860084600685A
:1012D00040F4803008600CE0D3481038006820F4F7
:1012E0008030D149103908600846006820F4802019
:1012F000086000BF606898B1FFF7DCFA054606E0B9
:10130000FFF7D8FA401B642801D903208FE7C648AD
:1013100010380068C0F340400028F1D012E012E01D
:10132000FFF7C8FA054606E0FFF7C4FA401B642839
:1013300001D903207BE7BC4810380068C0F3404067
:101340000028F1D100BF207800F00200022874D1FB
:10135000B548006800F03808B3481830D0F800905D
:10136000B8F1000F05D0B8F1180F56D109F00300FD
:10137000D0BBAD4810380068C0F3800018B1E068F9
:1013800008B9012053E7A8481038006820F0190078
:10139000E1680843A44910390860FFF78BFA054655
:1013A00006E0FFF787FA401B022801D903203EE739
:1013B0009D4810380068C0F380000028F1D000BFBD
:1013C000FFF772FA41F2030188421AD820694028D7
:1013D0000BD195480C38006820F47C3040F4003084
:1013E00091490C39086017E017E08F480C38006805
:1013F00020F47C30216940EA01308B490C390860C7
:101400000AE089480C38006820F0FE40217C40EA60
:10141000016085490C39086066E0E06888B382485D
:101420001038006820F01900E16808437E4910393F
:101430000860FFF73FFA054607E056E0FFF73AFA83
:10144000401B022801D90320F1E6774810380068D4
:10145000C0F380000028F1D000BFFFF725FA41F269
:10146000030188421AD8206940280BD16E480C38F5
:10147000006820F47C3040F400306B490C3908607F
:1014800017E017E068480C38006820F47C302169C8
:1014900040EA013064490C3908600AE062480C38BF
:1014A000006820F0FE40217C40EA01605E490C3972
:1014B000086019E05C481038006820F001005A49C3
:1014C00010390860FFF7F6F9054606E0FFF7F2F974
:1014D000401B022801D90320A9E6534810380068B0
:1014E000C0F380000028F1D100BF207800F0100088
:1014F00010287CD14C48006800F038084A48183061
:10150000D0F80090B8F1080F06D0B8F1180F3DD10F
:1015100009F00300012839D1434810380068C0F3AE
:10152000002020B1E069802801D001207FE600BFC3
:10153000FFF7BAF941F2030188421AD8206A20283D
:101540000AD139480C38006820F0F84040F080405B
:1015500035490C39086018E033480C38006820F031
:10156000F84094F8201040EA81602F490C39086057
:101570000BE02D48001F006820F07C5094F82010EC
:1015800040EA01602849091F086066E0E06978B315
:1015900025481038006840F0800023491039086061
:1015A000FFF788F9054606E0FFF784F9401B02289B
:1015B00001D903203BE61C4810380068C0F3002026
:1015C0000028F1D000BFFFF76FF941F20301884214
:1015D0001CD8206A20280CD113480C38006820F051
:1015E000F84040F0804010490C3908601AE035E0BE
:1015F0001CE00D480C38006820F0F84094F82010EA
:1016000040EA816008490C3908600BE00648001F79
:10161000006820F07C5094F8201040EA01600249F4
:10162000091F086019E0000010440258FA480068D9
:1016300020F08000F8490860FFF73CF9054606E015
:10164000FFF738F9401B022801D90320EFE5F248E3
:101650000068C0F300200028F2D100BF207800F01D
:101660000800082836D16069D0B1EB4874300068B2
:1016700040F00100E84974310860FFF71BF90546A6
:1016800006E0FFF717F9401B022801D90320CEE539
:10169000E14874300068C0F340000028F1D019E040
:1016A000DD487430006820F00100DB4974310860C7
:1016B000FFF700F9054606E0FFF7FCF8401B02289B
:1016C00001D90320B3E5D44874300068C0F340006A
:1016D0000028F1D1207800F02000202830D1A06926
:1016E000B8B1CD48006840F48050CB490860FFF79E
:1016F000E1F8054606E0FFF7DDF8401B022801D9B6
:10170000032094E5C4480068C0F340300028F2D0BC
:1017100016E0C148006820F48050BF490860FFF718
:10172000C9F8054606E0FFF7C5F8401B022801D9B5
:1017300003207CE5B8480068C0F340300028F2D1AF
:10174000207800F0040004287DD1B448006840F4FB
:101750008070B2490860FFF7ADF8054606E0FFF774
:10176000A9F8401B642801D9032060E5AB48006854
:1017700000F480700028F2D000BFA068012808D1D2
:10178000A5487030006840F00100A349703108603E
:101790002DE0A06868B9A0487030006820F0010012
:1017A0009D49703108600846006820F00400086018
:1017B0001DE0A06805280DD197487030006840F002
:1017C00004009549703108600846006840F0010047
:1017D00008600CE090487030006820F001008E49ED
:1017E000703108600846006820F00400086000BFFF
:1017F000A068A0B1FFF75EF8054608E0FFF75AF8C9
:10180000401B41F28831884201D903200FE582480C
:1018100070300068C0F340000028EFD013E0FFF7FD
:1018200049F8054608E0FFF745F8401B41F28831CA
:10183000884201D90320FAE4774870300068C0F389
:1018400040000028EFD1606A00287DD07248103037
:10185000006800F03800182877D0606A022875D137
:101860006D48006820F080706B490860FFF722F82F
:10187000054606E0FFF71EF8401B022801D90320A9
:10188000D5E465480068C0F340600028F2D100BF8D
:10189000D4E90A1041EA00105F492831096840F292
:1018A000F332914308435C4928310860208E401E82
:1018B000C0F30800616B491E4FF47E4202EA4121E9
:1018C0000843218F491ED20102EA014108433C210D
:1018D000095D491E120202EA016108434E49303196
:1018E000086000BF081F006820F00100091F0860A1
:1018F0004948343000684FF6F8718843A16C40EADB
:10190000C10045493431086043482C30006820F05C
:101910000C00216C084340492C31086008460068DF
:1019200020F00200616C08433B492C3108600846F6
:10193000006840F4803008600846006840F40030D9
:1019400008600846006802E093E038E01FE040F4D9
:10195000802008600846006840F0010008602E48BA
:10196000006840F080702C490860FEF7A3FF054630
:1019700006E0FEF79FFF401B022801D9032056E432
:1019800025480068C0F340600028F2D071E022488A
:10199000006820F0807020490860FEF78BFF054644
:1019A00006E0FEF787FF401B022801D903203EE432
:1019B00019480068C0F340600028F2D159E0164889
:1019C00028300768144830300668606A012821D042
:1019D00007F00301A06A81421CD1C7F30511E06A38
:1019E000884217D1C6F30801206B401E814211D1F5
:1019F000606B401EC6F3462188420BD1A06B401E8F
:101A0000C6F30641884205D1E06B401EC6F306616D
:101A1000884205D001200AE40044025800480258D8
:101A200015480068C0F3CC07A06CB84221D012481A
:101A30000838006820F001000F4908390860FEF7F7
:101A400039FF054600BFFEF735FF401BFBD00A48B3
:101A500000684FF6F8718843A16C40EAC10006495E
:101A6000086005480838006840F00100024908395C
:101A7000086000204AE40000344402587047704770
:101A8000704710B504460CB9012010BD94F83D0014
:101A900028B9002084F83C00204600F029F80220F4
:101AA00084F83D00211D206800F09CFB012084F893
:101AB000480000BF84F83E0001213F20015540202E
:101AC000015541200155422001554320015500BFD9
:101AD00000BF012084F844004520015546200155EF
:101AE0004720015500BF012084F83D000020CCE7CD
:101AF00070470000014691F83D00012801D0012007
:101B00007047022081F83D000868C06840F001007D
:101B10000B68D8601C4B086898421BD00868B0F16D
:101B2000804F17D0194B0868984213D0184B08689B
:101B300098420FD0174B086898420BD0164B086894
:101B4000984207D0154B0868984203D0144B086898
:101B5000984210D108688068124B00EA0302062AF6
:101B60000FD0B2F5803F0CD00868006840F001004B
:101B70000B68186005E00868006840F001000B6819
:101B800018600020BCE70000000001400004004095
:101B900000080040000C0040000401400018004014
:101BA0000040014007000100704770B504462068FE
:101BB000C6682068056905F00200022819D106F000
:101BC0000200022815D1401F2168086101202077FA
:101BD0002068806900F0030018B12046FFF7E4FF99
:101BE00005E0204600F0ADF8204600F0ABF80020FC
:101BF000207705F00400042819D106F00400042819
:101C000015D1C043216808610220207720688069CF
:101C100000F4407018B12046FFF7C6FF05E02046EB
:101C200000F08FF8204600F08DF80020207705F0B6
:101C30000800082819D106F00800082815D1C0436B
:101C400021680861042020772068C06900F0030043
:101C500018B12046FFF7A8FF05E0204600F071F814
:101C6000204600F06FF80020207705F010001028C3
:101C700019D106F01000102815D1C0432168086161
:101C8000082020772068C06900F4407018B1204611
:101C9000FFF78AFF05E0204600F053F8204600F0E9
:101CA00051F80020207705F0010048B106F001004E
:101CB00030B16FF0010021680861204600F044F85F
:101CC00005F08000802804D005F40050B0F5005FD6
:101CD0000AD106F08000802806D16FF402502168F6
:101CE00008612046FFF7CBFE05F48070B0F5807FD9
:101CF0000AD106F08000802806D16FF48070216838
:101D000008612046FFF7BAFE05F04000402809D1DF
:101D100006F04000402805D1C043216808612046F4
:101D200000F01EF805F02000202809D106F0200060
:101D3000202805D1C043216808612046FFF7A0FE96
:101D400070BD70477047000010B504460349206815
:101D5000884201D1FEF7B4FD10BD00000010004024
:101D6000704700BFFEE71FB5002000900190029071
:101D70000390FEF75FFE01208DF8000000208DF833
:101D8000010001901F208DF8080087208DF80900C0
:101D900000208DF80A008DF80B0001208DF80C0052
:101DA0008DF80D0000208DF80E008DF80F006846AC
:101DB000FEF712FE0420FEF753FE1FBD1CB5094AB4
:101DC0000021094800F0FEFA084908600848182177
:101DD00000234FF48072CDE9001006A1084802F0FC
:101DE00005F81CBDC44300082D1F00081000002486
:101DF0000000002453746172745461736B0000001E
:101E0000391F000800B587B0142102A8FEF765FB52
:101E100000BF2848006840F00400264908600846D2
:101E2000006800F00400019000BF00BF00BF08463A
:101E3000006840F0800008600846006800F08000FC
:101E4000019000BF00BF00BF0846006840F00100DD
:101E500008600846006800F00100019000BF00BF64
:101E600000BF0846006840F00200086008460068AD
:101E700000F00200019000BF00BF002203210E48C5
:101E8000FEF70CFD02200290002003900220049037
:101E900002A90A48FEF7F2FB0320029001200390FA
:101EA00000200490059002A90348FEF7E7FB07B065
:101EB00000BD0000E044025800040258000002582F
:101EC00000BFFEE700BF4FF47A7000F026FA02214F
:101ED0000148FEF7D9FCF6E70004025800BF4FF4B2
:101EE0007A7000F01AFA01210148FEF7CDFCF6E7FE
:101EF0000004025800BF0A2000F00FFA022108482F
:101F0000FEF7BAFC0128F6D1064800680028F2D096
:101F10000448006801F036FA002002490860EAE748
:101F2000000002580800002400BFFEE700BF4FF485
:101F30007A7000F0F2F9FAE71CB5044601F0CEF829
:101F40001348182100234FF48072CDE9001011A12D
:101F5000124801F04BFF1248182100234FF4807201
:101F6000CDE900100FA1114801F040FF10481821E1
:101F700000234FF48072CDE900100EA10F4801F04C
:101F800035FF01F0D5F80E48006801F0FBF91CBDE3
:101F9000040000244D795461736B0000C51E0008D5
:101FA000080000244D795461736B3200DD1E000877
:101FB0000C0000244D795461736B3300F51E00084A
:101FC0000000002410B54FF0E020006901F09EFFF2
:101FD000012801D001F0E8FB10BD000000B59DB064
:101FE0004C210AA8FEF779FA202102A8FEF775FA1B
:101FF0000220FEF7D3FD00BF0020019029480068B1
:1020000040F44040274908600846006800F440401A
:1020100001902548006840F0010023490860084607
:10202000006800F00100019000BF00BF00BF1D4824
:10203000006800F40050B0F5005FF8D101200A906C
:1020400000040B9002201390022114910521159198
:10205000C0211691022117911891199108211A9106
:1020600000211B911C910AA8FFF7DCF808B1FEF7CC
:10207000EFFA3F20029003200390002004900820F4
:10208000059040200690079000010890402009909C
:10209000042102A8FEF7B2FD08B1FEF7D9FA1DB07F
:1020A00000BD0000184802582C0400583F48006842
:1020B00040F470003D4908603D48006800F00F00A2
:1020C000072806D23A48006820F00F00C01D3849A2
:1020D00008603848006840F0010036490860002078
:1020E00034491031086033480068334908403149A9
:1020F00008602F48006800F00F00072806D92C4818
:10210000006820F00F00C01D2949086000202949FF
:1021100018310860091D0860091D08602748254915
:10212000283108602648091D08602648091D0860F6
:102130000020091D08602348091D08600020091DB2
:1021400008602048091D08600020091D0860194822
:10215000006820F48020174908600020154960318C
:102160000860194800686FF30F00B0F1005F02D2F9
:102170000120164908600F48D430006800F48050F0
:1021800098B90C48D430006840F480500949D431E3
:10219000086043F2D2000E4908600648D430006857
:1021A00020F480500349D4310860704788ED00E086
:1021B00000200052004402587FEDF6EA00020202BD
:1021C0000000FF01800201010010005C0881005145
:1021D0000040005210B50248FFF7E7FC10BD0000B8
:1021E000A800002410B502682B4B98420ED0B0F125
:1021F000804F0BD0294B984208D0294B984205D0EC
:10220000284B984202D0284B984203D122F070020A
:102210004B681A43204B984217D0B0F1804F14D02E
:102220001E4B984211D01E4B98420ED01D4B984227
:102230000BD01D4B984208D01C4B984205D01C4B2C
:10224000984202D01B4B984203D122F44072CB68D3
:102250001A4322F080034C6943EA04028B68C3628C
:102260000B6883620C4B98420BD00F4B984208D0FE
:102270000E4B984205D00E4B984202D00D4B98421F
:1022800001D10B690363036843F004030360012376
:102290004361026010BD00000000014000040040E6
:1022A00000080040000C00400004014000400140D4
:1022B000004401400048014000BFFEE702480068BA
:1022C000C0F30220704700000CED00E010B50028BC
:1022D00004DB0A07130E054A135406E00A07140E1E
:1022E000034A00F00F031B1FD45410BD00E400E0AC
:1022F00018ED00E0EFF305807047FFF734FDFEF7BF
:10230000EBFAFFF76BFEFFF77DFD00F015F8FFF726
:1023100055FD00F027F800BFFEE770B50546FFF752
:10232000E9FF10B16FF0050404E0002415B1284660
:1023300000F0FAFF204670BD10B5FFF7DBFF10B1CB
:102340006FF0050409E00648006820B9012004493F
:102350000860002401E04FF0FF34204610BD00006B
:102360007800002470B5FFF7C5FF10B16FF00504C9
:102370001FE011480068012819D100BF801F00210B
:10238000002804DB0A07130E0C4A135406E00A0760
:10239000150E0B4A00F00F031B1FD55400BF00BFE2
:1023A00002200549086001F09FF8002401E04FF089
:1023B000FF34204670BD00007800002400E400E0F7
:1023C00018ED00E02DE9FF478046894614460020BD
:1023D0000390FFF78FFF00284ED1B8F1000F4BD0CC
:1023E000802618258246471E44B3206808B1D4F8D9
:1023F00000A0A06900B1A5692DB1382D03D82079BE
:1024000000F0010018B1002004B0BDE8F087606959
:1024100008B160698608A06840B1E0685C2805D30F
:10242000206918B1606908B1012708E0A06830B9D7
:10243000E06820B9206910B9002700E00027012FCB
:102440000CD12169A0684B463246CDE9005102907B
:102450005146404601F0FCFC03900DE067B903A82B
:10246000B2B24B465146CDE90050404601F0BEFCA9
:10247000012801D0002003900398C5E72DE9F04121
:1024800005460E461648076816480068001D00F00D
:10249000C3FD681C38B936B112480168091D1248DD
:1024A00000F010FE1AE07C190E4800684460BC423F
:1024B00007D20C480168091D0C48006800F0E8FDCF
:1024C0000CE008480168091D0948006800F0E0FDBB
:1024D00008480068844201D206480460BDE8F081E3
:1024E0003C00002428000024E405002430000024DF
:1024F0002C0000245800002410B5044600F0EEFD26
:1025000024480068401C234908602348006840B9FB
:10251000214804600846006801280DD100F0FCF94C
:102520000AE01E48006838B91B480068C06AE16AC2
:10253000884201D81848046019480068401C1849AE
:1025400008600846006860641649E06A09688842C5
:1025500002D91449E06A0860E16A01EB8101124A7C
:1025600002EB8100211D00F0ADFD00F0E1FD0B4804
:10257000006868B108480068C06AE16A884207D20A
:102580004FF0805009490860BFF34F8FBFF36F8F42
:1025900010BD00003800002428000024440000245E
:1025A00054000024400000243401002404ED00E025
:1025B00008B500F093FD12480068E8B9114800F032
:1025C00057FD114800F054FD0E48104908600E48B0
:1025D0000F49086000200F4B0F4A102100900A207D
:1025E00001F0FCF8064908600846006820B10BA11C
:1025F0000348006800F05CFE00F09AFD08BD000092
:102600006C000024F80500240C060024640000245B
:10261000680000242006002470060024546D7251C6
:102620000000000010B516E000F058FD0C48C0682E
:10263000C468201D00F0F0FC0A480068401E0949EB
:10264000086009480068401E0749086000F070FDF6
:10265000204600F05FF8044800680028E4D110BD6F
:10266000D0050024380000243400002470B504464E
:102670000D46206C70B1216CE0680144E160D4E942
:102680000210884201D32168E1602846226CE1688B
:10269000FDF7D6FE70BD2DE9F04104460F46154604
:1026A0004FF00008A66B206C48B9206800282CD198
:1026B000A06801F0E3FC80460020A06025E07DB921
:1026C0003946226C6068FDF7BBFE216C60680844E7
:1026D0006060D4E90101884217D32068606014E08B
:1026E0003946226CE068FDF7ABFE216CE068411AC8
:1026F000E1602168E068884203D2216CA068411A39
:10270000E160022D01D106B1761E701CA063404627
:10271000BDE8F08110B5044694F8590030B9206B3B
:1027200000F024FD204600F021FD1AE094F8590045
:10273000012803D1204600F019FD12E094F8590059
:10274000022801D1012000E0002050B900BF502034
:1027500080F31188BFF34F8FBFF36F8F00BF00BFAF
:10276000FEE710BD0146084A126812680AB9012244
:1027700000E000220A600A6822B9034A1268D2689F
:10278000106800E0002070476400002430B54FF46A
:102790008033174800F007042CB1C01D20F007005B
:1027A000134C041B1B1B0246124C22600024114DCB
:1027B0006C60D018083820F007000F4C206000240F
:1027C0000D4D2D686C600C4D2D682C601146441A1F
:1027D0004C60094C24680C60084D4C682C60084D16
:1027E0004C682C604FF00044064D2C6030BD00005A
:1027F000C80D00247C000024840000248C000024E8
:10280000880000249800002400BFFFF70BFF064853
:1028100000680128F9D94FF0805004490860BFF3DF
:102820004F8FBFF36F8FF0E73401002404ED00E019
:102830002DE9F04106460D4617469846069C0DB90F
:10284000246000E02760E66325640121204601F052
:1028500035F884F84C80BDE8F0812DE9F05F8246C0
:102860000E4690469B460A9F0C9C4FEA8801A52283
:10287000206BFDF72AFEA8F10100216B01EB800916
:1028800029F0070909F0070008B9012000E000203D
:1028900050B900BF502080F31188BFF34F8FBFF3B2
:1028A0006F8F00BF00BFFEE786B1002507E0715DB6
:1028B00004F134004155705D00B902E06D1C102D2B
:1028C000F5D300BF00214320015502E0002084F829
:1028D0003400382F00D33727E762E76400202065F3
:1028E000201D00F0D2FB04F1180000F0CEFB2461A3
:1028F000C7F13800A06164620020606584F8580068
:102900005A465146484600F071FB20600B9808B1CA
:102910000B980460BDE8F09F10B5002407E004EBBD
:1029200084010F4A02EB810000F0A2FB641C382CEA
:10293000F5D30C4800F09CFB0B4800F099FB0B48CA
:1029400000F096FB0A4800F093FB0A4800F090FB69
:1029500004480949086004480849086010BD00009F
:102960003401002494050024A8050024BC0500249B
:10297000D0050024E40500242C00002430000024AD
:1029800010B50146164800E0006803688B42FBD38F
:102990000246436813448B4204D143684C68234485
:1029A000436001460A464B6813440468A34211D1B0
:1029B0000C4C03682468A34208D04B680468646820
:1029C00023444B6003681B680B6005E0054B1B68E4
:1029D0000B6001E003680B60884200D0016010BD0D
:1029E0007C000024840000242DE9F04104460D46BB
:1029F00016461F464FF0000865602461B5420CD8AA
:102A0000F01BA169884202D34FF0010811E0211D9B
:102A10000948006800F03CFB0BE0BE4204D2BD4216
:102A200002D34FF0010804E0211D0448006800F0C3
:102A30002FFB4046BDE8F0816800002464000024BC
:102A400070B5054600F04AFBA86B08B9012400E008
:102A5000002400F06DFB204670BD70B5054600F007
:102A60003DFBA86BE96B884201D1012400E0002402
:102A700000F05EFB204670BDF8B505460F461A48CB
:102A80000068C068C468201D00F0C6FA94F82800E9
:102A900000F00400E8B1A06941192B463A462046EF
:102AA000FFF7A2FFD8B1002003462A460146009056
:102AB000204601F03FFC064656B900BF502080F387
:102AC0001188BFF34F8FBFF36F8F00BF00BFFEE7CA
:102AD00005E094F8280020F0010084F82800204642
:102AE000216A8847F8BD000064000024F0B587B073
:102AF000A0E00398002811DA04AE56B900BF5020B8
:102B000080F31188BFF34F8FBFF36F8F00BF00BFFB
:102B1000FEE7D6E90020B168904700BF039800287F
:102B2000E6DB059C606908B9012000E0002010B9CF
:102B3000201D00F071FA02A800F0DEF805460398A7
:102B40000A2875D2DFE800F0090507394163060855
:102B50003A4200BF00BF00BF00BF94F8280040F019
:102B6000010084F828000498A269811803462A46C7
:102B70002046FFF739FFF8B12046216A884794F8CC
:102B8000280000F00400B8B1002000900498A1696A
:102B9000421800231946204601F0CCFB074657B9DE
:102BA00000BF502080F31188BFF34F8FBFF36F8FAA
:102BB00000BF00BFFEE700BF3BE000BF94F8280065
:102BC00020F0010084F8280033E000BF94F82800CA
:102BD00040F0010084F828000498A061A06908B1C1
:102BE000012000E0002050B900BF502080F3118880
:102BF000BFF34F8FBFF36F8F00BF00BFFEE7A06929
:102C000041192B462A462046FFF7EEFE11E094F8C4
:102C1000280000F0020018B9204600F0A7FA05E0ED
:102C200094F8280020F0010084F8280001E0FFE774
:102C300000BF00BF002203A90448006800F0DCFFC9
:102C400000287FF456AF07B0F0BD00006C000024F0
:102C5000F8B505460C4600F0A3FC684600F04CF8B9
:102C60000646009820BB44B9B54206D801F0A4FA44
:102C700031462846FFF700FF1CE03CB10E480068D3
:102C8000006808B9012000E000200446A91B224684
:102C90000A48006800F022FB01F08EFA50B94FF0AC
:102CA000805007490860BFF34F8FBFF36F8F01E07B
:102CB00001F082FAF8BD0000680000246C000024D6
:102CC00004ED00E00A490968096809B9012100E03A
:102CD000002121B14FF0FF31064A116006E004499E
:102CE0000968C968C868034A4168116070470000F4
:102CF0002C0000245800002470B5044601F016F999
:102D0000054607480068854204D200F00BF8012010
:102D1000206001E00020206001480560284670BD69
:102D2000740000242DE9F84334E025480068C068A9
:102D3000056823480068C068C468201D00F06CF96D
:102D40002046216A884794F8280000F0040008B360
:102D5000A0694619AE4207D966602461211D184852
:102D6000006800F095F915E0002003462A46014668
:102D70000090204601F0DEFA074657B900BF502008
:102D800080F31188BFF34F8FBFF36F8F00BF00BF79
:102D9000FEE700BF0A480068006808B9012000E0AB
:102DA00000200028C1D00648D0F8008005480068FF
:102DB000034908600348C0F80080BDE8F8830000BC
:102DC00064000024680000240E480068401C08B914
:102DD000012000E0002050B900BF502080F311888E
:102DE000BFF34F8FBFF36F8F00BF00BFFEE700BF81
:102DF000502080F31188BFF34F8FBFF36F8F00BF58
:102E000000BFFEE79C00002408B500BF6846FFF73E
:102E1000A9FC044620460099FFF71AFFFFF766FE5B
:102E2000F4E770B5044600F059F994F9455010E004
:102E3000606A08B9012000E0002038B904F12400DC
:102E400001F06EF918B100F00DFB00E003E0681E20
:102E500045B2002DECDC00BFFF2084F8450000F0F7
:102E600067F900F03BF994F9445010E0206908B983
:102E7000012000E0002048B904F1100001F050F9F1
:102E800008B100F0EFFA681E45B200E001E0002D45
:102E9000ECDC00BFFF2084F8440000F049F970BD6D
:102EA0002DE9F04104464FF0000800F079FB494855
:102EB000006808B9FFF76AFC47480068204000280E
:102EC00070D1D4B1083404F00700B0B104F00700A9
:102ED000C0F10800044404F0070008B9012000E034
:102EE000002050B900BF502080F31188BFF34F8FEE
:102EF000BFF36F8F00BF00BFFEE7002C52D03748F2
:102F0000006884424ED8364E3046056801E02E46B1
:102F10002D686868A04202D228680028F7D12D48A1
:102F2000006885423ED0306800F1080828683060AB
:102F30006868001B102819D92F1907F0070008B975
:102F4000012000E0002050B900BF502080F311881C
:102F5000BFF34F8FBFF36F8F00BF00BFFEE76868FE
:102F6000001B78606C603846FFF70AFD1B496868F3
:102F70000968081A1949086008460068194909686B
:102F8000884203D2154800681649086012496868EB
:102F90000968084368600020286013480068401CE6
:102FA0001149086001F008F908F0070008B901208C
:102FB00000E0002050B900BF502080F31188BFF31B
:102FC0004F8FBFF36F8F00BF00BFFEE74046BDE8E5
:102FD000F081000084000024980000248800002470
:102FE0007C0000248C00002490000024001F4FF07F
:102FF00080730360001F21F001030360001F054B75
:10300000036014380260001F6FF002030360203871
:1030100070470000C92D000801460A69D1E9013056
:103020009860D1E9010358605068884201D18868EE
:103030005060002008611068401E106010687047E2
:10304000034B0360034B0B60802313607047000049
:10305000100700246C070024034B0360034B0B6034
:103060004FF48073136070476C090024C809002472
:1030700000F1080141604FF0FF31816000F108016B
:10308000C16001610021016070470021016170474A
:1030900010B502460B685C1C0CB9106907E002F120
:1030A000080000E04068446824689C42FAD94468FB
:1030B0004C604C68A160886041600A611468641CBF
:1030C000146010BD42684A6093688B6093685960D1
:1030D0009160086103685B1C0360704700BF50206B
:1030E00080F31188BFF34F8FBFF36F8F00BF0E487F
:1030F0000068401C0C49086008460068012812D18D
:103100000A480068C0B208B9012000E0002050B9A8
:1031100000BF502080F31188BFF34F8FBFF36F8F34
:1031200000BF00BFFEE770479C00002404ED00E0F4
:103130000D48006850B900BF502080F31188BFF3DC
:103140004F8FBFF36F8F00BF00BFFEE706480068D8
:10315000401E054908600846006820B9002080F339
:10316000118800BF00BF70479C00002470B5064660
:103170003546002E44D0083D2C4622496068096837
:10318000084008B1012000E0002050B900BF5020E5
:1031900080F31188BFF34F8FBFF36F8F00BF00BF65
:1031A000FEE7206808B9012000E0002050B900BF08
:1031B000502080F31188BFF34F8FBFF36F8F00BF94
:1031C00000BFFEE70F49606809680840C0B1206889
:1031D000B0B90C49606809688843606000F0E0F9A4
:1031E0000949606809680844074908602046FFF7F4
:1031F000C7FB06480068401C0449086000F0DCFF7B
:1032000070BD000098000024880000249400002471
:1032100000204FF0E02108618861064800684FF403
:103220007A71B0FBF1F0401E4FF0E02148610720B9
:10323000086170472000002470B5FDF7D9F80446F6
:10324000102C16D304F1E02090F8F05315480078C4
:10325000854201DB012000E0002050B900BF502072
:1032600080F31188BFF34F8FBFF36F8F00BF00BF94
:10327000FEE70D48006800F4E0600C4909688842E8
:1032800001D8012000E0002050B900BF502080F399
:103290001188BFF34F8FBFF36F8F00BF00BFFEE7F2
:1032A00070BD0000A00000240CED00E0A40000248C
:1032B000024600200BE0084B53F8303033B9064B80
:1032C00043F8301003EBC0035A6002E0401C0828AA
:1032D000F1D300BF70470000F40000242DE9F04155
:1032E00005460E4617462C46FFF7F8FE94F94400B3
:1032F000401C10B9002084F8440094F94500401C9B
:1033000010B9002084F84500FFF712FFA06B28B920
:103310003A46314604F1240000F0C6F82046FFF793
:1033200080FDBDE8F081000070B504460025D4B1F1
:103330001248006808B9012000E0002050B900BF21
:10334000502080F31188BFF34F8FBFF36F8F00BF02
:1033500000BFFEE700F024F900212046FFF78EF8B9
:1033600000F02AFF05463DB94FF08050044908603F
:10337000BFF34F8FBFF36F8F70BD0000600000245C
:1033800004ED00E070B50546FFF7A8FE15B9274823
:10339000006800E028460446201DFFF73DFEA06AB5
:1033A00018B104F11800FFF737FE21480068401CEF
:1033B0001F4908601D480068844209D1211D1D482D
:1033C000FFF780FE1C480068401C1B49086009E0AC
:1033D0001A480068401E194908602046FFF79AF90C
:1033E000FFF770FCFFF7A4FE15480068E8B10F482E
:1033F0000068844219D11348006808B9012000E030
:10340000002050B900BF502080F31188BFF34F8FC8
:10341000BFF36F8F00BF00BFFEE74FF080500A4937
:103420000860BFF34F8FBFF36F8F70BD280000247B
:1034300054000024D0050024340000243800002467
:10344000440000246000002404ED00E00349096802
:103450000160034909684160704700005000002482
:103460003C00002401200149086070474C00002402
:1034700070B504460D4654B900BF502080F3118842
:10348000BFF34F8FBFF36F8F00BF00BFFEE705484C
:10349000016818312046FFF7FBFD01212846FEF7A1
:1034A000EDFF70BD2800002470B505460E46144699
:1034B00055B900BF502080F31188BFF34F8FBFF381
:1034C0006F8F00BF00BFFEE706480168183128462D
:1034D000FFF7F8FD0CB14FF0FF3621463046FEF7FE
:1034E000CDFF70BD2800002410B586B000200590E7
:1034F000049003AA04A905A8FFF7A2FD0022DDE9B4
:1035000004101346CDE9002102901EA11F48039A22
:1035100000F09EFC1E4908600846006808B10124BE
:1035200000E00024012C02D100F0C8FE0446012C6A
:1035300015D100BF502080F31188BFF34F8FBFF328
:103540006F8F00BF4FF0FF30124908600120124911
:10355000086000201149086000F072F810E0601C5B
:1035600008B1012000E0002050B900BF502080F3D6
:103570001188BFF34F8FBFF36F8F00BF00BFFEE70F
:1035800006B010BD49444C45000000000928000861
:103590005C00002458000024440000243C00002467
:1035A00002480068401C0149086070476000002420
:1035B0001E48006818B101201D49086034E0002051
:1035C0001B4908601B4801680CE051B900BF50203E
:1035D00080F31188BFF34F8FBFF36F8F00BF00BF21
:1035E000FEE7491E01EB8100134A52F8200008B99A
:1035F000012000E000200028E7D101EB81020E4B02
:1036000003EB820042685268426000F1080243689E
:10361000934202D14268526842604268D268074BC6
:103620001A600448016000BF704700006000002479
:103630004C00002440000024340100242800002411
:103640001CB5524800685249884201D0012000E070
:10365000002050B900BF502080F31188BFF34F8F76
:10366000BFF36F8F00BF00BFFEE7484800684849BE
:10367000491E884201D0012000E0002050B900BF5F
:10368000502080F31188BFF34F8FBFF36F8F00BFBF
:1036900000BFFEE73F49084600780190FF200A4638
:1036A00010700846007800909DF8000000F0F000CF
:1036B0009DF80020904201D1012000E0002050B987
:1036C00000BF502080F31188BFF34F8FBFF36F8F7F
:1036D00000BF00BFFEE79DF8000000F050002E4A3A
:1036E000107007202D4A106009E02C480068401E29
:1036F0002A4A10609DF800004006000E00909DF8D8
:10370000000000F080008028EFD024480068C0F15D
:103710000700042801D1012000E0002050B900BFBB
:10372000502080F31188BFF34F8FBFF36F8F00BF1E
:1037300000BFFEE7194800680002184A10601046F2
:10374000008800F4E0601060124A019810700F4881
:103750002030006840F470000C49203108600846B1
:10376000006840F070400860FFF752FD00200C49EF
:103770000860FCF705FE0B48006840F0404009492E
:103780000860FCF7E9FD00201CBD000000ED00E032
:1037900071C20F4100E400E0A0000024A400002456
:1037A0009C00002434EF00E010B500BF502080F3EF
:1037B0001188BFF34F8FBFF36F8F00BF00F0BCFBCA
:1037C00018B14FF080500449086000BF002080F31A
:1037D000118800BF10BD000004ED00E02DE9F843A2
:1037E00080460E4617461D46DDF82090B8F1000FC2
:1037F00001D0012000E0002050B900BF502080F32C
:103800001188BFF34F8FBFF36F8F00BF00BFFEE77C
:103810000DB1012000E0002050B900BF502080F31E
:103820001188BFF34F8FBFF36F8F00BF00BFFEE75C
:1038300007B10EB1012000E0002050B900BF5020B8
:1038400080F31188BFF34F8FBFF36F8F00BF00BFAE
:10385000FEE707B90EB9012000E0002050B900BF13
:10386000502080F31188BFF34F8FBFF36F8F00BFDD
:1038700000BFFEE7502000900098502801D10120A1
:1038800000E0002050B900BF502080F31188BFF342
:103890004F8FBFF36F8F00BF00BFFEE700BF2C4606
:1038A0004CB1012084F846004B463A46314640462A
:1038B0000094FEF7BDFF2046BDE8F88370B50546CD
:1038C0000E462C4654B900BF502080F31188BFF338
:1038D0004F8FBFF36F8F00BF00BFFEE7FFF7FEFB08
:1038E000D4E90F12206801FB0200A0600020A06351
:1038F00020686060E06B401E226C216800FB0211B2
:10390000E160FF2084F8440084F845009EB92069F6
:1039100008B9012000E00020A8B904F1100000F06F
:10392000FFFB80B14FF0805009490860BFF34F8F13
:10393000BFF36F8F07E004F11000FFF799FB04F16C
:103940002400FFF795FBFFF7F3FB012070BD00009B
:1039500004ED00E02DE9FF4383B0064688461D468E
:103960004FF00009344654B900BF502080F311884D
:10397000BFF34F8FBFF36F8F00BF00BFFEE7B8F1FB
:10398000000F01D1206C08B9012000E0002050B9DF
:1039900000BF502080F31188BFF34F8FBFF36F8FAC
:1039A00000BF00BFFEE7022D02D1E06B012801D16C
:1039B000012000E0002050B900BF502080F31188A2
:1039C000BFF34F8FBFF36F8F00BF00BFFEE700F064
:1039D0009DFA08B9059808B9012000E0002050B907
:1039E00000BF502080F31188BFF34F8FBFF36F8F5C
:1039F00000BF00BFFEE700BFFFF770FBA06BE16BED
:103A0000884201D3022D28D12A4641462046FEF79E
:103A100042FE0746606A08B9012000E0002068B94C
:103A200004F1240000F07CFB88B14FF08050324953
:103A30000860BFF34F8FBFF36F8F08E03FB14FF0C7
:103A400080502D490860BFF34F8FBFF36F8FFFF792
:103A50006FFB012007B0BDE8F083059818B9FFF7A8
:103A600067FB0020F6E7B9F1000F04D101A8FFF7CA
:103A7000EDFC4FF00109FFF75BFBFFF791FDFFF74E
:103A80002DFB94F94400401C10B9002084F8440038
:103A900094F94500401C10B9002084F84500FFF758
:103AA00047FB05A901A800F05BF9F0B92046FEF735
:103AB000D4FFA0B104F110000599FFF7D9FC20460E
:103AC000FFF7AFF900F078FB002895D14FF0805058
:103AD00009490860BFF34F8FBFF36F8F8CE7204613
:103AE000FFF79FF900F068FB86E72046FFF799F99A
:103AF00000F062FB0020ADE704ED00E02DE9F84F97
:103B000007468A4690461E463C4654B900BF5020A0
:103B100080F31188BFF34F8FBFF36F8F00BF00BFDB
:103B2000FEE7BAF1000F01D1206C08B9012000E0D6
:103B3000002050B900BF502080F31188BFF34F8F91
:103B4000BFF36F8F00BF00BFFEE7022E02D1E06B14
:103B5000012801D1012000E0002050B900BF502011
:103B600080F31188BFF34F8FBFF36F8F00BF00BF8B
:103B7000FEE7FFF761FB00BF5021EFF3118081F3F7
:103B80001188BFF34F8FBFF36F8F00BF0546A06B47
:103B9000E16B884201D3022E25D194F945B0A06B88
:103BA0000090324651462046FEF775FD0BF10100AC
:103BB00088B9606A08B9012000E0002050B904F11A
:103BC000240000F0ADFA28B1B8F1000F02D00120B6
:103BD000C8F8000004E00BF1010040B284F8450091
:103BE0004FF0010901E04FF0000900BF85F3118893
:103BF00000BF4846BDE8F88F2DE9F74183B0054680
:103C00000E464FF000082C4654B900BF502080F3F8
:103C10001188BFF34F8FBFF36F8F00BF00BFFEE768
:103C20000EB9206C08B9012000E0002050B900BF97
:103C3000502080F31188BFF34F8FBFF36F8F00BF09
:103C400000BFFEE700F062F908B9059808B9012045
:103C500000E0002050B900BF502080F31188BFF36E
:103C60004F8FBFF36F8F00BF00BFFEE700BFFFF7AE
:103C700035FAA76BF7B131462046FEF7F7FC781E00
:103C8000A063206908B9012000E0002060B904F1B8
:103C9000100000F045FA38B14FF080502F4908600D
:103CA000BFF34F8FBFF36F8FFFF742FA012006B0CB
:103CB000BDE8F081059818B9FFF73AFA0020F6E759
:103CC000B8F1000F04D101A8FFF7C0FB4FF00108C5
:103CD000FFF72EFAFFF764FCFFF700FA94F94400AF
:103CE000401C10B9002084F8440094F94500401CA1
:103CF00010B9002084F84500FFF71AFA05A901A8B9
:103D000000F02EF8F0B92046FEF79AFEA0B104F1BB
:103D100024000599FFF7ACFB2046FFF782F800F07E
:103D20004BFA0028A3D14FF080500C490860BFF334
:103D30004F8FBFF36F8F9AE72046FFF772F800F0BE
:103D40003BFA94E72046FFF76CF800F035FA20467E
:103D5000FEF776FE00288AD00020A8E704ED00E0F8
:103D600070B505460C4655B900BF502080F3118848
:103D7000BFF34F8FBFF36F8F00BF00BFFEE754B993
:103D800000BF502080F31188BFF34F8FBFF36F8FB8
:103D900000BF00BFFEE7FFF7A1F91248026868689C
:103DA000131A2068401C08B9002617E00E4928683D
:103DB0000968884204D06868904201D801260DE065
:103DC0002068984207D92068C01A20602846FFF76B
:103DD0003DFB002602E0002020600126FFF7A8F945
:103DE000304670BD3C000024500000242DE9FF4FF8
:103DF00085B0804689461746DDE912ABB800FFF76B
:103E00004FF8064656B15C20FFF74AF804460CB15D
:103E1000266304E03046FFF7A9F900E000248CB1E6
:103E2000002084F85900CDE900ABCDE902403A46C4
:103E300049464046089BFEF710FD2046FEF75CFB16
:103E4000012501E04FF0FF35284609B0BDE8F08FAD
:103E50002DE9F04F85B00746884691469A46DDE940
:103E60000EB6109C0EB1012000E0002050B900BF3A
:103E7000502080F31188BFF34F8FBFF36F8F00BFC7
:103E800000BFFEE70CB1012000E0002050B900BFE8
:103E9000502080F31188BFF34F8FBFF36F8F00BFA7
:103EA00000BFFEE75C20039003985C2801D101204D
:103EB00000E0002050B900BF502080F31188BFF30C
:103EC0004F8FBFF36F8F00BF00BFFEE700BFB4B1DD
:103ED000AEB125462C462E63022085F859000020FD
:103EE00004A953464A46CDE900B1CDE90250414606
:103EF0003846FEF7B2FC2846FEF7FEFA01E0002045
:103F00000490049805B0BDE8F08F000005490968E9
:103F100009B9012005E00449096809B9022000E057
:103F20000020704744000024600000240149086814
:103F3000704700003C0000242DE9F0414FF00008DC
:103F40004348006800287BD142480068451C41482E
:103F5000056015BB40480068006808B9012000E012
:103F6000002050B900BF502080F31188BFF34F8F5D
:103F7000BFF36F8F00BF00BFFEE7374807683748C1
:103F80000068354908603548076035480068401CBE
:103F900033490860FEF796FE00BF3248006885424C
:103FA0003BD300BF2C480068006808B9012000E03E
:103FB000002020B14FF0FF302A4908602CE026484D
:103FC0000068C068C4686668B54202D225480660C9
:103FD00022E0201DFFF720F8A06A18B104F11800B4
:103FE000FFF71AF82049E06A0968884202D91E4999
:103FF000E06A0860E16A01EB81011C4A02EB810082
:10400000211DFFF75FF81A49E06A0968C96A88420A
:10401000C8D34FF00108C5E700BF15480068C06A63
:1040200000EB8000114951F82000012801D94FF020
:1040300001081048006808B14FF0010805E0FFE7EB
:104040000D480068401C0C4908604046BDE8F081FE
:10405000600000243C0000242C00002430000024D8
:1040600050000024580000244000002434010024A3
:10407000280000244C0000244800002470B50546A8
:104080002C460026002D43D022480068844201D1EE
:10409000012000E0002050B900BF502080F31188BB
:1040A000BFF34F8FBFF36F8F00BF00BFFEE7206DE0
:1040B00050B900BF502080F31188BFF34F8FBFF37A
:1040C0006F8F00BF00BFFEE7206D401E2065E16CD2
:1040D000E06A88421CD0206DD0B9201DFEF79CFFFD
:1040E000E06CE062E06AC0F13800A0610A49E06A71
:1040F0000968884202D90849E06A0860E16A01EB70
:104100008101064A02EB8100211DFEF7DBFF01263B
:10411000304670BD280000244000002434010024F3
:1041200070B50646F068C46854B900BF502080F3EB
:104130001188BFF34F8FBFF36F8F00BF00BFFEE743
:1041400004F11800FEF768FF15480068A0B9201DAB
:10415000FEF762FF1349E06A0968884202D91149F3
:10416000E06A0860E16A01EB81010F4A02EB81001D
:10417000211DFEF7A7FF04E004F118010B48FEF72C
:10418000A1FF0B49E06A0968C96A884204D9012580
:1041900001200849086000E00025284670BD0000A5
:1041A000600000244000002434010024BC050024E9
:1041B000280000244C00002470B500240026364856
:1041C000006850B900BF502080F31188BFF34F8FB3
:1041D000BFF36F8F00BF00BFFEE7FEF77FFF2E48E3
:1041E0000068401E2C4908600846006800284ED12F
:1041F0002A48006800284AD023E02948C068C468DB
:1042000004F11800FEF708FF201DFEF705FF254901
:10421000E06A0968884202D92249E06A0860E16AD6
:1042200001EB8101204A02EB8100211DFEF74AFFCC
:104230001E49E06A0968C96A884202D301201C4904
:1042400008601748006808B9012000E00020002835
:10425000D3D00CB1FEF736FD1648056865B100BF36
:10426000FFF76AFE10B10120114908606D1E002D94
:10427000F6D100200F4908600D48006838B10126CA
:1042800030070D490860BFF34F8FBFF36F8FFEF704
:104290004FFF304670BD000060000024380000244D
:1042A000BC05002440000024340100242800002420
:1042B0004C0000244800002404ED00E010B586B056
:1042C0000024FEF775F916480068D0B1002005906B
:1042D000049003AA04A905A8FEF7BEFE0222DDE9A8
:1042E00004100023CDE9002102900EA10F48039A8B
:1042F000FFF7AEFD0E4908600846006800B10124D2
:1043000000BF54B900BF502080F31188BFF34F8F16
:10431000BFF36F8F00BF00BFFEE7204606B010BDA1
:104320006C000024546D722053766300092E00083F
:10433000700000242DE9FF4704460D4616461F462F
:10434000DDF830804FF0000954B900BF502080F3F1
:104350001188BFF34F8FBFF36F8F00BF00BFFEE721
:104360001448006810B3009501960294062D15DAE2
:10437000FFF7CCFD022808D10023424669460D48CC
:104380000068FFF7E7FA814610E000231A46694605
:1043900008480068FFF7DEFA814607E000233A4646
:1043A000694604480068FFF7A9FB8146484604B007
:1043B000BDE8F0876C0000244FF04070E1EE100A79
:1043C00070470000F84300080000000000000000F3
:1043D00000000000000000000004000018000000C1
:1043E00000000000000000000000000001020304C3
:1043F000010203040607080964656661756C74545C
:1044000061736B002444000800000024A800000031
:10441000D4020008CC440008A80000248013010046
:10442000F002000800000000000000000000000092
:10443000000000000000000000000000100000006C
:10444000010000000090D0030090D00300000000A5
:10445000000000000000000000000000000000005C
:10446000000000000000000000000000000000004C
:10447000000000000000000000000000000000003C
:10448000000000000000000000000000000000002C
:10449000000000000000000000000000000000001C
:1044A000000000000000000000000000000000000C
:1044B00000000000000000000000000000000000FC
:0C44C000AAAAAAAA000000000000000048
:040000050800029954
:00000001FF
