:020000040800F2
:1000000080330124710300085D4C0008A5470008F7
:10001000E14B0008A9040008CD61000800000000C1
:10002000000000000000000000000000B102000815
:10003000F1080008000000000D030008ED5800085A
:100040008F0300088F0300088F0300088F03000848
:100050008F0300088F0300088F0300088F03000838
:100060008F0300088F0300088F030008AD04000809
:100070008F0300088F0300088F0300088F03000818
:100080008F0300088F0300088F0300088F03000808
:100090008F0300088F0300088F0300088F030008F8
:1000A0008F0300088F0300088F0300088F030008E8
:1000B0008F0300088F0300088F0300088F030008D8
:1000C0008F0300088F0300088F0300088F030008C8
:1000D0008F0300088F0300088F0300088F030008B8
:1000E0008F0300088F030008000000008F03000842
:1000F0008F0300088F0300088F0300088F03000898
:100100008F0300088F0300088F0300088F03000887
:100110008F0300088F030008A95A00088F03000806
:100120008F0300088F0300088F0300088F03000867
:100130008F0300088F0300088F0300088F03000857
:1001400000000000000000000000000000000000AF
:100150008F0300088F0300088F0300088F03000837
:100160008F0300088F0300088F0300088F03000827
:100170008F0300088F0300088F03000800000000B1
:100180008F0300088F0300088F0300088F03000807
:100190008F0300088F0300088F030008BD56000876
:1001A0008F0300088F0300088F0300088F030008E7
:1001B0008F0300088F0300088F0300088F030008D7
:1001C0008F0300088F0300088F0300088F030008C7
:1001D0008F0300088F0300088F0300088F030008B7
:1001E0008F0300088F0300088F0300088F030008A7
:1001F0008F0300088F0300088F0300088F03000897
:100200008F0300088F0300088F0300088F03000886
:100210008F0300088F0300088F0300088F03000876
:100220008F0300088F0300088F0300080000000000
:100230008F0300088F030008000000008F030008F0
:100240008F0300088F0300088F0300088F03000846
:100250008F0300088F0300088F0300088F03000836
:100260008F0300088F0300088F0300088F03000826
:100270008F0300088F0300088F03000800000000B0
:100280008F0300088F0300088F03000800000000A0
:10029000000000008F030008DFF810D000F0F2F833
:1002A00000480047D9660008AFF30080803301247E
:1002B0002C4B19680868B0E8F04F80F30988BFF349
:1002C0006F8F4FF0000080F311887047000000002E
:1002D00008480068006880F308884FF0000080F349
:1002E000148862B661B6BFF34F8FBFF36F8F00DF24
:1002F00000BF00BF08ED00E0DFF80C00016841F42A
:1003000070010160704700BF88ED00E0EFF30980E5
:10031000BFF36F8F134B1A681EF0100F08BF20ED4C
:10032000108A20E9F04F106009B44FF0500080F3BC
:100330001188BFF34F8FBFF36F8F07F097FA4FF01D
:10034000000080F3118809BC19680868B0E8F04F14
:100350001EF0100F08BFB0EC108A80F30988BFF3BD
:100360006F8F704730000024EFF305807047000066
:10037000074880470748804707480047FEE7FEE7F1
:10038000FEE7FEE7FEE7FEE7FEE7FEE7FEE7FEE745
:10039000F9080008B1590008990200082DE9F05F3A
:1003A0000546002092469B468846064681464024E4
:1003B0001BE0284641464746224600F053F8534684
:1003C0005A46C01A914110D311461846224600F0F1
:1003D0003AF82D1A67EB01084F462246012000210A
:1003E00000F031F817EB00094E41201EA4F1010482
:1003F000DFDC484631462A464346BDE8F09F40EAE6
:1004000001039B0703D009E008C9121F08C0042A92
:10041000FAD203E011F8013B00F8013B521EF9D279
:100420007047D2B201E000F8012B491EFBD27047A1
:100430000022F6E710B513460A4604461946FFF7B0
:10044000F0FF204610BD202A04DB203A00FA02F11A
:10045000002070479140C2F1200320FA03F31943B2
:1004600090407047202A04DB203A21FA02F0002154
:10047000704721FA02F3D040C2F1200291400843B4
:1004800019467047064C074D06E0E06840F001034E
:1004900094E8070098471034AC42F6D3FFF700FF0A
:1004A0005086000870860008FEE70000014800F052
:1004B00025BD000050210024294A016891423AD00C
:1004C000274A1832914236D0254A3032914232D0F2
:1004D000234A483291422ED0214A603291422AD09A
:1004E0001F4A7832914226D01D4A9032914222D042
:1004F0001B4AA83291421ED01A4A91421BD0194A77
:100500001832914217D0174A3032914213D0154A0F
:10051000483291420FD0134A603291420BD0114AB7
:100520007832914207D00F4A9032914203D00D4A5F
:10053000A832914211D1CAB21823103AB2FBF3F299
:100540006FF30901032A02F00703074AD25CC26570
:1005500000D9091D81650846704721F0FF01F9E7C0
:100560001000024010040240E885000830B5224A1D
:10057000012301689142CAB21BD01F4C1434A1421E
:1005800017D01D4C2834A14213D01B4C3C34A1423F
:100590000FD0194C5034A1420BD0174C6434A142F7
:1005A00007D0154C7834A14203D0134C8C34A142AF
:1005B0000CD11421114C083AB2FBF1F10F4A8032F0
:1005C00001F01F0504EB8101AB4010E00C4D182435
:1005D000103A0D44B2FBF4F1A82D00D80831094AB5
:1005E00001F01F0402EB8101064AA3408032603013
:1005F00080E80E0030BD0000085402580058025830
:10060000F0FBFDBF0008024010B50279531E072B16
:100610002DD8174C0168A1421BD0154C1434A142AF
:1006200017D0134C2834A14213D0114C3C34A142B2
:100630000FD00F4C5034A1420BD00D4C6434A1426A
:1006400007D00B4C7834A14203D0094C8C34A14222
:1006500003D10849074C443102E00749064C4431B4
:1006600004EB8202C0E91B2101219940416710BDC2
:1006700008540258FC580258FC08024010B583691F
:100680004FF0C074826A0146002053B1B3F5005F99
:1006900015D072B1012A0CD0022A0AD0032A09D13E
:1006A00004E01AB1012A06D0022A03D1C96AC9019D
:1006B00000D5012010BDC96AA142FAD010BD002AA0
:1006C000F7D0012AF2D0022AF3D0032AF3D010BDCA
:1006D0002DE9F04F804E804FDFF8FC911836DFF89F
:1006E000F8A148370468856D0AF1300ADFF8ECB1EB
:1006F0004C45DFF8ECC1DFF8ECE16DD0B4426BD0D3
:10070000544569D0BC4267D0DFF8D081A8F1180801
:10071000444561D05C455FD064455DD074455BD095
:10072000DFF8C481444557D0DFF8BC8108F11808D0
:10073000444551D0DFF8B08108F1300844454BD032
:10074000DFF8A48108F14808444545D0DFF89881D6
:1007500008F1600844453FD0DFF88C8108F1780843
:10076000444539D0DFF8808108F19008444533D002
:10077000DFF8748108F1A80844452DD0DFF86C81BA
:10078000444529D0DFF8648108F11408444523D09A
:10079000DFF8588108F1280844451DD0DFF84C8166
:1007A00008F13C08444517D0DFF8408108F15008B3
:1007B000444511D0DFF8348108F1640844450BD07A
:1007C000DFF8288108F17808444505D0DFF81C815E
:1007D00008F18C08444509D1D0E91948C4F80480CF
:1007E000C46E1CB1D0E91C48C4F8048004684C45B0
:1007F0002ED0B4422CD054452AD0BC4228D0374EFB
:10080000183EB44224D05C4522D0644520D07445C3
:100810001ED0354EB4421BD0334E1836B44217D0DA
:10082000314E3036B44213D02F4E4836B4420FD03A
:100830002D4E6036B4420BD02B4E7836B44207D0E2
:10084000294E9036B44203D0274EA836B44215D173
:1008500090F85C603F2406F01F06B440AC6004686A
:10086000256825F4802525602EE09A600068C16027
:10087000BDE8F08F99600068C260F9E71B4EB44292
:100880001BD01A4E1436B44217D0184E2836B44234
:1008900013D0164E3C36B4420FD0144E5036B442EC
:1008A0000BD0124E6436B44207D0104E7836B442A4
:1008B00003D00E4E8C36B442DAD190F85C6001243D
:1008C00006F01F06B4406C60046863608368402BC8
:1008D0000368CFD1C9E70000100002408800024041
:1008E000A0000240B8000240100402400854025820
:1008F000704772B6FEE700000548054908390268EE
:1009000042F00202026008688004FCD570470000D3
:100910000C4802582DE9F84F044601F0C1FA009046
:100920003CB194F83500022806D080216165002092
:10093000E4E00120BDE8F88FC74DC74EC649183521
:1009400020683036DFF81483DFF814938842DFF82C
:1009500014A3DFF814B32ED0A8422CD0B0422AD072
:10096000404528D0484526D0504524D0584522D06F
:10097000BD4A183290421ED0BC4A90421BD0BB4A9E
:100980001832904217D0B94A3032904213D0B74A49
:10099000483290420FD0B54A603290420BD0B34AF1
:1009A0007832904207D0B14A9032904203D0AF4A99
:1009B000A832904209D1026822F01E02026020682B
:1009C000426922F08002426103E0026822F00E02D6
:1009D000026027688F4238464DD0A8424BD0B042C3
:1009E00049D0404547D0484545D0504543D058456B
:1009F00041D09D4A183290423DD09C4A90423AD014
:100A00009A4A1832904236D0984A3032904232D0C8
:100A1000964A483290422ED0944A603290422AD070
:100A2000924A7832904226D0904A9032904222D018
:100A30008E4AA83290421ED08D4A90421BD08C4ADA
:100A40001432904217D08A4A2832904213D0884AF2
:100A50003C3290420FD0864A503290420BD0844AAA
:100A60006432904207D0824A7832904203D0804A62
:100A70008C32974204D1206E026822F480720260A8
:100A800075492068884228D0A84226D0B04224D098
:100A9000404522D0484520D050451ED058451CD056
:100AA00071491831884218D07049884215D06F4971
:100AB0001831884211D06D49303188420DD06B49D0
:100AC0004831884209D069496031884205D0674978
:100AD0007831884201D065499031016821F00101E7
:100AE00001600EE001F0DCF90099401A052808D9F0
:100AF000202262650321002084F8351084F8340038
:100B000017E73868C007EDD1534A012120689042A9
:100B10002ED0A8422CD0B0422AD0404528D04845FB
:100B200026D0504524D0584522D04F4B18339842F8
:100B30001ED04E4B98421BD04C4B1833984217D0C6
:100B40004A4B3033984213D0484B483398420FD029
:100B5000464B603398420BD0444B7833984207D0D1
:100B6000424B9033984203D0404BA833984208D16F
:100B700094F85C703F23A06D07F01F07BB408360B3
:100B800007E094F85C30A06D03F01F0301FA03F353
:100B90004360206890424DD0A8424BD0B04249D02B
:100BA000404547D0484545D0504543D0584541D0B1
:100BB0002D4A183290423DD02C4A90423AD02B4ACE
:100BC0001832904236D0294A3032904232D0274AE9
:100BD000483290422ED0254A603290422AD0234A91
:100BE0007832904226D0214A9032904222D01F4A39
:100BF000A83290421ED01E4A90421BD01C4A14328A
:100C0000904217D01A4A2832904213D0184A3C32E8
:100C100090420FD0164A503290420BD0144A6432A0
:100C2000904207D0124A7832904203D0104A8C3258
:100C300090420BD1D4E919024260E06E30B10268F3
:100C400022F480720260D4E91C024260002084F821
:100C5000351084F834006DE6100002405800024060
:100C60007000024088000240A000024010040240D0
:100C7000085402582DE9F05F28B190F83510022988
:100C800004D0802141650120BDE8F09F904C904B3D
:100C90000168183C18338E4ADFF83C92A1428D4C13
:100CA000DFF838E28E4FDFF83CB2DFF83CA28F4D20
:100CB0008F4E31D091422FD099422DD0A1422BD0CE
:100CC000494529D0714527D0B94225D0DFF810C257
:100CD0000CF1180C61451FD0DFF808C2ACF1600CB4
:100CE000614519D0DFF8FCC1ACF1480C614513D067
:100CF000DFF8F0C1ACF1300C61450DD0DFF8E4C194
:100D0000ACF1180C614507D0594505D0514503D0C9
:100D1000A94201D0B1422CD1DFF8B4C14FF0040890
:100D200080F83580ACF1180C61451DD091421BD084
:100D3000994219D0A14217D0494515D0714513D019
:100D4000B94211D06648183081420DD065486038EC
:100D5000814209D063484838814205D06148303823
:100D6000814201D05F481838086820F0010008600F
:100D7000ABE0D1F800C02CF00E08DFF854C1C1F888
:100D80000080ACF1180C0168614527D0914225D054
:100D9000994223D0A14221D049451FD071451DD091
:100DA000B9421BD0DFF838C10CF1180C614515D0E1
:100DB000DFF830C1ACF1600C61450FD0DFF824C121
:100DC000ACF1480C614509D0DFF818C1ACF1300C2A
:100DD000614503D0DFF80CC1ACF1180CD1F800C0AC
:100DE0002CF0010CC1F800C0DFF8E4804FF0010CDA
:100DF0000168A8F11808414546D0914244D0994273
:100E000042D0A14240D049453ED071453CD0B94284
:100E10003AD0334A1832914236D0324A603A91423F
:100E200032D0304A483A91422ED02E4A303A91423E
:100E30002AD02C4A183A914226D0594524D05145FF
:100E400022D0A94220D0B1421ED02A4A91421BD0C2
:100E5000284A1432914217D0264A2832914213D0A0
:100E6000244A3C3291420FD0224A503291420BD058
:100E7000204A6432914207D01E4A7832914203D010
:100E80001C4A8C32914218D1016E0A6822F4807299
:100E90000A6090F85C20816D02F01F020CFA02F2E9
:100EA0004A60D0E919124A60C16E31B10A6822F471
:100EB00080720A60D0E91C124A600022016D80F83D
:100EC00035C080F8342001B188470020DCE60000FE
:100ED0002800024058000240700002408800024092
:100EE000A00002407004024088040240A0040240B6
:100EF000B804024008540258406D70472DE9FC5F69
:100F00000446F74E0020DFF8D88300904FF41652C5
:100F1000F44808F11808A56DDFF8C493DFF8C0A302
:100F2000016809F1300920680AF1480AB1FBF2F1C1
:100F3000B04201912F68D5F800C0DFF8ACB335D0CE
:100F40004146884232D0484530D050452ED0584591
:100F50002CD0E5491831884228D0E3493031884205
:100F600024D0E1494831884220D0E04988421DD050
:100F7000DE491831884219D0DC493031884215D019
:100F8000DA494831884211D0DFF860E30EF1600E93
:100F900070450BD0D54A7832904207D0D34B90336E
:100FA000984203D0D149A83188427DD194F85C2081
:100FB000082102F01F0201FA02F23A424AD0B0427E
:100FC00032D0404530D048452ED050452CD05845E1
:100FD0002AD0C54A1832904226D0C34A30329042B5
:100FE00022D0C14A483290421ED0C04A90421BD003
:100FF000BE4A1832904217D0BC4A3032904213D0C9
:10100000BA4A483290420FD0B84A603290420BD070
:10101000B64A7832904207D0B44A9032904203D018
:10102000B24AA832904203D1026802F0040202E000
:10103000026802F008026AB1026822F0040202604B
:1010400094F85C0000F01F008140A960606D40F0E2
:101050000100606594F85C00012100F01F008140F0
:10106000394240D02068B04234D0404532D0484563
:1010700030D050452ED058452CD09B4A1832904243
:1010800028D0994A3032904224D0974A4832904230
:1010900020D0964A90421DD0944A1832904219D0DE
:1010A000924A3032904200E0AFE113D08F4A48328A
:1010B00090420FD08D4A603290420BD08B4A7832EA
:1010C000904207D0894A9032904203D0874AA83292
:1010D00090427DD1406910F0800F04D0A960606D0E
:1010E00040F00200606594F85C00042100F01F00ED
:1010F000814039423ED02068B04232D0404530D0A5
:1011000048452ED050452CD058452AD0764A183222
:10111000904226D0744A3032904222D0724A4832ED
:1011200090421ED0714A90421BD0704A18329042B1
:1011300017D06E4A3032904213D06C4A48329042F7
:101140000FD06A4A603290420BD0684A783290429F
:1011500007D0664A9032904203D0644AA832904247
:101160004ED1006810F0020F04D0A960606D40F00D
:101170000400606594F85C00102100F01F008140BD
:10118000394258D02068B04234D0404532D048452A
:1011900030D050452ED058452CD0534A183290426A
:1011A00028D0514A3032904224D04F4A483290429F
:1011B00020D04E4A90421DD04C4A1832904219D04D
:1011C0004A4A3032904215D0484A4832904200E0B4
:1011D00014E00FD0454A603290420BD0434A783237
:1011E000904207D0414A9032904203D03F4AA83201
:1011F000904207D1006800F0080006E0006872E73E
:101200000068B7E7006800F00400A0B1A96020689A
:101210000168490304D50068000308D5A16C07E004
:101220000168C90503D4016821F008010160216C3F
:1012300009B12046884794F85C00202100F01F0087
:101240008140394279D02068B04232D0404530D018
:1012500048452ED050452CD058452AD0224A183225
:10126000904226D0204A3032904222D01E4A483244
:1012700090421ED01D4A90421BD01C4A1832904208
:1012800017D01A4A3032904213D0184A483290424E
:101290000FD0164A603290420BD0144A78329042F6
:1012A00007D0124A9032904203D0104AA83290429E
:1012B00003D1006800F0100002E0006800F00200B6
:1012C000B0B3A96094F835000428206801680FD0F5
:1012D00049037ED5006800032BD4616C2AE000002E
:1012E0001000024028000024700002401004024058
:1012F00021F0160101602068416921F080014161FF
:10130000206C08B9A06C20B12068016821F00801A8
:10131000016094F85C303F21012003F01F0300229C
:101320009940A96084F8350084F83420216D65E087
:1013300003E0E16B09B120468847606D00287DD04D
:10134000606DC00759D02068042184F83510B04280
:101350002BD0404529D0484527D0504525D0584569
:1013600023D09D49884220D09B49183188421CD007
:1013700099493031884218D09849884215D0974908
:101380001831884211D09549303188420DD09349A7
:101390004831884209D091496031884205D08F494F
:1013A0007831884201D08D499031016821F00101E6
:1013B000016020680099019A491C0091914202D86D
:1013C0000168C907F6D10068C00710D003200FE0FC
:1013D000FFE70168C905ACD403680121002223F0AE
:1013E0001003036084F8351084F83420A1E701204D
:1013F00084F83500002084F83400E16C00291DD009
:1014000002B02046BDE8F05F0847754988421DD00C
:1014100073491431884219D071492831884215D056
:101420006F493C31884211D06D49503188420DD00E
:101430006B496431884209D0694900E084E0783121
:10144000884203D066498C3188427DD194F85C8013
:101450000427016808F01F0807FA08F717EA0C0FBD
:10146000009746D04F0744D500980F04686003D515
:10147000C8033CD4A16CC1E7880638D42068B042C8
:101480002DD055496039884229D0484527D050454C
:1014900025D0584523D05049884220D04E49183194
:1014A00088421CD04C493031884218D04B49884280
:1014B00015D04A491831884211D048493031884204
:1014C0000DD046494831884209D0704507D0904236
:1014D00005D0984203D04149A831884203D1016820
:1014E00021F0080102E0016821F004010160216C93
:1014F00084E7022707FA08F717EA0C0F00974ED087
:101500008F074CD500980F04686003D5C80344D4F6
:10151000616C73E7880640D42068B0422FD02E4912
:10152000603988422BD0484529D0504527D05845AE
:1015300025D02949884222D02749183188421ED017
:1015400025493031884200E044E018D023498842E0
:1015500015D022491831884211D0204930318842B3
:101560000DD01E494831884209D0704507D09042BD
:1015700005D0984203D01949A831884203D10168A7
:1015800021F0140102E0016821F00A01016001214B
:1015900084F83510002084F83400E16B2EE708222F
:1015A00002FA08F212EA0C0F14D0090712D50168EA
:1015B00021F00E01016094F85C100120002201F07E
:1015C0001F0100FA01F16960606584F8350084F854
:1015D000342012E7BDE8FC9F88000240100402405E
:1015E000085402582DE9F05F044600F059FC002C25
:1015F00007467DD0E34E022120684FF00308DFF854
:1016000088934FF00005DFF884A3B042DFF880B381
:1016100034D0DC4A1832904230D048452ED0504564
:101620002CD058452AD0DA4A1832904226D0D84ACF
:101630003032904222D0D64A483290421ED0D54A0B
:1016400090421BD0D34A1832904217D0D14A303240
:10165000904213D0CF4A483290420FD0CD4A6032E8
:1016600090420BD0CB4A7832904207D0C94A903290
:10167000904203D0C74AA83290427DD184F83510F9
:10168000B04284F834502ED0BE49183188422AD056
:10169000484528D0504526D0584524D0BC4918315B
:1016A000884220D0BA49303188421CD0B8494831EC
:1016B000884218D0B749884215D0B64918318842B7
:1016C00011D0B449303188420DD0B24948318842F6
:1016D00009D0B0496031884205D0AE49783188429E
:1016E00001D0AC499031016821F00101016008E0AE
:1016F00027E100BF00F0D4FBC01B052801D9202141
:101700001CE120680068C007F4D104F108002168DA
:10171000D4E9053C8E4685C809681043D4E90728FA
:101720001F43636A38439C4F40EA0C001043394022
:1017300040EA0800042B40EA010003D1D4E90B126F
:1017400011430843954909686FF30F01B1F1005F38
:101750000FD36168A1F12902052A08D9163A032A94
:1017600005D9083A012A02D94F39032901D840F492
:101770008010CEF8000000E023E02068676A40692E
:10178000042F20F0070047EA00070DD1D4E90A0131
:10179000074349B12046FEF771FF28B1402060653C
:1017A000012184F83510CCE0206847612046FEF71F
:1017B00083FE94F85C203F2102F01F02914081607B
:1017C00054E0774A90421BD0754B1433984217D09F
:1017D000734B2833984213D0714B3C3398420FD04F
:1017E0006F4B503398420BD06D4B6433984207D007
:1017F0006B4B7833984203D0694B8C3398427DD140
:1018000084F8351084F83450664B0168A26801EA08
:10181000030E402A73D0802A72D00022D4E90378C4
:10182000D4E9053142EAD70242EAD8085C4AD4E951
:10183000077C48EAD30848EAD10141EAD70152427D
:1018400041EA1C11142341EA0E0101602068104492
:10185000B0FBF3F08000E0652046FEF72DFE94F823
:101860005C20012102F01F02914041602068B042DB
:1018700057D044491831884253D0484551D050453B
:101880004FD058454DD042491831884249D040493F
:101890003031884245D03E494831884241D03D49A7
:1018A00088423ED03B49183188423AD039493031DC
:1018B000884236D037494831884232D03549603184
:1018C00088422ED03349783188422AD0314990312C
:1018D000884226D02F49A831884222D030498842F8
:1018E0001FD02F49143188421BD02D4928318842FE
:1018F00017D02B493C31884213D002E01DE017E09D
:1019000018E02749503188420BD02549643188427C
:1019100007D023497831884203D021498C3188424D
:1019200029D12046FEF722FEA06880280CD00CE0CA
:10193000102273E74FF4804270E74021616584F81C
:1019400035800120BDE8F09F6560216E2079086038
:10195000D4E9190141606068401E072808D8204674
:10196000FEF752FEE06E0560D4E91C01416002E022
:10197000E566256765670120656584F83500002008
:10198000E0E7000010000240400002405800024022
:1019900070000240100402403F8010FE0010005C06
:1019A000085402580F00FEFF2DE9F84F04008C4642
:1019B0004FF00000009014D094F83400012812D0A9
:1019C00094F835500120002184F83400012D0CD00A
:1019D000C00260650120009084F834100098BDE8D2
:1019E000F88F0120FBE70220F9E78C4D02262068E2
:1019F00084F83560A8428A4D61658A4E8A4FDFF8C7
:101A00002C82DFF82C92DFF82CA2DFF82CB226D043
:101A1000A84224D0B04222D0B84220D040451ED0A7
:101A200048451CD050451AD0584518D083498842A3
:101A300015D082491831884211D08049303188420E
:101A40000DD07E494831884209D07C4960318842B6
:101A500005D07A497831884201D0784990310168BF
:101A600021F00101016061462046FEF731FE6B491D
:101A7000206888422CD0A8422AD0B04228D0B84250
:101A800026D0404524D0484522D0504520D0584546
:101A90001ED06A4A90421BD0684A1832904217D032
:101AA000664A3032904213D0644A483290420FD096
:101AB000624A603290420BD0604A7832904207D03E
:101AC0005E4A9032904203D05C4AA83290420CD1D8
:101AD000026822F01E0242F016020260206C88B1F9
:101AE0002068026842F008020BE0026822F00E0251
:101AF00042F00A020260206C20B12068026842F0C5
:101B000004020260206888424BD0A84249D0B0420B
:101B100047D0B84245D0404543D0484541D05045D4
:101B20003FD058453DD0454A90423AD0434A1832BA
:101B3000904236D0414A3032904232D03F4A483209
:101B400090422ED03D4A603290422AD03B4A7832B1
:101B5000904226D0394A9032904222D0374AA83259
:101B600090421ED0364A90421BD0354A14329042E1
:101B700017D0334A2832904213D0314A3C32904237
:101B80000FD02F4A503290420BD02D4A64329042EF
:101B900007D02B4A7832904203D0294A8C329042A7
:101BA0000DD1206E0268D20303D5026842F4807220
:101BB0000260E06E18B1026842F480720260206830
:101BC000884226D0A84224D0B04222D0B84220D0A9
:101BD00040451ED048451CD050451AD0584518D015
:101BE0001649884215D015491831884211D0134939
:101BF000303188420DD011494831884209D00F490F
:101C00006031884205D00D497831884201D00B49B6
:101C10009031016841F001010160DFE610000240EF
:101C2000280002404000024058000240700002407C
:101C300088000240A0000240B800024010040240A8
:101C4000085402582DE9F84F03247D4D00234FF02E
:101C500001094FF0B04B4FF00F0AE9E009FA03F722
:101C60003A4076D00E7906F00306012E01D0022EFE
:101C700018D1D0F808C04FEA430ECE6804FA0EF827
:101C80002CEA080C06FA0EF646EA0C068660D0F836
:101C900004C00E792CEA070CC6F300169E4046EAF3
:101CA0000C0646600E79F643B6070BD0C6684FEABD
:101CB00043088F6804FA08FC26EA0C0607FA08F7BE
:101CC0003743C7600E7906F00306022E12D1DE08F4
:101CD0000F694FEA437C00EB8606B646366A4FEA48
:101CE000DC6C0AFA0CF807FA0CF726EA0806374308
:101CF000CEF820700F7906684FEA430807F0030713
:101D000004FA08FC07FA08F726EA0C0637430760CE
:101D10004E6816F4403F1CD04A4E376847F0020721
:101D2000376036689F0706F00206009623F0030628
:101D300006F1B046B6463F0FD6F80864DFF80881D2
:101D40000AFA07FC404526EA0C0603D14FF0000CC6
:101D500041E06CE0DFF8F4C0604502D14FF0010CC7
:101D600039E0DFF8ECC0604502D14FF0020C32E000
:101D7000DFF8E0C0604502D14FF0030C2BE0DFF844
:101D8000D8C0604502D14FF0040C24E0DFF8CCC08D
:101D9000604502D14FF0050C1DE0DFF8C4C060457E
:101DA00002D14FF0060C16E0DFF8B8C0604502D152
:101DB0004FF0070C0FE0DFF8B0C0604502D14FF0E4
:101DC000080C08E0DFF8A4C0604502D14FF0090C10
:101DD00001E04FF00A0C0CFA07FC4CEA060CCEF8B6
:101DE00008C44F68DBF80060FF0226EA020600D54F
:101DF00016435F46CBF80060D1F804C0DBF80460FE
:101E00005FEA8C2C26EA020600D516437E606E68D7
:101E10004F6826EA0206BF0300D516436E602E689F
:101E20004F6826EA0206FF0300D516432E605B1CAE
:101E30000A6832FA03F67FF411AFBDE8F88F0000AC
:101E400080000058F4440258000002580004025870
:101E500000080258000C02580010025800140258E2
:101E600000180258001C0258002002580024025892
:101E70000069084000D001207047426921EA02034E
:101E80000A4043EA0241816170470AB181617047AB
:101E90000904FBE701480068000C70470010005C73
:101EA00001488068704700001C00002402488168D7
:101EB00002781144816070471C000024032010B593
:101EC00000F0FEF801F00EFB0F4A10491468136889
:101ED000C4F3032203F00F038A5CC95C02F01F0203
:101EE00001F01F01D0400A4A20FA01F111600949AE
:101EF00008600F2000F010F808B1012010BD00F0BC
:101F00009FF8002010BD00001844025818860008F1
:101F10002C0000242800002410B5102804468AB0A4
:101F20002CD200220146362000F0AAF8362000F01C
:101F300099F8174804601748016841F010010160E2
:101F4000006809A900F010000890684601F056FAF0
:101F50000598B0B101F0A2FA40000F4900220F4CE1
:101F6000B0FBF1F10E4840F2E7330460C0E9033200
:101F7000491EC0E9011202F0ACF928B101200AB0F3
:101F800010BD01F08BFAE8E7054802F0D5F9F6E755
:101F900020000024E844025840420F000010004096
:101FA0005C220024154BF0B5083B427813491A60B7
:101FB0000B680A1F23F001030B6043681360057B65
:101FC000C67A827A437B2D07847B45EA0665C77B08
:101FD00090F809C0067A90F800E045EAC24040EA6D
:101FE000834040EA444040EA074040EA0C2040EA8F
:101FF000460040EA0E000860F0BD0000A0ED00E0E1
:10200000BFF35F8F044800210368034A23F4803341
:10201000036070321160704724ED00E0074A40F021
:102020000100064970321060086840F48030086092
:10203000BFF34F8FBFF36F8F7047000024ED00E0B8
:10204000074882B0016841F0020101600068002287
:102050000F2100F002000090901E02B000F010B8B6
:10206000F4440258002809DB410900F01F028900EE
:10207000012001F1E0219040C1F80001704700000B
:102080000E4BF0B41B680D46C3F30223C3F10706E1
:10209000042E00D90426191D072901D2002300E0CF
:1020A000DB1E012404FA06F19C40491E2940641EEF
:1020B000994014402143F0BC04F09CB80CED00E0C2
:1020C000064900F0070210B54FF6FF040868044BFC
:1020D000204040EA02201843086010BD0CED00E0EB
:1020E0000000FA05134970B50A68D243520705D5B6
:1020F000096801F00701814213D118E00A6822F053
:10210000070202430A60FFF7CBFE0A4D4FF47A76CE
:102110000446083D07E000BFFFF7C2FE001BB042C7
:1021200001D9012070BD2868C0438004F4D4002088
:1021300070BD00000C48025810B501F08DF905493A
:102140000968054AC1F30211515C01F01F01C84042
:1021500010BD000020440258188600084A4930B5D6
:10216000494C0B1D0A680C3409681D68246802F08C
:10217000030305F00102C1F30511C4F3CC040029E7
:1021800014FB02F200EE102AF8EE400A76D0414A23
:102190009FED3E1ADFED3E1AB7EE000A23B1012B88
:1021A0005AD0022B18D15CE0374C283C23689B06A0
:1021B00012D5394B246801EE901A1168C4F3C1049A
:1021C000F8EE612AE34001EE903AC1F30801F8EE1F
:1021D000611A81EEA22A07E002EE101A1168F8EEE9
:1021E000422A81EEA22A45E001EE901A1168F8EE2B
:1021F000611A40EE811A71EE800A62EE200AC1F384
:10220000462101EE101AB8EE411A31EE001AC0EE66
:10221000811ABCEEE11A80ED001A1168C1F3064183
:1022200001EE101AB8EE411A31EE001AC0EE811A12
:10223000BCEEE11A80ED011A1168C1F3066101EEEE
:10224000101AB8EE411A31EE000A80EE801ABCEE88
:10225000C10A80ED020A30BD01EE901ADFED0F2AAF
:1022600003E001EE901ADFED0E2A1168F8EE611A14
:1022700082EEA12AC1F30801B6E7FFE70021016061
:102280004160816030BD00002844025800000039E0
:102290000024744C304402580090D0030024744A47
:1022A00020BCBE4B494930B5484C0B1D0A6814345C
:1022B00009681D68246802F00303C5F30012C1F326
:1022C0000531C4F3CC04002914FB02F200EE102AFD
:1022D000F8EE400A75D03F4A9FED3D1AB7EE000A6E
:1022E0006BB1DFED3D1A012B01D0022B64D002EE61
:1022F000101A1168F8EE422A81EEA22A21E0334C2E
:10230000283C23689B0612D5344B246801EE901AB2
:102310001168C4F3C104F8EE612AE34001EE903A7B
:10232000C1F30801F8EE611A81EEA22A0BE001EE7A
:10233000901ADFED2B2A00BFF8EE611A116882EEC9
:10234000A12AC1F3080101EE901A1168F8EE611A92
:1023500040EE811A71EE800A62EE200AC1F3462136
:1023600001EE101AB8EE411A31EE001AC0EE811AD1
:10237000BCEEE11A80ED001A1168C1F3064101EECE
:10238000101AB8EE411A31EE001AC0EE811ABCEEF6
:10239000E11A80ED011A1168C1F3066101EE101A0D
:1023A000B8EE411A31EE000A80EE801ABCEEC10A86
:1023B00080ED020A30BD04E001EE901ADFED092A3B
:1023C000BAE70021016041608160F3E728440258C8
:1023D00000000039384402580024744A0090D003A9
:1023E0000024744C20BCBE4B494930B5484C0B1DF1
:1023F0000A681C3409681D68246802F00303C5F3E9
:102400000022C1F30551C4F3CC04002914FB02F2ED
:1024100000EE102AF8EE400A75D03F4A9FED3D1AB3
:10242000B7EE000A6BB1DFED3D1A012B01D0022B94
:1024300064D002EE101A1168F8EE422A81EEA22A48
:1024400021E0334C283C23689B0612D5344B24688A
:1024500001EE901A1168C4F3C104F8EE612AE3405A
:1024600001EE903AC1F30801F8EE611A81EEA22A5A
:102470000BE001EE901ADFED2B2A00BFF8EE611A97
:10248000116882EEA12AC1F3080101EE901A1168C9
:10249000F8EE611A40EE811A71EE800A62EE200AAF
:1024A000C1F3462101EE101AB8EE411A31EE001ABE
:1024B000C0EE811ABCEEE11A80ED001A1168C1F37A
:1024C000064101EE101AB8EE411A31EE001AC0EEC4
:1024D000811ABCEEE11A80ED011A1168C1F30661A0
:1024E00001EE101AB8EE411A31EE000A80EE801AA1
:1024F000BCEEC10A80ED020A30BD04E001EE901A84
:10250000DFED092ABAE70021016041608160F3E74D
:102510002844025800000039404402580024744AFC
:102520000090D0030024744C20BCBE4B2DE9F04F2A
:10253000AC4A0546DFF8A8A280F48070DFF8AC92C0
:1025400089B01311AA4C0843A748AAF104064FF01A
:10255000805C4FF000582CD085F400770F4357D0A3
:10256000DFF87CB285F480670F430BF1080B61D074
:1025700085F400670F4374D085F480570F436ED005
:1025800085F400570F434FF480394FF4003E67D075
:1025900085F400270F4371D085F480370F436ED048
:1025A00085F480460E436BD085F400420A4368D020
:1025B0002AE0DAF8001001F00701052924D2DFE84B
:1025C00001F075BC7D25B10006A8FFF7C7FD07988F
:1025D00009B0BDE8F08F6846FFF764FE0098F7E7A2
:1025E00003A8FFF701FF0398F2E72068C0F3C100DA
:1025F00022FA00F0ECE72268D20571D561456FD16F
:102600001846E5E74145E3D00020E1E74846DFE72B
:10261000DAF8001001F4E07180294FD004DC0029C1
:1026200044D04029F0D188E0C029EFD0B1F5807FB7
:10263000EAD177E0DBF8001001F46001B1F5800F1A
:102640003CD004DC91B3B1F5001FDDD175E0B1F5EC
:10265000C00FDBD0B1F5000FD6D163E001E018E088
:1026600030E0DBF8001001F0E061B1F1007F25D02F
:1026700008DCD9B1B1F1807FC6D15EE049E06CE001
:1026800079E09CE0B1F1407FC0D0B1F1806FBBD167
:1026900048E0DAF8001001F4E041B1F5005F0DD038
:1026A00005DC19B1B1F5805FAED146E094E0B1F53B
:1026B000405FABD0B1F5804FA6D133E020688000F9
:1026C000A2D58DE7DAF8001001F4E021B1F5403F22
:1026D0006CD006DC61B149457AD0714594D157E0A0
:1026E00037E0B1F5802F65D0B1F5A02F8CD10CE08B
:1026F00000F0D4FE6CE76846FFF7D4FD019867E769
:1027000003A8FFF771FE049862E721688903F1D4FA
:102710007AE7DBF8001011F440310ED0494510D0B3
:102720007145F5D13168256801F040516D077FF59D
:1027300062AF00297FF45FAF57E720680001E7D55B
:1027400049E720688000E3D503A8FFF74DFE059810
:102750003EE722689203DBD554E7306810F48030FE
:102760003AD04845D4D120680001D1D56846FFF75A
:1027700099FD02982CE7DBF8001001F0E041B1F17F
:10278000405F13D008DC71B1614521D04145BFD114
:1027900020688000B4D437E7B1F1804F0AD0B1F19E
:1027A000A04FB2D030E7FFF7C7FC11E72068400721
:1027B000AED51AE72068C005AAD521E708E0DAF807
:1027C000001011F04051A0D0614505D041459FD186
:1027D000206800018FD417E72068800198D5F3E6C0
:1027E000504402580090D00340787D010080BB0027
:1027F000004402582DE9FE4F0546DFF8E48350F807
:10280000081B0024F64FC943019005F12800264615
:1028100008F12408009008011DD4A86E50B1B0F54D
:10282000801F0CD0B0F5001F0ED0B0F5401F1ED099
:1028300001240FE0386840F40030386017E0019858
:10284000022102F01BFE03E00098022102F0A6FE26
:1028500004000CD026462888C043C00523D4A86DA8
:1028600005281ED2DFE800F00C11161B1B00AA6E13
:10287000D8F8001021F440111143C8F80010EAE71D
:10288000386840F40030386009E00198002102F017
:10289000F5FD03E00098002102F080FE044674B1CB
:1028A00000E0012426462888C043800528D4E86D2E
:1028B00080281ED00CDC90B140280ED114E0AA6D07
:1028C000D8F8001021F007011143C8F80010EAE71A
:1028D000C02813D0B0F5807F10D001240FE03868F5
:1028E00040F40030386009E00198002102F0C6FD94
:1028F00003E00098002102F051FE04469CB12646F8
:102900002888DFF8DC92C04309F12C0940052CD45B
:10291000D5F8A800B0F5800F20D00DDCA0B1B0F53F
:10292000001F0FD115E0EA6DD8F8001021F4E07116
:102930001143C8F80010E3E7B0F5C00F13D0B0F5AD
:10294000000F10D001240FE0386840F400303860E8
:1029500009E00198002102F091FD03E000980021B8
:1029600002F01CFE04467CB126462888C0430005C0
:102970002DD4D5F8AC00B0F1007F21D00EDCA8B189
:10298000B0F1807F10D116E0D5F8A820D9F800105A
:1029900021F460011143C9F80010E6E7B0F1407F6F
:1029A00013D0B0F1806F10D001240FE0386840F4EC
:1029B0000030386009E00198002102F05FFD03E07B
:1029C0000098002102F0EAFD044674B1264628680A
:1029D000C04380011FD4E86CD8B110280FD0202844
:1029E00012D0302815D0012414E0D5F8AC20D9F845
:1029F000001021F0E0611143C9F80010E7E73868E2
:102A000040F40030386004E00198022102F036FD05
:102A1000044674B126462888C043C0042BD4286ECF
:102A2000B0F5005F20D00DDCA0B1B0F5805F0FD114
:102A300015E06B48EA6C2030016821F03001114349
:102A40000160E8E7B0F5405F13D0B0F5804F10D0DB
:102A500001240FE0386840F40030386009E0019844
:102A6000002102F00BFD03E00098002102F096FD2A
:102A700004468CB126462888C043800429D4686E59
:102A8000B0F5403F23D010DC08B3B0F5803F14D040
:102A9000B0F5003F0FD115E02A6ED8F8001021F4F0
:102AA000E0411143C8F80010E5E7B0F5802F0ED0E3
:102AB000B0F5A02F0BD001240AE00198012102F00B
:102AC000DDFC03E00098012102F068FD044694B1AA
:102AD00026462888C04340042AD4D5F8B000B0F177
:102AE000405F23D010DC08B3B0F1805F14D0B0F1A8
:102AF000005F0FD115E06A6ED8F8001021F4E021D4
:102B00001143C8F80010E4E7B0F1804F0ED0B0F1E7
:102B1000A04F0BD001240AE00198012102F0AEFC85
:102B200003E00098012102F039FD044674B1264605
:102B30002888C04300041FD4286FD8B1B0F1805F4B
:102B40000ED0B0F1005F10D0012414E0D5F8B02011
:102B5000D9F8001021F0E0411143C9F80010E7E76F
:102B6000386840F40030386004E00198012102F038
:102B700085FC044674B126462868C043C0011ED4B3
:102B8000A86CD0B101280ED0022811D0032814D08F
:102B9000012413E02A6FD8F8001021F040511143AE
:102BA000C8F80010E8E7386840F40030386004E006
:102BB0000198022102F062FC0446ACB12646286866
:102BC000DFF81CB0C043ABF11C0B400252D40548E7
:102BD000016841F480710160FFF762F9824611E0FB
:102BE0002C44025800480258FA48AA6C016821F0A7
:102BF000030111430160E2E7FFF752F9A0EB0A007D
:102C0000642835D8F4480068C005F5D58CBBDFF8DA
:102C1000C4A3B5F8B4100AF1240ADAF8000001F4EC
:102C2000407100F44070884211D0DAF80010DAF8F0
:102C3000002021F4407142F48032CAF80020DAF812
:102C4000002022F48032CAF80020CAF80010D5F81B
:102C5000B400B0F5807F1AD1FFF722F9029012E09C
:102C6000FFF71EF90299411A41F2883081420AD9D0
:102C7000032426462878DFF85CA3C0430AF1080A3B
:102C8000C00721D03CE0DAF800008007E8D5D5F88D
:102C9000B410C1F30120032858460DD0016821F477
:102CA0007C510160B5F8B420DAF80010C2F30B02D1
:102CB0001143CAF80010DDE7C84A036802EA11129E
:102CC00023F47C511143ECE7E86F182816D005DC9B
:102CD000A0B1082808D0102804D10AE020280DD07F
:102CE00028280BD001240AE00198012102F0C6FB3C
:102CF00003E00098012102F051FC044664B126462D
:102D00002878C04380071ED4A86F062819D2DFE8B0
:102D100000F0160C11161616EA6FDAF8001021F002
:102D200038011143CAF80010EAE70198012102F0C6
:102D3000A5FB03E00098012102F030FC04467CB1C1
:102D400000E0012426462878C04340071FD4D5F868
:102D50009400062819D2DFE800F0160C111616169A
:102D6000AA6FDAF8001021F007011143CAF8001029
:102D7000E9E70198012102F081FB03E000980121BD
:102D800002F00CFC0446A4B100E001242646287899
:102D9000C04380062BD4D5F89000B0F1405F24D01A
:102DA00011DC10B3B0F1805F15D0B0F1005F10D12D
:102DB00016E0D5F89420D9F8001021F0070111434E
:102DC000C9F80010E3E7B0F1804F0ED0B0F1A04F8A
:102DD0000BD001240AE00198002102F04FFB03E030
:102DE0000098022102F0DAFB044694B126462878C6
:102DF000C04340062BD4D5F89C00B0F5406F24D0DA
:102E000011DC10B3B0F5806F15D0B0F5006F10D1A4
:102E100016E0D5F89020DAF8001021F0E0411143D7
:102E2000CAF80010E3E7B0F5805F0ED0B0F5A05F00
:102E30000BD001240AE00198002102F01FFB03E0FF
:102E40000098022102F0AAFB044694B12646287895
:102E5000C04300062BD4D5F8A000B0F5C04F24D055
:102E600011DC10B3B0F5005F15D0B0F5804F10D174
:102E700016E0D5F89C20D9F8001021F4E051114358
:102E8000C9F80010E3E7B0F5004F0ED0B0F5204FC1
:102E90000BD001240AE00198002102F0EFFA03E0D0
:102EA0000098022102F07AFB044654B126462878A5
:102EB000C04300071ED4D5F88400B0F5805F0AD067
:102EC0000FE0D5F8A020D9F8001021F4604111439B
:102ED000C9F80010EBE70098022102F05FFB00B197
:102EE0000126D5F88420DAF8001021F4405111436E
:102EF000CAF800102878C043C00613D4D5F898004B
:102F0000B0F5807F05D10098022102F047FB00B1A7
:102F10000126D5F89820D9F8001021F4407111430A
:102F2000C9F800102868C043000316D4D5F8A400DF
:102F300038B1B0F5803F09D0B0F5003F0BD0012487
:102F40000AE00198002102F099FA03E000980221BA
:102F500002F024FB04468CB126462868C043400397
:102F600022D4D5F88800B0F5801F11D0B0F5001F2D
:102F700013D0B0F5401F15D0012414E0D5F8A420DB
:102F8000D9F8001021F440311143C9F80010E4E7EA
:102F9000386840F40030386004E00098012102F005
:102FA000FDFA04465CB126462868C043C00323D41A
:102FB000286DA8B1B0F5803F17D001241BE0D5F8EB
:102FC0008820DAF8001021F440111143CAF80010EB
:102FD000EAE700004C44025800480258CFFFFF00C7
:102FE000386840F40030386004E00198022102F0B3
:102FF00045FA0446E4B126462868C043800005D45B
:103000000098022102F0CAFA00B101262868C043E4
:1030100080031BD4D5F88000B0B1B0F5807F0FD00D
:10302000B0F5007F10D0B0F5407F0DD001240CE04A
:103030005A482A6D016821F4803111430160DBE7B1
:10304000386840F400303860ECB326462868C04346
:10305000C00207D46A6FD8F8001021F00041114374
:10306000C8F800102868C043C00008D4D5F8B820BC
:10307000DBF8001021F480411143CBF800102868E0
:10308000C043800207D4EA6ED8F8001021F08071A6
:103090001143C8F800102868C04340000CD4DBF886
:1030A000001021F40041CBF80010DBF80010D5F837
:1030B000BC201143CBF800102868C04308D437481F
:1030C0006A6D016800E018E021F040511143016091
:1030D0002868C043000208D4D5F88C20DAF8001024
:1030E00021F440011143CAF8001028790024C0439C
:1030F00000F0010020430AD00FE0D5F88020DAF874
:10310000001021F440711143CAF800109EE70198A5
:10311000002102F0B3F900B106462879C04300F05F
:103120000200204305D10198012102F0A7F900B166
:1031300006462879C04300F00400204305D10198D9
:10314000022102F09BF900B106462879C04300F045
:103150000800204305D10098002102F01FFA00B1B9
:1031600006462879C04300F01000204305D100989E
:10317000012102F013FA00B106462879C04300F09D
:103180002000044304D10098022102F007FA00B99C
:1031900016B10120BDE8FE8F0020FBE74C44025829
:1031A0002DE9F05F04000F467ED0DFF83882D8F8B2
:1031B000000000F00F00B8420CD2D8F8001021F047
:1031C0000F013943C8F80010D8F8000000F00F00D4
:1031D000B84269D12078844D40070AD52069296812
:1031E00001F07001884204D9296821F0700101437F
:1031F000296020787C4E361D00070AD56069316849
:1032000001F07001884204D9316821F07001014356
:1032100031602078C0060AD5A069316801F4E06108
:10322000884204D9316821F4E0610143316020789B
:10323000DFF8B4B180060BF1080B0CD5E1695846F4
:10324000DBF8002002F07002914204D9026822F0FB
:1032500070020A430260207880070AD5E068296876
:1032600001F00F01884204D9296821F00F010143C0
:1032700029602078C0073ED05B49A26828681839C9
:1032800020F47060104328606068022818D003287A
:1032900019D00968012819D0490700294ADADFF84E
:1032A00048A1AAF1080A00E044E0DAF8002022F080
:1032B00007020243CAF80020FEF7F2FD814612E041
:1032C00009688903E9E709688901E6E7C905E4E7D0
:1032D000FEF7E6FDA0EB090141F28830814202D9F8
:1032E0000320BDE8F09F6168DAF8000000F03800C4
:1032F000B0EBC10FECD1207880070AD5E0682968CF
:1033000001F00F01884204D2296821F00F01014326
:103310002960D8F80010404601F00F01B9420BD9DE
:10332000016821F00F0139430160006800F00F00CF
:10333000B84201D00120D4E7207840070AD520699F
:10334000296801F07001884204D2296821F07001D7
:1033500001432960207800070AD56069316801F0CF
:103360007001884204D2316821F07001014331605C
:103370002078C0060AD5A069316801F4E06188426E
:1033800004D2316821F4E061014331602078800685
:103390000CD5E1695846DBF8002002F0700291423A
:1033A00004D2026822F070020A43026000F09AF828
:1033B0000E492A682B68C2F3032203F00F038A5CCC
:1033C000C95C02F01F0201F01F01D040084A20FA38
:1033D00001F111600749086007480068BDE8F05F27
:1033E000FEF79ABD002000521844025818860008C3
:1033F0002C000024280000242000002470B5144C68
:103400003F220260124A24680832131D114D04F055
:103410000704446016681C1D06F470668660166812
:1034200006F00F06C660126802F0700202611A68A8
:1034300002F0700242611A6802F4E062826122685E
:1034400002F07002C261286800F00F00086070BDD1
:10345000104402580020005230B500F043F80B4AE7
:103460000B490C4B15681468C5F3032204F00F04D4
:103470008A5C095D02F01F0201F01F01D040064A7C
:1034800020FA01F119601060084630BD1844025856
:10349000188600082C0000242800002400B5FFF73F
:1034A000DBFF05490968054AC1F30211515C01F0CF
:1034B0001F01C84000BD00001C44025818860008C7
:1034C00000B5FFF7C9FF05490968054AC1F30221A4
:1034D000515C01F01F01C84000BD00001C440258AF
:1034E00018860008454970B545480968434B103BAC
:1034F00011F0380208D00111082A03D0102A0BD08D
:10350000182A0BD0084670BD19688906FBD51968C2
:10351000C1F3C101C84070BD3A4870BD3749374D4D
:1035200018310C1D24350A68096826682D6802F0D8
:10353000030406F00102C1F30511C5F3CC0515FB28
:1035400002F200EE102AB8EE400AE9B32F4ADFED8E
:103550002E0AB7EE001A6CB1DFED2D1A012C01D046
:10356000022C43D002EE101A1068F8EE422A81EEC7
:10357000A22A1EE01C68A40611D51B6801EE901A51
:103580001168C3F3C103F8EE612AD84001EE900A36
:10359000C1F30800F8EE611A81EEA22A0BE001EEF9
:1035A000901ADFED1C2A00BFF8EE611A106882EE57
:1035B000A12AC0F3080001EE900AF8EE611A40EE6D
:1035C000201A31EE810A00E015E022EE000A1068B0
:1035D000C0F34620401C00EE900AF8EE600A80EE30
:1035E000201ABCEEC10A10EE100A70BD01EE901A4E
:1035F000DFED092AD8E7002070BD00001044025812
:103600000090D00340787D0100000039304402581A
:103610000024744A0024744C20BCBE4B2DE9F05F9A
:1036200004007DD0FF4F2078FE4D1837DFF8F4936B
:10363000103DC00748D0D9F80000396800F03800C4
:10364000102815D0182803D101F0030002280FD04C
:103650006068B0F5803F12D010B1B0F5A02F18D03F
:10366000286820F480302860286820F4802009E051
:103670002868800328D560680028D2D024E0286814
:1036800040F480302860606888B1FEF709FC064687
:1036900009E0286840F480202860F0E7FEF700FC8D
:1036A000801B64286FD828688003F7D50CE0FEF7EC
:1036B000F7FB064605E000BFFEF7F2FB801B64281F
:1036C000F0D828688003F7D4207841F20308D54E5B
:1036D0000C3E800769D5D9F80000396810F0380031
:1036E0000ED0182801D188070AD0E06890B3296865
:1036F00021F0190101432960FEF7D2FB824631E037
:103700002868400702D5E06800288AD0E168286868
:1037100020F0190008432860FEF7C2FB824607E04C
:10372000DFE000BFFEF7BCFBA0EB0A000228B9D81F
:1037300028684007F6D500BFFEF7ACFB40451BD814
:103740002069402812D0316821F47C3141EA0030F0
:1037500030602AE018E000BFFEF7A2FBA0EB0A00F1
:1037600002289FD828684007F6D5E5E7306820F49E
:103770007C3040F40030EBE7207C316821F0FE41E2
:1037800041EA0060E4E70DE1286820F001002860CC
:10379000FEF786FB824605E0FEF782FBA0EB0A00FF
:1037A00002288DD828684007F6D42078C0065DD559
:1037B000D9F80000DFF86CB2396800F03800ABF1DE
:1037C000040B082810D0182803D101F003000128A9
:1037D0000AD0E0690028286838D040F080002860CE
:1037E000FEF75EFB824623E02868C00523D5E0692A
:1037F000802876D11FE0206A202821D0316821F06E
:10380000F84141EA8060306030E000BF94F8201059
:10381000DBF8002022F07C5242EA0161CBF8001074
:1038200024E000BFFEF73CFBA0EB0A00022898D87A
:103830002868C005F6D5FEF72DFB4045E6D8DAE747
:10384000306820F0F84040F08040DCE720F0800055
:103850002860FEF725FB064605E000BFFEF720FBCB
:10386000801B02289DD82868C005F7D4207800075F
:1038700029D56C486169643000298046016811D0FF
:1038800041F001010160FEF70BFB064605E000BFB9
:10389000FEF706FB801B0228C9D8D8F80000800775
:1038A000F6D510E021F001010160FEF7F9FA0646B5
:1038B00005E000BFFEF7F4FA801B022872D8D8F8A2
:1038C00000008007F6D42078800623D5A069002860
:1038D000286810D040F480502860FEF7E1FA0646D0
:1038E00005E036E1FEF7DCFA801B02285AD828688A
:1038F0008004F7D50EE020F480502860FEF7D0FA5F
:10390000064604E0FEF7CCFA801B02284AD8286855
:103910008004F7D4207840074FD5DFF80C81D8F821
:10392000001041F48071C8F80010FEF7B9FA06469D
:1039300005E000BFFEF7B4FA801B642832D8D8F83F
:103940000000C005F6D5374EA068603601280AD0C1
:1039500008B1052813D0306820F0010030603068CD
:1039600020F0040002E0306840F001003060A06800
:1039700041F2883A90B1FEF793FA80460AE0306847
:1039800040F004003060EEE7FEF78AFAA0EB080191
:10399000514507D830688007F6D50EE0FEF780FA6B
:1039A000804607E084E000BFFEF77AFAA0EB08014A
:1039B00051457DD830688007F6D4606AB0B3DFF82F
:1039C0006480D9F8001008F120084FF6F87B08F160
:1039D0000409C1F3C2010329A8F1040A69D002282D
:1039E000286820F08070286003D0FEF759FA04465A
:1039F00084E0FEF755FA064605E000BFFEF750FAF0
:103A0000801B022877D828688001F7D4E26A40F248
:103A1000F331386854F8283F884340EA02101843CD
:103A2000386004E01044025800480258B5E0217B99
:103A3000434622894FF4FE0C208A4FF0FE4749028C
:103A4000267D521E401EA1F50071C2F308088AB2FD
:103A5000761E0CEA004042EA08020243504607EA9A
:103A600006610A431A60DAF8002022F00102CAF85F
:103A70000020D9F80020266A22EA0B0242EAC60298
:103A8000C9F80020DAF80010A26921F00C011143F6
:103A9000CAF800100168E26921F0020111430160D7
:103AA000016841F480310160016841F4003101E0B6
:103AB00021E027E00160016841F480210160016894
:103AC00041F001010160286840F080702860FEF735
:103AD000E7F9044605E000BFFEF7E2F9001B022803
:103AE00009D828688001F7D557E000BFFEF7D8F95C
:103AF000001B022802D90320BDE8F09F286880013E
:103B0000F4D44AE039680128D8F8000021D0A26A2C
:103B100001F0030393421CD1E26AC1F305118A420A
:103B200017D1216BC0F30802491E8A4211D1616B83
:103B3000C0F34622491E91420BD1A16BC0F306424D
:103B4000491E914205D1E16BC0F30660491E8142D6
:103B500001D00120D0E7A16C4E46D9F80000C0F397
:103B6000CC00814219D0DAF80000554620F001005F
:103B7000CAF80000FEF794F94FEA0007FEF790F943
:103B8000B842FBD0A26C306820EA0B0040EAC200C9
:103B90003060286840F0010028600020ACE770B574
:103BA000044690F890000025012814D001262046F4
:103BB00084F8906001F0EAFD00B1012520680168F9
:103BC000890332D5016821F40031016094F8910035
:103BD000122802D013E0022070BDD4F8800070B12A
:103BE000FCF798FE58B1D4F88000406D802806D0CC
:103BF000D4F89400012540F08000C4F8940094F8B3
:103C00009100222811D1D4F8840070B1FCF782FE13
:103C100058B1D4F88400406D802806D0D4F89400C0
:103C2000012540F08000C4F8940022680020411E65
:103C300010612268916121684A6842F008024A6076
:103C400084F8916084F89000284670BD70470000A9
:103C50002DE9F041044690F89100002874D02068C6
:103C6000426901690368150707D50D0705D5D4F822
:103C70008C102046BDE8F0410847D5074FF00106FB
:103C800010D0CD070ED0866194F89100222807D07D
:103C90005FF00200D4F894100143C4F8941079E066
:103CA0000120F7E795070AD58D0708D50221816124
:103CB000D4F88800002870D0BDE8F0410047384DA6
:103CC000970631D58F062FD5202181619A03D4F82C
:103CD0009400002A40F0040032E000BFD4F88000D5
:103CE00070B10565D4F88000FCF7C4FF40B1D4F88A
:103CF000940040F08000C4F894002046FFF7A6FF2F
:103D0000D4F88400002848D00565D4F88400FCF776
:103D1000B1FF002841D0D4F8940040F0800037E093
:103D20002046FFF73CFF35E057060ED54F060CD571
:103D3000402181619A03D4F89400002A40F00800E1
:103D4000C4F89400ECDAC9E727E0570716D54F0707
:103D500014D5042181619A03D4F8940040F0200026
:103D6000C4F89400BAD422680020411E1061226871
:103D7000916184F89160A4F87E000BE0D2060CD526
:103D8000C9060AD510218161D4F8940040F01000D2
:103D9000C4F894002046FFF759FFBDE8F081000009
:103DA000C95600082DE9F05F040049D0FEF772F80B
:103DB00094F83800CF49DFF840A3012809D12068E2
:103DC000884201D050453BD16068012838D1606CF1
:103DD000B0BBDFF820838B46206808F120085845E7
:103DE00001D0404502D1C348001F1BE0C3498842AF
:103DF00003D0C2492031884202D1C048001F11E0DF
:103E0000BF49884203D0BE492031884202D1BC4814
:103E1000001F07E0504503D0B749203188420FD139
:103E2000B548001F814694F8910028B9002084F815
:103E30009000204600F06CF9204601F0A7FC10B17C
:103E40000120BDE8F09FE068022184F8911020B1C4
:103E500001280CD002280CD00020A1684FF4006685
:103E6000062908D2DFE801F007090C6A6D701020FE
:103E7000F3E72020F1E7002503E04FF4806500E040
:103E80003546C9F80000206A4FF40077E8B321688E
:103E90000020594501D0414504D100214FF48070E4
:103EA000FEF744FB954A2168914203D0934A2032A1
:103EB000914203D100213846FEF738FB904A216831
:103EC000914203D08E4A2032914203D100213846DC
:103ED000FEF72CFB2268524504D100214FF480608C
:103EE000FEF724FB8449226820318A4203D1002155
:103EF0003046FEF71BFBA169B1F5002F27D0A16A60
:103F0000B1F1806F37D0012100E038E0226A00EB88
:103F1000800040004A431102B0FBF1F00A22B0FBDE
:103F2000F2F3B0FBF2F1616202FB1300082801D941
:103F3000491C6162606C04281FD020E040F0010041
:103F40009EE740F002009BE740F0030098E7616CB9
:103F500004290BD008290BD0D4F8541000EB8000B2
:103F6000226A4A434000B0FBF2F0D7E74021F5E770
:103F70004FF48071F2E70221C6E74808606260688A
:103F800078B302282ED0206D012800D00027FDF73D
:103F900081FFB0F5005F206828D35A4A01681140BC
:103FA0000160D4E911316068D4F84CC0184341EA8B
:103FB0000C01B4F824C0084321683843D4E905361D
:103FC000D4E90A82284325698E46096810431843BC
:103FD000304340EA0C5040EA080028430843714649
:103FE00021E0FFE7206D0128D0D0D0E7464A0168E4
:103FF00011400160D4E911626068E16C3043B4F8AB
:1040000024800A431043D4E9056CD4E90A232168CB
:10401000384328430D681843304340EA0C0040EA17
:10402000085010432843086020686FF0FF01374AAA
:104030004EF20F064FF220074568B54345602068F1
:10404000D4F81CC0266B456845EA0C05D4F834C08A
:1040500046EA0C0635434560206885681540856052
:10406000D4E91850D4E916C2666D10432268761E52
:1040700035432843956801EB0C2630432843906074
:1040800054F8680BC2683A40C26094E8C100A58940
:1040900054F8682D01EB072141EA05413043D5680A
:1040A00008432843D0602068584501D0504518D1B6
:1040B000D9F8440020F00101C9F8441094F8380000
:1040C00001280ED1D4E90F106FF00F0202EB01119D
:1040D0000843C9F84400D9F8440040F00101C9F888
:1040E00044100020C4F89400012184F8911084F851
:1040F0009000A6E60458014004540058045C0140B6
:104100000460014010C005F010C005F80080F8FF01
:104110002DE9F041B6B08046C0216846FCF788F929
:104120003549D8F80000884263D180150021052266
:104130000D468DE80700022406942C266C23039379
:104140008027CDE90464CDE907710120099116901B
:104150006846FEF74FFB08B1FCF7CBFB274E3068F3
:1041600080B92748016841F480010160006800229D
:10417000052100F4800035905720FDF781FF57207E
:10418000FDF770FF306830210627401C306030A8F2
:1041900080E832001B4830A9CDE93357FDF752FDC6
:1041A000309430A9CDE931451748CDE93357FDF7B3
:1041B00049FD17485721154C0215C3142060871577
:1041C000C4E90115C4E903524FF4403004F114016D
:1041D000C4E90805D600204681E8C800FDF702FAC8
:1041E00008B1FCF786FBC8F88440C4F83880C8F8EA
:1041F000804036B0BDE8F08104580140140000242E
:10420000F0440258001002580008025850210024BF
:104210001000024070B5044629B122B194F8910013
:10422000012802D048E0012070BD94F890000128D8
:1042300042D0012384F89030A1670025A4F87C20A7
:104240002220A4F87E20C4F8945084F89100D4F879
:1042500084101A480864D4F884101948C863D4F844
:1042600084101848C864D4F8840005652168B4F83F
:104270007C30A26F1C31D4F88400FDF795FB10B19F
:1042800084F89050CFE70021204601F09FFA216882
:104290000A69104308612068016841F40031016037
:1042A00020680168C90303D4016841F480310160CA
:1042B000002084F8905070BD022070BD8357000824
:1042C000495700080D5700087047704770477047FE
:1042D000704710B5040003D094F83D0010B107E01A
:1042E000012010BD002084F83C00204600F022F898
:1042F000022084F83D002068211D01F0DBFB012035
:1043000084F8480084F83E0084F83F0084F84000B8
:1043100084F8410084F8420084F8430084F84400A3
:1043200084F8450084F8460084F8470084F83D008E
:10433000002010BD7047000090F83D10012901D009
:1043400001207047174A022180F83D100168CB68B0
:1043500043F00103CB600068904214D0B0F1804F6D
:1043600011D0114988420ED0104988420BD0104913
:10437000884208D00F49884205D00F49884202D0B0
:104380000E49884207D181680D4A1140062906D09E
:10439000B1F5803F03D0016841F0010101600020C8
:1043A0007047000000000140000400400008004089
:1043B000000C004000040140001800400040014093
:1043C0000700010070472DE9F0410446006800270E
:1043D000C6680569A90713D5B10711D5FA1E026190
:1043E00001212177206880698007204602D0FFF7ED
:1043F000E9FF04E000F08BF8204600F089F8277709
:10440000680716D5700714D5226802206FF00401E2
:10441000116120772068806910F4407F204602D027
:10442000FFF7D0FF04E000F072F8204600F070F8CB
:104430002777280715D5300713D5226804206FF099
:104440000801116120772068C0698007204602D0EA
:10445000FFF7B8FF04E000F05AF8204600F058F8E3
:104460002777E80616D5F00614D5226808206FF0E5
:104470001001116120772068C06910F4407F204648
:1044800002D0FFF79FFF04E000F041F8204600F063
:104490003FF82777E80708D0F00706D021686FF0CB
:1044A00001000861204600F035F8280601D4A80470
:1044B00008D5300606D521686FF402500861204601
:1044C000FFF705FFE80508D5300606D521686FF42B
:1044D000807008612046FFF7F9FE680608D570066F
:1044E00006D521686FF040000861204600F01CF8F6
:1044F000A8060AD5B00608D521686FF0200008612B
:104500002046BDE8F041FFF7E3BEBDE8F08170470B
:104510007047000000680349884201D1FDF7C6BC1E
:104520007047000000100040704730B590F88410CC
:10453000012918D0012280F884202421C0F8881095
:104540000022202401680B680D6823F0005325F039
:1045500001050D60426601680B60C0F8884080F874
:104560008420104630BD022030BD70B5044690F85E
:10457000840001281DD0012284F884202420C4F85E
:10458000880020680568026822F001020260206845
:10459000826822F060620A438260204601F0F0FAED
:1045A0002268202100201560C4F8881084F8840057
:1045B00070BD022070BD70B5044690F884000128DB
:1045C0001DD0012284F884202420C4F888002068AB
:1045D0000568026822F0010202602068826822F009
:1045E00060420A438260204601F0CAFA2268202114
:1045F00000201560C4F8881084F8840070BD022083
:1046000070BD10B5040003D0D4F8880010B107E0E5
:10461000012010BD002084F88400204600F026F818
:104620002420C4F888002068016821F0010101609D
:10463000A06A10B1204601F0C5FA204601F0A6FBA1
:104640000128E6D02068416821F49041416020684B
:10465000816821F02A0181602068016841F0010130
:1046600001602046BDE8104001F010BB10B5B6B0A7
:104670000446142130A8FBF7DBFEC0216846FBF797
:10468000D7FE1949206888422BD100201F900121B4
:104690000446CDE900106846FEF7ACF808B1FCF717
:1046A00028F91248016841F010010160006800F02B
:1046B000100035900D481038016841F0010101608B
:1046C000006830AB022100F0010035904FF4C0606B
:1046D000072283E81300064830A9CDE93342FDF7ED
:1046E000B1FA36B010BD000000100140F04402588D
:1046F000000002582DE9F8430446D0F88800984697
:1047000016460D46202802D00220BDE8F883A5B148
:104710009EB10021C4F890102120C4F888001834FC
:10472000FDF7BEFB814654F8100CA687E6872027CC
:10473000183CB0F5805F02D003E00120E5E7206976
:1047400010B12E46002510E000260EE08021204604
:1047500001F0F2FCC0B9DEB116F8010B21688862E5
:10476000B4F85600401EA4F85600B4F856004B4664
:104770004FF00002CDF800800028E7D14FF0400153
:10478000204601F0D9FC48B1C4F888700320BCE78A
:1047900035F8020B2168C0F30800E0E7C4F8887020
:1047A0000020B2E7FEE700000A4A01B507490848C1
:1047B0001268B2FBF1F24168009B5A4300924268D2
:1047C000009B521A9A42FAD308BD0000A08601004D
:1047D000001000E0280000242DE9F041224E0024C2
:1047E0000122074608213046FDF74FFB00256006F1
:1047F0000122040E30460421FDF747FB0220FFF79B
:10480000D3FF08213046FDF733FB08B1641CE4B246
:10481000304600220421FDF738FB0220FFF7C4FFD9
:104820006D1CEDB2082DE2D3E7B10122304608211C
:10483000FDF72BFB0220FFF7B7FF012230460421D2
:10484000FDF723FB0220FFF7AFFF002230460421D3
:10485000FDF71BFB012230460821FDF716FB204621
:10486000BDE8F0810022E1E70010025870B5134E58
:1048700000240546280601D5012200E0002230462A
:104880000821FDF702FB6806050E0220FFF78CFFEA
:10489000012230460421FDF7F8FA0220FFF784FFD9
:1048A000002230460421FDF7F0FA0120FFF77CFFDB
:1048B000641CE4B2082CDDD370BD00000010025867
:1048C00010B50E4C012208212046FDF7DEFA012228
:1048D00020460421FDF7D9FA0220FFF765FF0022E8
:1048E00020460821FDF7D1FA0220FFF75DFF0022E4
:1048F0002046BDE810400421FDF7C7BA0010025859
:1049000010B5104C002204212046FDF7BEFA00220B
:1049100020460821FDF7B9FA0220FFF745FF0122E2
:1049200020460421FDF7B1FA0220FFF73DFF0122E6
:1049300020460821FDF7A9FABDE810400220FFF744
:1049400033BF00000010025870B50F4D0024012243
:1049500008212846FDF799FA0220FFF725FF0122DA
:1049600028460421FDF791FA0220FFF71DFF0821D8
:104970002846FDF77DFA00B10124284600220421D3
:10498000FDF783FA204670BD00100258094808B5AB
:10499000016841F00101016000680022052100F07A
:1049A000010000900B20FDF76BFBBDE808400B20D9
:1049B000FDF758BBD84402581CB50E4A00210E48DA
:1049C00001F080FF0D4A002118240B4610614FF4BE
:1049D0000072CDE900410F4809A103F0A3FB07488D
:1049E00000234FF480720CA1CDE900400D4803F084
:1049F00099FB1CBDC485000859580008000000241C
:104A000050434D4433313830496E69745461736B8F
:104A100000000000614C00085374617274546173AB
:104A20006B0000006D5800082DE9F04186B014219C
:104A30006846FBF7FDFC2D48016841F0100101605C
:104A4000016801F010010591016841F00401016065
:104A5000016801F004010591016841F080010160E5
:104A6000016801F080010591016841F001010160D8
:104A7000016801F001010591016841F00201016046
:104A8000006801221A4C0C2100F00200059020461B
:104A9000FDF7FBF9DFF85C80002203214046FDF7BB
:104AA000F4F9012603270C2011218DE8C300694683
:104AB0002046FDF7C7F800246946022504208DE84A
:104AC00031000D48FDF7BEF80C486946CDE90054A9
:104AD0000295FDF7B7F800976946CDE901644046B5
:104AE0000394FDF7AFF806B0BDE8F081E04402584A
:104AF0000010025800040258000802580000025832
:104B00002DE9F0411B488024194D002101224FF668
:104B1000FF7700F15C0805601302C0E91114C1645D
:104B20004BF6803401659504C0E9012141611026EE
:104B300081618162C0E90714C1605404C1620163EC
:104B400080F83810C0E90F2388E8320000F16C04C7
:104B5000816684E8C200C0E91532FFF723F9002816
:104B600003D0BDE8F041FBF7C4BEBDE8F081000012
:104B700004580140B82000241848002110B5164CF4
:104B80000C224FF4E1330460C0E90131C160C0E997
:104B900004128161C161016241628162FFF731FDEE
:104BA00008B1FBF7A6FE0D480021FFF704FD08B190
:104BB000FBF79FFE09480021FFF7D7FC08B1FBF780
:104BC00098FE0648FFF7B1FC002803D0BDE810406E
:104BD000FBF78FBE10BD000000100140C82100246B
:104BE000FEE70000054D4FF47A74204601F0AFFD5A
:104BF00002212846FDF741F9F7E7000000040258BA
:104C0000054D4FF47A74204601F0A1FD012128469C
:104C1000FDF733F9F7E70000000402580C4D0D4E84
:104C20000D4C0A2001F093FD02212846FDF720F9E2
:104C3000012809D002213046FDF71AF90128F0D1E8
:104C4000606802F03BFDECE7606802F0B9FDE8E760
:104C5000000002580008025800000024FEE700008F
:104C60000D494FF480520D4810B5FFF7D3FA08B143
:104C7000FBF73FFE4FF47A7002F028FC00214C2035
:104C800000F00EF808214D2000F00AF8BDE81040B1
:104C9000002002F041BC0000B8000024B82000242D
:104CA00070B50C46054600F0B4F80A2002F00EFC80
:104CB0000121284600F0B1F8284600F01CF82146F2
:104CC000284600F095F8284600F062F8284600F0E3
:104CD00052F8284600F022F8284600F03AF8002161
:104CE000284600F09AF80A2002F0F0FB284600F06F
:104CF00045FB002070BD10B501220446072101F0DC
:104D000066FA01222046082101F061FA00222046BD
:104D1000BDE81040092101F05ABA000070B5002228
:104D200006463B2100F078FB5FF00004402204EBD4
:104D300084003C30C5B23046294600F06DFB2D1D85
:104D400030460022E9B200F067FB641C082CEDDB62
:104D500070BD10B500220446132100F05DFB002257
:104D60002046142100F058FB00222046BDE81040E8
:104D7000162100F051BB10B5022204466B2100F051
:104D80004BFB00222046BDE810406C2100F044BBE4
:104D900010B5402204461F2100F03EFB00222046B1
:104DA000202100F039FB00222046212100F034FBB5
:104DB00040222046222100F02FFB402220462321C2
:104DC00000F02AFB40222046242100F025FB40224F
:104DD0002046252100F020FB452220462B2100F013
:104DE0001BFB67222046BDE810402C2100F014BBBD
:104DF00070B500240D460646291904F10B00CAB20D
:104E0000C1B2304601F0E3F9641CE4B2082CF3D3DC
:104E100070BD0122114601F0DAB9012903D08122C7
:104E2000022101F0D4B98022FAE7000038B5044627
:104E300060A001F0CFF96BA0214601F0CBF974A07E
:104E400001F0C8F900216A46204600F0A9FA9DF851
:104E500000107AA001F0BEF902216A46204600F057
:104E60009FFA9DF8001080A001F0B4F907216A466E
:104E7000204600F095FA9DF8001087A001F0AAF9ED
:104E800008216A46204600F08BFA9DF800108DA09C
:104E900001F0A0F90B216A46204600F081FA9DF846
:104EA000001093A001F096F913216A46204600F005
:104EB00077FA9DF8001096A001F08CF916216A4649
:104EC000204600F06DFA9DF800109CA001F082F9D8
:104ED0001F216A46204600F063FA9DF80010A2A048
:104EE00001F078F920216A46204600F059FA9DF831
:104EF0000010A8A001F06EF922216A46204600F0B9
:104F00004FFA9DF80010AEA001F064F92B216A461B
:104F1000204600F045FA9DF80010B4A001F05AF9BF
:104F20002F216A46204600F03BFA9DF80010BAA0F7
:104F300001F050F936216A46204600F031FA9DF81A
:104F40000010C0A001F046F93C216A46204600F05E
:104F500027FA9DF80010C6A001F03CF96B216A46C3
:104F6000204600F01DFA9DF80010CCA001F032F9A7
:104F700073216A46204600F013FA9DF80010D2A073
:104F800001F028F974216A46204600F009FA9DF8DC
:104F90000010D8A001F01EF975216A46204600F0E5
:104FA000FFF99DF80010DEA001F014F9E7A001F070
:104FB00011F938BD0D0A3D3D3D3D3D3D3D3D3D3D79
:104FC0003D3D3D3D3D3D3D3D3D3D3D3D3D3D3D3D11
:104FD0003D3D3D3D3D3D3D3D3D3D3D3D3D3D0D0A64
:104FE000000000002050434D4433313830205265DA
:104FF0006769737465722044756D70207C20446508
:10500000766963653A203078253032580D0A000001
:105010003D3D3D3D3D3D3D3D3D3D3D3D3D3D3D3DC0
:105020003D3D3D3D3D3D3D3D3D3D3D3D3D3D3D3DB0
:105030003D3D3D3D3D3D3D3D0D0A00005B3078303E
:10504000305D20506167652053656C656374203A5C
:1050500020307825303258202845787065637420D8
:1050600030783030290D0A005B307830325D2053C3
:105070004C4545505F4346472020203A2030782554
:10508000303258202845787065637420307830318C
:105090002F3831290D0A00005B307830375D204110
:1050A00053495F43464730202020203A203078255E
:1050B000303258202845787065637420307830315C
:1050C000290D0A005B307830385D204153495F4339
:1050D000464731202020203A203078253032582091
:1050E000284578706563742030783031290D0A00C6
:1050F0005B307830425D204348315F534C4F542041
:105100002020203A203078253032580D0A00000047
:105110005B307831335D204D53545F434647302038
:105120002020203A203078253032582028457870C9
:105130006563742030783030290D0A005B30783197
:10514000365D20434C4B5F53524320202020203AB1
:1051500020307825303258202845787065637420D7
:1051600030783030290D0A005B307831465D2050B0
:10517000444D434C4B5F43464720203A203078252E
:105180003032582028457870656374203078343088
:10519000290D0A005B307832305D2050444D494E75
:1051A0005F4346472020203A20307825303258206F
:1051B000284578706563742030783030290D0A00F6
:1051C0005B307832325D2047504F315F4346472095
:1051D0002020203A20307825303258202845787019
:1051E0006563742030783430290D0A005B307832E2
:1051F000425D204750495F43464730202020203AF7
:105200002030782530325820284578706563742026
:1052100030783435290D0A005B307832465D2047FE
:1052200050495F4D4F4E20202020203A20307825D5
:105230003032582028496E7075742053746174653B
:10524000290D0A005B307833365D20494E545F4C9F
:10525000544348302020203A2030782530325820DE
:10526000284572726F72204C6F67290D0A0000008A
:105270005B307833435D204348315F494E5352439E
:105280002020203A20307825303258202845787068
:105290006563742030783430290D0A005B3078362D
:1052A000425D204453505F43464730202020203A3F
:1052B0002030782530325820284578706563742076
:1052C00030783032290D0A005B307837335D204961
:1052D0004E5F43485F454E202020203A20307825FD
:1052E00030325820284578706563742030784646FF
:1052F000290D0A005B307837345D204153495F4FF8
:1053000055545F454E20203A2030782530325820C1
:10531000284578706563742030784646290D0A0068
:105320005B307837355D205057525F434647202029
:105330002020203A203078253032582028457870B7
:105340006563742030784530290D0A003D3D3D3DB0
:105350003D3D3D3D3D3D3D3D3D3D3D3D3D3D3D3D7D
:105360003D3D3D3D3D3D3D3D3D3D3D3D3D3D3D3D6D
:105370003D3D3D3D0D0A0D0A0000000010B5FF2225
:105380000446732100F048F8FF222046742100F003
:1053900043F8E0222046BDE81040752100F03CB8FB
:1053A0002DE9F0411B4C16460F4605466421206846
:1053B00001F00AFA10B10120BDE8F081FFF780FA90
:1053C0006806000EFFF752FAFFF7BEFA80B93846BA
:1053D000FFF74CFAFFF7B8FA50B9FFF771FA01205E
:1053E00000EB4500C0B2FFF741FAFFF7ADFA28B174
:1053F000FFF786FA206801F044FADCE70120FFF7A6
:10540000EBF93070FFF77CFA206801F03AFA0020DF
:10541000D2E70000B00000242DE9F041164C1646FA
:105420000F4605466421206801F0CEF910B1012035
:10543000BDE8F081FFF744FA6806000EFFF716FAA0
:10544000FFF782FA58B93846FFF710FAFFF77CFAEF
:1054500028B93046FFF70AFAFFF776FA28B1FFF7C6
:105460004FFA206801F00DFAE1E7FFF749FA2068EA
:1054700001F007FA0020DBE7B00000242DE9F04737
:10548000454D044689464FF0000A2868C04380070E
:105490000AD0414E283E306820F080603060FCF732
:1054A000FFFC0746B04608E00120BDE8F08700BFDA
:1054B000FCF7F6FCC01B022867D8D8F800000001F2
:1054C000F6D4206829684FF4FE0721F47C313E02AF
:1054D00041EA00302860207AA389B4F804C0400271
:1054E0002D4D2D495B1E227CACF1010C1035091DA0
:1054F000A0F5007080B2521ECCF3080C07EA0343FB
:1055000040EA0C00184306EA02621043286008686B
:10551000626920F0C000104308600A68A06922F0A8
:10552000200202430A60281D0A6822F010020A6065
:1055300002684FF6F873E4699A4342EAC4020260D3
:105540000868B9F1000F40F010020A6011D0086835
:10555000B9F1010F11D040F400100860D8F8000034
:10556000444640F08060C8F80000FCF799FC05460E
:105570000DE0086840F40020EFE740F48010ECE70D
:10558000FCF78EFC401B022801D903208DE7206820
:105590000001F5D5504688E7284402582DE9F04728
:1055A000454D044689464FF0000A2868C0438007ED
:1055B0000AD0414E283E306820F080503060FCF721
:1055C0006FFC0746B04608E00120BDE8F08700BF49
:1055D000FCF766FCC01B022867D8D8F800008000E2
:1055E000F6D4208829684FF4FE0721F07C713E0232
:1055F00041EA00502860207AA389B4F804C0400230
:105600002D4D2D495B1E227CACF1010C1835091D76
:10561000A0F5007080B2521ECCF3080C07EA0343D9
:1056200040EA0C00184306EA02621043286008684A
:10563000626920F44060104308600A68A06922F49F
:10564000007202430A60281D0A6822F480720A6010
:1056500002684FF6F873E4699A4342EAC4020260B2
:105660000868B9F1000F40F480720A6011D0086830
:10567000B9F1010F11D040F080700860D8F8000037
:10568000444640F08050C8F80000FCF709FC05468D
:105690000DE0086840F48000EFE740F40000ECE71C
:1056A000FCF7FEFB401B022801D903208DE7206890
:1056B0008000F5D5504688E7284402580148FEF797
:1056C000C7BA0000B820002470B5846B0025691E9D
:1056D0002068026822F400320260206805612068B8
:1056E0008161D4F89400202807D0204600F04EF8BD
:1056F0002068416841F008014160012084F8910070
:105700002046A4F87E50FEF7A1FA70BD10B5846B58
:10571000FBF7F2FB022816D0D4F8940040F080008A
:10572000C4F894002068016821F40031016020462B
:1057300000F02CF8012184F891100020A4F87E00DC
:105740002046FEF783FA10BD10B5C169846BB1F530
:10575000807F12D020680021026822F400320260AB
:105760002046A4F87E1000F031F80146206801239D
:1057700002698A43026184F891302046FEF7A4FD55
:1057800010BD10B5806BFEF7A0FD10BD30B50E4A00
:1057900041F658330168146800220D68B4FBF3F336
:1057A00025F480340C60990031B103681B68491EF0
:1057B000DB03F9D4104630BDD0F89410032241F039
:1057C0004001C0F89410F5E72800002401294FF0AB
:1057D000010100D10921426C4068082A05D1032843
:1057E00001D0012803D141F01001032804D0022880
:1057F00002D041F00400704741F0600070470000A3
:10580000104810B50168C9010AD40F490368002285
:1058100043F0807303604A60086840F0010008604C
:105820000A4800F0FAFF0A4901220A4C08600421E4
:105830002046FCF72AFB01222046BDE81040082143
:10584000FCF723BBFCED00E0001000E02886000818
:10585000B0000024001002584FF47A744D20FFF776
:10586000E5FA204600F073FFF8E700007CB501F090
:1058700055FD144818244FF4807500232A4612A1C0
:10588000CDE90040124802F04DFC0E48002311A162
:105890002A46001DCDE90040104802F043FC0948AB
:1058A00000230FA12A460830CDE900400E4802F03F
:1058B00039FC01F053FD0348001F0068BDE87C403F
:1058C00001F02ABE040000244D795461736B00007E
:1058D000E54B00084D795461736B3200014C0008B0
:1058E0004D795461736B33001D4C00084FF0E0207C
:1058F00010B5006902F074FC012803D0BDE8104027
:1059000002F060B810BD000070B59CB04C21684634
:10591000FAF78EFD202113A8FAF78AFD0220FCF782
:10592000E1FB214800242149026842F44042026020
:1059300002680A6842F001020A60096801F0010188
:105940001B9101688904FCD5022009900DF1280CF7
:10595000C2030523C02601218CE84900CDE90012CD
:10596000CDE90D0108250F90CDE910546846129439
:10597000FDF754FE08B172B6FEE740201A903F21B1
:105980000301CDE916500322CDE9180313AB13A888
:1059900083E816000421FDF703FC002801D072B64D
:1059A000FEE71CB070BD0000184802582C040058D7
:1059B0003348F0B5334A016841F470010160106862
:1059C00000F00F00072804D2106820F00F00C01D5F
:1059D00010602D4900202C4C10340B682B4D43F0E7
:1059E00001030B6020600B682B400B60136803F011
:1059F0000F03072B04D9136823F00F03DB1D13607B
:105A0000214C234A1834234B261D371D20601E4C81
:105A1000214D28343060261D3860371D23603B1D22
:105A200035601C1D3A60251D2E1D1860331D226037
:105A30002860326018600A68134B184C22F48022E8
:105A400060330A60186020686FF30F00B0F1005FE8
:105A500003D213490120C1F808010B48D430016872
:105A6000C9040BD4026843F2D2010E4B42F48052B7
:105A700002601960016821F480510160F0BD0000EE
:105A800088ED00E000200052004402587FEDF6EA65
:105A900080020101000202020000FF010010005C10
:105AA00000800051004000520148FEF78CBC00000D
:105AB0005C2200242DE9F047294B4FF0804A294D04
:105AC00002689842284E294F294C09D0504507D0EA
:105AD000A84205D0B04203D0B84201D0A04205D1BF
