:020000040800F2
:1000000060160124110400083D3C0008C1390008B5
:10001000C13B0008591100086948000800000000B1
:100020000000000000000000000000005103000874
:100030005B11000800000000AD030008893F0008C4
:100040002F0400082F0400082F0400082F040008C4
:100050002F0400082F0400082F0400082F040008B4
:100060002F0400082F0400082F0400082F040008A4
:100070002F0400082F0400082F0400082F04000894
:100080002F0400082F0400082F0400082F04000884
:100090002F0400082F0400082F0400082F04000874
:1000A0002F0400082F0400082F0400082F04000864
:1000B0002F0400082F0400082F0400082F04000854
:1000C0002F0400082F0400082F0400082F04000844
:1000D0002F0400082F0400082F0400082F04000834
:1000E0002F0400082F040008000000002F0400085F
:1000F0002F0400082F0400082F0400082F04000814
:100100002F0400082F0400082F0400082F04000803
:100110002F0400082F040008454100082F040008A0
:100120002F0400082F0400082F0400082F040008E3
:100130002F0400082F0400082F0400082F040008D3
:1001400000000000000000000000000000000000AF
:100150002F0400082F0400082F0400082F040008B3
:100160002F0400082F0400082F0400082F040008A3
:100170002F0400082F0400082F04000800000000CE
:100180002F0400082F0400082F0400082F04000883
:100190002F0400082F0400082F0400082F04000873
:1001A0002F0400082F0400082F0400082F04000863
:1001B0002F0400082F0400082F0400082F04000853
:1001C0002F0400082F0400082F0400082F04000843
:1001D0002F0400082F0400082F0400082F04000833
:1001E0002F0400082F0400082F0400082F04000823
:1001F0002F0400082F0400082F0400082F04000813
:100200002F0400082F0400082F0400082F04000802
:100210002F0400082F0400082F0400082F040008F2
:100220002F0400082F0400082F040008000000001D
:100230002F0400082F040008000000002F0400080D
:100240002F0400082F0400082F0400082F040008C2
:100250002F0400082F0400082F0400082F040008B2
:100260002F0400082F0400082F0400082F040008A2
:100270002F0400082F0400082F04000800000000CD
:100280002F0400082F0400082F04000800000000BD
:10029000000000002F04000800F002F800F049F808
:1002A0000AA090E8000C82448344AAF10107DA45D1
:1002B00001D100F03EF8AFF2090EBAE80F0013F0DA
:1002C000010F18BFFB1A43F00103184794600000A8
:1002D000B4600000103A24BF78C878C1FAD8520739
:1002E00024BF30C830C144BF04680C6070470000B0
:1002F0000023002400250026103A28BF78C1FBD82F
:10030000520728BF30C148BF0B607047642900F016
:100310005B81002070471FB505F0E2FF9DE80300F8
:1003200000F0ECFC00F0DEFA1FBD10B500F043FB5E
:1003300010BD00F0A6FB1146FFF7EDFF04F0B2FA86
:1003400000F0AAFC03B4FFF7F0FF03BC00F068FE66
:100350002C4B19680868B0E8F04F80F30988BFF3A8
:100360006F8F4FF0000080F311887047000000008D
:1003700008480068006880F308884FF0000080F3A8
:10038000148862B661B6BFF34F8FBFF36F8F00DF83
:1003900000BF00BF08ED00E0DFF80C00016841F489
:1003A00070010160704700BF88ED00E0EFF3098045
:1003B000BFF36F8F134B1A681EF0100F08BF20EDAC
:1003C000108A20E9F04F106009B44FF0500080F31C
:1003D0001188BFF34F8FBFF36F8F05F04BFA4FF0CB
:1003E000000080F3118809BC19680868B0E8F04F74
:1003F0001EF0100F08BFB0EC108A80F30988BFF31D
:100400006F8F70472C000024EFF3058070470000C9
:100410000A4880470A4880470A480047FEE7FEE747
:10042000FEE7FEE7FEE7FEE7FEE7FEE7FEE7FEE7A4
:1004300005480649064A074B70470000611100084D
:100440004D40000899020008601001246016012444
:10045000601201246012012453EA020C00F069804A
:100460002DE9F04B4FF00006002B1FBFB3FA83F5C8
:1004700003FA05F424FA05F65E4012BF1643B2FAF9
:1004800082F502FA05F4C5F120051EBF22FA05FC2B
:1004900044EA0C04203556EA044C4FEA144418BFD1
:1004A000641C4FF000084FF00009904271EB030C00
:1004B00039D3002919BFB1FA81F701FA07F6B0FA6A
:1004C00080F700FA07F6C7F120071EBF20FA07FCE5
:1004D00046EA0C062037B6FBF4FCA7EB0507103FF5
:1004E00007F01F0BCBF120060CFA0BFB2CFA06F6DB
:1004F00044BFB3460026202FA4BF5E464FF0000B3A
:100500005BEA060C08BF4FF0010B19EB0B09ABFBC4
:10051000027C48EB0608C01B06FB02CC0BFB03CC9D
:1005200071EB0C01C1E70B46024641464846BDE867
:10053000F08B13B54FF000004FF00001AFF30080D7
:10054000BDE81C40704700000FB4044910B503AA71
:10055000029800F045F910BC5DF814FB580F012417
:100560002DE9F0410E460446002020622046E16855
:10057000884730B3252805D0D4E901219047206A67
:10058000401CF2E7E168204600278847050018D0A4
:10059000A5F14100192802D820354FF400673246F2
:1005A000294620462760FFF7B1FE40B1012804D05C
:1005B000F61D26F007060836D8E7361DD6E728468A
:1005C000DAE7206ABDE8F0812DE9F0410646002413
:1005D00010687529314616A510D0AFF300800028A9
:1005E00002DA404213A507E031688A0701D512A557
:1005F00002E0490704D511A5012401E0AFF3008012
:1006000000210A2206F1240709E0B0FBF2FCB0FB4E
:10061000F2F302FB1C00303078541846491C0028C5
:10062000F3D123462A463046BDE8F04100F07FB8BA
:10063000000000002D0000002B0000002000000042
:10064000032A40F2308010F0030C00F0158011F8FE
:10065000013BBCF1020F624498BF11F801CB00F8D6
:10066000013B38BF11F8013BA2F1040298BF00F82A
:1006700001CB38BF00F8013B11F0030300F0C2804A
:10068000083AC0F0088051F8043B083A51F804CB0E
:10069000A0E80810F5E7121D5CBF51F8043B40F8D4
:1006A000043BAFF30080D20724BF11F8013B11F8DF
:1006B00001CB48BF11F8012B24BF00F8013B00F823
:1006C00001CB48BF00F8012B704702F0FF0343EA5B
:1006D000032242EA024200F0C9B84FF0000200B51E
:1006E000134694469646203922BFA0E80C50A0E855
:1006F0000C50B1F12001BFF4F7AF090728BFA0E803
:100700000C5048BF0CC05DF804EB890028BF40F8CE
:10071000042B08BF704748BF20F8022B11F0804F10
:1007200018BF00F8012B70477047704770472DE9DC
:10073000F0470D4699469246044600F124080168A8
:10074000880604D5E06921F01001216000E0012055
:10075000A84201DD471B00E00027A1697A1902EBDE
:100760000900081AA0612078C00602D42046AFF321
:100770000080002608E0D4E901211AF8060090471D
:10078000206A401C761C20624E45F4DB2078C006AF
:100790000AD52046AFF3008006E0D4E901213020DD
:1007A0009047206A401C2062381EA7F10107F4DC44
:1007B00007E0D4E9012118F805009047206A401CA1
:1007C0002062281EA5F10105F3DC2046AFF300806E
:1007D0002078000602D50220BDE8F0870120FBE763
:1007E000074B70B50D467B4400F065F8044628467B
:1007F00000F074F810B14FF0FF3070BD204670BDAE
:10080000A340000010B5203AC0F00B80B1E81850AA
:10081000203AA0E81850B1E81850A0E81850BFF4EA
:10082000F5AF5FEA027C24BFB1E81850A0E8185089
:1008300044BF18C918C0BDE810405FEA827C24BFDD
:1008400051F8043B40F8043B08BF7047D20728BF6B
:1008500031F8023B48BF11F8012B28BF20F8023BBA
:1008600048BF00F8012B70474FF000020429C0F088
:10087000128010F0030C3FF432AFCCF1040CBCF149
:10088000020F18BF00F8012BA8BF20F8022BA1EB24
:100890000C01FFF724BF5FEAC17C24BF00F8012BE5
:1008A00000F8012B48BF00F8012B704701694A1C72
:1008B00002610878704700B58FB0CDE901310021A1
:1008C000059105497944CDE9031011466846FFF7C3
:1008D00047FE0FB000BD0000E5FFFFFF007B00F00A
:1008E0008000704710B542485421FFF7F6FE41489A
:1008F0005421FFF7F2FE40485421FFF7EEFE3F4936
:100900003B483C4A3F4B08603D490A603A49196000
:10091000531C0365481C1065012008653B48344A98
:1009200039A1784400F01CF920B9384878440A38D5
:1009300000F0BBF937482F4A35A1784400F010F990
:1009400020B9344878440A3800F0AFF932482A4ACE
:100950002FA1784400F004F920B92F4878440A38D0
:1009600000F0A3F940232248DC000021224600F0D9
:10097000D4F820B125487844543800F096F91D4841
:1009800022464023002100F0C8F820B121487844D5
:10099000543800F08AF9184822461023002100F04C
:1009A000BCF8002806D01C487844BDE810405638F2
:1009B00000F07BB910BD104870B5006D20F0010447
:1009C0000B4800F043F90B4800F040F90A4800F0EA
:1009D0003DF909E0206D20F00105204600F036F9D0
:1009E000204600F073F82C46002CF3D170BD0000B7
:1009F000040F0124580F0124AC0F0124AC00002483
:100A0000B0000024B400002472000000225A00004C
:100A1000770000000E5A0000FA5900000EB5CDE92B
:100A2000000100F0DDFA029069460120ABBE0EBD68
:100A300008B5694600900220ABBE08BD1FB58DE821
:100A4000070069460520ABBE04B010BD1FB58DE898
:100A50000F0069460620ABBEF6E708B56946009070
:100A60000920ABBE08BD1CB5CDE9000169460A20CE
:100A7000ABBE1CBD704708B5694600900C20ABBEEC
:100A800008BD754600F018F9AE46050069465346A4
:100A900020F00700854618B020B5FFF7C9FCBDE877
:100AA00020404FF000064FF000074FF000084FF0D5
:100AB000000B21F00701AC46ACE8C009ACE8C00966
:100AC000ACE8C009ACE8C0098D46704770B5044673
:100AD000051F00F0F7F80068002C14BF446870BDD3
:100AE000002C18BFAC423CBF20466468F8D30168B4
:100AF0000A18AA4218BF456003D12A680546114466
:100B0000016028684119A1421CBF6C6070BD61681A
:100B1000696021680844286070BD70B5C468A50785
:100B200013D0650211D4B2F5807F09D0B2F5007FF1
:100B300006D0B2F5806F08D1012300F1240106E050
:100B40005D1E6FF07F46B54201D3012070BD01618B
:100B5000C361416024F470611143C160002070BD25
:100B60002DE9F0410C4607461646104600F06EF897
:100B70002078611C61280AD0722802D077283CD1E5
:100B800002E00125002405E00225042402E00824F7
:100B900048F2020511F8010B2B2806D0622809D073
:100BA00011F8010C74280AD00BE045F0030544F05D
:100BB0000204EFE745F0040544F00104EAE744F0DD
:100BC000100438462146FFF729FF411C15D00021AB
:100BD000316171604FF40071F560F161706120075F
:100BE00004D530460222002100F0E6F8306D40F0D6
:100BF000010030653046BDE8F0810020FBE72DE9BB
:100C0000F0410D460646104C206DC10704D0410846
:100C100004D020F00104F7E722460EE0542000F053
:100C20009CF807000ED0206D47F0010108435421C5
:100C300020653846FFF751FD3A4629463046BDE863
:100C4000F0418DE70020D6E7040F01242DE9F0479D
:100C500004464FF000094FF0FF37C568D4E9048619
:100C6000A80707D0204600F057F93046FFF7E0FE0E
:100C7000002802DA3846BDE8F087280502D540464C
:100C8000FFF724FF4C212046FFF727FD206D20F0C1
:100C9000010020654846EEE710B50446AFF300803A
:100CA0002046BDE81040FFF74DBB10B500F07EF9BF
:100CB000BDE8104000F074B90048704700100124EE
:100CC00070470000004870470810012470477047C3
:100CD0007047704738B504460A4600206946AFF3AE
:100CE0000080002808BF38BD02460099204600F069
:100CF000A4F9012038BD012000F0F3B9F8B5AFF335
:100D00000080054600200C46102000BF0646A819AA
:100D1000A0420DD9324669460020AFF3008007009B
:100D200008BF00F0DEF90098A04218BF0546C419BC
:100D3000FFF7C8FF05600746F01D20F007004619C1
:100D4000284600F073F9B44208BFF8BDA21B314633
:100D50003868BDE8F84000F070B970B50646FFF796
:100D6000B1FF056806F10B0020F00704B4429CBFF8
:100D7000002070BD2B466A68BAB11068A04210D33B
:100D800004F1080188423CBF5068586007D351689D
:100D9000101941601168091B016058601460101D32
:100DA00070BD13465268002AE7D121462846FFF756
:100DB00091FF0028DED170BD2DE9F04104461646B2
:100DC0000D464769007B80072ED03846FFF745FE69
:100DD00050BB3EB3012E02D0022E25D104E02046A6
:100DE00000F045F905441DE03846FFF744FEE16890
:100DF000002841F01001E16005DA204600F058F8C3
:100E00000120BDE8F081C9030BD56268E16A914217
:100E100000D81146A26911442269891A814200DD75
:100E200008460544002D01DA0220EAE7E16A60681D
:100E3000E268814206D29103E06203D522F40031D8
:100E400041F01002A6690027AE4213DCE16A81423C
:100E500001D90B4600E0034603EB060C2369ACEB1B
:100E6000030CAC4506DD814201D98C4600E0844686
:100E70009C4505D1A760276042F02000A5620DE0E7
:100E8000AD1BE669AE1B8142A66000D90846C01AB8
:100E9000281A20605819606022F020000349084099
:100EA000E060002084F84870ABE70000BFCFD7FFB8
:100EB000C16821F4001141F08001C160002181600E
:100EC000016070472DE9F047814614460E464FF009
:100ED000FF383248D5685769054209D03846A169BC
:100EE000FFF7C1FD002811DB2C48C0430540E56039
:100EF0002B46324649463846FFF7A0FDA16920F04F
:100F00000042B21A11440028A16103D02046FFF725
:100F1000CFFF4046BDE8F08770B504460569C06A5A
:100F20006168884200D80846E16821F42011E16038
:100F3000C90312D5A84208D02246411B2846FFF714
:100F4000C1FF10B14FF0FF3070BD0020E562C4E971
:100F50000150E06820F48030E060002070BD10B5E2
:100F60000446C06820F02000E060A16AA0698842C1
:100F70000DD02046FFF7D0FFE06820F4405040F04D
:100F80001000E060A06AA0612069E062606044F245
:100F90004001E0688843E06010BD000010000200DE
:100FA000002801D000F03CB87047000010B50146A1
:100FB00002A000F07DF8012010BD00005349475207
:100FC000545245443A2052656469726563743A200C
:100FD00063616E2774206F70656E3A200000000018
:100FE00010B5431C02E010F8011B71B18107FAD162
:100FF0004FF0013202C88C1A8C4314EAC211F9D0A6
:10100000C01A0A0603D0C01E10BDC01A10BD0A04C3
:1010100001D0801E10BD0902FCD0401E10BD000092
:1010200001491820ABBEFEE7260002000021016046
:10103000C0E90110704710207047034640688C4695
:10104000002818BF88423CBF03464068F8D31868A0
:101050001844884207D00CF1030020F00700001D5F
:10106000411A521A0146081D0A60FFF72FBD10B53C
:101070000146C268900703D0900607D5886A0AE047
:1010800000F03EF801210160881E10BD8B694868A0
:1010900018440B69C01A91F848301BB191F84910F7
:1010A000401A10BD1103FCD50028FADD401E10BD0A
:1010B00070B505460C460A2000E06D1C00F018F8DB
:1010C00035B128780028F8D102E0641C00F010F84F
:1010D00014B120780028F8D1BDE870400A2000F053
:1010E00007B810B500F010F8BDE81040FFF758BF82
:1010F00008B569468DF800000320ABBE08BD0000AE
:10110000004870470010012410B5012805D00021C7
:1011100003A0FFF7CDFF012010BD09A1F8E70000F3
:1011200053494752544D454D3A204F7574206F66D0
:101130002068656170206D656D6F72790000000038
:101140003A2048656170206D656D6F727920636F1C
:101150007272757074656400FEE7704772B6FEE7E0
:10116000054805490839026842F002020260086831
:101170008004FCD5704700000C4802582DE9F84F58
:1011800003247D4D00234FF001094FF0B04B4FF089
:101190000F0AE9E009FA03F73A4076D00E7906F033
:1011A0000306012E01D0022E18D1D0F808C04FEA54
:1011B000430ECE6804FA0EF82CEA080C06FA0EF676
:1011C00046EA0C068660D0F804C00E792CEA070CBB
:1011D000C6F300169E4046EA0C0646600E79F643BA
:1011E000B6070BD0C6684FEA43088F6804FA08FCBC
:1011F00026EA0C0607FA08F73743C7600E7906F0AF
:101200000306022E12D1DE080F694FEA437C00EB81
:101210008606B646366A4FEADC6C0AFA0CF807FA1C
:101220000CF726EA08063743CEF820700F790668D7
:101230004FEA430807F0030704FA08FC07FA08F727
:1012400026EA0C06374307604E6816F4403F1CD070
:101250004A4E376847F00207376036689F0706F046
:101260000206009623F0030606F1B046B6463F0F8D
:10127000D6F80864DFF808810AFA07FC404526EA38
:101280000C0603D14FF0000C41E06CE0DFF8F4C035
:10129000604502D14FF0010C39E0DFF8ECC0604549
:1012A00002D14FF0020C32E0DFF8E0C0604502D11D
:1012B0004FF0030C2BE0DFF8D8C0604502D14FF0AF
:1012C000040C24E0DFF8CCC0604502D14FF0050CDF
:1012D0001DE0DFF8C4C0604502D14FF0060C16E0F7
:1012E000DFF8B8C0604502D14FF0070C0FE0DFF81F
:1012F000B0C0604502D14FF0080C08E0DFF8A4C090
:10130000604502D14FF0090C01E04FF00A0C0CFAD5
:1013100007FC4CEA060CCEF808C44F68DBF8006006
:10132000FF0226EA020600D516435F46CBF80060AE
:10133000D1F804C0DBF804605FEA8C2C26EA0206D0
:1013400000D516437E606E684F6826EA0206BF032A
:1013500000D516436E602E684F6826EA0206FF032A
:1013600000D516432E605B1C0A6832FA03F67FF440
:1013700011AFBDE8F88F000080000058F444025817
:10138000000002580004025800080258000C0258DD
:10139000001002580014025800180258001C02588D
:1013A00000200258002402580069084000D00120A3
:1013B0007047426921EA02030A4043EA024181611F
:1013C00070470AB1816170470904FBE70148006872
:1013D000000C70470010005C0148806870470000F6
:1013E0001800002402488168027811448160704727
:1013F00018000024032010B500F0FEF801F00EFBE9
:101400000F4A104914681368C4F3032203F00F0352
:101410008A5CC95C02F01F0201F01F01D0400A4A39
:1014200020FA01F11160094908600F2000F010F85E
:1014300008B1012010BD00F09FF8002010BD000091
:1014400018440258386300082800002424000024AF
:1014500010B5102804468AB02CD20022014636204E
:1014600000F0AAF8362000F099F8174804601748F1
:10147000016841F010010160006809A900F0100046
:101480000890684601F056FA0598B0B101F0A2FA4A
:1014900040000F4900220F4CB0FBF1F10E4840F222
:1014A000E7330460C0E90332491EC0E9011202F0CB
:1014B0001EF828B101200AB010BD01F08BFAE8E750
:1014C000054802F047F8F6E71C000024E8440258FB
:1014D00040420F0000100040E4010024154BF0B51D
:1014E000083B427813491A600B680A1F23F0010376
:1014F0000B6043681360057BC67A827A437B2D07B5
:10150000847B45EA0665C77B90F809C0067A90F8A7
:1015100000E045EAC24040EA834040EA444040EAF5
:10152000074040EA0C2040EA460040EA0E0008600E
:10153000F0BD0000A0ED00E0BFF35F8F0448002184
:101540000368034A23F480330360703211607047EC
:1015500024ED00E0074A40F00100064970321060B7
:10156000086840F480300860BFF34F8FBFF36F8F7F
:101570007047000024ED00E0074882B0016841F0A8
:1015800002010160006800220F2100F002000090BB
:10159000901E02B000F010B8F4440258002809DB95
:1015A000410900F01F028900012001F1E021904073
:1015B000C1F80001704700000E4BF0B41B680D46E7
:1015C000C3F30223C3F10706042E00D90426191D14
:1015D000072901D2002300E0DB1E012404FA06F1F2
:1015E0009C40491E2940641E994014402143F0BC90
:1015F00003F03BB90CED00E0064900F0070210B51E
:101600004FF6FF040868044B204040EA02201843CC
:10161000086010BD0CED00E00000FA05134970B53C
:101620000A68D243520705D5096801F007018142D3
:1016300013D118E00A6822F0070202430A60FFF79C
:10164000CBFE0A4D4FF47A760446083D07E000BF12
:10165000FFF7C2FE001BB04201D9012070BD28680F
:10166000C0438004F4D4002070BD00000C48025830
:1016700010B501F08DF905490968054AC1F3021159
:10168000515C01F01F01C84010BD00002044025809
:10169000386300084A4930B5494C0B1D0A680C34C0
:1016A00009681D68246802F0030305F00102C1F314
:1016B0000511C4F3CC04002914FB02F200EE102A39
:1016C000F8EE400A76D0414A9FED3E1ADFED3E1A11
:1016D000B7EE000A23B1012B5AD0022B18D15CE0DF
:1016E000374C283C23689B0612D5394B246801EE01
:1016F000901A1168C4F3C104F8EE612AE34001EEC8
:10170000903AC1F30801F8EE611A81EEA22A07E0CF
:1017100002EE101A1168F8EE422A81EEA22A45E084
:1017200001EE901A1168F8EE611A40EE811A71EE1E
:10173000800A62EE200AC1F3462101EE101AB8EECB
:10174000411A31EE001AC0EE811ABCEEE11A80EDAA
:10175000001A1168C1F3064101EE101AB8EE411AE1
:1017600031EE001AC0EE811ABCEEE11A80ED011ACA
:101770001168C1F3066101EE101AB8EE411A31EE9C
:10178000000A80EE801ABCEEC10A80ED020A30BD6C
:1017900001EE901ADFED0F2A03E001EE901ADFED63
:1017A0000E2A1168F8EE611A82EEA12AC1F308012F
:1017B000B6E7FFE7002101604160816030BD0000B5
:1017C00028440258000000390024744C3044025868
:1017D0000090D0030024744A20BCBE4B494930B568
:1017E000484C0B1D0A68143409681D68246802F00F
:1017F0000303C5F30012C1F30531C4F3CC0400297F
:1018000014FB02F200EE102AF8EE400A75D03F4AAF
:101810009FED3D1AB7EE000A6BB1DFED3D1A012BCB
:1018200001D0022B64D002EE101A1168F8EE422AA1
:1018300081EEA22A21E0334C283C23689B0612D576
:10184000344B246801EE901A1168C4F3C104F8EE19
:10185000612AE34001EE903AC1F30801F8EE611A03
:1018600081EEA22A0BE001EE901ADFED2B2A00BFD9
:10187000F8EE611A116882EEA12AC1F3080101EEA7
:10188000901A1168F8EE611A40EE811A71EE800A22
:1018900062EE200AC1F3462101EE101AB8EE411A99
:1018A00031EE001AC0EE811ABCEEE11A80ED001A8A
:1018B0001168C1F3064101EE101AB8EE411A31EE7B
:1018C000001AC0EE811ABCEEE11A80ED011A11680F
:1018D000C1F3066101EE101AB8EE411A31EE000AAA
:1018E00080EE801ABCEEC10A80ED020A30BD04E031
:1018F00001EE901ADFED092ABAE70021016041608C
:101900008160F3E728440258000000393844025847
:101910000024744A0090D0030024744C20BCBE4BB9
:10192000494930B5484C0B1D0A681C3409681D68CC
:10193000246802F00303C5F30022C1F30551C4F388
:10194000CC04002914FB02F200EE102AF8EE400A43
:1019500075D03F4A9FED3D1AB7EE000A6BB1DFED3F
:101960003D1A012B01D0022B64D002EE101A11682F
:10197000F8EE422A81EEA22A21E0334C283C23686B
:101980009B0612D5344B246801EE901A1168C4F3FB
:10199000C104F8EE612AE34001EE903AC1F3080178
:1019A000F8EE611A81EEA22A0BE001EE901ADFED4B
:1019B0002B2A00BFF8EE611A116882EEA12AC1F34A
:1019C000080101EE901A1168F8EE611A40EE811AD2
:1019D00071EE800A62EE200AC1F3462101EE101A70
:1019E000B8EE411A31EE001AC0EE811ABCEEE11ACF
:1019F00080ED001A1168C1F3064101EE101AB8EE2D
:101A0000411A31EE001AC0EE811ABCEEE11A80EDE7
:101A1000011A1168C1F3066101EE101AB8EE411AFD
:101A200031EE000A80EE801ABCEEC10A80ED020A97
:101A300030BD04E001EE901ADFED092ABAE700217B
:101A4000016041608160F3E72844025800000039DA
:101A5000404402580024744A0090D0030024744C7F
:101A600020BCBE4B2DE9F04FAC4A0546DFF8A8A2DA
:101A700080F48070DFF8AC9289B01311AA4C08434F
:101A8000A748AAF104064FF0805C4FF000582CD014
:101A900085F400770F4357D0DFF87CB285F4806778
:101AA0000F430BF1080B61D085F400670F4374D02E
:101AB00085F480570F436ED085F400570F434FF4E1
:101AC00080394FF4003E67D085F400270F4371D072
:101AD00085F480370F436ED085F480460E436BD07B
:101AE00085F400420A4368D02AE0DAF8001001F0D9
:101AF0000701052924D2DFE801F075BC7D25B1007E
:101B000006A8FFF7C7FD079809B0BDE8F08F684643
:101B1000FFF764FE0098F7E703A8FFF701FF0398BB
:101B2000F2E72068C0F3C10022FA00F0ECE7226877
:101B3000D20571D561456FD11846E5E74145E3D03F
:101B40000020E1E74846DFE7DAF8001001F4E07131
:101B500080294FD004DC002944D04029F0D188E00E
:101B6000C029EFD0B1F5807FEAD177E0DBF8001033
:101B700001F46001B1F5800F3CD004DC91B3B1F504
:101B8000001FDDD175E0B1F5C00FDBD0B1F5000F5E
:101B9000D6D163E001E018E030E0DBF8001001F09E
:101BA000E061B1F1007F25D008DCD9B1B1F1807FCF
:101BB000C6D15EE049E06CE079E09CE0B1F1407FA5
:101BC000C0D0B1F1806FBBD148E0DAF8001001F469
:101BD000E041B1F5005F0DD005DC19B1B1F5805FD2
:101BE000AED146E094E0B1F5405FABD0B1F5804FA7
:101BF000A6D133E020688000A2D58DE7DAF8001086
:101C000001F4E021B1F5403F6CD006DC61B14945FB
:101C10007AD0714594D157E037E0B1F5802F65D087
:101C2000B1F5A02F8CD10CE000F0D4FE6CE7684633
:101C3000FFF7D4FD019867E703A8FFF771FE04984A
:101C400062E721688903F1D47AE7DBF8001011F428
:101C500040310ED0494510D07145F5D13168256825
:101C600001F040516D077FF562AF00297FF45FAF4F
:101C700057E720680001E7D549E720688000E3D5F1
:101C800003A8FFF74DFE05983EE722689203DBD5D7
:101C900054E7306810F480303AD04845D4D12068F9
:101CA0000001D1D56846FFF799FD02982CE7DBF8D3
:101CB000001001F0E041B1F1405F13D008DC71B1D8
:101CC000614521D04145BFD120688000B4D437E7B9
:101CD000B1F1804F0AD0B1F1A04FB2D030E7FFF799
:101CE000C7FC11E720684007AED51AE72068C00599
:101CF000AAD521E708E0DAF8001011F04051A0D091
:101D0000614505D041459FD1206800018FD417E778
:101D10002068800198D5F3E6504402580090D00323
:101D200040787D010080BB00004402582DE9FE4F41
:101D30000546DFF8E48350F8081B0024F64FC9433A
:101D4000019005F12800264608F1240800900801BA
:101D50001DD4A86E50B1B0F5801F0CD0B0F5001F97
:101D60000ED0B0F5401F1ED001240FE0386840F4BB
:101D70000030386017E00198022101F061FF03E0B4
:101D80000098022101F0ECFF04000CD026462888C0
:101D9000C043C00523D4A86D05281ED2DFE800F09B
:101DA0000C11161B1B00AA6ED8F8001021F440116C
:101DB0001143C8F80010EAE7386840F40030386092
:101DC00009E00198002101F03BFF03E000980021A9
:101DD00001F0C6FF044674B100E0012426462888BD
:101DE000C043800528D4E86D80281ED00CDC90B15B
:101DF00040280ED114E0AA6DD8F8001021F0070198
:101E00001143C8F80010EAE7C02813D0B0F5807F6E
:101E100010D001240FE0386840F40030386009E049
:101E20000198002101F00CFF03E00098002101F06F
:101E300097FF04469CB126462888DFF8DC92C04311
:101E400009F12C0940052CD4D5F8A800B0F5800F75
:101E500020D00DDCA0B1B0F5001F0FD115E0EA6D68
:101E6000D8F8001021F4E0711143C8F80010E3E73E
:101E7000B0F5C00F13D0B0F5000F10D001240FE063
:101E8000386840F40030386009E00198002101F022
:101E9000D7FE03E00098002101F062FF04467CB108
:101EA00026462888C04300052DD4D5F8AC00B0F1F3
:101EB000007F21D00EDCA8B1B0F1807F10D116E0F8
:101EC000D5F8A820D9F8001021F460011143C9F811
:101ED0000010E6E7B0F1407F13D0B0F1806F10D072
:101EE00001240FE0386840F40030386009E00198C0
:101EF000002101F0A5FE03E00098002101F030FF71
:101F0000044674B126462868C04380011FD4E86C9B
:101F1000D8B110280FD0202812D0302815D0012495
:101F200014E0D5F8AC20D9F8001021F0E06111439D
:101F3000C9F80010E7E7386840F40030386004E082
:101F40000198022101F07CFE044674B126462888DF
:101F5000C043C0042BD4286EB0F5005F20D00DDC48
:101F6000A0B1B0F5805F0FD115E06B48EA6C20306E
:101F7000016821F0300111430160E8E7B0F5405FEE
:101F800013D0B0F5804F10D001240FE0386840F432
:101F90000030386009E00198002101F051FE03E0B3
:101FA0000098002101F0DCFE04468CB1264628880A
:101FB000C043800429D4686EB0F5403F23D010DCC4
:101FC00008B3B0F5803F14D0B0F5003F0FD115E055
:101FD0002A6ED8F8001021F4E0411143C8F800102F
:101FE000E5E7B0F5802F0ED0B0F5A02F0BD001247F
:101FF0000AE00198012101F023FE03E0009801218D
:1020000001F0AEFE044694B126462888C043400441
:102010002AD4D5F8B000B0F1405F23D010DC08B36B
:10202000B0F1805F14D0B0F1005F0FD115E06A6E9F
:10203000D8F8001021F4E0211143C8F80010E4E7BB
:10204000B0F1804F0ED0B0F1A04F0BD001240AE0C8
:102050000198012101F0F4FD03E00098012101F055
:102060007FFE044674B126462888C04300041FD46E
:10207000286FD8B1B0F1805F0ED0B0F1005F10D002
:10208000012414E0D5F8B020D9F8001021F0E04187
:102090001143C9F80010E7E7386840F400303860B1
:1020A00004E00198012101F0CBFD044674B12646FD
:1020B0002868C043C0011ED4A86CD0B101280ED03E
:1020C000022811D0032814D0012413E02A6FD8F875
:1020D000001021F040511143C8F80010E8E73868BB
:1020E00040F40030386004E00198022101F0A8FDBE
:1020F0000446ACB126462868DFF81CB0C043ABF1FB
:102100001C0B400252D40548016841F48071016003
:10211000FFF762F9824611E02C4402580048025849
:10212000FA48AA6C016821F0030111430160E2E75B
:10213000FFF752F9A0EB0A00642835D8F44800688C
:10214000C005F5D58CBBDFF8C4A3B5F8B4100AF10F
:10215000240ADAF8000001F4407100F4407088426B
:1021600011D0DAF80010DAF8002021F4407142F4BE
:102170008032CAF80020DAF8002022F48032CAF84F
:102180000020CAF80010D5F8B400B0F5807F1AD14D
:10219000FFF722F9029012E0FFF71EF90299411AA7
:1021A00041F2883081420AD9032426462878DFF894
:1021B0005CA3C0430AF1080AC00721D03CE0DAF86A
:1021C00000008007E8D5D5F8B410C1F3012003283A
:1021D00058460DD0016821F47C510160B5F8B42057
:1021E000DAF80010C2F30B021143CAF80010DDE761
:1021F000C84A036802EA111223F47C511143ECE748
:10220000E86F182816D005DCA0B1082808D01028DF
:1022100004D10AE020280DD028280BD001240AE0A0
:102220000198012101F00CFD03E00098012101F06B
:1022300097FD044664B126462878C04380071ED423
:10224000A86F062819D2DFE800F0160C1116161632
:10225000EA6FDAF8001021F038011143CAF80010D3
:10226000EAE70198012101F0EBFC03E0009801216D
:1022700001F076FD04467CB100E001242646287872
:10228000C04340071FD4D5F89400062819D2DFE8D0
:1022900000F0160C11161616AA6FDAF8001021F0CD
:1022A00007011143CAF80010E9E70198012101F084
:1022B000C7FC03E00098012101F052FD0446A4B1DF
:1022C00000E0012426462878C04380062BD4D5F8A8
:1022D0009000B0F1405F24D011DC10B3B0F1805F0A
:1022E00015D0B0F1005F10D116E0D5F89420D9F8E0
:1022F000001021F007011143C9F80010E3E7B0F125
:10230000804F0ED0B0F1A04F0BD001240AE001980D
:10231000002101F095FC03E00098022101F020FD6E
:10232000044694B126462878C04340062BD4D5F8FD
:102330009C00B0F5406F24D011DC10B3B0F5806F75
:1023400015D0B0F5006F10D116E0D5F89020DAF86E
:10235000001021F0E0411143CAF80010E3E7B0F5A6
:10236000805F0ED0B0F5A05F0BD001240AE0019889
:10237000002101F065FC03E00098022101F0F0FC6F
:10238000044694B126462878C04300062BD4D5F8DD
:10239000A000B0F5C04F24D011DC10B3B0F5005F41
:1023A00015D0B0F5804F10D116E0D5F89C20D9F8A3
:1023B000001021F4E0511143C9F80010E3E7B0F533
:1023C000004F0ED0B0F5204F0BD001240AE0019849
:1023D000002101F035FC03E00098022101F0C0FC6F
:1023E000044654B126462878C04300071ED4D5F8C9
:1023F0008400B0F5805F0AD00FE0D5F8A020D9F8AE
:10240000001021F460411143C9F80010EBE7009877
:10241000022101F0A5FC00B10126D5F88420DAF8EC
:10242000001021F440511143CAF800102878C0432D
:10243000C00613D4D5F89800B0F5807F05D1009878
:10244000022101F08DFC00B10126D5F89820D9F8C1
:10245000001021F440711143C9F800102868C043EE
:10246000000316D4D5F8A40038B1B0F5803F09D0E8
:10247000B0F5003F0BD001240AE00198002101F0E3
:10248000DFFB03E00098022101F06AFC04468CB1F6
:1024900026462868C043400322D4D5F88800B0F50A
:1024A000801F11D0B0F5001F13D0B0F5401F15D01C
:1024B000012414E0D5F8A420D9F8001021F440310B
:1024C0001143C9F80010E4E7386840F40030386080
:1024D00004E00098012101F043FC04465CB126466B
:1024E0002868C043C00323D4286DA8B1B0F5803F4D
:1024F00017D001241BE0D5F88820DAF8001021F469
:1025000040111143CAF80010EAE700004C44025899
:1025100000480258CFFFFF00386840F400303860B0
:1025200004E00198022101F08BFB0446E4B1264649
:102530002868C043800005D40098022101F010FCF7
:1025400000B101262868C04380031BD4D5F8800061
:10255000B0B1B0F5807F0FD0B0F5007F10D0B0F5EE
:10256000407F0DD001240CE05A482A6D016821F407
:10257000803111430160DBE7386840F40030386097
:10258000ECB326462868C043C00207D46A6FD8F867
:10259000001021F000411143C8F800102868C04322
:1025A000C00008D4D5F8B820DBF8001021F4804131
:1025B0001143CBF800102868C043800207D4EA6EAC
:1025C000D8F8001021F080711143C8F80010286875
:1025D000C04340000CD4DBF8001021F40041CBF8DC
:1025E0000010DBF80010D5F8BC201143CBF8001028
:1025F0002868C04308D437486A6D016800E018E0D5
:1026000021F04051114301602868C043000208D402
:10261000D5F88C20DAF8001021F440011143CAF8F3
:10262000001028790024C04300F0010020430AD0A4
:102630000FE0D5F88020DAF8001021F44071114342
:10264000CAF800109EE70198002101F0F9FA00B1E4
:1026500006462879C04300F00200204305D10198C6
:10266000012101F0EDFA00B106462879C04300F0DF
:102670000400204305D10198022101F0E1FA00B1E4
:1026800006462879C04300F00800204305D1009891
:10269000002101F065FB00B106462879C04300F037
:1026A0001000204305D10098012101F059FB00B131
:1026B00006462879C04300F02000044304D1009866
:1026C000022101F04DFB00B916B10120BDE8FE8FDB
:1026D0000020FBE74C4402582DE9F05F04000F4650
:1026E0007ED0DFF83882D8F8000000F00F00B84242
:1026F0000CD2D8F8001021F00F013943C8F80010AF
:10270000D8F8000000F00F00B84269D12078844D5D
:1027100040070AD52069296801F07001884204D970
:10272000296821F070010143296020787C4E361D14
:1027300000070AD56069316801F07001884204D948
:10274000316821F07001014331602078C0060AD55C
:10275000A069316801F4E061884204D9316821F44C
:10276000E061014331602078DFF8B4B180060BF1FD
:10277000080B0CD5E1695846DBF8002002F0700226
:10278000914204D9026822F070020A430260207864
:1027900080070AD5E068296801F00F01884204D952
:1027A000296821F00F01014329602078C0073ED03D
:1027B0005B49A2682868183920F4706010432860CB
:1027C0006068022818D0032819D00968012819D098
:1027D000490700294ADADFF848A1AAF1080A00E00F
:1027E00044E0DAF8002022F007020243CAF8002091
:1027F000FEF7F2FD814612E009688903E9E70968FE
:102800008901E6E7C905E4E7FEF7E6FDA0EB09016B
:1028100041F28830814202D90320BDE8F09F61680F
:10282000DAF8000000F03800B0EBC10FECD12078EE
:1028300080070AD5E068296801F00F01884204D2B8
:10284000296821F00F0101432960D8F800104046A3
:1028500001F00F01B9420BD9016821F00F01394392
:102860000160006800F00F00B84201D00120D4E7F9
:10287000207840070AD52069296801F07001884254
:1028800004D2296821F070010143296020780007F3
:102890000AD56069316801F07001884204D231685C
:1028A00021F07001014331602078C0060AD5A0698B
:1028B000316801F4E061884204D2316821F4E061BA
:1028C00001433160207880060CD5E1695846DBF879
:1028D000002002F07002914204D2026822F07002DD
:1028E0000A43026000F09AF80E492A682B68C2F386
:1028F000032203F00F038A5CC95C02F01F0201F09F
:102900001F01D040084A20FA01F111600749086010
:1029100007480068BDE8F05FFEF79ABD002000524E
:1029200018440258386300082800002424000024BA
:102930001C00002470B5144C3F220260124A246827
:102940000832131D114D04F00704446016681C1D65
:1029500006F470668660166806F00F06C660126898
:1029600002F0700202611A6802F0700242611A6895
:1029700002F4E0628261226802F07002C26128689B
:1029800000F00F00086070BD104402580020005293
:1029900030B500F043F80B4A0B490C4B156814682E
:1029A000C5F3032204F00F048A5C095D02F01F02E4
:1029B00001F01F01D040064A20FA01F119601060B1
:1029C000084630BD18440258386300082800002427
:1029D0002400002400B5FFF7DBFF05490968054A1C
:1029E000C1F30211515C01F01F01C84000BD00009D
:1029F0001C4402583863000800B5FFF7C9FF0549B9
:102A00000968054AC1F30221515C01F01F01C84069
:102A100000BD00001C44025838630008454970B5E9
:102A200045480968434B103B11F0380208D00111AA
:102A3000082A03D0102A0BD0182A0BD0084670BDE4
:102A400019688906FBD51968C1F3C101C84070BD7A
:102A50003A4870BD3749374D18310C1D24350A6886
:102A6000096826682D6802F0030406F00102C1F32C
:102A70000511C5F3CC0515FB02F200EE102AB8EEE5
:102A8000400AE9B32F4ADFED2E0AB7EE001A6CB107
:102A9000DFED2D1A012C01D0022C43D002EE101ACA
:102AA0001068F8EE422A81EEA22A1EE01C68A406F5
:102AB00011D51B6801EE901A1168C3F3C103F8EE3B
:102AC000612AD84001EE900AC1F30800F8EE611ABD
:102AD00081EEA22A0BE001EE901ADFED1C2A00BF66
:102AE000F8EE611A106882EEA12AC0F3080001EE28
:102AF000900AF8EE611A40EE201A31EE810A00E0E9
:102B000015E022EE000A1068C0F34620401C00EEDB
:102B1000900AF8EE600A80EE201ABCEEC10A10EEB0
:102B2000100A70BD01EE901ADFED092AD8E70020E7
:102B300070BD0000104402580090D00340787D0121
:102B400000000039304402580024744A0024744CB8
:102B500020BCBE4B2DE9F05F04007DD0FF4F2078F4
:102B6000FE4D1837DFF8F493103DC00748D0D9F870
:102B70000000396800F03800102815D0182803D15B
:102B800001F0030002280FD06068B0F5803F12D03A
:102B900010B1B0F5A02F18D0286820F4803028603C
:102BA000286820F4802009E02868800328D5606820
:102BB0000028D2D024E0286840F480302860606883
:102BC00088B1FEF709FC064609E0286840F4802039
:102BD0002860F0E7FEF700FC801B64286FD82868A7
:102BE0008003F7D50CE0FEF7F7FB064605E000BFD3
:102BF000FEF7F2FB801B6428F0D828688003F7D426
:102C0000207841F20308D54E0C3E800769D5D9F8EB
:102C10000000396810F038000ED0182801D188075C
:102C20000AD0E06890B3296821F0190101432960B6
:102C3000FEF7D2FB824631E02868400702D5E06803
:102C400000288AD0E168286820F01900084328602D
:102C5000FEF7C2FB824607E0DFE000BFFEF7BCFBE9
:102C6000A0EB0A000228B9D828684007F6D500BFB3
:102C7000FEF7ACFB40451BD82069402812D03168D4
:102C800021F47C3141EA003030602AE018E000BFD6
:102C9000FEF7A2FBA0EB0A0002289FD82868400795
:102CA000F6D5E5E7306820F47C3040F40030EBE7FF
:102CB000207C316821F0FE4141EA0060E4E70DE14B
:102CC000286820F001002860FEF786FB824605E0B8
:102CD000FEF782FBA0EB0A0002288DD82868400787
:102CE000F6D42078C0065DD5D9F80000DFF86CB2C4
:102CF000396800F03800ABF1040B082810D0182810
:102D000003D101F0030001280AD0E06900282868F7
:102D100038D040F080002860FEF75EFB824623E05A
:102D20002868C00523D5E069802876D11FE0206A95
:102D3000202821D0316821F0F84141EA80603060DC
:102D400030E000BF94F82010DBF8002022F07C5225
:102D500042EA0161CBF8001024E000BFFEF73CFB23
:102D6000A0EB0A00022898D82868C005F6D5FEF71F
:102D70002DFB4045E6D8DAE7306820F0F84040F017
:102D80008040DCE720F080002860FEF725FB064647
:102D900005E000BFFEF720FB801B02289DD82868B5
:102DA000C005F7D42078000729D56C4861696430E4
:102DB00000298046016811D041F001010160FEF751
:102DC0000BFB064605E000BFFEF706FB801B022852
:102DD000C9D8D8F800008007F6D510E021F001012D
:102DE0000160FEF7F9FA064605E000BFFEF7F4FAC7
:102DF000801B022872D8D8F800008007F6D420780B
:102E0000800623D5A0690028286810D040F480509F
:102E10002860FEF7E1FA064605E036E1FEF7DCFA47
:102E2000801B02285AD828688004F7D50EE020F4C9
:102E300080502860FEF7D0FA064604E0FEF7CCFA90
:102E4000801B02284AD828688004F7D420784007DD
:102E50004FD5DFF80C81D8F8001041F48071C8F824
:102E60000010FEF7B9FA064605E000BFFEF7B4FA17
:102E7000801B642832D8D8F80000C005F6D5374E3C
:102E8000A068603601280AD008B1052813D0306840
:102E900020F001003060306820F0040002E030686B
:102EA00040F001003060A06841F2883A90B1FEF72E
:102EB00093FA80460AE0306840F004003060EEE7A4
:102EC000FEF78AFAA0EB0801514507D83068800761
:102ED000F6D50EE0FEF780FA804607E084E000BFFA
:102EE000FEF77AFAA0EB080151457DD830688007DB
:102EF000F6D4606AB0B3DFF86480D9F8001008F146
:102F000020084FF6F87B08F10409C1F3C201032938
:102F1000A8F1040A69D00228286820F0807028608F
:102F200003D0FEF759FA044684E0FEF755FA064648
:102F300005E000BFFEF750FA801B022877D828680A
:102F40008001F7D4E26A40F2F331386854F8283F40
:102F5000884340EA02101843386004E010440258E5
:102F600000480258B5E0217B434622894FF4FE0C0D
:102F7000208A4FF0FE474902267D521E401EA1F5D1
:102F80000071C2F308088AB2761E0CEA004042EAD9
:102F900008020243504607EA06610A431A60DAF85B
:102FA000002022F00102CAF80020D9F80020266A89
:102FB00022EA0B0242EAC602C9F80020DAF8001041
:102FC000A26921F00C011143CAF800100168E269FE
:102FD00021F0020111430160016841F48031016078
:102FE000016841F4003101E021E027E0016001685F
:102FF00041F480210160016841F00101016028680D
:1030000040F080702860FEF7E7F9044605E000BF55
:10301000FEF7E2F9001B022809D828688001F7D5DD
:1030200057E000BFFEF7D8F9001B022802D90320A1
:10303000BDE8F09F28688001F4D44AE0396801288F
:10304000D8F8000021D0A26A01F0030393421CD1FA
:10305000E26AC1F305118A4217D1216BC0F308025D
:10306000491E8A4211D1616BC0F34622491E91422A
:103070000BD1A16BC0F30642491E914205D1E16B11
:10308000C0F30660491E814201D00120D0E7A16C47
:103090004E46D9F80000C0F3CC00814219D0DAF8CE
:1030A0000000554620F00100CAF80000FEF794F930
:1030B0004FEA0007FEF790F9B842FBD0A26C3068E7
:1030C00020EA0B0040EAC2003060286840F00100AE
:1030D00028600020ACE700002DE9F05F040049D033
:1030E000FEF774F994F83800CF49DFF840A30128BF
:1030F00009D12068884201D050453BD16068012841
:1031000038D1606CB0BBDFF820838B46206808F1B3
:103110002008584501D0404502D1C348001F1BE09C
:10312000C349884203D0C2492031884202D1C048F5
:10313000001F11E0BF49884203D0BE4920318842B8
:1031400002D1BC48001F07E0504503D0B7492031E9
:1031500088420FD1B548001F814694F8910028B9E4
:10316000002084F89000204600F06CF9204600F022
:1031700087FE10B10120BDE8F09FE068022184F8CD
:10318000911020B101280CD002280CD00020A16899
:103190004FF40066062908D2DFE801F007090C6A3F
:1031A0006D701020F3E72020F1E7002503E04FF4D5
:1031B000806500E03546C9F80000206A4FF40077CA
:1031C000E8B321680020594501D0414504D10021D0
:1031D0004FF48070FEF746FC954A2168914203D077
:1031E000934A2032914203D100213846FEF73AFC3F
:1031F000904A2168914203D08E4A2032914203D1F5
:1032000000213846FEF72EFC2268524504D10021E9
:103210004FF48060FEF726FC8449226820318A4200
:1032200003D100213046FEF71DFCA169B1F5002F46
:1032300027D0A16AB1F1806F37D0012100E038E0DA
:10324000226A00EB800040004A431102B0FBF1F01B
:103250000A22B0FBF2F3B0FBF2F1616202FB130051
:10326000082801D9491C6162606C04281FD020E045
:1032700040F001009EE740F002009BE740F00300B1
:1032800098E7616C04290BD008290BD0D4F85410AE
:1032900000EB8000226A4A434000B0FBF2F0D7E71F
:1032A0004021F5E74FF48071F2E70221C6E74808B4
:1032B0006062606878B302282ED0206D012800D0AB
:1032C0000027FEF783F8B0F5005F206828D35A4A3C
:1032D000016811400160D4E911316068D4F84CC034
:1032E000184341EA0C01B4F824C00843216838436C
:1032F000D4E90536D4E90A82284325698E4609684F
:1033000010431843304340EA0C5040EA0800284379
:103310000843714621E0FFE7206D0128D0D0D0E7B7
:10332000464A016811400160D4E911626068E16CAD
:103330003043B4F824800A431043D4E9056CD4E93F
:103340000A232168384328430D681843304340EA74
:103350000C0040EA085010432843086020686FF0D2
:10336000FF01374A4EF20F064FF220074568B5437A
:1033700045602068D4F81CC0266B456845EA0C05FA
:10338000D4F834C046EA0C063543456020688568A9
:1033900015408560D4E91850D4E916C2666D104313
:1033A0002268761E35432843956801EB0C2630438E
:1033B0002843906054F8680BC2683A40C26094E8B1
:1033C000C100A58954F8682D01EB072141EA0541A8
:1033D0003043D56808432843D0602068584501D061
:1033E000504518D1D9F8440020F00101C9F8441023
:1033F00094F8380001280ED1D4E90F106FF00F02B5
:1034000002EB01110843C9F84400D9F8440040F028
:103410000101C9F844100020C4F89400012184F887
:10342000911084F89000A6E6045801400454005816
:10343000045C01400460014010C005F010C005F8B4
:103440000080F8FFF0B5B7B00446C0216846FDF72C
:1034500044F92049206888423AD18015002105228C
:103460000D468DE80700022406942C266C23039356
:103470008027CDE90464CDE90771012009911690F8
:103480006846FEF753FC08B1FDF768FE124908686C
:1034900040B9124A136843F480031360126802F4BF
:1034A0008002359230AB401C086006260C48302262
:1034B00083E83400CDE9335630A9FDF75FFE309440
:1034C00030A9CDE931450748CDE93356FDF756FE21
:1034D00037B0F0BD0458014014000024F0440258F5
:1034E000001002580008025870477047704710B526
:1034F000040003D094F83D0010B107E0012010BD96
:10350000002084F83C00204600F022F8022084F8D5
:103510003D002068211D00F01BFE012084F84800BA
:1035200084F83E0084F83F0084F8400084F84100AD
:1035300084F8420084F8430084F8440084F845008D
:1035400084F8460084F8470084F83D00002010BD50
:103550007047000090F83D10012901D0012070470C
:10356000174A022180F83D100168CB6843F001033F
:10357000CB600068904214D0B0F1804F11D0114957
:1035800088420ED0104988420BD01049884208D09A
:103590000F49884205D00F49884202D00E4988421F
:1035A00007D181680D4A1140062906D0B1F5803F48
:1035B00003D0016841F00101016000207047000064
:1035C000000001400004004000080040000C0040E2
:1035D00000040140001800400040014007000100C5
:1035E00070472DE9F041044600680027C668056968
:1035F000A90713D5B10711D5FA1E02610121217760
:10360000206880698007204602D0FFF7E9FF04E0C8
:1036100000F08BF8204600F089F82777680716D568
:10362000700714D5226802206FF004011161207721
:103630002068806910F4407F204602D0FFF7D0FF59
:1036400004E000F072F8204600F070F827772807B1
:1036500015D5300713D5226804206FF008011161D9
:1036600020772068C0698007204602D0FFF7B8FFA6
:1036700004E000F05AF8204600F058F82777E806F2
:1036800016D5F00614D5226808206FF010011161DC
:1036900020772068C06910F4407F204602D0FFF7F1
:1036A0009FFF04E000F041F8204600F03FF8277744
:1036B000E80708D0F00706D021686FF00100086124
:1036C000204600F035F8280601D4A80408D53006B5
:1036D00006D521686FF4025008612046FFF705FF08
:1036E000E80508D5300606D521686FF480700861BA
:1036F0002046FFF7F9FE680608D5700606D5216852
:103700006FF040000861204600F01CF8A8060AD5BA
:10371000B00608D521686FF0200008612046BDE89A
:10372000F041FFF7E3BEBDE8F0817047704700004D
:1037300000680349884201D1FDF754BE704700007C
:1037400000100040704730B590F88410012918D05F
:10375000012280F884202421C0F88810002220242F
:1037600001680B680D6823F0005325F001050D601A
:10377000426601680B60C0F8884080F884201046DB
:1037800030BD022030BD70B5044690F88400012899
:103790001DD0012284F884202420C4F888002068E9
:1037A0000568026822F0010202602068826822F047
:1037B00060620A438260204600F030FD22682021CA
:1037C00000201560C4F8881084F8840070BD0220C1
:1037D00070BD70B5044690F8840001281DD0012208
:1037E00084F884202420C4F88800206805680268D2
:1037F00022F0010202602068826822F060420A43DF
:103800008260204600F00AFD226820210020156019
:10381000C4F8881084F8840070BD022070BD10B513
:10382000040003D0D4F8880010B107E0012010BDD7
:10383000002084F88400204600F026F82420C4F8F4
:1038400088002068016821F001010160A06A10B1C0
:10385000204600F005FD204600F0E6FD0128E6D0F8
:103860002068416821F4904141602068816821F01E
:103870002A0181602068016841F001010160204651
:10388000BDE8104000F050BD10B5B6B0044614219C
:1038900030A8FCF722FFC0216846FCF71EFF19493B
:1038A000206888422BD100201F9001210446CDE9D9
:1038B00000106846FEF73AFA08B1FDF74FFC1248CF
:1038C000016841F010010160006800F010003590BF
:1038D0000D481038016841F001010160006830AB0B
:1038E000022100F0010035904FF4C060072283E808
:1038F0001300064830A9CDE93342FDF73FFC36B04E
:1039000010BD000000100140F044025800000258B1
:103910002DE9F8430446D0F88800984616460D462F
:10392000202802D00220BDE8F883A5B19EB1002175
:10393000C4F890102120C4F888001834FDF74CFD1D
:10394000814654F8100CA687E6872027183CB0F56E
:10395000805F02D003E00120E5E7206910B12E4628
:10396000002510E000260EE08021204600F032FF06
:10397000C0B9DEB116F8010B21688862B4F85600B0
:10398000401EA4F85600B4F856004B464FF0000213
:10399000CDF800800028E7D14FF04001204600F02C
:1039A00019FF48B1C4F888700320BCE735F8020B52
:1039B0002168C0F30800E0E7C4F888700020B2E78F
:1039C000FEE700001CB5094A0021094800F0DEFFAF
:1039D000084B18221946086107A1CDE900230948C0
:1039E00000234FF4807202F06FFA1CBDEC620008F5
:1039F000C13E000800000024537461727454617366
:103A00006B000000093F00082DE9F04186B0142149
:103A10006846FCF762FE2D48016841F01001016024
:103A2000016801F010010591016841F00401016095
:103A3000016801F004010591016841F08001016015
:103A4000016801F080010591016841F00101016008
:103A5000016801F001010591016841F00201016076
:103A6000006801221A4C0C2100F00200059020464B
:103A7000FDF7A7FCDFF85C80002203214046FDF73C
:103A8000A0FC012603270C2011218DE8C300694604
:103A90002046FDF773FB00246946022504208DE8CB
:103AA00031000D48FDF76AFB0C486946CDE900542A
:103AB0000295FDF763FB00976946CDE90164404636
:103AC0000394FDF75BFB06B0BDE8F081E0440258CB
:103AD0000010025800040258000802580000025862
:103AE0002DE9F0411B488024194D002101224FF699
:103AF000FF7700F15C0805601302C0E91114C1648E
:103B00004BF6803401659504C0E90121416110261E
:103B100081618162C0E90714C1605404C16201631C
:103B200080F83810C0E90F2388E8320000F16C04F7
:103B3000816684E8C200C0E91532FFF7CDFA00289B
:103B400003D0BDE8F041FDF709BBBDE8F0810000FE
:103B500004580140B80000241848002110B5164C44
:103B60000C224FF4E1330460C0E90131C160C0E9C7
:103B700004128161C161016241628162FFF74FFEFF
:103B800008B1FDF7EBFA0D480021FFF722FE08B15E
:103B9000FDF7E4FA09480021FFF7F5FD08B1FDF74C
:103BA000DDFA0648FFF7CFFD002803D0BDE810403E
:103BB000FDF7D4BA10BD00000010014050010024F0
:103BC000FEE70000054D4FF47A74204600F0A1FE98
:103BD00002212846FDF7EDFBF7E70000000402583C
:103BE000054D4FF47A74204600F093FE01212846DB
:103BF000FDF7DFFBF7E70000000402580C4D0D4E07
:103C00000D4C0A2000F085FE02212846FDF7CCFB72
:103C1000012809D002213046FDF7C6FB0128F0D16A
:103C2000606801F04FFDECE7606801F0CDFDE8E76A
:103C3000000002580008025800000024FEE70000BF
:103C40002DE9F047454D044689464FF0000A2868A3
:103C5000C04380070AD0414E283E306820F0806083
:103C60003060FDF7B9FB0746B04608E00120BDE82B
:103C7000F08700BFFDF7B0FBC01B022867D8D8F85B
:103C800000000001F6D4206829684FF4FE0721F4F3
:103C90007C313E0241EA00302860207AA389B4F8E2
:103CA00004C040022D4D2D495B1E227CACF1010C5D
:103CB0001035091DA0F5007080B2521ECCF3080C1F
:103CC00007EA034340EA0C00184306EA0262104385
:103CD00028600868626920F0C000104308600A6824
:103CE000A06922F0200202430A60281D0A6822F01F
:103CF00010020A6002684FF6F873E4699A4342EAD8
:103D0000C40202600868B9F1000F40F010020A60B6
:103D100011D00868B9F1010F11D040F4001008600B
:103D2000D8F80000444640F08060C8F80000FDF775
:103D300053FB05460DE0086840F40020EFE740F42F
:103D40008010ECE7FDF748FB401B022801D9032057
:103D50008DE720680001F5D5504688E728440258D1
:103D60002DE9F047454D044689464FF0000A286882
:103D7000C04380070AD0414E283E306820F0805072
:103D80003060FDF729FB0746B04608E00120BDE89A
:103D9000F08700BFFDF720FBC01B022867D8D8F8CA
:103DA00000008000F6D4208829684FF4FE0721F037
:103DB0007C713E0241EA00502860207AA389B4F861
:103DC00004C040022D4D2D495B1E227CACF1010C3C
:103DD0001835091DA0F5007080B2521ECCF3080CF6
:103DE00007EA034340EA0C00184306EA0262104364
:103DF00028600868626920F44060104308600A681F
:103E0000A06922F4007202430A60281D0A6822F4A5
:103E100080720A6002684FF6F873E4699A4342EAD6
:103E2000C40202600868B9F1000F40F480720A60B1
:103E300011D00868B9F1010F11D040F0807008600E
:103E4000D8F80000444640F08050C8F80000FDF764
:103E5000C3FA05460DE0086840F48000EFE740F43F
:103E60000000ECE7FDF7B8FA401B022801D9032057
:103E70008DE720688000F5D5504688E72844025831
:103E800030B50E4A41F658330168146800220D68B7
:103E9000B4FBF3F325F480340C60990031B103686E
:103EA0001B68491EDB03F9D4104630BDD0F89410CE
:103EB000032241F04001C0F89410F5E724000024EB
:103EC000064C074D4FF47A762068B0FBF5F105A05B
:103ED000FCF73AFB304600F01CFDF5E72400002417
:103EE00040420F0048656C6C6F2053544D3332488C
:103EF00037212043505520436C6F636B3A20256473
:103F0000204D487A0A0000007CB501F053FA1448AD
:103F100018244FF4807500232A4612A1CDE90040F1
:103F2000124801F0D1FF0E48002311A12A46001DBE
:103F3000CDE90040104801F0C7FF094800230FA158
:103F40002A460830CDE900400E4801F0BDFF01F0DF
:103F500051FA0348001F0068BDE87C4001F028BB0F
:103F6000040000244D795461736B0000C53B0008C8
:103F70004D795461736B3200E13B00084D79546117
:103F8000736B3300FD3B00084FF0E02010B5006973
:103F900001F0F2FF012803D0BDE8104001F016BD8A
:103FA00010BD000070B59CB04C216846FCF795FB35
:103FB000202113A8FCF791FB0220FDF72FFB2148DD
:103FC00000242149026842F44042026002680A6803
:103FD00042F001020A60096801F001011B910168C9
:103FE0008904FCD5022009900DF1280CC203052399
:103FF000C02601218CE84900CDE90012CDE90D0170
:1040000008250F90CDE9105468461294FEF7A2FDE2
:1040100008B172B6FEE740201A903F210301CDE9B6
:1040200016500322CDE9180313AB13A883E816003A
:104030000421FEF751FB002801D072B6FEE71CB048
:1040400070BD0000184802582C0400583348F0B5E1
:10405000334A016841F470010160106800F00F00FC
:10406000072804D2106820F00F00C01D10602D49F1
:1040700000202C4C10340B682B4D43F001030B60D7
:1040800020600B682B400B60136803F00F03072BB5
:1040900004D9136823F00F03DB1D1360214C234A5E
:1040A0001834234B261D371D20601E4C214D28340B
:1040B0003060261D3860371D23603B1D35601C1D98
:1040C0003A60251D2E1D1860331D22602860326065
:1040D00018600A68134B184C22F4802260330A607F
:1040E000186020686FF30F00B0F1005F03D213492E
:1040F0000120C1F808010B48D4300168C9040BD471
:10410000026843F2D2010E4B42F480520260196001
:10411000016821F480510160F0BD000088ED00E0ED
:1041200000200052004402587FEDF6EA80020101AF
:10413000000202020000FF010010005C008000513C
:10414000004000520148FFF74CBA0000E40100248F
:104150002DE9F047294B4FF0804A294D02689842DB
:10416000284E294F294C09D0504507D0A84205D0E8
:10417000B04203D0B84201D0A04205D1D1F804C06A
:1041800022F070024CEA0202DFF884C0DFF884807B
:104190009842DFF884900FD050450DD0A8420BD044
:1041A000B04209D0B84207D0A04205D0604503D044
:1041B000404501D0484503D1CD6822F440722A43DE
:1041C0008E684D6922F08002C6620E682A439842CA
:1041D000866207D0A04205D0604503D0404501D09B
:1041E000484501D1096901630368012143F00403D3
:1041F000036041610260BDE8F087000000000140FB
:104200000004004000080040000C00400004014091
:1042100000400140004401400048014030B5416E7B
:10422000B9B101680D4B03F108048A688968C2F3CB
:104230004262490F5D5C615C2D01B5FBF1F1A0F8B4
:104240006A10995CA25C0901B1FBF2F1A0F8681058
:1042500030BD0121A0F86A10F8E7000028630008CB
:1042600090F82810090706D50168836B4A6822F484
:1042700000421A434A6090F82810C90706D0016826
:10428000C36A4A6822F400321A434A6090F8281040
:10429000890706D50168036B4A6822F480321A4305
:1042A0004A6090F82810490706D50168436B4A68B0
:1042B00022F480221A434A6090F82810C90606D5D5
:1042C0000168C36B8A6822F480521A438A6090F8AE
:1042D0002810890606D50168036C8A6822F400520A
:1042E0001A438A6090F82810490611D50168436C7A
:1042F0004A6822F480121A434A60416CB1F5801F6B
:1043000006D10168836C4A6822F4C0021A434A60ED
:1043100090F82810090606D50168C26C486820F498
:1043200000201043486070472DE9F84300250446FB
:10433000C0F89050FDF750F88046206820266FF0B6
:104340007E470068000713D500224346310420460B
:10435000009700F03FFA58B1216851E8000F20F0B3
:10436000800041E80002002AF6D1C4F8886021E00C
:1043700020680068400722D5002243464FF48001A0
:104380002046009700F026FAC8B1206850E8001FC8
:1043900021F4907140E80012002AF6D1206808301C
:1043A00050E8001F21F0010140E80012002AF5D179
:1043B000C4F88C60032084F88450BDE8F883C4F806
:1043C0008860C4F88C60E5662567002084F8845016
:1043D000F3E7000010B5026852E8001F21F4907165
:1043E00042E80013002BF6D10E4B0268083252E867
:1043F000001F194042E80014002CF6D1C16E0129BB
:1044000008D1026852E8001F21F0100142E80013B1
:10441000002BF6D100212022C0F88C20C166416714
:1044200010BD0000FEFFFFEF2DE9F0430446806859
:10443000D84E87B0D84B2168D4E90427D4F81CC0E3
:1044400010430A68002547EA0C073843324002430C
:104450000A602068E268416821F4405111434160DC
:104460002268A1699A4201D0206A01439768DFF867
:104470002CC3CB4ECB4807EA0C070F43976021684B
:10448000676ACA6A22F00F023A43CA622268B242DD
:104490000ED1006800F03800182873D047DCB8B39C
:1044A000082879D010286FD178E028287ED17BE0C9
:1044B000BD498A4209D1006800F00700062875D27C
:1044C000DFE800F0546A6C6E7072B8498A4209D114
:1044D000006800F00700062868D2DFE800F0475DBA
:1044E0005F616365B2498A4209D1006800F0070044
:1044F00006285BD2DFE800F03A5052545658AD49D6
:104500008A420BD1006800F0070006284ED200E076
:1045100010E0DFE800F02B4143454749A6498A42B5
:104520000AD1006800F03800182839D0B7DD2028FB
:10453000BBD13CE001203AE0A0498A4209D10068A1
:1045400000F00700062831D2DFE800F01026282A04
:104550002C2E9B498A420BD1006800F007000628E8
:1045600024D2DFE800F003191B1D1F2100201EE0EC
:104570009A421BD18B48001D006800F007000628F6
:1045800014D202E00CE007E010E0DFE800F00305E1
:1045900007090B0D02200AE0042008E0082006E0CD
:1045A000102004E0202002E0402000E08020854927
:1045B000DFF814829A42854A4FF400434FEA2117EC
:1045C0004FF000064ED110281AD006DC022809D080
:1045D00004280BD008287CD10DE020283ED04028AC
:1045E00077D13DE0FDF744F8014610E06846FDF75D
:1045F000F5F801990BE003A8FDF792F9049906E09C
:104600001068800605D51068C0F3C100C1400029BC
:1046100070D0606A676838F8102007EB4703B1FB79
:10462000F2F0834255D8B0EB073F52D8002308463A
:104630001946FBF711FF02467808130E120243EAEF
:10464000012110183A4671410023FBF705FF604A2B
:10465000A0F5407191423CD821688FE03946D8E7F7
:104660001946D6E7D4F81CC04FF6EF799C4546D1E1
:10467000082819D005DC58B101280CD0042875D1C0
:104680000DE0102815D0202835D040286ED134E018
:10469000FEF7A0F901E0FEF7AFF9014610E0684629
:1046A000FDF79CF801990BE003A8FDF739F904998F
:1046B00006E01068800604D51068C0F3C100C14050
:1046C000C1B1636A606838F81330B1FBF3F1490097
:1046D00000E04BE001EB5001B1FBF0F0A0F1100164
:1046E000494543D84FF6F0732168C0F342021840A1
:1046F000104343E043E03946E3E71946E1E7082881
:1047000019D005DC58B101280CD004282ED10DE0B9
:10471000102815D020282BD0402827D12AE0FEF7DA
:1047200059F901E0FEF768F9014610E06846FDF727
:1047300055F801990BE003A8FDF7F2F8049906E09B
:104740001068800604D51068C0F3C100C140B1B143
:10475000636A606838F81330B1FBF3F101EB500184
:10476000B1FBF0F0A0F11001494505D9012506E0A3
:104770003946EDE71946EBE7216880B2C8600120B1
:10478000A4F86A00A4F8680028466667A66707B020
:10479000BDE8F083F369FFCF000C0058FFF4FF1170
:1047A00000100140544402580044004000480040BA
:1047B000004C0040005000400014014000780040D0
:1047C000007C00400090D0031063000800440258B1
:1047D000FFFC0F002DE9F047994617460D460446A9
:1047E000089E4FF0000833E0701C31D0FCF7F4FD58
:1047F000A0EB0900B04218D8BEB120680168490793
:1048000026D5802D24D0402D22D0C169C943090767
:104810000DD4082505622046FFF7DCFDC4F8905052
:10482000012084F88480BDE8F0870320FBE7C0699D
:10483000C04300050CD421684FF400600862204694
:10484000FFF7C8FD2021C4F8901084F88480ECE7BD
:104850002068C06935EA000004D00020B842C3D007
:104860000020E0E70120F9E7FEE7090700284FEA0A
:10487000116104DB00F1E02080F80014704700F0C3
:104880000F0000F1E02080F8141D704713B50448B4
:1048900001224FF47A736946FFF73AF800981CBD7D
:1048A000500100241FB50024009401940294039445
:1048B000FCF742FE01208DF80C001F218DF8081036
:1048C00087228DF809208DF80D008DF800006846CC
:1048D0008DF80A408DF80E408DF8014001948DF856
:1048E0000B408DF80F40FCF7F9FD0420FCF732FE79
:1048F000FCF780FDFFF756FBFFF786F8FFF72CF972
:10490000FFF7EEF800F014F8FFF75CF800F022F87B
:10491000FEE710B5EFF3058111B16FF0050404E077
:104920004FF0000408B100F01DFE204610BD00004D
:10493000EFF3058010B16FF0050070470449086877
:1049400010B14FF0FF30704701220A60002070471D
:104950007C00002410B5EFF3058010B16FF0050066
:1049600010BD08480168012902D04FF0FF3010BD8A
:10497000054A002182F8141D0221016000F0E0FECA
:10498000002010BD7C0000240BE000E02DE9FF4179
:104990004FEA01034FF00005EFF30581039561BB7A
:1049A00058B34FF080064FF018014FF000044AB39F
:1049B000176807B13C4697691FB139467F1E382FEB
:1049C00002D21779FF0703D0002004B0BDE8F081C0
:1049D000576907B1BE08D2F808C0BCF1000F0DD06E
:1049E000D5685C2D18D312693AB137B18DE806103D
:1049F0003246214601F095FA03900DE0D7685FB981
:104A000012694AB903AACDE90012B2B2214601F0F7
:104A10005BFA012800D003950398D6E72DE9F04111
:104A2000134C0F460546E6682068001D00F064FC44
:104A3000681C07D137B12168BDE8F0410D48091D58
:104A400000F0ACBC20683544B5424560216805D211
:104A5000A06B091DBDE8F04100F088BC606B091D2A
:104A600000F084FCA06A854200D2A562BDE8F08116
:104A70002C000024200700242DE9F041054600F019
:104A800099FC2D4C2D4FA068401CA060206810B1EF
:104A9000606930B32BE02560A068012827D100268B
:104AA00006EB860007EB800000F052FC761C382EE7
:104AB000F6D3234800F04CFC2148143000F048FCA9
:104AC0001F48283000F044FC1D483C3000F040FCFA
:104AD0001B48503000F03CFC194860631430A06360
:104AE00005E0E86A2168C96A814200D82560606AE9
:104AF000401C60626864E86A2169884200D92061CC
:104B000000EB8000291D07EB800000F047FC00F05F
:104B100071FC606900280CD02068E96AC06A88428C
:104B200007D208494FF080500860BFF34F8FBFF3A2
:104B30006F8FBDE8F08100002C000024700200247B
:104B4000D006002404ED00E038B500F033FC104C32
:104B50002068C8B90F4800F0FBFB0E48143000F085
:104B6000F7FB0C490020E16014312161A1F582734B
:104B70000090A1F1B40210210A2000F03DFF206056
:104B800010B105A100F0B8FCBDE8384000F032BC1F
:104B90006800002424080024546D725100000000B5
:104BA00030B4026C0B46002A0BD0D0E9024111440C
:104BB000C160A14201D30168C160184630BCFBF757
:104BC0003FBD30BC70472DE9F041856B1746026C44
:104BD0000446002682B1C7B1E068FBF731FDE16809
:104BE000206C2268091AE160914202D2A168081A79
:104BF000E060022F16D017E02068A8B9A06801F085
:104C000033FA06460020A0600EE06068FBF718FD4E
:104C1000D4E90101226C10446060884204D320680A
:104C2000606001E005B16D1E6D1CA5633046BDE8F6
:104C3000F08110B5044690F8590058B101280CD005
:104C400002280FD0502080F31188BFF34F8FBFF39D
:104C50006F8FFEE7206B00F0E1FB2046BDE81040BF
:104C600000F0DCBB10BD000011484FF4803110B5DE
:104C7000420706D00E49C01D20F00700411AC1F5B9
:104C800080310C4C002301440839A4F1180221F0B2
:104C90000701C4E900030C1A11604B600B60C0E906
:104CA000001494604FF000415460516110BD000049
:104CB000040F002498000024144E4FF08058144C28
:104CC000DFF85090A6F29C4712E000BF00F072FBA4
:104CD000F068C568281D00F00FFBA068401EA060AA
:104CE0006068401E606000F085FB2846FFF7A1FF6A
:104CF00060680028EAD138680128F9D9C9F800802D
:104D0000BFF34F8FBFF36F8FF2E700000C07002453
:104D10002C00002404ED00E070B51D46049C51B148
:104D2000C4F80020C4E90F010121204600F098FEDC
:104D300084F84C5070BD2460F4E72DE9F05F88469C
:104D40009A4691001546DDE90B940A9EA5228346FA
:104D5000206BFBF7BAFC206B6FF0030101EB8501C0
:104D6000084420F00707780707D0502080F3118807
:104D7000BFF34F8FBFF36F8FFEE7B8F1000F4FF017
:104D800000050ED00020221818F8001082F8341008
:104D900018F8001011B1401C1028F4D384F84350C7
:104DA00001E084F83450382E00D33726E662201D07
:104DB000C4E9136500F0D7FA04F1180000F0D3FA43
:104DC0006565C6F13800A06184F8585052462461E8
:104DD00059463846646200F077FAB9F1000F206056
:104DE00001D0C9F80040BDE8F09F000030B511497E
:104DF00000E011460A688242FBD34B685C1884428B
:104E000003D14468084623444B6043681D1895420B
:104E100009D1084C183C2468A24209D052681A44AF
:104E200042600A6812680260814200D0086030BDAA
:104E30000460F9E79800002470B50D4D914241607F
:104E40004FF00004006106D88169D21A8A4206D266
:104E5000011D286907E09A4203D2994201D3012437
:104E600003E0011DE86800F081FA204670BD0000F3
:104E70006800002410B5044600F09CFAA06B28B12D
:104E80005FF0000400F0B6FA204610BD0124F9E7F7
:104E900030B53C4D89B06BE00498002806DA059ADD
:104EA000DDE9060190470498002861DB069C6069F3
:104EB00010B1201D00F020FA03A800F0D5F802463A
:104EC00004980A2854D2DFE800F00505052D304784
:104ED00005052D3094F8280040F0010084F82800E2
:104EE000A06905990B4601442046FFF7A5FF50B382
:104EF000216A2046884794F82800400738D50020CA
:104F0000009005980023A16942181946204601F037
:104F1000B3F9C0B9502080F31188BFF34F8FBFF3AE
:104F20006F8FFEE794F828001EE094F8280040F008
:104F3000010084F828000598A06128B18118134663
:104F40002046FFF779FF13E0502080F31188BFF36C
:104F50004F8FBFF36F8FFEE794F82800810703D4CB
:104F6000204600F05BFA03E020F0010084F82800FE
:104F70002868002204A900F0CDFE00288CD109B0D9
:104F800030BD0000680000242DE9FC410F460546B5
:104F900000F068FC01A800F067F80446019818B119
:104FA00001F0D8F8BDE8FC81254EAFB1306900684A
:104FB000D0B300273068291B3A4600F0B1FA01F05F
:104FC000C9F80028EED11F494FF080500860BFF3A8
:104FD0004F8FBFF36F8FE5E7A542EBD801F0BAF82A
:104FE000F0682746C068C468201D00F085F994F871
:104FF0002800410719D5A0692B463A464119204699
:10500000FFF71AFFA8B100202A4603460146009088
:10501000204601F031F960B9502080F31188BFF3C8
:105020004F8FBFF36F8FFEE707E020F0010084F899
:105030002800216A20468847B4E70127BAE7000024
:105040006800002404ED00E00648416B096829B1BE
:10505000416BC968C9684968816270474FF0FF3188
:10506000FAE700002C00002470B5054600F092FF1E
:10507000064E0446B068844203D200F009F80120CD
:1050800000E0002028602046B46070BD6800002465
:10509000F8B5194D20E0C068C4680668201D00F00E
:1050A0002BF9216A2046884794F82800400713D539
:1050B000A0693044B04206D92461211D6060E868CF
:1050C00000F054F908E00020324603460146009003
:1050D000204601F0D1F838B1E86801680029DAD13A
:1050E0002969C5E90310F8BD502080F31188BFF38A
:1050F0004F8FBFF36F8FFEE76800002408484068B9
:10510000401C4FF0500080F3118804D0BFF34F8F44
:10511000BFF36F8FFEE7BFF34F8FBFF36F8FFEE7D5
:10512000A0000024002801464FF000000CD00A4BDC
:105130004A699A4207D1896AA3F12802914202D0B2
:10514000002900D101207047502080F31188BFF35F
:105150004F8FBFF36F8FFEE720070024074CE068F6
:10516000016841B1C0680021D0F80000FFF70CFFD2
:10517000FFF78EFEF3E701210020F7E76800002427
:105180002DE9F041044600F015F994F9455004F179
:10519000240609E0606A48B1304600F0A3FF08B178
:1051A00000F056FA6D1E6DB2002DF3DC4FF0FF36A5
:1051B00084F8456000F01EF900F0FCF894F94450C2
:1051C00004F1100709E0206948B1384600F08AFF71
:1051D00008B100F03DFA6D1E6DB2002DF3DC84F8CD
:1051E0004460BDE8F04100F005B900002DE9F04150
:1051F0000027044600F036FB324E306808B9FFF74E
:1052000033FD706904424ED1C4B3083460070ED038
:1052100004F00700C0F108000444600707D05020E4
:1052200080F31188BFF34F8FBFF36F8FFEE72CB36E
:105230007068844237D82348183001460D6801E071
:1052400028460D466968A14202D229680029F7D193
:1052500031688D4227D0076829680160083768687F
:10526000011B10290FD92819420708D0502080F3BC
:105270001188BFF34F8FBFF36F8FFEE713E04160DC
:105280006C60FFF7B3FD69687068401A7060B268BF
:10529000904200D2B060002072691143C5E900015C
:1052A000F068401CF06000F055FF780707D05020F0
:1052B00080F31188BFF34F8FBFF36F8FFEE738463F
:1052C000BDE8F0818000002470B5041F094E231F43
:1052D0004FF0807521F0010125601C1F1960A0F1BD
:1052E00020010B1F266044380A606FF002051D6024
:1052F00070BD0000FD500008D0E9013201699A60DC
:10530000D0E901235A604A68824201D182684A602A
:10531000002202610868401E0860086870470000AB
:1053200010B5044C8023046004F15C000860136035
:1053300010BD00004C08002410B5044C4FF48073DD
:10534000046004F15C000860136010BDA80A00242A
:105350004FF0FF3300F108010022C0E901130260A1
:10536000C1600161704700210161704730B50B6871
:105370005A1C02D000F1080202E0026904E0224651
:10538000546825689D42FAD953684B6099608A60D9
:10539000516008610168491C016030BD42684A6083
:1053A00093688B6093685960916008610168491C3B
:1053B00001607047502080F31188BFF34F8FBFF317
:1053C0006F8F0A494868401C486001280CD1084882
:1053D000006810F0FF0F07D0502080F31188BFF352
:1053E0004F8FBFF36F8FFEE770470000A0000024CF
:1053F00004ED00E00849486828B1401E486001D12A
:1054000080F311887047502080F31188BFF34F8FCD
:10541000BFF36F8FFEE70000A000002470B50028E6
:105420002AD0164DA0F1080461686869014207D1CD
:10543000502080F31188BFF34F8FBFF36F8FFEE7CB
:1054400022683AB1502080F31188BFF34F8FBFF329
:105450006F8FFEE78143616000F004FA606869685D
:10546000084468602046FFF7C1FC2869401C286199
:10547000BDE8704000F06EBE70BD000080000024EA
:105480004FF0E020002101614FF47A72816107231F
:1054900003490968B1FBF2F1491E4161036170479C
:1054A0002400002410B5FAF7AFFF114910280ED3DD
:1054B00000F1E0200A7890F8F003904207D25020E3
:1054C00080F31188BFF34F8FBFF36F8FFEE709485A
:1054D0008968006800F4E060884207D9502080F3B2
:1054E0001188BFF34F8FBFF36F8FFEE710BD000031
:1054F000A00000240CED00E0084B5FF0000210B5A6
:1055000053F832401CB1521C082AF9D310BD03EBEA
:10551000C20443F83210606010BD00003002002465
:1055200070B515460E460446FFF744FF94F9441043
:105530000020491C01D184F8440094F94510491C0D
:1055400001D184F84500FFF755FFA06B28B904F19D
:1055500024002A46314600F099F82046BDE8704004
:10556000FFF70EBE020010B514D00F48006B38B123
:10557000502080F31188BFF34F8FBFF36F8FFEE78A
:1055800000F070F900211046FFF748FA00F0E2FD44
:10559000002807D105494FF080500860BFF34F8FB6
:1055A000BFF36F8F10BD00002C00002404ED00E05D
:1055B00070B50546FFF7FEFE1E4C05B92568281D8F
:1055C000FFF79AFEA86A18B105F11800FFF794FEDC
:1055D000606A401C60622068854207D11648291D18
:1055E000FFF7DCFE6068401C606007E0A068401EBA
:1055F000A0602846FFF71DFBFFF726FDFFF7FAFE28
:105600006069002814D02068854211D1206B38B120
:10561000502080F31188BFF34F8FBFF36F8FFEE7E9
:1056200006494FF080500860BFF34F8FBFF36F8F74
:1056300070BD00002C0000240C07002404ED00E0E5
:1056400002490A6A0260C968416070472C00002460
:1056500001490120C86170472C00002410B50C4698
:1056600050B1094909681831FFF780FE2046BDE8AE
:1056700010400121FFF7D2B9502080F31188BFF309
:105680004F8FBFF36F8FFEE72C00002470B51446D8
:105690000D4668B10A4909681831FFF77FFE0CB161
:1056A0004FF0FF3521462846BDE87040FFF7B6B9F8
:1056B000502080F31188BFF34F8FBFF36F8FFEE749
:1056C0002C00002470B5044650B31A4D286884425B
:1056D0002ED0FFF76FFE2046FFF724FDE0B1201D1E
:1056E000FFF70AFEE06A2969884200D9286100EBC9
:1056F0008000114901EB8000211DFFF74FFE286853
:10570000E16AC06A814207D30C494FF080500860BB
:10571000BFF34F8FBFF36F8FBDE87040FFF76ABED6
:10572000502080F31188BFF34F8FBFF36F8FFEE7D8
:1057300070BD00002C0000247002002404ED00E085
:1057400030B587B0002405AA04A9039403A80494E3
:10575000FFF7E6FDDDE9030100940023CDE9011028
:10576000174815A1059A00F0DCFB164D0028E862E9
:105770001FD000F051FD012809D0401C19D1502044
:1057800080F31188BFF34F8FBFF36F8FFEE7502078
:1057900080F31188BFF34F8FBFF36F8F01214FF05C
:1057A000FF30A8626961EC6007B0BDE8304000F0EE
:1057B00093B807B030BD000049444C4500000000DC
:1057C000B94C00082C00002470B50446FFF7F2FD28
:1057D000214D04B92C68201DFFF78EFDA06A18B179
:1057E00004F11800FFF788FD1C48211DFFF7D6FDC6
:1057F00094F858000026012801D184F85860FFF77A
:10580000F9FD686928B1FFF7D5FDFFF71DFCFFF72B
:10581000F1FD2868844213D1686990B1286B38B1D2
:10582000502080F31188BFF34F8FBFF36F8FFEE7D7
:105830000B494FF080500860BFF34F8FBFF36F8F5D
:1058400070BD06480068A968884201D12E6070BD0D
:10585000BDE8704000F00EB82C00002420070024A2
:1058600004ED00E00248016B491C01637047000031
:105870002C000024164810B5016B11B10121C16143
:1058800010BD0021C161134A016901E0B9B1491E8F
:1058900001EB810352F82330002BF7D001EB810399
:1058A00002EB830202F1080453685B685360A34271
:1058B00001D15B685360DA680260016110BD50205D
:1058C00080F31188BFF34F8FBFF36F8FFEE70000A7
:1058D0002C0000247002002437481CB537490268A8
:1058E0008A4207D1502080F31188BFF34F8FBFF356
:1058F0006F8FFEE731490068491E884207D150206A
:1059000080F31188BFF34F8FBFF36F8FFEE72C49F1
:10591000FF200A780192087008788DF800009DF841
:1059200000209DF8000002F0F002824207D05020D3
:1059300080F31188BFF34F8FBFF36F8FFEE79DF8A1
:10594000002007201F4C02F050022270A06005E0EA
:105950009DF8002052008DF80020401E9DF8002088
:105960001206F5D40328A06007D0502080F31188D8
:10597000BFF34F8FBFF36F8FFEE74FF44070A0600F
:10598000019808700C482030016841F470010160F2
:10599000016841F070410160FFF772FD0020606016
:1059A000FAF7FAFC0848016841F040410160FAF753
:1059B000DFFC00201CBD000000ED00E071C20F41C3
:1059C00000E400E0A000002434EF00E0502010B517
:1059D00080F31188BFF34F8FBFF36F8F00F0E0FAB1
:1059E00018B104494FF080500860002080F31188FE
:1059F00010BD000004ED00E0F8B5069D18B153B1EC
:105A0000CAB181B120E0502080F31188BFF34F8FDD
:105A1000BFF36F8FFEE7502080F31188BFF34F8FE5
:105A2000BFF36F8FFEE7502080F31188BFF34F8FD5
:105A3000BFF36F8FFEE739B1502080F31188BFF3B9
:105A40004F8FBFF36F8FFEE750241C46012683F86B
:105A5000466000932B46FFF75FF92046F8BD000033
:105A60002DE9F04704008A4629D0FFF7A3FC2168FE
:105A70000025D4E90F23D4F840C004F110081046E3
:105A80000E46401E4FF0FF3902FB031200FB0C10C4
:105A9000BAF1000FA563666084F8449084F84590DD
:105AA000C4E9022013D04046FFF752FC04F1240061
:105AB000FFF74EFCFFF79EFC0120BDE8F087502069
:105AC00080F31188BFF34F8FBFF36F8FFEE720691C
:105AD0000028EFD0404600F005FB0028EAD004493A
