:020000040800F2
:10000000C0930120710300087D4E0008D749000805
:10001000114E0008B9060008016400080000000045
:10002000000000000000000000000000B102000815
:10003000110B0008000000000D0300081D5B000804
:100040008F0300088F0300088F0300088F03000848
:100050008F0300088F0300088F0300088F03000838
:100060008F0300088F0300088F030008BD060008F7
:100070008F0300088F0300088F0300088F03000818
:100080008F0300088F0300088F0300088F03000808
:100090008F0300088F0300088F0300088F030008F8
:1000A0008F0300088F0300088F0300088F030008E8
:1000B0008F0300088F0300088F0300088F030008D8
:1000C0008F0300088F0300088F0300088F030008C8
:1000D0008F0300088F0300088F0300088F030008B8
:1000E0008F0300088F030008000000008F03000842
:1000F0008F0300088F0300088F0300088F03000898
:100100008F0300088F0300088F0300088F03000887
:100110008F0300088F030008D55C00088F030008D8
:100120008F0300088F0300088F0300088F03000867
:100130008F0300088F0300088F0300088F03000857
:1001400000000000000000000000000000000000AF
:100150008F0300088F0300088F0300088F03000837
:100160008F0300088F0300088F0300088F03000827
:100170008F0300088F0300088F03000800000000B1
:100180008F0300088F0300088F0300088F03000807
:100190008F0300088F0300088F030008B158000880
:1001A0008F0300088F0300088F0300088F030008E7
:1001B0008F0300088F0300088F0300088F030008D7
:1001C0008F0300088F0300088F0300088F030008C7
:1001D0008F0300088F0300088F0300088F030008B7
:1001E0008F0300088F0300088F0300088F030008A7
:1001F0008F0300088F0300088F0300088F03000897
:100200008F0300088F0300088F0300088F03000886
:100210008F0300088F0300088F0300088F03000876
:100220008F0300088F0300088F0300080000000000
:100230008F0300088F030008000000008F030008F0
:100240008F0300088F0300088F0300088F03000846
:100250008F0300088F0300088F0300088F03000836
:100260008F0300088F0300088F0300088F03000826
:100270008F0300088F0300088F03000800000000B0
:100280008F0300088F0300088F03000800000000A0
:10029000000000008F030008DFF810D000F0F2F833
:1002A00000480047CD6B0008AFF30080C0930120E9
:1002B0002C4B19680868B0E8F04F80F30988BFF349
:1002C0006F8F4FF0000080F311887047000000002E
:1002D00008480068006880F308884FF0000080F349
:1002E000148862B661B6BFF34F8FBFF36F8F00DF24
:1002F00000BF00BF08ED00E0DFF80C00016841F42A
:1003000070010160704700BF88ED00E0EFF30980E5
:10031000BFF36F8F134B1A681EF0100F08BF20ED4C
:10032000108A20E9F04F106009B44FF0500080F3BC
:100330001188BFF34F8FBFF36F8F07F0F9FC4FF0B9
:10034000000080F3118809BC19680868B0E8F04F14
:100350001EF0100F08BFB0EC108A80F30988BFF3BD
:100360006F8F704734000020EFF305807047000066
:10037000074880470748804707480047FEE7FEE7F1
:10038000FEE7FEE7FEE7FEE7FEE7FEE7FEE7FEE745
:10039000550B0008DD5B0008990200082DE9F05FAD
:1003A0000546002092469B468846064681464024E4
:1003B0001BE0284641464746224600F053F8534684
:1003C0005A46C01A914110D311461846224600F0F1
:1003D00016F82D1A67EB01084F462246012000212E
:1003E00000F00DF817EB00094E41201EA4F10104A6
:1003F000DFDC484631462A464346BDE8F09F202AC6
:1004000004DB203A00FA02F1002070479140C2F16B
:10041000200320FA03F319439040704740EA010398
:100420009B0703D009E008C9121F08C0042AFAD2AA
:1004300003E011F8013B00F8013B521EF9D270476E
:10044000D2B201E000F8012B491EFBD27047002216
:10045000F6E710B513460A4604461946FFF7F0FFC3
:10046000204610BD202A04DB203A21FA02F00021A8
:10047000704721FA02F3D040C2F1200291400843B4
:1004800019467047064C074D06E0E06840F001034E
:1004900094E8070098471034AC42F6D3FFF700FF0A
:1004A000F86002082861020870B58C1810F8015B2A
:1004B00015F0070301D110F8013B2A1106D110F8FD
:1004C000012B03E010F8016B01F8016B5B1EF9D101
:1004D0002B0705D40023521E0DD401F8013BFAE787
:1004E00010F8013BCB1A921C03E013F8015B01F8F2
:1004F000015B521EF9D5A142D8D3002070BD000087
:100500002DED048BB3EE0E8A84B04FF0FF350C4C0A
:10051000DFED0C8A9FED0C9A2946E06807F046FF54
:100520000128F9D1CDED008A8DED018A8DED029A79
:10053000206902230022694607F06CFDECE7000009
:10054000B4000020000034426666663F1FB50024F8
:10055000009401940294039401F050FE01208DF860
:100560000E404FF04051019111218DF808108DF887
:10057000094003218DF80F408DF800008DF80A0026
:100580008DF80D008DF801408DF80B108DF80C00E2
:10059000684601F009FE042001F03EFE1FBD000088
:1005A00002484FF4807106F0AFBA0000E0800020EE
:1005B0001CB503220021012007F094FC144C0022FA
:1005C0000C21E060012007F08DFC21462061042011
:1005D0000023CDE90001C20111480EA107F0FCFF84
:1005E000211D03200023CDE9000110484FF40062D3
:1005F0000CA107F0F1FF04F1080102200023CDE96E
:10060000000142020C480AA107F0E6FF1CBD0000F1
:10061000B4000020417564696F5F5072650000008E
:100620003D06000841495F416C676F000105000805
:1006300055495F4469737000E56300081CB5DFF835
:1006400060A00024174F661E174D4FF4807BDFF823
:100650005C904FF010080020314601AA334608F0A4
:1006600015F90198C1074FEA807006D00028F2DB27
:1006700038880F4C401C388002E0002800DA2C46F5
:100680000C4A5B4651462046CDF8008000F041FA06
:100690000023D9F80C001A46194607F0BBFCDAE72C
:1006A000E04000200000002000200030B4000020C6
:1006B00000000030E0000020FEE70000014800F0EC
:1006C0003FBD00009081002010B52A4A0168914288
:1006D0003AD0284A1832914236D0264A30329142D6
:1006E00032D0244A483291422ED0224A603291427E
:1006F0002AD0204A7832914226D01E4A9032914226
:1007000022D01C4AA83291421ED01B4A91421BD0D3
:10071000194A1832914217D0174A3032914213D0F9
:10072000154A483291420FD0134A603291420BD0A1
:10073000114A7832914207D00F4A9032914203D049
:100740000D4AA832914211D1CAB20C4C1823103A6A
:10075000B2FBF3F26FF3090102F00703032AE35C33
:10076000C36500D9091D8165084610BD21F0FF0150
:10077000F9E700001000024010040240288C000835
:1007800010B501680123224CCAB2A1421BD0204CF3
:100790001434A14217D01E4C2834A14213D01C4C53
:1007A0003C34A1420FD01A4C5034A1420BD0184C0B
:1007B0006434A14207D0164C7834A14203D0144CC3
:1007C0008C34A1420FD11421083AB2FBF1F1114A45
:1007D00002EB810202660F4A01F01F0180328B405A
:1007E000C0E9192310BD1824103AB2FBF4F20A4CE8
:1007F0002144A82900D80832084901EB820101668A
:1008000006498031416602F01F018B40836610BDAE
:100810000854025800580258F0FBFDBF000802407F
:1008200010B50279531E072B30D8194C0168A1422C
:100830001BD0174C1434A14217D0154C2834A142B8
:1008400013D0134C3C34A1420FD0114C5034A14270
:100850000BD00F4C6434A14207D00D4C7834A14228
:1008600003D00B4C8C34A14206D10A4901EB820122
:10087000C1660849443105E0074901EB8201C166C0
:1008800005494431016701219940416710BD0000CD
:1008900008540258FC580258FC080240014610B5A2
:1008A00000208B694FF0C0748A6A53B1B3F5005FC2
:1008B00015D072B1012A0CD0022A0AD0032A09D11C
:1008C00004E01AB1012A06D0022A03D1C96AC9017B
:1008D00000D5012010BDC96AA142FAD010BD002A7E
:1008E000F7D0012AF2D0022AF3D0032AF3D010BDA8
:1008F0002DE9F04F834E834FDFF808C24836DFF80A
:100900000492DFF800A20CF1180CDFF8F8B109F13D
:100910003009DFF8F0E10AF1600A04680BF1780BA6
:10092000856D0EF1900EBC426DD064456BD04C4588
:1009300069D0B44267D0544565D05C4563D07445F6
:1009400061D0DFF8C08108F1A80844455BD0DFF82A
:10095000B881444557D0DFF8B08108F11808444504
:1009600051D0DFF8A48108F1300844454BD0DFF8BE
:10097000988108F14808444545D0DFF88C8108F19A
:10098000600844453FD0DFF8808108F1780844458D
:1009900039D0DFF8748108F19008444533D0DFF88E
:1009A000688108F1A80844452DD0DFF860814445EE
:1009B00029D0DFF8588108F11408444523D0DFF826
:1009C0004C8108F1280844451DD0DFF8408108F12A
:1009D0003C08444517D0DFF8348108F150084445FD
:1009E00011D0DFF8288108F1640844450BD0DFF806
:1009F0001C8108F17808444505D0DFF8108108F122
:100A00008C08444509D1D0E91948C4F80480C46E63
:100A10001CB1D0E91C48C4F804800468BC422ED044
:100A200064452CD04C452AD0B44228D0544526D019
:100A30005C4524D0744522D0324EA836B4421ED034
:100A4000314EB4421BD0304E1836B44217D02E4E21
:100A50003036B44213D02C4E4836B4420FD02A4E12
:100A60006036B4420BD0284E7836B44207D0264EBA
:100A70009036B44203D0244EA836B44215D190F833
:100A80005C4004F01F063F24B440AC600468256855
:100A900025F4802525602EE09A600068C160BDE8DD
:100AA000F08F99600068C260F9E7184EB4421BD01D
:100AB000164E1436B44217D0144E2836B44213D012
:100AC000124E3C36B4420FD0104E5036B4420BD0CA
:100AD0000E4E6436B44207D00C4E7836B44203D082
:100AE0000A4E8C36B442DAD190F85C4004F01F060E
:100AF0000124B4406C60046863608368402B036821
:100B0000CFD1C9E710000240100402400854025837
:100B100070472DE9FF411C4616460D4603460A9FC5
:100B2000214668463A4605F015FF02A82B462246A4
:100B3000394605F00FFF02A9684605F00FFF04FBD8
:100B400007F23146284605F023FFBDE8FF8172B663
:100B5000FEE700000548016841F00201016003481A
:100B6000083801688904FCD5704700000C48025819
:100B70002DE9F84F044601F095FA009034B194F84D
:100B80003500022805D080206065EBE00120BDE83B
:100B9000F88FCC4ECB4FCB491836DFF8288330374F
:100BA000DFF82093DFF81CA308F14808DFF814B33E
:100BB00009F1600920680AF1780A0BF1900B88426C
:100BC0002ED0B0422CD0B8422AD0404528D048453B
:100BD00026D0504524D0584522D0BA4AA832904257
:100BE0001ED0B94A90421BD0B74A1832904217D053
:100BF000B54A3032904213D0B34A483290420FD0B7
:100C0000B14A603290420BD0AF4A7832904207D05E
:100C1000AD4A9032904203D0AB4AA832904209D1FB
:100C2000026822F01E0202602068426922F08002FF
:100C3000426103E0026822F00E02026025688D42E4
:100C400028464DD0B0424BD0B84249D0404547D05D
:100C5000484545D0504543D0584541D0994AA832DF
:100C600090423DD0984A90423AD0974A18329042EA
:100C700036D0954A3032904232D0934A4832904230
:100C80002ED0914A603290422AD08F4A78329042D8
:100C900026D08D4A9032904222D08B4AA832904280
:100CA0001ED08A4A90421BD0884A1432904217D0F4
:100CB000864A2832904213D0844A3C3290420FD068
:100CC000824A503290420BD0804A6432904207D020
:100CD0007E4A7832904203D07C4A8C32954204D1CD
:100CE000206E026822F48072026076492068884291
:100CF00028D0B04226D0B84224D0404522D0484522
:100D000020D050451ED058451CD06E49A83188428D
:100D100018D06D49884215D06B491831884211D0DE
:100D20006949303188420DD067494831884209D03D
:100D300065496031884205D063497831884201D0E5
:100D400061499031016821F0010101600EE001F07C
:100D5000A9F90099401A052808D9202060650320C8
:100D600084F83500002084F834000FE72868C007B5
:100D7000EDD1544A0121206890422ED0B0422CD0AF
:100D8000B8422AD0404528D0484526D0504524D0E6
:100D9000584522D04B4BA83398421ED04A4B98421C
:100DA0001BD0494B1833984217D0474B30339842E9
:100DB00013D0454B483398420FD0434B6033984291
:100DC0000BD0414B7833984207D03F4B9033984239
:100DD00003D03D4BA833984208D194F85C30A06D05
:100DE00003F01F053F23AB40836007E094F85C30BD
:100DF000A06D03F01F0301FA03F3436020689042E3
:100E00004DD0B0424BD0B84249D0404547D048457C
:100E100045D0504543D0584541D02A4AA832904247
:100E20003DD0294A90423AD0274A1832904236D0D3
:100E3000254A3032904232D0234A483290422ED056
:100E4000214A603290422AD01F4A7832904226D0FE
:100E50001D4A9032904222D01B4AA83290421ED0A6
:100E60001A4A90421BD0194A1432904217D0174A9E
:100E70002832904213D0154A3C3290420FD0134A88
:100E8000503290420BD0114A6432904207D00F4A40
:100E90007832904203D00D4A8C3290420BD1D4E983
:100EA00019024260E06E30B1026822F48072026082
:100EB000D4E91C02426084F83510002084F8340024
:100EC00065E6000010000240100402400854025879
:100ED0002DE9F05F28B190F83510022904D0802167
:100EE00041650120BDE8F09F914A914B914D183228
:100EF000904E3033DFF838C21835DFF834E2483628
:100F0000DFF83092DFF82CA20EF1600EDFF824B289
:100F100009F1300901680AF1600A864C0BF1A80B4F
:100F2000614529D0914227D0994225D0804F48373A
:100F3000B94221D071451FD07D4F7837B9421BD0BF
:100F40007B4F9037B94217D0794FA837B94213D0A9
:100F5000A14211D0A9420FD049450DD0B1420BD0CA
:100F6000514509D0734F7837B94205D0714F90374A
:100F7000B94201D059452FD1042780F83570614519
:100F800025D0914223D0994221D0694848308142EE
:100F90001DD071451BD066487830814217D0644817
:100FA0009030814213D06248A83081420FD0A142D4
:100FB0000DD0A9420BD0494509D0B14207D05145C7
:100FC00005D05C487830814201D05A48903008689A
:100FD00020F001000860A8E0D1F8008028F00E0899
:100FE000C1F800800168E04641452BD0914229D0EC
:100FF000994227D0DFF838C10CF1480C614521D067
:1010000071451FD0DFF828C10CF1780C614519D06B
:10101000DFF81CC10CF1900C614513D0DFF810C152
:101020000CF1A80C61450DD0A1420BD0A94209D00A
:10103000494507D0B14205D0514503D0DFF8F4C08F
:101040000CF1780CD1F800C02CF0010CC1F800C0F4
:1010500001684FF0010C414546D0914244D099427D
:1010600042D0334A483291423ED071453CD0304A5A
:101070007832914238D02E4A9032914234D02C4A64
:10108000A832914230D0A1422ED0A9422CD049455D
:101090002AD0B14228D0514526D0264A78329142F2
:1010A00022D0B94220D059451ED0234A91421BD0AC
:1010B000214A1432914217D01F4A2832914213D04C
:1010C0001D4A3C3291420FD01B4A503291420BD004
:1010D000194A6432914207D0174A7832914203D0BC
:1010E000154A8C32914218D1016E0A6822F480723E
:1010F0000A6090F85C20816D02F01F020CFA02F287
:101100004A60D0E919124A60C16E31B10A6822F40E
:1011100080720A60D0E91C124A6080F835C0002154
:1011200080F83410016D01B188470020DAE6000034
:10113000100002401004024008540258406D7047ED
:101140002DE9FC5F0446002000904FF41651F94849
:101150000068B0FBF1F00190A56D2E682A68F64F8B
:10116000DFF8D483DFF8D0A3DFF8CCB308F1180898
:1011700020680AF1300ADFF8C4930BF1480BB8423B
:1011800038D04146884235D0504533D0584531D0CB
:10119000E949603188422DD0E7497831884229D029
:1011A000E5499031884225D0E349A831884221D0D1
:1011B00048451FD0E149183188421BD0DF49303102
:1011C000884217D0DD494831884213D0DFF86CE3FC
:1011D0000EF1600E70450DD0D84B7833984209D08F
:1011E000DFF858C30CF1900C604503D0D349A83107
:1011F00088427DD194F85C10082301F01F0103FAA6
:1012000001F232424CD0B84233D0404531D0504543
:101210002FD058452DD0C8496031884229D0C649C1
:101220007831884225D0C4499031884221D0C249C2
:10123000A83188421DD048451BD0C049183188428A
:1012400017D0BE493031884213D0BC49483188425A
:101250000FD0BA49603188420BD0B8497831884202
:1012600007D0B6499031884203D0B449A8318842AA
:1012700003D1016801F0040102E0016801F00801F6
:1012800071B1016821F00401016094F85C0000F084
:101290001F0003FA00F2AA60606D40F00100606573
:1012A00094F85C00012100F01F008140314241D0E0
:1012B0002068B84235D0404533D0504531D05845EC
:1012C0002FD09D4A603290422BD09B4A7832904278
:1012D00027D0994A9032904223D0974AA832904220
:1012E0001FD048451DD0954A1832904219D000E0D1
:1012F000B3E1924A3032904213D0904A4832904241
:101300000FD08E4A603290420BD08C4A7832904295
:1013100007D08A4A9032904203D0884AA83290423D
:101320007ED1406910F0800F04D0A960606D40F05C
:101330000200606594F85C00042100F01F00814009
:1013400031423FD02068B84233D0404531D050457B
:101350002FD058452DD0784A6032904229D0764A15
:101360007832904225D0744A9032904221D0724A0D
:10137000A83290421DD048451BD0704A1832904286
:1013800017D06E4A3032904213D06C4A48329042A5
:101390000FD06A4A603290420BD0684A783290424D
:1013A00007D0664A9032904203D0644AA8329042F5
:1013B0004FD1006810F0020F04D0A960606D40F0BA
:1013C0000400606594F85C00102100F01F0081406B
:1013D000314259D02068B84235D0404533D05045CD
:1013E00031D058452FD0544A603290422BD0524AC7
:1013F0007832904227D0504A9032904223D04E4AC1
:10140000A83290421FD048451DD04C4A1832904215
:1014100019D04A4A3032904215D0484A483200E04A
:1014200015E090420FD0454A603290420BD0434ABB
:101430007832904207D0414A9032904203D03F4ADE
:10144000A832904207D1006800F0080006E000686A
:1014500070E70068B6E7006800F00400A0B1A9607A
:1014600020680168490304D50068000308D5A16C11
:1014700007E00168C90503D4016821F00801016093
:10148000216C09B12046884794F85C00202100F0C7
:101490001F008140314278D02068B84233D04045A7
:1014A00031D050452FD058452DD0234A603290423C
:1014B00029D0214A7832904225D01F4A903290425A
:1014C00021D01D4AA83290421DD048451BD01B4A4E
:1014D0001832904217D0194A3032904213D0174A2E
:1014E000483290420FD0154A603290420BD0134AD6
:1014F0007832904207D0114A9032904203D00F4A7E
:10150000A832904203D1006800F0100002E00068A9
:1015100000F00200A0B3A96094F835000428206808
:1015200001680DD049037CD50068000329D4616CA3
:1015300028E000002C0000201000024010040240AF
:1015400021F0160101602068416921F080014161AC
:10155000206C08B9A06C20B12068016821F0080156
:10156000016094F85C0000F01F013F208840A860F3
:10157000012084F83500002084F83400216D65E0F6
:1015800003E0E16B09B120468847606D00287DD0FB
:10159000606DC00759D0042084F835002068B84237
:1015A0002BD0404529D0504527D0584525D09E49BD
:1015B000884222D09C49183188421ED09A49303145
:1015C00088421AD098494831884216D0484514D0EC
:1015D0009649884211D09549183188420DD09349D7
:1015E0003031884209D091494831884205D08F492D
:1015F0006031884201D08D497831016821F00101C4
:10160000016021680098019A401C0090904202D825
:101610000868C007F6D10868C00710D003200FE0A3
:10162000FFE70168C905ACD4016821F01001016031
:10163000012084F83500002084F83400A1E701205F
:1016400084F83500002084F83400E16C00291DD0B6
:1016500002B02046BDE8F05F0847754988421DD0BA
:1016600073491431884219D071492831884215D004
:101670006F493C31884211D06D49503188420DD0BC
:101680006B496431884209D0694900E084E07831CF
:10169000884203D066498C3188427DD101684FF081
:1016A000040894F85C6006F01F0608FA06F818EAC9
:1016B000020FCDF8008047D05FEA417844D500980A
:1016C0006860080403D5C8033CD4A16CBEE7880653
:1016D00038D42068B8422DD053494839884229D09F
:1016E000504527D0584525D04F49884222D04E49F1
:1016F000183188421ED04C49303188421AD04A49AC
:101700004831884216D0484514D04849884211D003
:101710004649183188420DD044493031884209D0B9
:10172000704507D0984205D0604503D03F499031BD
:10173000884203D1016821F0080102E0016821F02C
:1017400004010160216C81E74FF0020808FA06F8F5
:1017500018EA020FCDF800804FD05FEA81784CD5AF
:1017600000986860080403D5C80344D4616C6DE731
:10177000880640D42068B8422FD02B494839884287
:101780002BD0504529D0584527D02749884224D00E
:1017900025491831884200E043E01ED0224930310B
:1017A00088421AD020494831884216D0484514D082
:1017B0001E49884211D01D49183188420DD01B495D
:1017C0003031884209D0704507D0984205D0604535
:1017D00003D016499031884203D1016821F01401E9
:1017E00002E0016821F00A010160012084F835005F
:1017F000002084F83400E16B28E70823B34013424B
:101800000FD009070DD5016821F00E01016094F891
:101810005C0000F01F01012000FA01F169606065C1
:101820000EE7BDE8FC9F0000700002402804024063
:10183000085402582DE9F05F044600F033FC0646D8
:10184000F4B3E24F0222DFF884830025DFF87C93B3
:10185000DFF878A308F13008DFF870B309F1480920
:1018600020680AF1600A0BF1780BB84234D0D749EE
:101870001831884230D040452ED048452CD05045B4
:101880002AD0584528D0D1499031884224D0CF4918
:10189000A831884220D0CE4988421DD0CC49183189
:1018A000884219D0CA493031884215D0C8494831D8
:1018B000884211D0C649603188420DD0C44900E049
:1018C00042E07831884207D0C1499031884203D044
:1018D000BF49A83188427CD184F83520B84284F8C9
:1018E00034502CD0B9491831884228D0404526D0F0
:1018F000484524D0504522D0584520D0B349903196
:1019000088421CD0B149A831884218D0B0498842D9
:1019100015D0AF491831884211D0AD4930318842D5
:101920000DD0AB494831884209D0A949603188427D
:1019300005D0A7497831884201D0A5499031016886
:1019400021F00101016009E00120BDE8F09F00F0F5
:10195000A9FB801B052801D9202015E1206800681B
:10196000C007F4D1226811689A480140D4E9020303
:101970001843D4E9043633431843A3691843E36991
:101980001843236A18430843616A042903D1D4E940
:101990000B1319430843904909686FF30F01B1F124
:1019A000005F0FD36168A1F12903052B08D9163B0D
:1019B000032B05D9083B012B02D94F39032901D844
:1019C00040F4801010602068406920F00701606AD0
:1019D00000E01CE0042840EA01060BD1A06A06439F
:1019E000E06A38B12046FEF759FF18B14020606523
:1019F0000120CBE0206846612046FEF765FE94F8A2
:101A00005C1001F01F023F219140816056E0734954
:101A100088421BD0714B1433984217D06F4B283338
:101A2000984213D06D4B3C3398420FD06B4B5033E0
:101A300098420BD0694B6433984207D0674B783398
:101A4000984203D0654B8C3398427DD1884201D0B7
:101A50006249143184F8352084F8345002686049B2
:101A60000A40A168402970D080296FD00021E36826
:101A700041EAD301236941EAD301636941EAD30111
:101A8000A36941EAD301E36941EAD301236A41EA48
:101A9000131111430160514920684942084414213F
:101AA000B0FBF1F08000E0652046FEF70DFE94F8F3
:101AB0005C1001F01F020121914041602068B84292
:101AC00055D042491831884251D040454FD0484501
:101AD0004DD050454BD0584549D03C499031884273
:101AE00045D03A49A831884241D0394988423ED050
:101AF0003749183188423AD035493031884236D09A
:101B000033494831884232D03149603188422ED041
:101B10002F49783188422AD02D499031884226D0E9
:101B20002B49A831884222D02C4988421FD02B490A
:101B3000143188421BD029492831884217D02749BF
:101B40003C31884213D002E01DE017E018E0234941
:101B5000503188420BD021496431884207D01F4957
:101B60007831884203D01D498C31884228D12046E3
:101B7000FEF706FEA06880280BD00BE0102176E768
:101B80004FF4804173E740206065032084F83500FE
:101B9000DAE66560216E20790860D4E919014160B8
:101BA0006068401E072808D82046FEF739FEE06E20
:101BB0000560D4E91C01416002E0E56625676567C0
:101BC0006565012084F835000020BEE61000024063
:101BD000100402403F8010FE0010005C08540258C0
:101BE0000F00FEFF2DE9F84F04004FF000000090B9
:101BF00014D094F83400012812D0012084F8340065
:101C000094F835500020012D0CD04FF4006161652F
:101C100084F8340001200090BDE8F88F0120FBE734
:101C20000220F9E7022584F835506065974D974EFC
:101C3000964F1835DFF854C23036DFF850824837F7
:101C4000DFF84892DFF844A208F16008DFF83CB200
:101C500009F1780920680AF1900A0BF1A80B604598
:101C600033D0A84231D0B0422FD0B8422DD0404519
:101C70002BD0484529D0504527D0584525D0DFF8EE
:101C800010C2604521D0DFF808C20CF1180C604585
:101C90001BD0DFF8FCC10CF1300C604515D0DFF82B
:101CA000F0C10CF1480C60450FD0DFF8E4C10CF135
:101CB000600C604509D0DFF8D8C10CF1780C6045A4
:101CC00003D0DFF8CCC10CF1900CD0F800C02CF0A0
:101CD000010CC0F800C02046FEF70AFE6B492068E0
:101CE00088422CD0A8422AD0B04228D0B84226D070
:101CF000404524D0484522D0504520D058451ED0DC
:101D0000634A90421BD0624A1832904217D0604A10
:101D10003032904213D05E4A483290420FD05C4A33
:101D2000603290420BD05A4A7832904207D0584ADB
:101D30009032904203D0564AA83290420CD10268A9
:101D400022F01E0242F016020260206C88B1206868
:101D5000026842F008020BE0026822F00E0242F034
:101D60000A020260206C20B12068026842F004027E
:101D70000260206888424BD0A84249D0B04247D088
:101D8000B84245D0404543D0484541D050453FD06A
:101D900058453DD03E4A90423AD03D4A1832904292
:101DA00036D03B4A3032904232D0394A48329042A3
:101DB0002ED0374A603290422AD0354A783290424B
:101DC00026D0334A9032904222D0314AA8329042F3
:101DD0001ED0304A90421BD02E4A1432904217D067
:101DE0002C4A2832904213D02A4A3C3290420FD0DB
:101DF000284A503290420BD0264A6432904207D093
:101E0000244A7832904203D0224A8C3290420DD13B
:101E1000206E0268D20303D5026842F48072026029
:101E2000E06E18B1026842F4807202602068884255
:101E300026D0A84224D0B04222D0B84220D040457B
:101E40001ED048451CD050451AD0584518D01049CE
:101E5000884215D00E491831884211D00C493031D2
:101E600088420DD00A494831884209D0084960317A
:101E7000884205D006497831884201D00449903122
:101E8000016841F0010101600098C5E610000240C0
:101E900010040240085402582DE9F84F694C002202
:101EA0004FF0B04A4FF0010B4FF003084FF00F090D
:101EB000C0E00BFA02F6334073D00D7905F003054C
:101EC000012D01D0022D15D18768550008FA05FCB7
:101ED00027EA0C07D1F80CC00CFA05FC4CEA070CF9
:101EE000C0F808C04568B5430E79C6F300169640A1
:101EF0002E4346600D79ED43AD0708D0C668550006
:101F000008FA05F7BE438F68AF403743C7600D79C5
:101F100005F00305022D11D1D50800EB85073E6AB7
:101F20005507ED0E09FA05FC26EA0C06D1F810C09B
:101F30000CFA05FC4CEA060CC7F820C006685500F0
:101F400008FA05F7BE430F7907F00307AF403743A0
:101F500007604D6815F4403F6BD03B4D2E6846F04E
:101F600002062E602D6822F0030606F1B04605F049
:101F700002050095D6F8087495074FEA157C09FA12
:101F80000CF5AF43314DA84201D100252EE0304D74
:101F9000A84201D1012529E02E4DA84202D10225F7
:101FA00024E046E02C4DA84201D103251EE02B4D34
:101FB000A84201D1042519E0294DA84201D10525E7
:101FC00014E0284DA84201D106250FE0264DA84275
:101FD00001D107250AE0254DA84201D1082505E0D9
:101FE000234DA84201D1092500E00A2505FA0CF588
:101FF0003D43C6F80854DAF8005056464F689D43F2
:10200000FF0200D51D43356075684F689D43BF02D0
:1020100000D51D43756065684E689D43B60300D5C5
:102020001D43656025684E689D43F60300D51D433A
:102030002560521C0B6833FA02F57FF43AAFBDE815
:10204000F88F000080000058F44402580000025845
:102050000004025800080258000C025800100258F0
:102060000014025800180258001C025800200258A0
:10207000002402580069084000D0012070474269DE
:1020800021EA02030A4043EA0241816170470AB132
:10209000816170470904FBE701480068000C704744
:1020A0000010005C0148806870470000200000209C
:1020B0000248816802781144816070472000002046
:1020C000032010B500F0FAF801F01CFB0F4A11686C
:1020D0001268C1F303230E49CB5C03F01F03D84001
:1020E00002F00F02895C0B4A01F01F0120FA01F196
:1020F0001160094908600F2000F010F808B10120B4
:1021000010BD00F09BF8002010BD000018440258DC
:10211000588C0008300000202C00002010B510283A
:1021200004468AB02CD200220146362000F0A6F8E0
:10213000362000F095F8174804601748016841F010
:1021400010010160006809A900F0100008906846BD
:1021500001F062FA0598B0B101F0B0FA40000F4901
:102160000F4AB0FBF1F10F48026040F2E732491E1E
:1021700041600021C0E90321816002F0C4F928B167
:1021800001200AB010BD01F099FAE8E7054802F015
:10219000EDF9F6E724000020E844025840420F0021
:1021A000001000409C820020134A417811601249BF
:1021B00008310A6822F001020A600B1F42681A60A7
:1021C000027BC37A120742EA0362837A42EAC3427D
:1021D000437B42EA8342837B42EA4342C37B42EA37
:1021E0000342437A42EA0322037A007842EA430236
:1021F00002430A607047000098ED00E0BFF35F8F74
:102200000448016821F480310160024900207031E6
:102210000860704724ED00E0074940F001000860C5
:1022200005487038016841F480310160BFF34F8F79
:10223000BFF36F8F7047000094ED00E0074882B055
:10224000016841F002010160006800220F2100F0E6
:1022500002000090901E02B000F010B8F444025842
:10226000002809DB012100F01F0291404009800095
:1022700000F1E020C0F80011704700000E4BF0B4F0
:102280001B68C3F30223C3F10704042C00D9042400
:102290001D1D072D01D2002300E0DB1E012606FADA
:1022A00004F56D1E0D409D409E40761E164045EA89
:1022B0000601F0BC04F0B8B80CED00E0064A00F0EE
:1022C000070110684FF6FF03184040EA0120034958
:1022D00008431060704700000CED00E00000FA05B4
:1022E000124970B50A68D243520705D5096801F052
:1022F0000701814212D117E00A6822F00702024367
:102300000A60FFF7CFFE094D4FF47A760446083D88
:1023100006E0FFF7C7FE001BB04201D9012070BDE7
:102320002868C0438004F4D4002070BD0C480258D3
:1023300010B501F0A1F905490968054AC1F3021178
:10234000515C01F01F01C84010BD0000204402583C
:10235000588C00084F4910B50A68096802F003025A
:102360004C4B1B1DC1F305111B684A4C03F00103C4
:102370000C3424680029C4F3CC0414FB03F300EEEE
:10238000103AB8EE400A7FD09FED431A9FED432AE2
:10239000404BF7EE000A083322B1012A66D0022A28
:1023A00022D16AE03B4A283A1468A4061CD5126878
:1023B000C2F3C1043A4AE24001EE902AF8EE612AE3
:1023C00001EE901AF8EE611A196882EEA12AC1F3A3
:1023D000080101EE901AF8EE611A40EE011A31EE92
:1023E000A00A22EE000A12E001EE901A1968F8EE37
:1023F000611AC2EE212AC1F3080101EE901AF8EE2B
:10240000611A40EE011A31EEA00A22EE800A196824
:10241000C1F3462101EE101AB8EE411A31EE201A2E
:10242000C0EE011ABCEEE11A80ED001A1968C1F382
:10243000064101EE101AB8EE411A31EE201AC0EE34
:10244000011ABCEEE11A80ED011A1968C1F30661A8
:1024500001EE101AB8EE411A71EE200A80EE201A31
:10246000BCEEC10A80ED020A10BD0DE001EE901A2B
:10247000DFED0C2AF8EE611AA6E701EE901ADFED07
:102480000A2AF8EE611A9FE700210160416081602D
:10249000EAE7000028440258000000390024744C88
:1024A0000090D0030024744A20BCBE4B484910B5AC
:1024B0000A68096802F00302454B1B1DC1F3053190
:1024C0001B68434C1434C3F300132468C4F3CC04D6
:1024D00014FB03F300EE103AB8EE400AE9B33C4BAC
:1024E0009FED3C1A1033F7EE000A62B1DFED3A1AA5
:1024F000012A01D0022A5ED002EE101AF8EE422A1A
:1025000081EEA22A1AE0324A283A1468A4060DD5B0
:102510001268C2F3C104314AE24001EE902AF8EE9B
:10252000612A01EE901AF8EE611A05E001EE901AA8
:10253000DFED2B2AF8EE611A82EEA12A1968C1F3A9
:10254000080101EE901A1968F8EE611A40EE011ABE
:1025500031EEA00A22EE000A00E033E0C1F346218A
:1025600001EE101AB8EE411A31EE201AC0EE011A2F
:10257000BCEEE11A80ED001A1968C1F3064101EEC4
:10258000101AB8EE411A31EE201AC0EE011ABCEE54
:10259000E11A80ED011A1968C1F3066101EE101A03
:1025A000B8EE411A71EE200A80EE201ABCEEC10A84
:1025B00080ED020A10BD01EE901ADFED0A2AF8EE56
:1025C000611AB9E7002101604160816010BD00001F
:1025D00028440258000000390024744A0090D003B7
:1025E0000024744C20BCBE4B484910B50A680968E9
:1025F00002F00302454B1B1DC1F305511B68434C00
:102600001C34C3F300232468C4F3CC0414FB03F389
:1026100000EE103AB8EE400AE9B33C4B9FED3C1A8D
:102620001833F7EE000A62B1DFED3A1A012A01D041
:10263000022A5ED002EE101AF8EE422A81EEA22A99
:102640001AE0324A283A1468A4060DD51268C2F37B
:10265000C104314AE24001EE902AF8EE612A01EE0F
:10266000901AF8EE611A05E001EE901ADFED2B2AC0
:10267000F8EE611A82EEA12A1968C1F3080101EE91
:10268000901A1968F8EE611A40EE011A31EEA00AAC
:1026900022EE000A00E033E0C1F3462101EE101AF9
:1026A000B8EE411A31EE201AC0EE011ABCEEE11A62
:1026B00080ED001A1968C1F3064101EE101AB8EE58
:1026C000411A31EE201AC0EE011ABCEEE11A80ED7B
:1026D000011A1968C1F3066101EE101AB8EE411A29
:1026E00071EE200A80EE201ABCEEC10A80ED020ACB
:1026F00010BD01EE901ADFED0A2AF8EE611AB9E773
:10270000002101604160816010BD00002844025832
:10271000000000390024744A0090D0030024744C57
:1027200020BCBE4B2DE9F04FB24C80F48078B04A0B
:1027300089B0DFF8BCA24FF080572511AE4BDFF80F
:10274000BC92503A58EA0108AAF104064FF0005C26
:1027500033D080F4007858EA01085DD0DFF890B2F9
:1027600080F4806858EA01080BF1080B66D080F409
:10277000006858EA010878D080F4805858EA0108C7
:102780006BD080F4005858EA01084FF480394FF4B8
:10279000003E77D080F4002858EA010873D080F416
:1027A000803858EA01086FD080F480460E436CD020
:1027B00080F40040084369D02AE0DAF8000000F015
:1027C0000700052824D2DFE800F08FB97D25AE0090
:1027D00006A8FFF7BFFD079809B0BDE8F08F68466F
:1027E000FFF764FE0098F7E703A8FFF7FDFE0398E4
:1027F000F2E71068C0F3C10024FA00F0ECE71168BA
:10280000C90572D5B84270D12846E5E71846E3E716
:102810000020E1E74846DFE7DAF8000000F4E07066
:1028200080284FD004DC00285ED04028F0D185E01D
:10283000C028EFD0B0F5807FEAD174E0DBF800006B
:1028400000F46000B0F5800F3CD007DC00284BD0CE
:10285000B0F5001FDCD171E007E01FE0B0F5C00F5C
:10286000D8D0B0F5000FD3D15DE0DBF8000000F068
:10287000E060B0F1007F25D009DCA8B3B0F1807F23
:10288000C6D15BE022E045E06AE077E09AE0B0F193
:10289000407FBFD0B0F1806FBAD144E0DAF80000D9
:1028A00000F4E040B0F5005F0CD004DCE0B1B0F51E
:1028B000805FADD142E0B0F5405FABD0B0F5804F66
:1028C000A6D130E010688000A2D58DE7DAF80000CC
:1028D00000F4E020B0F5403F6BD007DC68B148451C
:1028E00079D0704594D156E07DE033E0B0F5802F8B
:1028F00063D0B0F5A02F8BD171E000F0DFFE6BE765
:102900006846FFF7D3FD019866E703A8FFF76CFE62
:10291000049861E7DBF8000010F440300ED0484521
:1029200010D0704588D13068116800F040504907D8
:102930007FF565AF00287FF462AF5AE710680001A9
:10294000C2D54CE710688000BED503A8FFF74CFE47
:10295000059841E711688903B6D5604590D155E7E0
:10296000306810F480303ED0484589D110680001AD
:10297000AAD56846FFF79AFD02982DE7DBF800001C
:1029800000F0E040B0F1405F13D008DC70B1B84215
:1029900021D060458DD110688000B6D438E7B0F101
:1029A000804F0AD0B0F1A04FF8D118E0FFF7C0FC7B
:1029B00012E710684007F1D51BE71068C005EDD598
:1029C00022E708E0DAF8000010F0405007D0B842E3
:1029D00009D06045E2D11068000191D418E7106871
:1029E0008003DBD512E710688001D7D5F0E6000040
:1029F000504402580090D00340787D010080BB0015
:102A00002DE9FC5F044600680025FA4FC043DFF85B
:102A1000E8832E46010104F10800019004F128002A
:102A200000901DD4A06E50B1B0F5801F0CD0B0F551
:102A3000001F0ED0B0F5401F1ED001250FE03868F2
:102A400040F40030386017E00198022102F01CFECB
:102A500003E00098022102F0A1FE05000CD02E46F2
:102A60002088C043C00523D4A06D05281ED2DFE80E
:102A700000F00C11161B1B00D8F80010A26E21F4F8
:102A800040111143C8F80010EAE7386840F40030FC
:102A9000386009E00198002102F0F6FD03E000989B
:102AA000002102F07BFE054675B100E001252E46AF
:102AB0002088C043800528D4E06D80281ED00CDC1F
:102AC00090B140280ED114E0D8F80010A26D21F08A
:102AD00007011143C8F80010EAE7C02813D0B0F589
:102AE000807F10D001250FE0386840F40030386056
:102AF00009E00198002102F0C7FD03E000980021E1
:102B000002F04CFE05468DB12E462088DFF8EC928F
:102B1000C04340052CD4D4F8A800B0F5800F20D0D5
:102B20000DDCA0B1B0F5001F0FD115E0D8F80010F2
:102B3000E26D21F4E0711143C8F80010E5E7B0F54B
:102B4000C00F13D0B0F5000F10D001250FE038688A
:102B500040F40030386009E00198002102F094FD53
:102B600003E00098002102F019FE05467DB12E46D3
:102B70002088C04300052DD4D4F8AC00B0F1007F0C
:102B800021D00EDCA8B1B0F1807F10D116E0D9F8C9
:102B90000010D4F8A82021F460011143C9F80010F6
:102BA000E6E7B0F1407F13D0B0F1806F10D001257F
:102BB0000FE0386840F40030386009E001980021E7
:102BC00002F062FD03E00098002102F0E7FD0546F7
:102BD00075B12E462068C04380011FD4E06CD8B187
:102BE00010280FD0202812D0302815D0012514E04D
:102BF000D9F80010D4F8AC2021F0E0611143C9F8F5
:102C00000010E7E7386840F40030386004E00198CD
:102C1000022102F039FD054675B12E462088C043D9
:102C2000C0042BD4206EB0F5005F20D00DDCA0B125
:102C3000B0F5805F0FD115E06F48001F0168E26CAE
:102C400021F0300111430160E8E7B0F5405F13D097
:102C5000B0F5804F10D001250FE0386840F4003007
:102C6000386009E00198002102F00EFD03E00098B1
:102C7000002102F093FD05468DB12E462088C04309
:102C8000800429D4606EB0F5403F23D010DC08B337
:102C9000B0F5803F14D0B0F5003F0FD115E0D8F863
:102CA0000010226E21F4E0411143C8F80010E5E75E
:102CB000B0F5802F0ED0B0F5A02F0BD001250AE083
:102CC0000198012102F0E0FC03E00098012102F0EC
:102CD00065FD054695B12E462088C04340042AD4A0
:102CE000D4F8B000B0F1405F23D010DC08B3B0F1ED
:102CF000805F14D0B0F1005F0FD115E0D8F800105C
:102D0000626E21F4E0211143C8F80010E4E7B0F14D
:102D1000804F0ED0B0F1A04F0BD001250AE00198F2
:102D2000012102F0B1FC03E00098012102F036FD20
:102D3000054675B12E462088C04300041FD4206F7D
:102D4000D8B1B0F1805F0ED0B0F1005F10D0012596
:102D500014E0D9F80010D4F8B02021F0E04111437C
:102D6000C9F80010E7E7386840F40030386004E044
:102D70000198012102F088FC054675B12E462068B5
:102D8000C043C0011ED4A06CD0B101280ED00228CF
:102D900011D0032814D0012513E0D8F80010226FB9
:102DA00021F040511143C8F80010E8E7386840F4BA
:102DB0000030386004E00198022102F065FC05460D
:102DC0007DB12E462068DFF838B0C043400256D4AB
:102DD0000C48016841F480710160FFF763F9824695
:102DE00018E00548001F0168A26C21F0030111439F
:102DF0000160E7E72C4402585044025858440258F6
:102E00001044025800480258FFF74CF9A0EB0A00A2
:102E100064282CD8FE480068C005F5D545BBFD48A0
:102E20000068B4F8B41000F4407001F440718842B6
:102E30000CD0F8480168026821F4407142F48032F5
:102E40000260026822F4803202600160D4F8B400AB
:102E5000B0F5807F1AD1FFF725F9824609E0FFF728
:102E600021F9A0EB0A0141F28830814201D9032502
:102E700004E0E84800688007F1D53DB12E4620788F
:102E8000DFF894A3C043C00720D03BE0D4F8B400DF
:102E9000C0F3012103290ED0DBF8001021F47C518E
:102EA000CBF80010DB480168B4F8B420C2F30B0281
:102EB00011430160E3E7DBF80020D84B22F47C5299
:102EC00003EA10100243CBF80020EBE7E06F18286C
:102ED00016D005DCA0B1082808D0102804D10AE0DB
:102EE00020280DD028280BD001250AE001980121C7
:102EF00002F0CAFB03E00098012102F04FFC0546F6
:102F000065B12E462078C04380071ED4A06F0628E6
:102F100019D2DFE800F0160C11161616DAF80010B8
:102F2000E26F21F038011143CAF80010EAE7019876
:102F3000012102F0A9FB03E00098012102F02EFC20
:102F400005467DB100E001252E462078C0434007AC
:102F50001FD4D4F89400062819D2DFE800F0160C2C
:102F600011161616DAF80010A26F21F007011143AE
:102F7000CAF80010E9E70198012102F085FB03E09F
:102F80000098012102F00AFC0546A5B100E00125E8
:102F90002E462078C04380062BD4D4F89000B0F1A0
:102FA000405F24D011DC10B3B0F1805F15D0B0F1D8
:102FB000005F10D116E0D9F80010D4F8942021F069
:102FC00007011143C9F80010E3E7B0F1804F0ED0BC
:102FD000B0F1A04F0BD001250AE00198002102F0CA
:102FE00053FB03E00098022102F0D8FB054695B19F
:102FF0002E462078C04340062BD4D4F89C00B0F570
:10300000406F24D011DC10B3B0F5806F15D0B0F54F
:10301000006F10D116E0DAF80010D4F8902021F0FB
:10302000E0411143CAF80010E3E7B0F5805F0ED02D
:10303000B0F5A05F0BD001250AE00198002102F055
:1030400023FB03E00098022102F0A8FB054695B19E
:103050002E462078C04300062BD4D4F8A000B0F54B
:10306000C04F24D011DC10B3B0F5005F15D0B0F51F
:10307000804F10D116E0D9F80010D4F89C2021F42C
:10308000E0511143C9F80010E3E7B0F5004F0ED04E
:10309000B0F5204F0BD001250AE00198002102F085
:1030A000F3FA03E00098022102F078FB054655B1DF
:1030B0002E462078C04300071ED4D4F88400B0F513
:1030C000805F0AD00FE0D9F80010D4F8A02021F4D6
:1030D00060411143C9F80010EBE70098022102F0AB
:1030E0005DFB00B10126DAF80010D4F8842021F449
:1030F00040511143CAF800102078C043C00613D4D1
:10310000D4F89800B0F5807F05D10098022102F034
:1031100045FB00B10126D9F80010D4F8982021F41D
:1031200040711143C9F800102068C043000316D451
:10313000D4F8A40038B1B0F5803F09D0B0F5003F15
:103140000BD001250AE00198002102F09DFA03E06E
:103150000098022102F022FB05468DB12E46206820
:10316000C043400322D4D4F88800B0F5801F11D0AA
:10317000B0F5001F13D0B0F5401F15D0012514E0A5
:10318000D9F80010D4F8A42021F440311143C9F833
:103190000010E4E7386840F40030386004E000983C
:1031A000012102F0FBFA05465DB12E462068C043BE
:1031B000C0031CD4206D70B1B0F5803F10D0012544
:1031C00014E0DAF80010D4F8882021F440111143FB
:1031D000CAF80010EAE7386840F40030386004E0CC
:1031E0000198022102F050FA05462DB32E462068C0
:1031F000C043800005D40098022102F0CFFA00B14C
:1032000001262068C043800324D4D4F8800007E05E
:10321000004802587044025854440258CFFFFF003F
:10322000B0B1B0F5807F0FD0B0F5007F10D0B0F511
:10323000407F0DD001250CE05A480168226D21F431
:10324000803111430160D2E7386840F400303860C3
:10325000F5B32E462068C043C00207D4D8F800104A
:10326000626F21F000411143C8F800102068C0438C
:10327000C00008D4DBF80010D4F8B82021F4804155
:103280001143CBF800102068C043800207D4D8F85F
:103290000010E26E21F080711143C8F80010206820
:1032A000C04340000CD4DBF8001021F40041CBF8FF
:1032B0000010DBF80010D4F8BC201143CBF800104C
:1032C0002068C04308D43748016821F0405100E02D
:1032D00017E0626D114301602068C043000208D40A
:1032E000DAF80010D4F88C2021F440011143CAF818
:1032F000001020790025C04300F0010028430AD0C7
:103300000FE0DAF80010D4F8802021F44071114366
:10331000CAF800109EE70198002102F0B5F900B14B
:1033200006462079C04300F00200284305D10198E9
:10333000012102F0A9F900B106462079C04300F04E
:103340000400284305D10198022102F09DF900B143
:1033500006462079C04300F00800284305D10098B4
:10336000002102F01BFA00B106462079C04300F0AC
:103370001000284305D10098012102F00FFA00B196
:1033800006462079C04300F02000054304D1009890
:10339000022102F003FA00B916B10120BDE8FC9F3A
:1033A0000020FBE74C4402582DE9F05F04000D4675
:1033B0007ED0DFF84492D9F8000000F00F00A84258
:1033C0000CD2D9F8001021F00F012943C9F80010E0
:1033D000D9F8000000F00F00A84269D12078874E8C
:1033E00040070AD52069316801F07001884204D98C
:1033F000316821F07001014331602078DFF80082EC
:1034000000070CD560694146D8F8002002F0700230
:10341000904204D90A6822F0700202430A602078C0
:10342000C0060CD5A0694146D8F8002002F4E0623D
:10343000904204D90A6822F4E06202430A602078CC
:10344000DFF8C0B180060CD5E0695946DBF80020F2
:1034500002F07002904204D90A6822F0700202431E
:103460000A60207880070AD5E068316801F00F0112
:10347000884204D9316821F00F010143316020787E
:10348000C0073DD03068A16820F470600843306008
:103490005A4960681839022818D0032819D00968D9
:1034A000012819D04907002949DADFF850A100E0C6
:1034B00045E0AAF1080ADAF8001021F007010143FB
:1034C000CAF80010FEF7EEFD074611E0096889030F
:1034D000E9E709688901E6E7C905E4E7FEF7E2FDE7
:1034E000C11B41F28830814202D90320BDE8F09F20
:1034F000DAF80000616800F03800B0EBC10FEDD1E0
:10350000207880070AD5E068316801F00F01884211
:1035100004D2316821F00F0101433160D9F8001065
:10352000484601F00F01A9420BD9016821F00F01B3
:1035300029430160006800F00F00A84201D001207B
:10354000D4E7207840070AD52069316801F070017E
:10355000884204D2316821F0700101433160207843
:1035600000070CD560694146D8F8002002F07002CF
:10357000904204D20A6822F0700202430A60207866
:10358000C0060CD5A0694246D8F8001001F4E061ED
:10359000884204D2116821F4E0610143116020786F
:1035A00080060CD5E0695946DBF8002002F0700275
:1035B000904204D20A6822F0700202430A6000F0CE
:1035C000A1F83168C1F303220F498A5C02F01F029F
:1035D000D040326802F00F02895C0C4A01F01F01F2
:1035E00020FA01F111600A4908600A480068BDE844
:1035F000F05FFEF793BD000000200052184402580F
:103600001C44025820440258588C00083000002006
:103610002C000020240000203F220260144A12687F
:1036200002F007024260124A0832136803F4706322
:103630008360136803F00F03C360126802F0700226
:1036400002610B4A0C32136803F070034361126885
:1036500002F4E0628261064A1032126802F07002DF
:10366000C2610448006800F00F0008607047000065
:10367000104402580020005200B500F043F80B4AF5
:1036800011681268C1F303230949CB5C03F01F03DF
:10369000D84002F00F02895C064A01F01F0120FAAF
:1036A00001F11160044A1060084600BD1844025838
:1036B000588C0008300000202C00002000B5FFF7D7
:1036C000DBFF05490968054AC1F30211515C01F0AD
:1036D0001F01C84000BD00001C440258588C00085F
:1036E00000B5FFF7C9FF05490968054AC1F3022182
:1036F000515C01F01F01C84000BD00001C4402588D
:10370000588C0008434830B50068444C10F038012C
:10371000414808D00211082903D010290BD01829DC
:103720000BD0104630BD21688906FBD52168C1F356
:10373000C101C84030BD3A4830BD364918310A6829
:10374000096802F00302334B1C33C1F305111B68F7
:10375000304D03F0010324352D68C5F3CC0515FB6E
:1037600003F300EE103AB8EE400AE9B3294BDFED5F
:103770002D0A2033B7EE001A62B1DFED2B1A012AB1
:1037800001D0022A3CD002EE101AF8EE422A81EE55
:10379000A22A17E0226892060CD52268C2F3C10261
:1037A000D04001EE900AF8EE612A01EE901AF8EE90
:1037B000611A05E001EE901ADFED1C2AF8EE611A9D
:1037C00082EEA12A1868C0F3080001EE900A18687A
:1037D000F8EE611A40EE201A31EE810A22EE000A5C
:1037E000C0F34620401C00E011E000EE900AF8EE25
:1037F000600A80EE201ABCEEC10A10EE100A30BD3D
:1038000001EE901ADFED0A2AF8EE611AD8E70020DF
:1038100030BD0000104402580090D003004402580C
:1038200040787D01000000390024744A0024744C63
:1038300020BCBE4B2DE9F05F040079D02078DFF882
:10384000F8A3FE4EFE4DC00747D0DAF800003168FD
:1038500000F03800102815D0182803D101F003001B
:1038600002280FD06068B0F5803F12D010B1B0F5DB
:10387000A02F18D0286820F480302860286820F411
:10388000802009E02868800327D560680028D4D00C
:1038900023E0286840F480302860606888B1FEF733
:1038A00001FC074609E0286840F480202860F0E722
:1038B000FEF7F8FBC01B642872D828688003F7D590
:1038C0000BE0FEF7EFFB074604E0FEF7EBFBC01B47
:1038D0006428F1D828688003F7D4207841F20309DE
:1038E000D84F800766D5DAF80000316810F038004C
:1038F0000ED0182801D188070AD0E06880B3296863
:1039000021F0190101432960FEF7CCFB80462EE02F
:103910002868400702D5E06800288ED02868E16852
:1039200020F0190008432860FEF7BCFB804606E043
:10393000D8E0FEF7B7FBA0EB08000228BCD8286847
:103940004007F6D5FEF7A8FB48451AD8206940285D
:1039500011D0396821F47C3141EA0030386029E027
:1039600016E0FEF79FFBA0EB08000228A4D8286809
:103970004007F6D5E6E7386820F47C3040F40030A4
:10398000ECE73868217C20F0FE4040EA0160E5E782
:10399000286820F001002860FEF784FB804606E0DE
:1039A00000E1FEF77FFBA0EB0800022884D828681E
:1039B0004007F6D42078C0065AD5DAF800003168FE
:1039C00000F03800DFF870B20828ABF1040B10D01B
:1039D000182803D101F0030001280AD0E06900286B
:1039E000286836D040F080002860FEF75BFB8046F8
:1039F00021E02868C00521D5E069802872D11DE04A
:103A0000206A20281FD0396821F0F84141EA8060FF
:103A100038602DE0DBF8001094F8202021F07C5174
:103A200041EA0261CBF8001022E0FEF73BFBA0EB7D
:103A3000080002289AD82868C005F6D5FEF72CFBA6
:103A40004845E7D8DCE7386820F0F84040F080408F
:103A5000DEE720F080002860FEF724FB074604E044
:103A6000FEF720FBC01B0228A0D82868C005F7D4A9
:103A70002078000728D5714960694C3100288846B4
:103A80000846096810D041F001010160FEF70AFB09
:103A9000074604E0FEF706FBC01B022886D8D8F8CC
:103AA00000008007F6D50FE021F001010160FEF76C
:103AB000F9FA074604E0FEF7F5FAC01B022871D8B0
:103AC000D8F800008007F6D42078800623D5A069B6
:103AD0000028286810D040F480502860FEF7E2FAF1
:103AE000074605E038E1FEF7DDFAC01B022859D889
:103AF00028688004F7D50EE020F480502860FEF797
:103B0000D1FA074604E0FEF7CDFAC01B022849D8D7
:103B100028688004F7D4207840074DD5DFF8288145
:103B2000D8F8001041F48071C8F80010FEF7BAFA16
:103B3000074604E0FEF7B6FAC01B642832D8D8F86E
:103B40000000C005F6D53D4FA068483701280AD0CF
:103B500008B1052813D0386820F0010038603868B3
:103B600020F0040002E0386840F001003860A068EE
:103B700041F2883990B1FEF795FA80460AE038683C
:103B800040F004003860EEE7FEF78CFAA0EB080185
:103B9000494507D838688007F6D50DE0FEF782FA68
:103BA000804606E083E0FEF77DFAA0EB0801494578
:103BB0007DD838688007F6D4616AD9B3DAF8000096
:103BC0004FF6F87BDFF8748008F10808C0F3C200F4
:103BD000032808F10409A8F1040A69D02868022919
:103BE00020F08070286003D0FEF75CFA044688E07D
:103BF000FEF758FA074604E0FEF754FAC01B022805
:103C00007CD828688001F7D4306840F2F3318843CB
:103C1000E16A40EA0110A16A0843306094F8340078
:103C2000218E4002491EA0F5007080B2C1F3080148
:103C300008430BE0B3E00000104402582844025847
:103C4000004402580444025800480258218F4FF49F
:103C5000FE02491E02EA0141084394F83C10120298
:103C6000491E02EA01610843C8F80000DAF80010B2
:103C7000504621F00101CAF80010D9F80020A36CC9
:103C800022EA0B0242EAC302C9F80020DAF8001067
:103C9000226C21F00C011143CAF80010DAF8001070
:103CA000626C21F0020111430160016801E025E02E
:103CB0002BE041F480310160016841F40031016082
:103CC000016841F480210160016841F00101016057
:103CD000286840F080702860FEF7E4F9044604E0AC
:103CE000FEF7E0F9001B022808D828688001F7D504
:103CF00055E0FEF7D7F9001B022802D90320BDE8E2
:103D0000F09F28688001F4D449E03268D8F80000B8
:103D1000012921D0A36A02F0030199421CD1E16A72
:103D2000C2F30512914217D1216BC0F30802491E5C
:103D30008A4211D1616BC0F34622491E91420BD1D8
:103D4000A16BC0F30642491E914205D1E16BC0F35D
:103D50000660491E814201D00120D0E7D9F8000059
:103D60004F46A16CC0F3CC00814218D0DAF80000B5
:103D7000564620F00100CAF80000FEF793F9054608
:103D8000FEF790F9A842FBD03868A16C20EA0B003E
:103D900040EAC1003860306840F001003060002027
:103DA000ADE770B5044690F890000025012814D0C6
:103DB0000126204684F8906001F0E4FD00B1012561
:103DC00020680168890332D5016821F4003101605F
:103DD00094F89100122802D013E0022070BDD4F8AC
:103DE000800070B1FCF7C4FE58B1D4F88000406D7B
:103DF000802806D0D4F89400012540F08000C4F853
:103E0000940094F89100222811D1D4F8840070B164
:103E1000FCF7AEFE58B1D4F88400406D802806D07F
:103E2000D4F89400012540F08000C4F89400206884
:103E300000210161481E226890612068426842F0BA
:103E40000802426084F89160284684F8901070BDA2
:103E5000704700002DE9F041044690F891000028D9
:103E60006FD022685169106913680D0707D50507DF
:103E700005D5D4F88C102046BDE8F0410847CD07A1
:103E80004FF001060FD0C5070DD0966194F8910050
:103E9000222806D00220D4F894100143C4F89410CC
:103EA00075E00120F7E78D070AD5850708D50220C0
:103EB0009061D4F8880000286CD0BDE8F04100473C
:103EC000354D8F062ED587062CD520209061D4F84D
:103ED000940040F004002FE0D4F8800070B1056534
:103EE000D4F88000FCF7F4FF40B1D4F8940040F01F
:103EF0008000C4F894002046FFF7AAFFD4F884009D
:103F0000002847D00565D4F88400FCF7E1FF0028BD
:103F100040D0D4F8940040F0800036E02046FFF70F
:103F200040FF34E04F060DD547060BD54020906189
:103F3000D4F8940040F00800C4F894009803EDD53C
:103F4000CAE727E04F0716D5470714D5042090612C
:103F5000D4F8940040F02000C4F894009803BBD437
:103F6000216800200861411E2268916184F89160F7
:103F7000A4F87E000BE0C9060CD5C0060AD51020B7
:103F80009061D4F8940040F01000C4F894002046EA
:103F9000FFF75EFFBDE8F081BD5800082DE9F05F36
:103FA000040048D0FEF778F894F83800C449DFF8E8
:103FB0001483012809D12068884201D040453AD1B4
:103FC0006068012837D1606CA8BBDFF8F4B289467D
:103FD00020680BF1200B484501D0584502D1B84D5F
:103FE0002D1F1BE0B849884203D0B74920318842D1
:103FF00002D1B54D2D1F11E0B449884203D0B34919
:104000002031884202D1B14D2D1F07E0404503D039
:10401000AC49203188420ED1AA4D2D1F94F8910051
:1040200028B9002084F89000204600F057F9204677
:1040300001F0A8FC10B10120BDE8F09F022084F837
:104040009100E06820B101280CD002280CD000209B
:10405000A1684FF40067062908D2DFE801F00709DC
:104060000C0E12161020F3E72020F1E700260FE0D7
:104070004FF480660CE03E460AE040F001003E4608
:1040800006E040F002003E4602E040F003003E46FB
:1040900028604FF4007A206AE8B32168002049457F
:1040A00001D0594504D100214FF48070FEF73AFB4E
:1040B000854A2168914203D0834A2032914203D13C
:1040C00000215046FEF72EFB804A2168914203D022
:1040D0007E4A2032914203D100215046FEF722FB56
:1040E0002268424504D100214FF48060FEF71AFB9C
:1040F0007449226820318A4203D100213846FEF7F4
:1041000011FBA169B1F5002F1ED0A16AB1F1806F3A
:104110002BD0012100E02CE000EB80004200206A5F
:1041200048430002B2FBF0F00A22B0FBF2F3B0FB0E
:10413000F2F1616202FB1300082801D9491C616297
:10414000606C042813D014E0616C042908D008299D
:1041500008D0616D00EB80004200206A4843E1E72F
:104160004021F7E74FF48071F4E70221D2E74808D5
:104170006062606828B1022803D0206D012803D056
:1041800004E0206D012801D0574600E00027FDF72C
:1041900083FFB0F5005F2068016818D34C4A1140D6
:1041A0000160616C60680843D4E91212114308434E
:1041B000E16A38433043084361690843A169084311
:1041C000A18C40EA0151A06A0143206915E0414AEF
:1041D00011400160616C60680843D4E91212114318
:1041E0000843E16A38433043084361690843A169E1
:1041F0000843A18C40EA0151A06A0143206802688B
:1042000011430160206841684EF20F029143416002
:1042100020684168E2691143D4E90C231A43114331
:104220004160206881682C4A11408160616EE06DB8
:10423000626D0143206E521E10430143A06D6FF06A
:10424000FF0202EB0020014320688368194381606C
:104250002068C1684FF220031940C160D4E91A10E8
:104260000143206F02EB0020B4F8742040EA0240C2
:1042700001432068C2681143C1602068484501D0ED
:10428000404513D1686C20F00100686494F8380050
:1042900001280BD1D4E90F106FF00F0202EB0111CE
:1042A00008436864686C40F0010068640020C4F84A
:1042B0009400012184F8911084F89000BCE600007D
:1042C0000458014004540058045C0140046001405B
:1042D00010C005F010C005F80080F8FF2DE9F0418E
:1042E000B6B00546C0216846FCF7B1F833492868E6
:1042F000884260D1002180150E460224CDE90001DC
:10430000052002906C2003902C200694CDE9040433
:104310008020CDE907010120099116906846FEF73B
:104320006FFB08B1FCF713FC254F386880B92548AE
:10433000016841F48001016000680022052100F459
:10434000800035905720FDF799FF5720FDF788FF33
:10435000386830A94FF00608401C38603020032729
:1043600081E8D1011848FDF797FD31AA309417482C
:1043700030A982E8D001FDF78FFD164C144820606B
:104380005720C4E901064FF48060C4E9036040008F
:1043900060618000A0614011E0613804C4E9080652
:1043A0002046FDF747FA08B1FCF7D1FBC5F8844079
:1043B000A563C5F8804036B0BDE8F08104580140DF
:1043C00018000020F044025800100258000802585B
:1043D000100002409081002070B5044629B122B13E
:1043E00094F89100012802D049E0012070BD94F8B2
:1043F0009000012843D0012084F89000A167002597
:10440000A4F87C20A4F87E20C4F89450222084F8DC
:104410009100D4F884101B480864D4F884101A481A
:10442000C863D4F884101948C864D4F884000565BA
:104430002168B4F87C30A26F1C31D4F88400FDF7F9
:10444000D1FB10B184F89050CFE70021204601F055
:10445000B9FA0146206802691143016120680168C8
:1044600041F40031016020680168C90303D4016888
:1044700041F480310160002084F8905070BD02202A
:1044800070BD0000795900083D5900080159000825
:104490001CB500200023019001A8009001220848CB
:1044A0000221006804F0F2F80198002807D00549BD
:1044B0004FF080500860BFF34F8FBFF36F8F1CBD6C
:1044C000B400002004ED00E01CB5002001220190A2
:1044D00001A80090002308481146006804F0D6F8AF
:1044E0000198002807D005494FF080500860BFF3BD
:1044F0004F8FBFF36F8F1CBDB400002004ED00E0B0
:1045000070477047704710B5040003D094F83D0021
:1045100010B107E0012010BD002084F83C002046C7
:1045200000F022F8022084F83D002068211D01F0EF
:10453000D7FB012084F8480084F83E0084F83F004F
:1045400084F8400084F8410084F8420084F8430075
:1045500084F8440084F8450084F8460084F8470055
:1045600084F83D00002010BD7047000090F83D1019
:10457000012901D001207047022180F83D10016817
:10458000CA6842F00102CA6000681349884214D028
:10459000B0F1804F11D0114988420ED010498842A5
:1045A0000BD01049884208D00F49884205D00F49E6
:1045B000884202D00E49884207D181680D4A1140D5
:1045C000062906D0B1F5803F03D0016841F0010112
:1045D000016000207047000000000140000400401E
:1045E00000080040000C004000040140001800409A
:1045F000004001400700010070472DE9F0410446EA
:104600000068C66805694FF00007A90713D5B10710
:1046100011D5F91E0161012020772068806980078B
:10462000204602D0FFF7E8FF04E000F08BF82046B8
:1046300000F089F82777680716D5700714D5216828
:104640006FF004000861022020772068806910F470
:10465000407F204602D0FFF7CFFF04E000F072F861
:10466000204600F070F82777280715D5300713D5B6
:1046700021686FF008000861042020772068C06975
:104680008007204602D0FFF7B7FF04E000F05AF899
:10469000204600F058F82777E80616D5F00614D51E
:1046A00021686FF010000861082020772068C06939
:1046B00010F4407F204602D0FFF79EFF04E000F098
:1046C00041F8204600F03FF82777E80708D0F007C8
:1046D00006D021686FF001000861204600F034F830
:1046E000280601D4A80408D5300606D521686FF441
:1046F000025008612046FFF704FFE80508D53006A0
:1047000006D521686FF4807008612046FFF7F8FE37
:10471000680608D5700606D521686FF0400008616C
:10472000204600F01BF8A8060AD5B00608D5216877
:104730006FF0200008612046BDE8F041FFF7E2BEBF
:10474000BDE8F0817047704700680349884201D195
:10475000FDF7AEBC7047000000100040704790F8B5
:104760008410012918D0012180F884102421C0F878
:10477000881001680A680B6823F001030B6022F0BF
:10478000005100224266036819602021C0F8881099
:1047900080F88420104670470220704770B50446A8
:1047A00090F8840001281DD0012084F88400242082
:1047B000C4F8880020680568026822F001020260DF
:1047C0002068826822F060620A438260204601F01D
:1047D000EBFA206805602020C4F88800002084F8E7
:1047E000840070BD022070BD70B5044690F884004E
:1047F00001281DD0012084F884002420C4F88800FA
:1048000020680568026822F0010202602068826860
:1048100022F060420A438260204601F0C5FA206817
:1048200005602020C4F88800002084F8840070BD52
:10483000022070BD10B5040003D0D4F8880010B178
:1048400007E0012010BD002084F88400204600F01D
:1048500027F82420C4F888002068016821F00101AD
:104860000160A06A10B1204601F0C0FA204601F0B4
:10487000A1FB0128E6D02068416821F49041416005
:104880002068816821F02A0181602068016841F078
:10489000010101602046BDE8104001F00BBB0000A3
:1048A00010B5B6B00446142130A8FBF7D0FDC021E6
:1048B0006846FBF7CCFD1949206888422BD10020BF
:1048C0001F9001210446CDE900106846FEF798F8D4
:1048D00008B1FCF73CF91248016841F01001016091
:1048E000006800F0100035900D481038016841F064
:1048F00001010160006830A900F0010035904FF41B
:10490000C06030900220CDE931040720CDE933406A
:104910000448FDF7C1FA36B010BD00000010014098
:10492000F0440258000002582DE9F8430446D0F83C
:1049300088001F4615460E46202802D00220BDE8FA
:10494000F883AEB1A5B10020C4F890002120C4F8CE
:1049500088001834FDF7A6FBA5878146E5874FF050
:10496000200854F8100C183CB0F5805F02D003E02A
:104970000120E4E7206910B13546002610E000254B
:104980000EE08021204601F0E3FCB8B9D5B115F85E
:10499000010B21688862B4F85600401EA4F8560046
:1049A000B4F856004B464FF0000200970028E8D1BB
:1049B0004FF04001204601F0CBFC40B1C4F88880A4
:1049C0000320BCE736F8020BC0F30800E1E7C4F8A7
:1049D00088800020B3E7FEE701B508484168084A2F
:1049E000084B1268B2FBF3F2009B5A4300924268F4
:1049F000009B521A9A42FAD308BD0000001000E052
:104A00002C000020A08601002DE9F041224E002458
:104A10000122074608213046FDF739FB00256006D4
:104A20000122040E30460421FDF731FB0220FFF77E
:104A3000D3FF08213046FDF71DFB08B1641CE4B22A
:104A4000304600220421FDF722FB0220FFF7C4FFBD
:104A50006D1CEDB2082DE2D3E7B1012230460821EA
:104A6000FDF715FB0220FFF7B7FF012230460421B6
:104A7000FDF70DFB0220FFF7AFFF002230460421B7
:104A8000FDF705FB012230460821FDF700FB20461B
:104A9000BDE8F0810022E1E70010025870B5134E26
:104AA00000240546280601D5012200E000223046F8
:104AB0000821FDF7ECFA6806050E0220FFF78CFFCF
:104AC000012230460421FDF7E2FA0220FFF784FFBD
:104AD000002230460421FDF7DAFA0120FFF77CFFBF
:104AE000641CE4B2082CDDD370BD00000010025835
:104AF00010B50E4C012208212046FDF7C8FA01220C
:104B000020460421FDF7C3FA0220FFF765FF0022CB
:104B100020460821FDF7BBFA0220FFF75DFF0022C7
:104B20002046BDE810400421FDF7B1BA001002583C
:104B300010B5104C002204212046FDF7A8FA0022EF
:104B400020460821FDF7A3FA0220FFF745FF0122C6
:104B500020460421FDF79BFA0220FFF73DFF0122CA
:104B600020460821FDF793FABDE810400220FFF728
:104B700033BF00000010025870B50F4D0024012211
:104B800008212846FDF783FA0220FFF725FF0122BE
:104B900028460421FDF77BFA0220FFF71DFF0821BC
:104BA0002846FDF767FA00B10124284600220421B7
:104BB000FDF76DFA204670BD00100258094808B58F
:104BC000016841F00101016000680022052100F048
:104BD000010000900B20FDF751FBBDE808400B20C1
:104BE000FDF73EBBD84402581CB50F4A00210F48C0
:104BF00002F0E2F80E494FF40072086100211A2019
:104C00000B46CDE9000110480AA103F0E5FC084974
:104C1000182000234FF48072CDE900010E480BA14B
:104C200003F0DAFC1CBD0000048C00084D5A00089B
:104C30000400002050434D4433313830496E6974CC
:104C40005461736B00000000814E00085374617260
:104C5000745461736B0000009D5A00082DE9F04107
:104C600086B014216846FBF7F2FB2E48016841F03C
:104C700010010160016801F010010591016841F027
:104C800004010160016801F004010591016841F02F
:104C900080010160016801F080010591016841F027
:104CA00001010160016801F001010591016841F015
:104CB00002010160006801221B4C0C2100F002007F
:104CC00005902046FDF7E3F9DFF86080002203211C
:104CD0004046FDF7DCF901AA69460C20009011203E
:104CE0000126032782E8C1002046FDF7D5F80420FD
:104CF0006946002402258DE831000D48FDF7CCF807
:104D00000C486946CDE900540295FDF7C5F80097B7
:104D10006946CDE9016440460394FDF7BDF806B04D
:104D2000BDE8F081E0440258001002580004025827
:104D300000080258000002581A488023184901222E
:104D400010B501600021C0E91113C1644BF6803336
:104D50000165C0E90121416181618162C0E90713F8
:104D6000C1601302C162016380F83810C0E90F23EB
:104D70004365C0E91621520402665200C0E91921B8
:104D8000C166102101674FF6FF714167FFF706F911
:104D9000002803D0BDE81040FBF7D9BE10BD0000CD
:104DA00004580140F880002018480C22164910B51C
:104DB00001604FF4E131416000218160C160C0E9D0
:104DC00004128161C161016241628162FFF732FDBB
:104DD00008B1FBF7BCFE0D480021FFF705FD08B147
:104DE000FBF7B5FE09480021FFF7D8FC08B1FBF737
:104DF000AEFE0648FFF7B3FC002803D0BDE8104024
:104E0000FBF7A5BE10BD0000001001400882002085
:104E1000FEE70000054D4FF47A74204601F013FFC1
:104E200002212846FDF72BF9F7E70000000402589D
:104E30004FF47A74204601F006FFFBE70C4D0D4E4F
:104E40000D4C0A2001F0FFFE02212846FDF712F961
:104E5000012809D002213046FDF70CF90128F0D1D4
:104E6000606802F08FFEECE7606802F00BFFE8E795
:104E7000000002580008025804000020FEE700006D
:104E800010B5FBF795FB0E494FF400520D48FFF7A4
:104E9000A3FA08B1FBF75BFEFBF782FB4FF47A70D5
:104EA00002F078FD00214C2000F00EF808214D2082
:104EB00000F00AF8BDE81040002002F091BD0000AB
:104EC00000000030F880002070B50C46054600F068
:104ED000A7F80A2002F05EFD0021284600F0A4F8A1
:104EE0000A2002F057FD284600F015F82146284612
:104EF00000F085F8284600F052F8284600F042F805
:104F0000284600F01AF8284600F02AF8284600F053
:104F10003BFB002070BD10B501220446072101F0C3
:104F200070FA01222046082101F06BFA0022204687
:104F3000BDE81040092101F064BA70B500220546B1
:104F40003B2100F06FFB0024402204EB84003C3046
:104F5000C1B2284600F066FB641C082CF4DB70BD6F
:104F600010B500220446132100F05CFB002220460D
:104F7000142100F057FB00222046BDE81040162106
:104F800000F050BB10B5022204466B2100F04AFB32
:104F900000222046BDE810406C2100F043BB10B554
:104FA000402204461F2100F03DFB00222046202124
:104FB00000F038FB00222046212100F033FB412283
:104FC0002046222100F02EFB41222046232100F022
:104FD00029FB41222046242100F024FB41222046C7
:104FE000252100F01FFB452220462B2100F01AFB53
:104FF00067222046BDE810402C2100F013BB70B59D
:1050000000240D4606462819C2B204F10B00C1B2B5
:10501000304601F0F6F9641CE4B2082CF3D370BDFD
:105020000122114601F0EDB9012903D081220221AC
:1050300001F0E7B98022FAE738B5044660A001F034
:10504000E3F96BA0214601F0DFF974A001F0DCF96F
:1050500000216A46204600F0A9FA9DF800107AA0C7
:1050600001F0D2F902216A46204600F09FFA9DF82D
:10507000001080A001F0C8F907216A46204600F020
:1050800095FA9DF8001087A001F0BEF908216A4644
:10509000204600F08BFA9DF800108DA001F0B4F9C5
:1050A0000B216A46204600F081FA9DF8001093A07B
:1050B00001F0AAF913216A46204600F077FA9DF81C
:1050C000001096A001F0A0F916216A46204600F0D3
:1050D0006DFA9DF800109CA001F096F91F216A4618
:1050E000204600F063FA9DF80010A2A001F08CF9B0
:1050F00020216A46204600F059FA9DF80010A8A029
:1051000001F082F922216A46204600F04FFA9DF80C
:105110000010AEA001F078F92B216A46204600F07D
:1051200045FA9DF80010B4A001F06EF92F216A46EF
:10513000204600F03BFA9DF80010BAA001F064F997
:1051400036216A46204600F031FA9DF80010C0A0D2
:1051500001F05AF93C216A46204600F027FA9DF8F2
:105160000010C6A001F050F96B216A46204600F0FD
:105170001DFA9DF80010CCA001F046F973216A4693
:10518000204600F013FA9DF80010D2A001F03CF97F
:1051900074216A46204600F009FA9DF80010D8A054
:1051A00001F032F975216A46204600F0FFF99DF8BA
:1051B0000010DEA001F028F9E7A001F025F938BDC4
:1051C0000D0A3D3D3D3D3D3D3D3D3D3D3D3D3D3D72
:1051D0003D3D3D3D3D3D3D3D3D3D3D3D3D3D3D3DFF
:1051E0003D3D3D3D3D3D3D3D3D3D0D0A0000000046
:1051F0002050434D44333138302052656769737411
:1052000065722044756D70207C2044657669636505
:105210003A203078253032580D0A00003D3D3D3DA2
:105220003D3D3D3D3D3D3D3D3D3D3D3D3D3D3D3DAE
:105230003D3D3D3D3D3D3D3D3D3D3D3D3D3D3D3D9E
:105240003D3D3D3D0D0A00005B307830305D205023
:105250006167652053656C656374203A203078255A
:1052600030325820284578706563742030783030AB
:10527000290D0A005B307830325D20534C45455093
:105280005F4346472020203A20307825303258208E
:105290002845787065637420307830312F38312993
:1052A0000D0A00005B307830375D204153495F4381
:1052B000464730202020203A2030782530325820B0
:1052C000284578706563742030783031290D0A00E4
:1052D0005B307830385D204153495F434647312089
:1052E0002020203A20307825303258202845787008
:1052F0006563742030783031290D0A005B307830D6
:10530000425D204348315F534C4F54202020203AC7
:10531000203078253032580D0A0000005B3078319B
:10532000335D204D53545F43464730202020203AC0
:1053300020307825303258202845787065637420F5
:1053400030783030290D0A005B307831365D2043EB
:105350004C4B5F53524320202020203A20307825A8
:1053600030325820284578706563742030783030AA
:10537000290D0A005B307831465D2050444D434C86
:105380004B5F43464720203A203078253032582062
:10539000284578706563742030783430290D0A0010
:1053A0005B307832305D2050444D494E5F43464774
:1053B0002020203A20307825303258202845787037
:1053C0006563742030783030290D0A005B30783204
:1053D000325D2047504F315F434647202020203A1E
:1053E0002030782530325820284578706563742045
:1053F00030783430290D0A005B307832425D204726
:1054000050495F43464730202020203A20307825FD
:1054100030325820284578706563742030783435F0
:10542000290D0A005B307832465D204750495F4DB8
:105430004F4E20202020203A20307825303258202E
:1054400028496E707574205374617465290D0A00C3
:105450005B307833365D20494E545F4C54434830BE
:105460002020203A2030782530325820284572728A
:105470006F72204C6F67290D0A0000005B30783393
:10548000435D204348315F494E5352432020203A28
:105490002030782530325820284578706563742094
:1054A00030783430290D0A005B307836425D204474
:1054B00053505F43464730202020203A2030782543
:1054C0003032582028457870656374203078303247
:1054D000290D0A005B307837335D20494E5F434821
:1054E0005F454E202020203A203078253032582049
:1054F000284578706563742030784646290D0A0087
:105500005B307837345D204153495F4F55545F45D8
:105510004E20203A203078253032582028457870A7
:105520006563742030784646290D0A005B30783771
:10553000355D205057525F43464720202020203AB7
:1055400020307825303258202845787065637420E3
:1055500030784530290D0A003D3D3D3D3D3D3D3D06
:105560003D3D3D3D3D3D3D3D3D3D3D3D3D3D3D3D6B
:105570003D3D3D3D3D3D3D3D3D3D3D3D3D3D3D3D5B
:105580000D0A0D0A0000000010B5FF220446732129
:1055900000F048F8FF222046742100F043F8602212
:1055A0002046BDE81040752100F03CB82DE9F041DF
:1055B0001B4C16460F4605466421206801F07EFB11
:1055C00010B10120BDE8F081FFF792FA6806000EE5
:1055D000FFF764FAFFF7D0FA80B93846FFF75EFAB2
:1055E000FFF7CAFA50B9FFF783FA012000EB450034
:1055F000C0B2FFF753FAFFF7BFFA28B1FFF798FAE6
:10560000206801F0B8FBDCE70120FFF7FDF93070FE
:10561000FFF78EFA206801F0AEFB0020D2E7000011
:10562000C80000202DE9F041164C15460E460746ED
:105630006421206801F042FB10B10120BDE8F08137
:10564000FFF756FA7806000EFFF728FAFFF794FAEC
:1056500058B93046FFF722FAFFF78EFA28B92846E4
:10566000FFF71CFAFFF788FA28B1FFF761FA206804
:1056700001F081FBE1E7FFF75BFA206801F07BFBBB
:105680000020DBE7C80000202DE9F047DFF80881A3
:1056900004460E464FF00009D8F80000C0438007CA
:1056A00009D03D4D283D286820F080602860FCF737
:1056B000F9FC074607E00120BDE8F087FCF7F2FCA3
:1056C000C01B022860D828680001F7D4D8F8001061
:1056D000226821F47C3141EA0231C8F80010207AB6
:1056E0004FF4FE02A1884002491EA0F5007080B26E
:1056F000C1F308010843A189491E02EA0141084398
:10570000217C1202491E02EA01610843224910313C
:1057100008602148001D0168626921F0C001114341
:1057200001600168A26921F0200111430160016854
:1057300021F010010160184914310A684FF6F8731E
:105740009A43E36942EAC3020A60016841F010012A
:1057500001606EB10168012E0ED041F400110160AC
:10576000286840F080602860FCF79CFC04460DE04F
:10577000016841F40021F2E741F48011EFE7FCF702
:1057800091FC001B022801D9032095E7286800013D
:10579000F5D5484690E70000284402582DE9F04727
:1057A000DFF8088104460E464FF00009D8F80000E3
:1057B000C043800709D03D4D283D286820F0805027
:1057C0002860FCF76FFC074607E00120BDE8F08782
:1057D000FCF768FCC01B022860D828688000F7D45A
:1057E000D8F80010228821F07C7141EA0251C8F8F3
:1057F0000010207A4FF4FE02A1884002491EA0F555
:10580000007080B2C1F308010843A189491E02EA71
:1058100001410843217C1202491E02EA016108434A
:105820002249183108602148001D0168626921F48D
:105830004061114301600168A26921F400711143C4
:105840000160016821F48071016018491C310A6807
:105850004FF6F8739A43E36942EAC3020A600168AB
:1058600041F4807101606EB10168012E0ED041F0EB
:1058700080710160286840F080502860FCF712FCBD
:1058800004460DE0016841F48001F2E741F40001B3
:10589000EFE7FCF707FC001B022801D9032095E77E
:1058A00028688000F5D5484690E700002844025853
:1058B0000148FEF7CFBA0000F880002070B5846B75
:1058C0002068016821F4003101602068002505612D
:1058D000681E21688861D4F89400202807D02046EB
:1058E00000F050F82068416841F008014160012053
:1058F00084F891002046A4F87E50FEF7A9FA70BD06
:1059000010B5846BFBF71AFC022816D0D4F894006B
:1059100040F08000C4F894002068016821F4003150
:105920000160204600F02EF8012084F8910000204C
:10593000A4F87E002046FEF78BFA10BD10B5846BEC
:10594000C069B0F5807F13D02068016821F4003170
:1059500001600020A4F87E000146204600F032F8E5
:105960000146206802698A430261012084F891009F
:105970002046FEF78DFD10BD10B5806BFEF7A4FD2F
:1059800010BD00000E4941F6583210B50968B1FB50
:10599000F2F1026814688900002324F48034146052
:1059A00031B102681268491ED203F9D4184610BDFD
:1059B000D0F8941041F04001C0F894100323F5E7AB
:1059C0002C0000200122012900D10922416C4068ED
:1059D000082905D1032801D0012803D142F0100283
:1059E000032804D0022802D042F00400704742F09D
:1059F00060007047104810B50168C9010AD40168F9
:105A000041F0807101600D4800214160016841F062
:105A1000010101600A4801F07AF90A4901220A4CA1
:105A2000086004212046FCF732FB01222046BDE835
:105A300010400821FCF72BBBFCED00E0001000E05B
:105A4000688C0008C800002000100258074C4FF472
:105A50007A754D20FFF7F0FAB4F9001004A000F0B9
:105A6000D3FC284601F0EFF8F3E700000000002027
:105A700048656C6C6F2066726F6D2046726565526A
:105A8000544F532120444D412053616D706C65206B
:105A900056616C75653A2025640A00007CB501F0FA
:105AA000A3FE144818244FF4807500232A4612A13F
:105AB000CDE90040124802F08FFD0E48002311A1ED
:105AC0002A46001DCDE90040104802F085FD094836
:105AD00000230FA12A460830CDE900400E4802F00D
