:020000040800F2
:10000000100A0024410300083D3D0008973C000809
:100010009D3C0008F106000879500008000000002F
:100020000000000000000000000000000D4000087B
:10003000F506000800000000413D00080F400008E0
:1000400067030008670300086703000867030008E8
:1000500067030008670300086703000867030008D8
:1000600067030008670300086703000867030008C8
:1000700067030008670300086703000867030008B8
:1000800067030008670300086703000867030008A8
:100090006703000867030008670300086703000898
:1000A0006703000867030008670300086703000888
:1000B0006703000867030008670300086703000878
:1000C0006703000867030008670300086703000868
:1000D0006703000869500008670300086703000809
:1000E00067030008670300080000000067030008BA
:1000F0006703000867030008670300086703000838
:100100006703000867030008670300086703000827
:100110006703000867030008670300086703000817
:100120006703000867030008670300086703000807
:1001300067030008670300086703000867030008F7
:1001400000000000000000000000000000000000AF
:1001500067030008670300086703000867030008D7
:1001600067030008670300086703000867030008C7
:100170006703000867030008670300080000000029
:1001800067030008670300086703000867030008A7
:100190006703000867030008670300086703000897
:1001A0006703000867030008670300086703000887
:1001B0006703000867030008670300086703000877
:1001C0006703000867030008670300086703000867
:1001D0006703000867030008670300086703000857
:1001E0006703000867030008670300086703000847
:1001F0006703000867030008670300086703000837
:100200006703000867030008670300086703000826
:100210006703000867030008670300086703000816
:100220006703000867030008670300080000000078
:100230006703000867030008000000006703000868
:1002400067030008670300086703000867030008E6
:1002500067030008670300086703000867030008D6
:1002600067030008670300086703000867030008C6
:100270006703000867030008670300080000000028
:100280006703000867030008670300080000000018
:10029000000000006703000800F002F800F041F8D9
:1002A0000AA090E8000C82448344AAF10107DA45D1
:1002B00001D100F036F8AFF2090EBAE80F0013F0E2
:1002C000010F18BFFB1A43F00103184758560000EE
:1002D00078560000103A24BF78C878C1FAD852077F
:1002E00024BF30C830C144BF04680C6070470000B0
:1002F0000023002400250026103A28BF78C1FBD82F
:10030000520728BF30C148BF0B607047642900F016
:10031000F580002070471FB505F0EAFA1FBD10B543
:1003200010BD00F0B3F91146FFF7F5FF04F0C6FF6A
:1003300000F0D1F903B4FFF7F2FF03BC04F0BAFEFA
:10034000DFF83000016841F4700101600A4880471D
:100350000A480047FEE7FEE7FEE7FEE7FEE7FEE7A6
:10036000FEE7FEE7FEE7FEE705480649044A064BBE
:100370007047000088ED00E019400008990200086D
:1003800010020024100A002410020024704753EACF
:10039000020C00F069802DE9F04B4FF00006002BB5
:1003A0001FBFB3FA83F503FA05F424FA05F65E409D
:1003B00012BF1643B2FA82F502FA05F4C5F1200520
:1003C0001EBF22FA05FC44EA0C04203556EA044C10
:1003D0004FEA144418BF641C4FF000084FF00009A6
:1003E000904271EB030C39D3002919BFB1FA81F7A0
:1003F00001FA07F6B0FA80F700FA07F6C7F120070E
:100400001EBF20FA07FC46EA0C062037B6FBF4FCB8
:10041000A7EB0507103F07F01F0BCBF120060CFAE6
:100420000BFB2CFA06F644BFB3460026202FA4BFD0
:100430005E464FF0000B5BEA060C08BF4FF0010B65
:1004400019EB0B09ABFB027C48EB0608C01B06FB53
:1004500002CC0BFB03CC71EB0C01C1E70B4602464F
:1004600041464846BDE8F08B13B54FF000004FF011
:100470000001AFF30080BDE81C4070470FB4044991
:1004800010B503AA029800F0D3F810BC5DF814FB75
:100490000C0000242DE9F0410E46044600202062A5
:1004A0002046E168884730B3252805D0D4E90121EA
:1004B0009047206A401CF2E7E16820460027884701
:1004C000050018D0A5F14100192802D820354FF4B5
:1004D00000673246294620462760FFF717FF40B1E4
:1004E000012804D0F61D26F007060836D8E7361D89
:1004F000D6E72846DAE7206ABDE8F0812DE9F04129
:100500000646002410687529314616A510D0AFF3B1
:100510000080002802DA404213A507E031688A070C
:1005200001D512A502E0490704D511A5012401E077
:10053000AFF3008000210A2206F1240709E0B0FB96
:10054000F2FCB0FBF2F302FB1C003030785418468A
:10055000491C0028F3D123462A463046BDE8F04125
:1005600000F00CB8000000002D0000002B0000007F
:100570002000000070477047704770472DE9F04732
:100580000D4699469246044600F124080168880603
:1005900004D5E06921F01001216000E00120A842AB
:1005A00001DD471B00E00027A1697A1902EB090071
:1005B000081AA0612078C00602D42046AFF300805C
:1005C000002608E0D4E901211AF806009047206AC5
:1005D000401C761C20624E45F4DB2078C0060AD50C
:1005E0002046AFF3008006E0D4E901213020904797
:1005F000206A401C2062381EA7F10107F4DC07E0E6
:10060000D4E9012118F805009047206A401C2062B7
:10061000281EA5F10105F3DC2046AFF30080207809
:10062000000602D50220BDE8F0870120FBE70000AC
:10063000074B70B50D467B4400F011F80446284680
:1006400000F020F810B14FF0FF3070BD204670BDB3
:10065000E74A000001694A1C02610878704700B54A
:100660008FB0CDE901310021059105497944CDE9EB
:10067000031011466846FFF70DFF0FB000BD0000E4
:10068000E5FFFFFF007B00F080007047754600F03B
:100690002BF8AE4605006946534620F00700854614
:1006A00018B020B5FFF760FEBDE820404FF000060F
:1006B0004FF000074FF000084FF0000B21F007014A
:1006C000AC46ACE8C009ACE8C009ACE8C009ACE88D
:1006D000C0098D46704710B50446AFF30080204630
:1006E000BDE81040FFF726BE00487047AC0100246B
:1006F00000BFFEE7704702460868B0B9D1E90103C0
:100700001843CB6818430B6918434B6918438B692E
:100710001843CB6918430B6A18434B6A1843136894
:100720006FF30E031843106019E0D1E90703184373
:100730004B6A1843136823F4F84318431060D1E957
:1007400001031843CB6818430B6918434B691843DE
:100750008B69184353686FF30E03184350600020F1
:1007600070470246506943F6FE73984340EA4100E1
:1007700050610020704710B50346D1E900042043C2
:100780008C68641E40EA4410CC6840EA44201C692E
:100790006FF3150420431861002010BD30B50346E7
:1007A000FAB90868401E4C68641E40EA0414886860
:1007B000401E44EA0024C868401E44EA0034088A07
:1007C000401E44EA0044888A401E44EA0054087EE1
:1007D000401E44EA00609C6804F070442043986026
:1007E00022E0C868401E0403888A401E44EA005084
:1007F0009C680E4D2C40204398600868401E4C6851
:10080000641E40EA04148868401E44EA0024088AF2
:10081000401E44EA0044087E401E44EA0060DC6852
:1008200004F070442043D860002030BDFF0F0FFF5C
:100830002DE9F041044600F05BFD804614B901202B
:10084000BDE8F08194F83500022808D0802060656A
:1008500000BF002084F8340000BF0120F0E7FE490B
:100860002068884249D0FC4918312068884244D029
:10087000F9493031206888423FD0F7494831206833
:1008800088423AD0F44960312068884235D0F24934
:1008900078312068884230D0EF4990312068884212
:1008A0002BD0ED49A8312068884226D0EB4920683A
:1008B000884222D0E9491831206888421DD0E74992
:1008C00030312068884218D0E44948312068884295
:1008D00013D0E2496031206888420ED0DF49783178
:1008E0002068884209D0DD4990312068884204D0D0
:1008F000DA49A8312068884201D1012000E00020B7
:1009000068B12068006820F01E0021680860206837
:10091000406920F0800021684861256806E0206871
:10092000006820F00E00216808602568CA49206828
:10093000884270D0C8491831206888426BD0C649B7
:1009400030312068884266D0C349483120688842E7
:1009500061D0C1496031206888425CD0BE4978319D
:100960002068884257D0BC4990312068884252D0D4
:10097000B949A831206888424DD0B84920688842DA
:1009800049D0B64918312068884244D0B349303143
:10099000206888423FD0B1494831206888423AD027
:1009A000AE4960312068884235D0AC497831206842
:1009B000884230D0A9499031206888422BD0A7497D
:1009C000A8312068884226D0A5492068884222D0D4
:1009D000A3491431206888421DD0A14928312068DC
:1009E000884218D09E493C312068884213D09C49E7
:1009F0005031206888420ED099496431206888427D
:100A000009D0974978312068884204D094498C31C4
:100A10002068884201D1012000E0002028B1206E2A
:100A2000006820F48070216E08608B49206888423D
:100A300049D0894918312068884244D086493031EC
:100A4000206888423FD084494831206888423AD0A3
:100A5000814960312068884235D07F4978312068EB
:100A6000884230D07C499031206888422BD07A4926
:100A7000A8312068884226D078492068884222D050
:100A800076491831206888421DD074493031206879
:100A9000884218D0714948312068884213D06F4984
:100AA0006031206888420ED06C49783120688842D5
:100AB00009D06A4990312068884204D06749A8313A
:100AC0002068884206D12068006820F00100216873
:100AD000086005E02068006820F0010021680860D7
:100AE00011E000F005FCA0EB080005280BD9202040
:100AF0006065032084F8350000BF002084F83400CE
:100B000000BF01209CE6286800F001000028E8D121
:100B100051492068884249D04F491831206888429D
:100B200044D04D493031206888423FD04A4948314D
:100B3000206888423AD0484960312068884235D0E0
:100B4000454978312068884230D043499031206847
:100B500088422BD04049A8312068884226D03F499E
:100B60002068884222D03D491831206888421DD033
:100B70003A4930312068884218D0384948312068D5
:100B8000884213D035496031206888420ED03349FD
:100B900078312068884209D03049903120688842F5
:100BA00004D02E49A8312068884201D1012000E0FC
:100BB000002040B1A66D94F85C0000F01F013F20BA
:100BC0008840B06007E0A76D94F85C0000F01F015A
:100BD00001208840786020492068884276D01E49EC
:100BE00018312068884271D01B4930312068884212
:100BF0006CD0194948312068884267D01649603165
:100C00002068884262D014497831206888425DD0DB
:100C1000114990312068884258D00F49A831206886
:100C2000884253D00D49206888424FD00B49183173
:100C3000206888424AD0094930312068884245D02E
:100C4000064948312068884240D004496031206814
:100C500088423BD0014905E01000024010040240E8
:100C6000085402587831206888422FD025492068DE
:100C700088422BD0234918312068884226D0224947
:100C80002068884222D020491431206888421DD033
:100C90001D4928312068884218D01B493C31206802
:100CA000884213D018495031206888420ED0164926
:100CB00064312068884209D013497831206888421D
:100CC00004D011498C312068884201D1012000E014
:100CD000002068B1D4E919104860E06E40B1E06EC0
:100CE000006820F48070E16E0860D4E91C10486050
:100CF000012084F8350000BF002084F8340000BFD4
:100D000000BF9DE5A00402400854025870B5044697
:100D10000CB9012070BD94F83500022803D0802062
:100D200060650120F6E7DC492068884249D0DA494D
:100D300018312068884244D0D74930312068884231
:100D40003FD0D5494831206888423AD0D2496031F5
:100D50002068884235D0D04978312068884230D028
:100D6000CD499031206888422BD0CB49A8312068EA
:100D7000884226D0C9492068884222D0C749183104
:100D8000206888421DD0C54930312068884218D07B
:100D9000C24948312068884213D0C0496031206878
:100DA00088420ED0BD4978312068884209D0BB49BD
:100DB00090312068884204D0B849A8312068884220
:100DC00001D1012000E00020F0B3042084F83500B8
:100DD000B149206888424BD0AF4918312068884219
:100DE00046D0AD4930312068884241D0AA494831C7
:100DF000206888423CD0A84960312068884237D0BA
:100E0000A54978312068884232D0A34990312068C2
:100E100088422DD0A049A8312068884228D09F4917
:100E20002068884224D09D491831206888421FD00C
:100E30009A493031206888421AD098494831206850
:100E4000884215D0954900E020E060312068884252
:100E50000ED0924978312068884209D08F4990316C
:100E60002068884204D08D49A8312068884206D184
:100E70002068006820F001002168086009E120680E
:100E8000006820F001002168086002E12068006825
:100E900020F00E00216808607F492068884249D010
:100EA0007D4918312068884244D07B493031206820
:100EB00088423FD078494831206888423AD0764904
:100EC00060312068884235D0734978312068884283
:100ED00030D071499031206888422BD06E49A831BA
:100EE0002068884226D06D492068884222D06B490C
:100EF0001831206888421DD0684930312068884206
:100F000018D0664948312068884213D0634960315F
:100F1000206888420ED0614978312068884209D023
:100F20005E4990312068884204D05C49A83120682D
:100F3000884206D12068006820F00100216808601E
:100F400005E02068006820F001002168086052492F
:100F50002068884270D050491831206888426BD090
:100F60004D4930312068884266D04B49483120686D
:100F7000884261D048496031206888425CD0464947
:100F800078312068884257D04349903120688842A0
:100F900052D04149A831206888424DD03F4920684D
:100FA000884249D03D4918312068884244D03B49A5
:100FB0003031206888423FD0384948312068884223
:100FC0003AD0364960312068884235D0334978318B
:100FD0002068884230D031499031206888422BD037
:100FE0002E49A8312068884226D02D4920688842A1
:100FF00022D02B491431206888421DD0284928313D
:101000002068884218D026493C312068884213D095
:1010100023495031206888420ED02149643120682C
:10102000884209D01E4978312068884204D01C4982
:101030008C312068884201D1012000E00020D8B125
:10104000206E006820F48070216E0860A56D94F811
:101050005C0000F01F01012088406860D4E919108D
:101060004860E06E40B1E06E006820F48070E16E90
:101070000860D4E91C104860012084F8350000BFE6
:10108000002084F8340000BF206D10B12046216D8F
:10109000884700203EE60000100002401004024095
:1010A000085402580348006840F0010001490860F4
:1010B0007047000020040058F8B502460B46002196
:1010C0006F4DD7E001278F401E6806EA0704002C09
:1010D00072D01E7906F00306012E04D01E7906F0A8
:1010E0000306022E13D190684F000326BE40B04382
:1010F0004F00DE68BE4030439060506801268E404D
:10110000B0431E79C6F300168E40304350601E79FE
:1011100006F00306032E09D0D0684F000326BE4018
:10112000B0434F009E68BE403043D0601E7906F049
:101130000306022E13D1CF0802F1200656F827002D
:101140004E07F70E0F26BE40B0434F07FF0E1E6935
:10115000BE403043CF0802F1200646F82700106851
:101160004F000326BE40B0431E7906F003064F0031
:10117000BE40304310605E6806F44036002E78D0E2
:1011800000BF404E366846F002063E4F3E603E4687
:10119000366806F00206009600BF00BF3A4E8F0880
:1011A00056F827008E07370F0F26BE40B043374E44
:1011B000B24202D100262EE05BE0354EB24201D1B0
:1011C000012628E0334EB24201D1022623E0324EFE
:1011D000B24201D103261EE0304EB24201D10426B4
:1011E00019E02F4EB24201D1052614E02D4EB24235
:1011F00001D106260FE02C4EB24201D107260AE0AB
:101200002A4EB24201D1082605E0294EB24201D150
:10121000092600E00A268F073F0FBE4030431A4ED2
:101220008F0846F827004FF0B0463068A0435E684C
:1012300006F4801606B120434FF0B0463060706867
:10124000A0435E6806F4001606B120434FF0B04696
:1012500070606868A0435E6806F4003606B12043FB
:1012600068602868A0435E6806F4803606B12043B3
:101270002860491C1E68CE40002E7FF423AFF8BDC5
:1012800080000058F4440258080400580000025836
:101290000004025800080258000C025800100258BE
:1012A0000014025800180258001C0258002002586E
:1012B00000240258024613690B400BB1012000E0E4
:1012C0000020704710B5426921EA020302EA0104D6
:1012D00043EA0443836110BD0AB1816101E00B045C
:1012E0008361704701480068000C70470010005C83
:1012F000014800687047000014000024034800689B
:101300000349097808440149086070471400002423
:101310001C00002410B5052000F00EF901F028FB98
:1013200010490968C1F303210F4A515C01F01F0104
:1013300020FA01F40B48006800F00F001146085C29
:1013400000F01F0024FA00F0084908600848046013
:101350000F2000F00FF808B1012010BD00F09AF83E
:101360000020FAE718440258FA5800080400002444
:101370000000002470B504461148007808B9012027
:1013800070BD0F4800784FF47A71B1FBF0F00D4951
:101390000968B1FBF0F5284602F00CF908B101200C
:1013A000EEE7102C07D200222146501E00F087F8ED
:1013B0000548046001E00120E2E70020E0E70000CA
:1013C0001C00002400000024180000244178154A65
:1013D00011600178F9B1121D41681160017B0907A4
:1013E000C27A41EA0261827A41EAC241427B41EA21
:1013F0008241827B41EA4241C27B41EA0241427A18
:1014000041EA0221027A41EA420102781143054A87
:101410000832116005E00021024A121D1160121D00
:101420001160704798ED00E000BF00BF00BFBFF340
:101430005F8F00BF00BF00BF0548006820F4803008
:1014400003490860002002497031086070470000BD
:1014500024ED00E040F001010D4A11600C497039A3
:10146000096841F480310A4A703A116000BF00BF38
:1014700000BFBFF34F8F00BF00BF00BF00BF00BF62
:1014800000BFBFF36F8F00BF00BF00BF70470000F9
:1014900094ED00E070470146084600280DDB00BFD0
:1014A00000BF00F01F0301229A4043099B0003F193
:1014B000E023C3F8002100BF00BF00BF70472DE943
:1014C000F05F80460D46164603F0D8FD07463946C4
:1014D0002A46334601F00700C0F1070ABAF1040FAB
:1014E00002D94FF0040A01E0C0F1070AD14600F129
:1014F000040ABAF1070F02D24FF0000A01E0A0F18E
:10150000030AD4464FF0010A0AFA09FAAAF1010ABD
:101510000AEA020A0AFA0CFA4FF0010B0BFA0CFB6A
:10152000ABF1010B0BEA030B4AEA0B0421464046E0
:1015300003F0ACFDBDE8F09F00BF00F00702064BD2
:1015400019684FF6FF031940044B0B4343EA02218D
:10155000014B196000BF70470CED00E00000FA0578
:1015600070B5044615480068C0F3800048B91348B8
:10157000006800F00700A04201D0012070BD0020EB
:10158000FCE70E48006820F0070020430B49086084
:10159000FFF7AEFE054607E0FFF7AAFE401BB0F5D9
:1015A0007A7F01D90120E9E7044808380068C0F3D0
:1015B00040300028F0D00020E0E700000C4802583E
:1015C0000348006840F080700149086070470000DF
:1015D0000C48025810B501F081F905490968C1F3BA
:1015E0000211044A515C01F01F01C84010BD000007
:1015F00020440258FA58000870B50146844D2D6801
:1016000005F00303824D2D68C5F30530804D2D1D77
:101610002D68C5F300147E4D14352D68C5F3CC0537
:1016200015FB04F501EE105AB8EE411AF0EE410A2E
:1016300000286FD023B1012B4ED0022B6BD16BE071
:10164000734D283D2D68C5F340153DB3704D283DC1
:101650002D68C5F3C1066F4D25FA06F201EE102A7A
:10166000F8EE411A01EE100AB8EE411A81EE812A15
:101670009FED691AC0EE811A654D10352D68C5F3CE
:10168000080501EE105AB8EE411A31EE811AF7EE54
:10169000001A31EE211A22EE010A1CE001EE100AB6
:1016A000B8EE411ADFED5D1A81EE812A9FED5A1ADC
:1016B000C0EE811A564D10352D68C5F3080501EEB0
:1016C000105AB8EE411A31EE811AF7EE001A31EED7
:1016D000211A22EE010A5BE001EE100AB8EE411A6F
:1016E000DFED4F1A81EE812A9FED4B1AC0EE811A71
:1016F000474D10352D68C5F3080501EE105AB8EEB8
:10170000411A31EE811AF7EE001A31EE211A22EE5B
:10171000010A3DE077E01DE001EE100AB8EE411A43
:101720009FED402AC2EE011A9FED3B1A80EE812AFE
:10173000374D10352D68C5F3080501EE105AB8EE87
:10174000411A32EE011AB7EE002A31EE021A21EEEA
:10175000810A1DE001EE100AB8EE411ADFED301AE1
:1017600081EE812A9FED2C1AC0EE811A284D10358A
:101770002D68C5F3080501EE105AB8EE411A31EE96
:10178000811AF7EE001A31EE211A22EE010A00BF8B
:1017900000BF1F4D10352D68C5F3462501EE105AC8
:1017A000B8EE411AF7EE001A31EE211AC0EE011A16
:1017B000BCEEE11A81ED001A154D10352D68C5F308
:1017C000064501EE105AB8EE411AF7EE001A31EE56
:1017D000211AC0EE011ABCEEE11A81ED011A0C4D7E
:1017E00010352D68C5F3066501EE105AB8EE411AA2
:1017F000F7EE001A31EE211AC0EE011ABCEEE11A22
:1018000081ED021A03E000250D604D608D6070BD12
:10181000284402580090D003000000460024744C75
:101820000024744A20BCBE4B70B50146844D2D681F
:1018300005F00303824D2D68C5F30550804D2D1D25
:101840002D68C5F300247E4D1C352D68C5F3CC05ED
:1018500015FB04F501EE105AB8EE411AF0EE410AFC
:1018600000286FD023B1012B4ED0022B6BD16BE03F
:10187000734D283D2D68C5F340153DB3704D283D8F
:101880002D68C5F3C1066F4D25FA06F201EE102A48
:10189000F8EE411A01EE100AB8EE411A81EE812AE3
:1018A0009FED691AC0EE811A654D18352D68C5F394
:1018B000080501EE105AB8EE411A31EE811AF7EE22
:1018C000001A31EE211A22EE010A1CE001EE100A84
:1018D000B8EE411ADFED5D1A81EE812A9FED5A1AAA
:1018E000C0EE811A564D18352D68C5F3080501EE76
:1018F000105AB8EE411A31EE811AF7EE001A31EEA5
:10190000211A22EE010A5BE001EE100AB8EE411A3C
:10191000DFED4F1A81EE812A9FED4B1AC0EE811A3E
:10192000474D18352D68C5F3080501EE105AB8EE7D
:10193000411A31EE811AF7EE001A31EE211A22EE29
:10194000010A3DE077E01DE001EE100AB8EE411A11
:101950009FED402AC2EE011A9FED3B1A80EE812ACC
:10196000374D18352D68C5F3080501EE105AB8EE4D
:10197000411A32EE011AB7EE002A31EE021A21EEB8
:10198000810A1DE001EE100AB8EE411ADFED301AAF
:1019900081EE812A9FED2C1AC0EE811A284D183550
:1019A0002D68C5F3080501EE105AB8EE411A31EE64
:1019B000811AF7EE001A31EE211A22EE010A00BF59
:1019C00000BF1F4D18352D68C5F3462501EE105A8E
:1019D000B8EE411AF7EE001A31EE211AC0EE011AE4
:1019E000BCEEE11A81ED001A154D18352D68C5F3CE
:1019F000064501EE105AB8EE411AF7EE001A31EE24
:101A0000211AC0EE011ABCEEE11A81ED011A0C4D4B
:101A100018352D68C5F3066501EE105AB8EE411A67
:101A2000F7EE001A31EE211AC0EE011ABCEEE11AEF
:101A300081ED021A03E000250D604D608D6070BDE0
:101A4000284402580090D003000000460024744C43
:101A50000024744A20BCBE4B2DE9F0410446002509
:101A6000A846206800F00060B0F1006F30D1606ED1
:101A700048B1B0F5801F0DD0B0F5001F10D0B0F503
:101A8000401F15D113E0F948006840F40030F749D1
:101A900008600FE00221201D02F054F9054609E01C
:101AA000022104F1240002F0FFF9054602E001E002
:101AB000012500BF00BF55B9EC482430006820F470
:101AC0004010616E0843E9492431086000E0A846EF
:101AD000208800F48070B0F5807F2DD1606D0528DE
:101AE0001AD2DFE800F0030A10171800DF48006878
:101AF00040F40030DD49086010E00021201D02F0B4
:101B000021F905460AE0002104F1240002F0CCF995
:101B1000054603E002E001E0012500BF00BF55B922
:101B2000D2482430006820F00700616D0843CF4997
:101B30002431086000E0A846208800F40070B0F569
:101B4000007F33D1A06D802817D003DC40B140283E
:101B50001CD10CE0C02817D0B0F5807F16D114E05E
:101B6000C248006840F40030C049086010E000211D
:101B7000201D02F0E7F805460AE0002104F12400E8
:101B800002F092F9054603E002E001E0012500BF02
:101B900000BF55B9B5482430006820F4E070A16D4D
:101BA0000843B2492431086000E0A846208800F4C8
:101BB0008060B0F5806F38D1D4F8A400B0F5800F04
:101BC00019D004DC50B1B0F5001F1DD10DE0B0F507
:101BD000C00F17D0B0F5000F16D114E0A34800686D
:101BE00040F40030A149086010E00021201D02F0FF
:101BF000A9F805460AE0002104F1240002F054F996
:101C0000054603E002E001E0012500BF00BF5DB929
:101C100096482C30006820F46000D4F8A4100843E3
:101C200092492C31086000E0A846208800F400604A
:101C3000B0F5006F38D1D4F8A800B0F1007F19D00A
:101C400004DC50B1B0F1807F1DD10DE0B0F1407FD8
:101C500017D0B0F1806F16D114E08448006840F4CA
:101C600000308249086010E00021201D02F06AF86F
:101C700005460AE0002104F1240002F015F90546AA
:101C800003E002E001E0012500BF00BF5DB9774835
:101C90002C30006820F0E060D4F8A81008437349A5
:101CA0002C31086000E0A846206800F00070B0F118
:101CB000007F27D1A06CA0B1102804D0202809D023
:101CC00030280FD10CE06948006840F400306749C3
:101CD000086009E00221201D02F034F8054603E007
:101CE00002E001E0012500BF00BF55B95F48203088
:101CF000006820F03000A16C08435C492031086086
:101D000000E0A846208800F48050B0F5805F36D10E
:101D1000E06DB0F5005F19D004DC50B1B0F5805F24
:101D20001DD10DE0B0F5405F17D0B0F5804F16D152
:101D300014E04E48006840F400304C49086010E060
:101D40000021201D01F0FEFF05460AE0002104F1FC
:101D5000240002F0A9F8054603E002E001E00125B5
:101D600000BF00BF55B941482430006820F4E0406E
:101D7000E16D08433D492431086000E0A846208811
:101D800000F40050B0F5005F34D1206EB0F5403F54
:101D90001DD007DC68B1B0F5803F0BD0B0F5003F37
:101DA00018D10DE0B0F5802F12D0B0F5A02F11D1D1
:101DB0000FE011E00121201D01F0C4FF05460BE0FA
:101DC000012104F1240002F06FF8054604E003E06D
:101DD00002E001E0012500BF00BF55B923482430CF
:101DE000006820F4E020216E084320492431086077
:101DF00000E0A846208800F48040B0F5804F38D13C
:101E0000D4F8AC00B0F1405F1DD007DC68B1B0F190
:101E1000805F0BD0B0F1005F18D10DE0B0F1804FC2
:101E200012D0B0F1A04F11D10FE011E00121201D1F
:101E300001F088FF05460BE0012104F1240002F0C7
:101E400033F8054604E003E002E001E0012500BFAD
:101E500000BF6DB905482C30006820F0E040D4F890
:101E6000AC10084301492C31086002E02C440258B0
:101E7000A846208800F40040B0F5004F26D1E06E5F
:101E800098B1B0F1805F03D0B0F1005F0ED106E0F1
:101E9000F948006840F40030F749086008E0012183
:101EA000201D01F04FFF054602E001E0012500BFC3
:101EB00000BF55B9F0482430006820F04050E16E72
:101EC0000843ED492431086000E0A846206800F08E
:101ED0008070B0F1807F27D1606CA0B1012804D060
:101EE000022809D003280FD10CE0E348006840F431
:101EF0000030E149086009E00221201D01F022FFC5
:101F0000054603E002E001E0012500BF00BF55B92E
:101F1000D9482030006820F00300616C0843D6499E
:101F20002031086000E0A846206800F48000B0F589
:101F3000800F7DD1D148006840F48070CF4908609F
:101F4000FFF7D6F9064606E0FFF7D2F9801B6428B2
:101F500001D9032505E0C948006800F48070002815
:101F6000F2D000BF85BBC4484430006800F4407024
:101F7000B4F8B01001F44071884213D0BE48443028
:101F8000006820F44077BC484430006840F480305A
:101F9000B949443108600846006820F48030086080
:101FA00008460760D4F8B000B0F5807F15D1FFF780
:101FB0009FF9064609E0FFF79BF9801B41F2883143
:101FC000884202D9032507E038E0AB484430006876
:101FD000C0F340000028EED000BF55BB00BFB4F8EE
:101FE000B00000F44070B0F5407F0ED1A2481C381C
:101FF000006820F47C51A24AD4F8B000104041EAB5
:1020000010109D491C39086007E09B481C38006887
:1020100020F47C5098491C39086097484430006887
:10202000B4F8B010C1F30B0108439349443101E007
:1020300005E001E0086002E0A84600E0A84620783C
:1020400000F0010068B3A06F182819D005DC48B172
:10205000082808D0102816D10BE0202811D02828F5
:1020600011D10FE011E00121201D01F06BFE0546AA
:102070000BE0012104F1240001F016FF054604E005
:1020800003E002E001E0012500BF00BF55B97A4836
:102090002830006820F03800A16F084376492831C5
:1020A000086000E0A846207800F00200022828D14D
:1020B000606F062815D2DFE800F003040A1112133E
:1020C00011E00121201D01F03DFE05460BE001213C
:1020D00004F1240001F0E8FE054604E003E002E01C
:1020E00001E0012500BF00BF55B9634828300068F2
:1020F00020F00700616F08435F492831086000E065
:10210000A846207800F0040004282AD1D4F89000D2
:10211000062815D2DFE800F003040A11121311E0BB
:102120000121201D01F00EFE05460BE0012104F106
:10213000240001F0B9FE054604E003E002E001E0FE
:10214000012500BF00BF5DB94B482C30006820F06E
:102150000700D4F89010084347492C31086000E08C
:10216000A846207800F02000202836D1D4F88C0032
:10217000B0F1405F1DD007DC68B1B0F1805F0BD0DB
:10218000B0F1005F18D10DE0B0F1804F12D0B0F186
:10219000A04F11D10FE011E00021201D01F0D2FD70
:1021A00005460BE0022104F1240001F07DFE054606
:1021B00004E003E002E001E0012500BF00BF5DB9DB
:1021C0002D482830006820F0E040D4F88C100843F7
:1021D00029492831086000E0A846207800F0400036
:1021E000402836D1D4F89800B0F5406F1DD007DCF8
:1021F00068B1B0F5806F0BD0B0F5006F18D10DE06D
:10220000B0F5805F12D0B0F5A05F11D10FE011E002
:102210000021201D01F096FD05460BE0022104F18E
:10222000240001F041FE054604E003E002E001E085
:10223000012500BF00BF5DB90F482C30006820F4B5
:10224000E050D4F8981008430B492C31086000E0A6
:10225000A846207800F0800080283AD1D4F89C006D
:10226000B0F5C04F23D00DDC98B1B0F5005F11D0B0
:10227000B0F5804F1ED113E02C440258004802589C
:10228000FFFCFF0FB0F5004F12D0B0F5204F11D179
:102290000FE011E00021201D01F054FD05460BE088
:1022A000022104F1240001F0FFFD054604E003E0F3
:1022B00002E001E0012500BF00BF4DB9BE48006843
:1022C00020F46040D4F89C100843BB49086000E04B
:1022D000A846207800F00800082817D1D4F880001C
:1022E000B0F5805F07D1022104F1240001F0DCFD8C
:1022F00008B14FF00108B048001F006820F44050BA
:10230000D4F880100843AC49091F0860207800F019
:102310001000102815D1D4F89400B0F5807F07D1B3
:10232000022104F1240001F0BFFD08B14FF00108C3
:10233000A148006820F44070D4F8941008439E49E6
:102340000860206800F40020B0F5002F26D1D4F8F2
:10235000A00030B1B0F5803F09D0B0F5003F0ED1FC
:102360000CE00021201D01F0EDFC054609E00221F2
:1023700004F1240001F098FD054602E001E001258A
:1023800000BF00BF4DB98C48006820F44030D4F83D
:10239000A01008438849086000E0A846206800F4BF
:1023A0008020B0F5802F2DD1D4F88400B0F5801FA7
:1023B00006D0B0F5001F0CD0B0F5401F11D10FE0D2
:1023C0007D482C38006840F400307B492C39086087
:1023D00009E0012104F1240001F066FD054602E058
:1023E00001E0012500BF00BF5DB97348001F006810
:1023F00020F44010D4F8841008436F49091F086086
:1024000000E0A846206800F48030B0F5803F24D179
:10241000E06C18B1B0F5803F0FD108E066482C3869
:10242000006840F4003064492C39086007E002215C
:10243000201D01F087FC054601E0012500BF00BF1B
:1024400055B95D480C38006820F48030E16C0843D1
:1024500059490C39086000E0A846206800F0005097
:10246000B0F1005F07D1022104F1240001F01CFD4E
:1024700008B14FF00108206800F40030B0F5003FCB
:1024800027D1E06FA0B1B0F5807F06D0B0F5007F16
:102490000CD0B0F5407F0CD109E047482C380068DB
:1024A00040F4003044492C39086004E003E002E0C5
:1024B00001E0012500BF00BF55B93F48001F00687B
:1024C00020F44070E16F08433B49091F086000E0B9
:1024D000A846206800F48010B0F5801F09D1364866
:1024E0000838006820F00040216F0843324908395D
:1024F0000860206800F08050B0F1805F0AD12E485B
:102500004838006820F48040D4F8B41008432A49C1
:1025100048390860206800F40010B0F5001F09D1A8
:1025200025480838006820F08070A16E08432249D1
:1025300008390860206800F08040B0F1804F11D168
:1025400000BF1D484838006820F400401A49483947
:10255000086008460068D4F8B8100843164948399E
:10256000086000BF206800F00040B0F1004F09D1C2
:1025700011480C38006820F04050216D08430E4986
:102580000C390860206800F40000B0F5000F0AD193
:102590000948001F006820F44000D4F88810084360
:1025A0000549091F0860B8F1000F02D10020BDE8FD
:1025B000F0810120FBE70000584402582DE9F0416A
:1025C00004460D4614B90120BDE8F081BD480068FD
:1025D00000F00F00A8420ED2BA48006820F00F00A9
:1025E0002843B84908600846006800F00F00A84278
:1025F00001D00120E8E7207800F0040004280ED183
:10260000B1492069096801F07001884207D9AE48D4
:10261000006820F0700021690843AB490860207809
:1026200000F00800082811D1A749091D6069096850
:1026300001F07001884209D9A348001D006820F00C
:10264000700061690843A049091D0860207800F006
:102650001000102811D19C49091DA069096801F4D6
:10266000E061884209D99848001D006820F4E060C4
:10267000A16908439449091D0860207800F02000F2
:10268000202811D190490831E069096801F07001F2
:10269000884209D98C480830006820F07000E16950
:1026A0000843894908310860207800F002000228B8
:1026B0000ED18549E068096801F00F01884207D909
:1026C0008148006820F00F00E16808437E490860F7
:1026D000207800F00100002850D07B48006820F4EA
:1026E0007060A1680843784908606068022807D1D3
:1026F000754818380068C0F34040F8B9012063E716
:102700006068032807D1704818380068C0F340603B
:10271000A0B9012058E76068012807D16A48183835
:102720000068C0F3002048B901204DE7664818381A
:102730000068C0F3800008B9012045E76248083806
:10274000006820F00700616808435F4908390860A5
:10275000FEF7CEFD064608E0FEF7CAFD801B41F2FB
:102760008831884201D903202EE75748083800688D
:1027700000F038006168B0EBC10FEDD1207800F0B7
:10278000020002280ED15049E068096801F00F01EB
:10279000884207D24C48006820F00F00E1680843E7
:1027A000494908604748006800F00F00A8420ED968
:1027B0004448006820F00F0028434249086008465A
:1027C000006800F00F00A84201D00120FCE620784C
:1027D00000F0040004280ED13B492069096801F08B
:1027E0007001884207D23848006820F070002169E3
:1027F000084335490860207800F00800082811D106
:102800003149091D6069096801F07001884209D2E7
:102810002D48001D006820F07000616908432A49B6
:10282000091D0860207800F01000102811D12649F9
:10283000091DA069096801F4E061884209D22248B3
:10284000001D006820F4E060A16908431E49091DCD
:102850000860207800F02000202811D11A490831A2
:10286000E069096801F07001884209D21648083011
:10287000006820F07000E1690843134908310860DE
:1028800000F076F810490968C1F303210F4A515C42
:1028900001F01F0120FA01F70B48006800F00F005B
:1028A0001146085C00F01F0027FA00F00849086094
:1028B0000848076008480068FEF75CFD804640460F
:1028C00082E600000020005218440258FA5800081E
:1028D00004000024000000241800002410B500F0BB
:1028E00047F80D490968C1F303210C4A515C01F016
:1028F0001F0120FA01F40848006800F00F0011469B
:10290000085C00F01F0024FA00F005490860054843
:1029100004600846006810BD18440258FA580008C0
:10292000040000240000002400B5FFF7D7FF05498C
:102930000968C1F30211044A515C01F01F01C8404B
:1029400000BD00001C440258FA58000800B5FFF70B
:10295000C5FF05490968C1F30221044A515C01F031
:102960001F01C84000BD00001C440258FA5800086E
:10297000F0B5824E366806F0380636B1082E15D00E
:10298000102E15D0182E7DD114E07C4E103E3668E6
:10299000C6F3401646B1794E103E3668C6F3C107FD
:1029A000774E26FA07F000E07548E5E07548E3E069
:1029B0007548E1E0714E1836366806F003046F4E34
:1029C00018363668C6F305116C4E1C36366806F0AC
:1029D00001056A4E24363668C6F3CC0616FB05F6AA
:1029E00001EE106AB8EE410A002971D024B1012C21
:1029F00050D0022C6DD16DE0604E103E3668C6F3AB
:102A000040163EB35D4E103E3668C6F3C1075C4EBD
:102A100026FA07F301EE103AF8EE411A01EE101A09
:102A2000B8EE411A81EE812A9FED581AC0EE011AC4
:102A3000524E20363668C6F3080601EE106AB8EE2C
:102A4000411A31EE811AF7EE001A31EE211A62EEC8
:102A5000010A1EE001EE101AB8EE411ADFED4C1A21
:102A600081EE812A9FED491AC0EE011A434E2036AD
:102A70003668C6F3080601EE106AB8EE411A31EE68
:102A8000811A00E076E0F7EE001A31EE211A62EECC
:102A9000010A5BE001EE101AB8EE411A9FED3D2AE3
:102AA000C2EE011A9FED391A80EE012A334E20360C
:102AB0003668C6F3080601EE106AB8EE411A32EE27
:102AC000011AB7EE002A31EE021A61EE810A3DE0EA
:102AD0004EE01DE001EE101AB8EE411ADFED2E1A9D
:102AE00081EE812A9FED291AC0EE011A234E20366D
:102AF0003668C6F3080601EE106AB8EE411A31EEE8
:102B0000811AF7EE001A31EE211A62EE010A1DE079
:102B100001EE101AB8EE411A9FED1E2AC2EE011AFC
:102B20009FED1A1A80EE012A144E20363668C6F33D
:102B3000080601EE106AB8EE411A32EE011AB7EE3D
:102B4000002A31EE021A61EE810A00BF00BF0B4E6F
:102B500020363668C6F34626721C01EE102AB8EEFF
:102B6000411AC0EE811ABCEEE11A11EE100A00E023
:102B7000002001E0034800BF00BFF0BD1044025830
:102B80000090D00300093D0040787D010000004620
:102B90000024744C0024744A20BCBE4B2DE9F0473D
:102BA000044614B90120BDE8F087207800F0010048
:102BB000002870D0FA48006800F03808F84818304B
:102BC000D0F80090B8F1100F06D0B8F1180F0FD15F
:102BD00009F0030002280BD1F14810380068C0F357
:102BE000404000286AD06068002867D10120DAE7F9
:102BF00000BF6068B0F5803F08D1E9481038006830
:102C000040F48030E649103908602EE0606868B909
:102C1000E3481038006820F48030E149103908603A
:102C20000846006820F4802008601EE06068B0F567
:102C3000A02F0DD1DA481038006840F48020D84920
:102C4000103908600846006840F4803008600CE0E5
:102C5000D3481038006820F48030D149103908601A
:102C60000846006820F48020086000BF606898B1C2
:102C7000FEF73EFB054606E0FEF73AFB401B6428E4
:102C800001D903208FE7C64810380068C0F34040E0
:102C90000028F1D012E012E0FEF72AFB054606E01C
:102CA000FEF726FB401B642801D903207BE7BC48C4
:102CB00010380068C0F340400028F1D100BF2078F0
:102CC00000F00200022874D1B548006800F038080E
:102CD000B3481830D0F80090B8F1000F05D0B8F123
:102CE000180F56D109F00300D0BBAD48103800686A
:102CF000C0F3800018B1E06808B9012053E7A84884
:102D00001038006820F01900E1680843A449103920
:102D10000860FEF7EDFA054606E0FEF7E9FA401B0B
:102D2000022801D903203EE79D4810380068C0F30F
:102D300080000028F1D000BFFEF7D4FA41F2030171
:102D400088421AD8206940280BD195480C38006871
:102D500020F47C3040F4003091490C39086017E0D1
:102D600017E08F480C38006820F47C30216940EA75
:102D700001308B490C3908600AE089480C3800683A
:102D800020F0FE40217C40EA016085490C39086052
:102D900066E0E06888B382481038006820F01900C7
:102DA000E16808437E4910390860FEF7A1FA05463C
:102DB00007E056E0FEF79CFA401B022801D90320E9
:102DC000F1E6774810380068C0F380000028F1D0A1
:102DD00000BFFEF787FA41F2030188421AD8206942
:102DE00040280BD16E480C38006820F47C3040F449
:102DF00000306B490C39086017E017E068480C3860
:102E0000006820F47C30216940EA013064490C39C3
:102E100008600AE062480C38006820F0FE40217C1F
:102E200040EA01605E490C39086019E05C481038DE
:102E3000006820F001005A4910390860FEF758FA7E
:102E4000054606E0FEF754FA401B022801D903208C
:102E5000A9E6534810380068C0F380000028F1D17B
:102E600000BF207800F0100010287CD14C4800688A
:102E700000F038084A481830D0F80090B8F1080F30
:102E800006D0B8F1180F3DD109F00300012839D15F
:102E9000434810380068C0F3002020B1E069802862
:102EA00001D001207FE600BFFEF71CFA41F20301CA
:102EB00088421AD8206A20280AD139480C3800687C
:102EC00020F0F84040F0804035490C39086018E0A7
:102ED00033480C38006820F0F84094F8201040EA9D
:102EE00081602F490C3908600BE02D48001F0068F5
:102EF00020F07C5094F8201040EA01602849091F16
:102F0000086066E0E06978B325481038006840F052
:102F10008000234910390860FEF7EAF9054606E00B
:102F2000FEF7E6F9401B022801D903203BE61C48C6
:102F300010380068C0F300200028F1D000BFFEF771
:102F4000D1F941F2030188421CD8206A20280CD113
:102F500013480C38006820F0F84040F080401049D9
:102F60000C3908601AE035E01CE00D480C380068A8
:102F700020F0F84094F8201040EA816008490C39AC
:102F800008600BE00648001F006820F07C5094F8B1
:102F9000201040EA01600249091F086019E00000A2
:102FA00010440258FA48006820F08000F849086090
:102FB000FEF79EF9054606E0FEF79AF9401B022847
:102FC00001D90320EFE5F2480068C0F30020002893
:102FD000F2D100BF207800F00800082836D16069DF
:102FE000D0B1EB487430006840F00100E84974311A
:102FF0000860FEF77DF9054606E0FEF779F9401B0B
:10300000022801D90320CEE5E14874300068C0F3FE
:1030100040000028F1D019E0DD487430006820F04D
:103020000100DB4974310860FEF762F9054606E0ED
:10303000FEF75EF9401B022801D90320B3E5D4480E
:1030400074300068C0F340000028F1D1207800F00F
:103050002000202830D1A069B8B1CD48006840F4E4
:103060008050CB490860FEF743F9054606E0FEF7BD
:103070003FF9401B022801D9032094E5C4480068A9
:10308000C0F340300028F2D016E0C148006820F4B8
:103090008050BF490860FEF72BF9054606E0FEF7B1
:1030A00027F9401B022801D903207CE5B8480068B5
:1030B000C0F340300028F2D1207800F0040004284A
:1030C0007DD1B448006840F48070B2490860FEF7D2
:1030D0000FF9054606E0FEF70BF9401B642801D9FD
:1030E000032060E5AB48006800F480700028F2D04F
:1030F00000BFA068012808D1A5487030006840F0E2
:103100000100A349703108602DE0A06868B9A048AB
:103110007030006820F001009D4970310860084659
:10312000006820F0040008601DE0A06805280DD1AB
:1031300097487030006840F004009549703108608D
:103140000846006840F0010008600CE090487030CC
:10315000006820F001008E49703108600846006860
:1031600020F00400086000BFA068A0B1FEF7C0F81E
:10317000054608E0FEF7BCF8401B41F28831884262
:1031800001D903200FE5824870300068C0F3400089
:103190000028EFD013E0FEF7ABF8054608E0FEF795
:1031A000A7F8401B41F28831884201D90320FAE494
:1031B000774870300068C0F340000028EFD1606AA3
:1031C00000287DD072481030006800F038001828C0
:1031D00077D0606A022875D16D48006820F0807051
:1031E0006B490860FEF784F8054606E0FEF780F8B4
:1031F000401B022801D90320D5E465480068C0F3CC
:1032000040600028F2D100BFD4E90A1041EA001062
:103210005F492831096840F2F332914308435C4921
:1032200028310860208E401EC0F30800616B491EE3
:103230004FF47E4202EA41210843218F491ED20108
:1032400002EA014108433C21095D491E120202EADB
:10325000016108434E493031086000BF081F006813
:1032600020F00100091F08604948343000684FF61B
:10327000F8718843A16C40EAC100454934310860C7
:1032800043482C30006820F00C00216C0843404972
:103290002C3108600846006820F00200616C084389
:1032A0003B492C3108600846006840F480300860D3
:1032B0000846006840F4003008600846006802E0F4
:1032C0006AE038E01FE040F48020086008460068AB
:1032D00040F0010008602E48006840F080702C49E2
:1032E0000860FEF705F8054606E0FEF701F8401B0A
:1032F000022801D9032056E425480068C0F3406045
:103300000028F2D048E02248006820F08070204970
:103310000860FDF7EDFF054606E0FDF7E9FF401BFD
:10332000022801D903203EE419480068C0F3406038
:103330000028F2D130E016482830076814483030B1
:103340000668606A012821D007F00301A06A814263
:103350001CD1C7F30511E06A884217D1C6F30801F2
:10336000206B401E814211D1606B401EC6F3462186
:1033700088420BD1A06B401EC6F30641884205D19E
:10338000E06B401EC6F30661884205D001200AE4C6
:103390000044025800480258002004E470B5044676
:1033A0000D460CB9012070BD94F82C0028B90020FE
:1033B00084F82D00204600F019F8022084F82C0033
:1033C000211D2068FDF797F92946D4E90002FDF791
:1033D000E5F90548006840F0004003490860012015
:1033E00084F82C000020DEE70040005210B586B0C3
:1033F000044600BF4748006840F4805045490860D3
:103400000846006800F48050009000BF00BF00BF75
:1034100040480C30006840F004003E490C31086020
:103420000846006800F00400009000BF00BF00BF25
:103430000846006840F0080008600846006800F090
:103440000800009000BF00BF00BF0846006840F0C1
:10345000100008600846006800F01000009000BFEF
:1034600000BF00BF0846006840F020000860084622
:10347000006800F02000009000BF00BF00BF0846B9
:10348000006840F0400008600846006800F0400016
:10349000009000BF00BF00BF0846006840F08000F9
:1034A00008600846006800F08000009000BF00BF80
:1034B000012001900220029001200390032004903B
:1034C0000C20059001A91448FDF7F6FD4CF203709D
:1034D000019001A91148FDF7EFFD4FF683700190AF
:1034E00001A90F48FDF7E8FD4FF63F00019001A943
:1034F0000C48FDF7E1FD48F23710019001A90A4898
:10350000FDF7DAFD0C20019001A90848FDF7D4FD74
:1035100006B010BDD444025800080258000C0258EE
:10352000001002580014025800180258001C0258DB
:1035300070B504460D4694F82C00022800D170BDE9
:1035400094F82C0001280AD1022084F82C00294686
:103550002068FDF706F9012084F82C0001E0012025
:10356000EDE70020EBE72DE9F04104460E46174653
:1035700094F82C50022D02D10220BDE8F081012DDB
:1035800001D0052D12D1022084F82C003A46314694
:103590002068FDF7F0F83068022803D1052084F890
:1035A0002C0005E0012084F82C0001E00120E4E774
:1035B0000020E2E770B504462546681EB0F1807F22
:1035C00001D301200FE0681E4FF0E02148610F2178
:1035D0004FF0FF3001F05AFD00204FF0E0218861EC
:1035E00007200861002070BD704770477047704722
:1035F000704700002DE9F04704462068C56920683F
:1036000006682068876840F60F0005EA0009B9F1EE
:10361000000F0FD105F0200060B106F0200010B9B6
:1036200007F0805030B1206F10B12046216F8847DD
:10363000BDE8F087B9F1000F7ED0F948384018B9DD
:10364000F84830400028F7D005F0010058B106F4E2
:10365000807040B1012021680862D4F88C0040F0ED
:103660000100C4F88C0005F0020058B107F0010019
:1036700040B1022021680862D4F88C0040F00400B8
:10368000C4F88C0005F0040058B107F0010040B107
:10369000042021680862D4F88C0040F00200C4F8CD
:1036A0008C0005F0080070B106F0200010B9DC486D
:1036B000384040B1082021680862D4F88C0040F0FE
:1036C0000800C4F88C0005F4006060B106F080606A
:1036D00048B14FF4006021680862D4F88C0040F0D3
:1036E0002000C4F88C00D4F88C0000284ED005F0DF
:1036F000200050B106F0200010B907F0805020B132
:10370000206F10B12046216F8847D4F88CA0206824
:10371000806800F04000402802D00AF0280070B312
:10372000204600F0BBFD2068806800F04000402883
:1037300021D100BF00BF00E029E02168083151E835
:10374000001F21F040002168083141E80002002AF2
:10375000F1D100BFE06F50B1B348E16F0865E06F91
:10376000FDF7D4FA90B1E06F016D88470EE0204676
:10377000FFF73EFF0AE02046FFF73AFF06E0FFE7CB
:103780002046FFF735FF0020C4F88C0050E7E06EBC
:10379000012872D105F0100000286ED006F010004C
:1037A0000028FAD01020216808622068806800F0A4
:1037B000400040287ED1E06F00689C49884258D084
:1037C000E06F006899491831884252D0E06F006874
:1037D0009649303188424CD0E06F006893494831B7
:1037E000884246D0E06F006890496031884240D0FE
:1037F000E06F00688D49783188423AD0E06F006808
:103800008A499031884234D0E06F00688749A831F6
:1038100088422ED0E06F00688549884229D0E06F49
:10382000006883491831884223D0E06F00688049DE
:10383000303188421DD0E06F00687D4948318842B0
:1038400017D0E06F00687A496031884211D0E06F8C
:1038500000687749783188420BD0E06F006874497E
:103860009031884205D0E06F00687149A8318842E4
:1038700004D1E06F0068406803E0A0E0E06F0068FA
:1038800040681FFA80F8B8F1000F55D0B4F85C001A
:10389000404551DDA4F85E80E06FC069B0F5807FDF
:1038A00041D000BF00BF216851E8001F21F48070A3
:1038B000226800E041E042E800010029F3D100BFA6
:1038C00000BF00BF2168083151E8001F21F001004E
:1038D0002168083141E80002002AF3D100BF00BF8F
:1038E00000BF2168083151E8001F21F04000216825
:1038F000083141E80002002AF3D100BF2020C4F8BB
:1039000088000020E06600BF00BF216851E8001F6A
:1039100021F01000226842E800010029F5D100BF23
:10392000E06FFCF785FFB4F85C00B4F85E20801A05
:1039300081B22046FFF758FE7AE634F85C0F6188C2
:10394000401A1FFA80F860885C3CB8B3B8F1000FE9
:1039500034D000BF00BF216851E8001F21F49070EF
:10396000226842E800010029F5D100BF00BF00BF76
:103970002168083151E8001F294AD24301EA0200B8
:103980002168083141E80002002AF1D100BF20205F
:10399000C4F888000020E066206700BF00BF2168EF
:1039A00051E8001F21F01000226842E800010029C0
:1039B000F5D100BF41462046FFF716FE38E605F474
:1039C000801050B107F4800038B14FF480102168A6
:1039D00008622046FFF70BFE2AE605F0800058B18A
:1039E00006F0800010B907F4000028B1606F10B134
:1039F0002046616F88471BE605F0400030B106F0B5
:103A0000400018B1204600F07FFC11E605F40000EC
:103A100080B106F0804068B12046FFF7E7FD07E679
:103A20000100001020010004834200081000024041
:103A30001004024005F0807030B106F0004018B16B
:103A40002046FFF7D2FDF3E500BFF1E510B50446CF
:103A50000CB9012010BDA06900B100E000BFD4F88E
:103A6000840028B9002084F88000204600F02AF85D
:103A70002420C4F884002068006820F00100216838
:103A80000860204600F0F2FE012800D1E2E7A06ABB
:103A900010B1204600F03EFB2068406820F49040C2
:103AA000216848602068806820F02A0021688860CA
:103AB0002068006840F0010021680860204600F09E
:103AC000A5FBC7E710B586B004462B49206888429D
:103AD00050D100BF00BF2948006840F010002749BE
:103AE00008600846006800F01000009000BF00BFAA
:103AF00000BF00BF00BF21481038006840F001003F
:103B00001E49103908600846006800F00100009066
:103B100000BF00BF00BF00BF00BF0846006840F004
:103B2000010008600846006800F00100009000BF36
:103B300000BF00BF4FF400700190022002900120EE
:103B40000390022004900720059001A90C48FDF77E
:103B5000B3FA4FF4806001900720059001A908484E
:103B6000FDF7AAFA2520FDF796FC03221146252031
:103B7000FDF7A5FC06B010BD00100140F04402584E
:103B80000000025870B504460D461646D4F8880069
:103B900020282CD105B10EB9012070BD00BF94F8CA
:103BA0008000012801D10220F7E7012084F880007D
:103BB00000BF0020E0660F492068884211D02068CD
:103BC000406800F4000060B100BF00BF216851E808
:103BD000001F41F08060226842E800010029F5D111
:103BE00000BF32462946204601F006F9D5E70220FB
:103BF000D3E70000000C005810B5044620492068A7
:103C000088423BD11F48008800F4004088BB1D4813
:103C1000008800F4804070B11B4800780A2803D067
:103C200000201849088024E01648008840F400402D
:103C3000144908801DE0144800780D2806D1114869
:103C4000008840F480400F49088012E00E48007858
:103C50000C490988C1F30D010C4A505409480088E9
:103C6000401C0849088008460088C72801DD00205C
:103C70000880012204490648FFF784FF10BD0000B8
:103C80000010014010000024120000242000002435
:103C9000E8000024704700BFFEE7000000BF0022DC
:103CA00002211848FDF718FB00BF17A0FCF7E6FB40
:103CB0004FF47A7001F006FA19A0FCF7DFFB4FF41D
:103CC0007A7001F0FFF900BF00BF00BF00BF00BF66
:103CD000BFF34F8F00BF00BF00BF1648006800F45D
:103CE000E06015490843001D1249086000BF00BF8D
:103CF00000BFBFF34F8F00BF00BF00BF00BF00BFBA
:103D0000FDE70000000402584D656D2041636365C6
:103D10007373204572726F7221210D0A000000003A
:103D2000536F6674205265736574696E672E2E2E0C
:103D30000D0A00000CED00E00000FA0500BFFEE7F0
:103D4000704700002DE9F04104460E460027554813
:103D5000006800F00300032802D10120BDE8F081D3
:103D600050482838006820F080604E4928390860A3
:103D7000FDF7BEFA054606E0FDF7BAFA401B022839
:103D800001D90320EAE7474828380068C0F3C0603B
:103D90000028F1D100BF4348006820F47C3021683E
:103DA00040EA01303F490860A088401EC0F3080087
:103DB000A168491E4FF47E4202EA41210843A189CD
:103DC000491ED20102EA01410843217C491E120228
:103DD00002EA0161084333491031086000BF3148ED
:103DE000001D006820F0C000616908432D49091DCD
:103DF00008600846006820F02000A16908432949AE
:103E0000091D08600846006820F010000860254879
:103E1000143000684FF6F8718843E16940EAC10048
:103E20002049143108601F48001D006840F0100050
:103E30001C49091D08602EB90846006840F400209E
:103E4000086012E0012E08D11648001D006840F4F9
:103E500080101449091D086007E01248001D006821
:103E600040F400100F49091D08600E48283800680A
:103E700040F080600B4928390860FDF739FA0546A3
:103E800006E0FDF735FA401B022801D9032065E75B
:103E9000044828380068C0F3C0600028F1D03846D4
:103EA0005CE70000284402582DE9F04104460E4624
:103EB00000275548006800F00300032802D10120C4
:103EC000BDE8F08150482838006820F080504E4905
:103ED00028390860FDF70CFA054606E0FDF708FAF8
:103EE000401B022801D90320EAE747482838006828
:103EF000C0F340700028F1D100BF4348006820F0B3
:103F00007C70218840EA01503F490860A088401E2B
:103F1000C0F30800A168491E4FF47E4202EA412125
:103F20000843A189491ED20102EA01410843217CCC
:103F3000491E120202EA0161084333491831086040
:103F400000BF3148001D006820F4406061690843EB
:103F50002D49091D08600846006820F40070A16919
:103F600008432949091D08600846006820F480704C
:103F7000086025481C3000684FF6F8718843E169F5
:103F800040EAC10020491C3108601F48001D00683C
:103F900040F480701C49091D08602EB9084600686D
:103FA00040F48000086012E0012E08D11648001D80
:103FB000006840F400001449091D086007E0124839
:103FC000001D006840F080700F49091D08600E4810
:103FD0002838006840F080500B4928390860FDF708
:103FE00087F9054606E0FDF783F9401B022801D951
:103FF000032065E7044828380068C0F340700028B3
:10400000F1D038465CE7000028440258704710B5EC
:10401000FDF774F910BD00003448006840F47000EA
:10402000324908603248006800F00F00072806D2C5
:104030002F48006820F00F00C01D2D4908602D4852
:10404000006840F001002B49086000202949103128
:104050000860284800682849084026490860244824
:10406000006800F00F00072806D92148006820F0FA
:104070000F00C01D1E49086000201E49183108604D
:10408000091D0860091D08601C481A49283108608C
:104090001B48091D08601B48091D08600020091DF8
:1040A00008601848091D08600020091D08601548AF
:1040B000091D08600020091D08600E48006820F4F2
:1040C00080200C49086000200A49603108600E48D1
:1040D00000686FF30F00B0F1005F02D201200B49BE
:1040E000086043F2D2000A490860704788ED00E09A
:1040F00000200052004402587FEDF6EA000202025E
:104100000000FF01800201010010005C08810051E5
:104110000040005290F8281001F0010139B1016807
:10412000496821F40031C26A11430268516090F875
:10413000281001F00201022907D10168496821F421
:104140008031026B11430268516090F8281001F031
:104150000401042907D10168496821F48021426BD8
:1041600011430268516090F8281001F008010829F5
:1041700007D10168496821F40041826B114302684C
:10418000516090F8281001F01001102907D1016842
:10419000896821F48051C26B11430268916090F8E4
:1041A000281001F02001202907D10168896821F435
:1041B0000051026C11430268916090F8281001F0E0
:1041C0004001402913D10168496821F48011426CF3
:1041D000114302685160416CB1F5801F07D101683D
:1041E000496821F4C001826C11430268516090F863
:1041F000281001F08001802907D10168496821F465
:104200000021C26C114302685160704738B5044602
:104210000020C4F88C00FDF76BF8054620680068A4
:1042200000F0080008280CD16FF07E402B460022D9
:104230004FF400110090204600F096FE08B10320D4
:1042400038BD2068006800F0040004280CD16FF02D
:104250007E402B4600224FF480010090204600F063
:1042600083FE08B10320EBE72020C4F88400C4F8E3
:1042700088000020E06600BF84F8800000BF00BF17
:10428000DEE770B50546AC6B0020A4F85E00A4F82C
:1042900056002046FFF7ACF970BD000000BF00BF1C
:1042A000026852E8002F22F49071036843E800127C
:1042B000002AF5D100BF00BF00BF0268083252E8F3
:1042C000002F104B02EA03010268083242E8001393
:1042D000002BF2D100BFC16E01290CD100BF00BF7D
:1042E000026852E8002F22F01001036843E8001230
:1042F000002AF5D100BF2021C0F888100021C16636
:1043000001677047FEFFFFEF10B5044600BF00BF16
:10431000216851E8001F21F04000226842E80001B6
:104320000029F5D100BF2020C4F884000020606778
:104330002046FFF7AFFC10BD2DE9F0410446B4F86C
:104340006070D4F88800222857D12068406A86B26D
:10435000A56D06EA07002880A06D801CA065B4F852
:104360005E00401EA4F85E00B4F85E0000284AD14A
:1043700000BF00BF216851E8001F21F4907022683F
:1043800042E800010029F5D100BF00BF00BF21684D
:10439000083151E8001F21F001002168083141E88F
:1043A0000002002AF3D100BF2020C4F888000020BA
:1043B0002067E06E01281CD10020E06600BF00BF2E
:1043C000216851E8001F21F01000226842E8000136
:1043D0000029F5D100BF2068C069C0F3001010B1FA
:1043E000102021680862B4F85C102046FFF7FCF842
:1043F00009E02046FFF700FC05E02068806940F0F6
:10440000080021688861BDE8F08100002DE9F84FBF
:104410000446B4F860B02068C56920680068009060
:104420002068D0F808A0D4F8880022287ED1B4F8FB
:10443000689096E02068406A1FFA80F8A76D08EA45
:104440000B003880A06D801CA065B4F85E00401E93
:10445000A4F85E002068C56905F00700B0B305F058
:10446000010060B1009800F4807040B10120216823
:104470000862D4F88C0040F00100C4F88C0005F00C
:10448000020058B10AF0010040B102202168086220
:10449000D4F88C0040F00400C4F88C0005F004004F
:1044A00058B10AF0010040B1042021680862D4F834
:1044B0008C0040F00200C4F88C00D4F88C0028B1C5
:1044C0002046FFF795F80020C4F88C00B4F85E0091
:1044D00068BB00BF00BF216851E8001F21F4807055
:1044E000226842E800010029F5D100BF00BF00BFEB
:1044F0002168083151E8001F344A01EA02002168AE
:10450000083141E80002002AF2D100BF2020C4F89F
:10451000880000202067E06E01281FD10020E0669F
:1045200000BF00BF216851E8001F01E046E018E02D
:1045300021F01000226842E800010029F2D100BFFA
:104540002068C069C0F3001010B110202168086213
:10455000B4F85C102046FFF747F802E02046FFF76A
:104560004BFBB9F1000F04D005F0200000287FF4C8
:1045700061AFB4F85E6006B3B4F86800B04223DD02
:1045800000BF00BF2168083151E8001F21F08050B2
:104590002168083141E80002002AF3D100BF0C482D
:1045A000206700BF00BF216851E8001F41F02000D4
:1045B000226842E800010029F5D105E02068806901
:1045C00040F0080021688861BDE8F88FFEFFFFEF2A
:1045D0003943000870B50446B4F86060D4F8880028
:1045E000222857D12068406A85B2F0B22840A16DD8
:1045F0000870A06D401CA065B4F85E00401EA4F8D1
:104600005E00B4F85E0000284AD100BF00BF2168F8
:1046100051E8001F21F49070226842E8000100294F
:10462000F5D100BF00BF00BF2168083151E8001F6D
:1046300021F001002168083141E80002002AF3D18D
:1046400000BF2020C4F8880000202067E06E012809
:104650001CD10020E06600BF00BF216851E8001FA8
:1046600021F01000226842E800010029F5D100BFC6
:104670002068C069C0F3001010B1102021680862E2
:10468000B4F85C102046FEF7AFFF09E02046FFF7C4
:10469000B3FA05E02068806940F00800216888616D
:1046A00070BD00002DE9F05F0446B4F860A02068FA
:1046B000C5692068D0F800B02068D0F80890D4F818
:1046C000880022287DD1B4F8688095E02068406A8F
:1046D00087B20AF0FF003840A16D0870A06D401C41
:1046E000A065B4F85E00401EA4F85E002068C569AD
:1046F00005F00700A8B305F0010058B10BF4807075
:1047000040B1012021680862D4F88C0040F001001B
:10471000C4F88C0005F0020058B109F0010040B166
:10472000022021680862D4F88C0040F00400C4F82C
:104730008C0005F0040058B109F0010040B10420DC
:1047400021680862D4F88C0040F00200C4F88C00A4
:10475000D4F88C0028B12046FEF74AFF0020C4F8A8
:104760008C00B4F85E0068BB00BF00BF216851E850
:10477000001F21F48070226842E800010029F5D171
:1047800000BF00BF00BF2168083151E8001F354A53
:1047900001EA02002168083141E80002002AF2D152
:1047A00000BF2020C4F8880000202067E06E0128A8
:1047B0001FD10020E06600BF00BF216851E8001F44
:1047C00001E046E018E021F01000226842E8000114
:1047D0000029F2D100BF2068C069C0F3001010B1F9
:1047E000102021680862B4F85C102046FEF7FCFE39
:1047F00002E02046FFF700FAB8F1000F04D005F000
:10480000200000287FF462AFB4F85E6006B3B4F80D
:104810006800B04223DD00BF00BF2168083151E8C5
:10482000001F21F080502168083141E80002002A71
:10483000F3D100BF0C48206700BF00BF216851E8DA
:10484000001F41F02000226842E800010029F5D154
:1048500005E02068806940F0080021688861BDE8B3
:10486000F09F0000FEFFFFEFD54500082DE9F04F57
:1048700089B0054600200890F8492868884200D190
:1048800000E000BF2969A868084369690843E9692D
:1048900040EA010828680068F149084040EA080039
:1048A000296808602868406820F44050E968084397
:1048B00029684860D5F81880E8492868884202D0FD
:1048C000286A40EA080828688068E649084040EA03
:1048D0000800296888602868C06A20F00F00696AAB
:1048E00008432968C86200BFDF492868884220D190
:1048F000DE48006800F03800182811D005DC48B107
:10490000082809D0102811D108E020280AD028282A
:104910000CD109E001240BE0042409E0082407E09D
:10492000102405E0202403E0402401E0802400BF9F
:10493000F8E0CF492868884219D1CC48006800F0D7
:104940000700062810D2DFE800F0030507090B0D69
:1049500000240BE0042409E0082407E0102405E00B
:10496000202403E0402401E0802400BFDAE0C149B4
:104970002868884219D1BD48006800F00700062861
:1049800010D2DFE800F0030507090B0D00240BE04F
:10499000042409E0082407E0102405E0202403E0B3
:1049A000402401E0802400BFBCE0B349286888426D
:1049B00019D1AE48006800F00700062810D2DFE8E1
:1049C00000F0030507090B0D00240BE0042409E0A7
:1049D000082407E0102405E0202403E0402401E03F
:1049E000802400BF9EE0A5492868884219D19F48CD
:1049F000006800F00700062810D2DFE800F0030589
:104A000007090B0D00240BE0042409E0082407E04B
:104A1000102405E0202403E0402401E0802400BFAE
:104A200080E097492868884220D19048006800F0CB
:104A30003800182811D005DC48B1082809D0102802
:104A400011D108E020280AD028280CD109E001243F
:104A50000BE0042409E0082407E0102405E02024EA
:104A600003E0402401E0802400BF5BE08549286822
:104A7000884219D17D48006800F00700062810D24E
:104A8000DFE800F0030507090B0D00240BE0042408
:104A900009E0082407E0102405E0202403E0402476
:104AA00001E0802400BF3DE077492868884219D1A1
:104AB0006E48006800F00700062810D2DFE800F01A
:104AC000030507090B0D00240BE0042409E008246A
:104AD00007E0102405E0202403E0402401E08024C6
:104AE00000BF1FE05D49286888421AD15F48001D59
:104AF000006800F00700062810D2DFE800F0030588
:104B000007090B0D02240BE0042409E0082407E048
:104B1000102405E0202403E0402401E0802400BFAD
:104B200000E0802400BF4D49286888427DD1102CC8
:104B30001AD006DC022C09D0042C0BD0082C29D169
:104B40000DE0202C21D0402C24D120E0FCF742FDA8
:104B5000064623E005A8FCF74FFD069E1EE002A8CE
:104B6000FCF762FE039E19E0404854380068C0F329
:104B7000401040B13D4854380068C0F3C10143487B
:104B800020FA01F600E0414E08E0414E06E04FF405
:104B9000004603E000260120089000BF00BF002E61
:104BA00010D03C49686A31F81000B6FBF0F968682B
:104BB00000EB4000484503D868680003484502D22E
:104BC0000120089003E13349686A31F810C0624659
:104BD000002330461946FBF7DAFB4FF480730022BE
:104BE0008446ACFB030B01FB03B10CFB021C6968A0
:104BF0004908034659184CEB0200CDE90010D5F8DE
:104C000004C06246002308460199FBF7C0FB074633
:104C1000B7F5407F06D3B7F5801F03D22868C76079
:104C2000D5E002E001200890D1E0E869B0F5004F3E
:104C30007BD1082C39D005DC5CB1012C2CD0042CA4
:104C40004CD12DE0102C35D0202C42D0402C45D119
:104C500041E0FDF769FE064644E00000000C005804
:104C6000F369FFCFFFF4FF110010014054440258D4
:104C70000044004000480040004C0040005000400C
:104C80000014014000780040007C00400090D003F8
:104C900000093D000A590008FDF758FE064621E0CC
:104CA00005A8FCF7A9FC069E1CE002A8FCF7BCFDC9
:104CB000039E17E04C480068C0F3401038B14A48E2
:104CC0000068C0F3C101494820FA01F600E0474EF0
:104CD00008E0474E06E04FF4004603E000260120BE
:104CE000089000BF00BFFEB14249686A31F8100069
:104CF000B6FBF0F04000696800EB5100B0FBF1F743
:104D0000102F0FD3B7F5803F0CD24FF6F07007EAA3
:104D1000000AC7F342004AEA000A2868C0F80CA05B
:104D200055E002E00120089051E0082C1AD005DC83
:104D30005CB1012C0DD0042C2DD10EE0102C16D01E
:104D4000202C23D0402C26D122E0FDF7EDFD064695
:104D500025E0FDF7FBFD064621E005A8FCF74CFC2D
:104D6000069E1CE002A8FCF75FFD039E17E01E48AC
:104D70000068C0F3401038B11B480068C0F3C1019F
:104D80001A4820FA01F600E0184E08E0184E06E036
:104D90004FF4004603E000260120089000BF00BF4A
:104DA000AEB11449686A31F81000B6FBF0F06968DA
:104DB00000EB5100B0FBF1F7102F06D3B7F5803FA1
:104DC00003D2B8B22968C86001E001200890012030
:104DD000A5F86A00A5F868000020286768670898A9
:104DE00009B0BDE8F08F0000004402580090D003E5
:104DF00000093D000A59000830B503469965A3F83B
:104E00005C20A3F85E200020186700BF9868B0F50A
:104E1000805F0AD1186920B940F2FF10A3F8600042
:104E200020E0FF20A3F860001CE0986848B91869EA
:104E300018B9FF20A3F8600014E07F20A3F86000F9
:104E400010E09868B0F1805F09D1186918B97F2027
:104E5000A3F8600006E03F20A3F8600002E0002015
:104E6000A3F8600000BF0020C3F88C002220C3F824
:104E7000880000BF00BF1C68083454E8004F44F0AD
:104E800001001C68083444E80005002DF3D100BF80
:104E9000586EB0F1005F31D1B3F8680090422DDC5C
:104EA0009868B0F5805F04D1186910B92A4818676E
:104EB00001E02A48186700BF002083F8800000BF87
:104EC000186960B100BF00BF1C6854E8004F44F48B
:104ED00080701D6845E80004002CF5D100BF00BFBC
:104EE00000BF1C68083454E8004F44F080501C6830
:104EF000083444E80005002DF3D12BE09868B0F5A4
:104F0000805F04D1186910B91548186701E0154889
:104F1000186700BF002083F8800000BF186960B1E7
:104F200000BF00BF1C6854E8004F44F490701D6837
:104F300045E80004002CF5D10CE000BF00BF1C6860
:104F400054E8004F44F020001D6845E80004002CA0
:104F5000F5D100BF002030BD0D440008A546000873
:104F600039430008D54500082DE9F04104460D46B7
:104F700017469846069E6AE0701C002867D0FCF72A
:104F8000B7F9A0EB0800B04200D846BB00BF00BF95
:104F9000216851E8001F21F4D070226842E8000126
:104FA0000029F5D100BF00BF00BF2168083151E8DA
:104FB000001F21F001002168083141E80002002AA9
:104FC000F3D100BF2020C4F88400C4F8880000BFDB
:104FD000002084F8800000BF0320BDE8F081206835
:104FE000006800F0040088B32068C069C0F3C020E6
:104FF00060B34FF400602168086200BF00BF216801
:1050000051E8001F21F4D070226842E80001002915
:10501000F5D100BF00BF00BF2168083151E8001F73
:1050200021F001002168083141E80002002AF3D193
:1050300000BF202044F8840F6060A060843C00BF63
:10504000002084F8800000BF0320C6E7FFE7206847
:10505000C0692840A84201D1012000E00020B842E8
:105060008AD00020B9E7000010B50248FEF7C2FA66
:1050700010BD0000E800002400BFFEE70248006801
:10508000C0F30220704700000CED00E010B50028CE
:1050900004DB0A07130E054A135406E00A07140E30
:1050A000034A00F00F031B1FD45410BD00E400E0BE
:1050B00018ED00E000BF704701490860704700002C
:1050C0000800002410B504464FF47A7104FB01F087
:1050D00000F002F810BD000070B5034600224FF04A
:1050E000E02675690D4E366803FB06F44FF0E026A6
:1050F000B16910E04FF0E026B06988420BD08842D9
:1051000002D20E1A324402E02E1A0E4432440146F4
:10511000A24200D300E0EDE700BF70BD080000240C
:1051200000BF054AD26902F04002002AF9D0C2B29B
:10513000014B9A62704700000010014000B587B033
:1051400000BF00BF1A48006840F00100184908601D
:105150000846006800F00100019000BF00BF00BFDA
:1051600000BF00BF0846006840F001000860084624
:10517000006800F00100019000BF00BF00BF0220E6
:1051800002900020039002200490059002A9094893
:10519000FBF792FF01200290002003900220049070
:1051A000059002A90348FBF787FF07B000BD000088
:1051B000E04402580000025870B50446002514B1BE
:1051C00001201A4908701948007800B302211848D4
:1051D000FCF770F8012805D001211548FCF76AF8A2
:1051E000012814D10A20FFF76DFF00200F49087035
:1051F00002210F48FCF75EF8012800D101250121AA
:105200000B48FCF757F801280ED102250CE00221CB
:105210000748FCF74FF838B901210548FCF74AF870
:1052200010B9012001490870284670BD1D000024F6
:105230000000025800B587B000BF00BF1D480068DD
:1052400040F002001B4908600846006800F00200B8
:10525000019000BF00BF00BF00BF00BF084600684C
:1052600040F0020008600846006800F0020001906B
:1052700000BF00BF00BF0120029003900490059082
:1052800002A90D48FBF718FF0220029002A90A4864
:10529000FBF712FF00BF012211460748FCF71CF87C
:1052A00000BF00BF012202210348FCF715F800BF30
:1052B00007B000BDE0440258000402580026002454
:1052C00000F0AAF9FCF726F8042302220521C020E9
:1052D00000F042FA4FF4F070FFF7EEFE4FF4E130C9
:1052E00000F0EAFAFFF7A6FF00F058F8FFF726FFF4
:1052F00000F0E0F84FF47A70FFF7E4FE00BF03E03F
:10530000194840F82440641C18488442F8D318A077
:10531000FBF7B4F826E00020FFF74EFF0546012D0D
:1053200002D100F045F912E0022D0DD1002407E072
:105330000D4850F82420214612A0FBF79FF8641C6A
:105340000A488442F4D302E00A20FFF7BBFE701C37
:10535000C6B2142E06D1002600BF01210E48FBF76D
:10536000B1FF00BFD7E70000000000C090D00300ED
:105370000D0A0D0A534452414D20544553540D0A11
:105380000000000074657374736472616D5B256462
:105390005D3A25640D0A0000000402581FB5012083
:1053A00000220323CDE90120009303901346024617
:1053B0001021400700F04FF8012000220323CDE91F
:1053C000012000930390134602221221480600F0A8
:1053D00042F8012000220323CDE90120009303902D
:1053E000134603221221100700F035F80120002295
:1053F0000323CDE9012000930390134604220F21DB
:105400004FF0605000F027F800200323CDE9003072
:10541000029003460522192103904FF0C04000F08E
:105420001AF8012000220323CDE901200093039004
:10543000134606221821C80600F00DF800200323A9
:10544000CDE900300290012307221B210390C807F9
:1054500000F001F81FBD2DE9FF5F04460D4616461A
:105460001F46DDE910ABDDE90E89FBF7DDFF01200A
:105470008DF80000F0B28DF801000194E8B28DF8CB
:10548000080000208DF809008DF80A008DF80B80C7
:105490008DF80C708DF80D908DF80EA08DF80FB072
:1054A0006846FBF793FF0420FBF7D4FF002004B00D
:1054B000BDE8F09F00B587B0184819490860002082
:1054C00048600121164881600821C16010210161F6
:1054D00040214161890081610021C1614FF4006177
:1054E0000162490041624900816202200090082067
:1054F00001900720029003900220049005900690EE
:1055000069460748FDF74AFF00F00CF840F24731C2
:105510000348FEF70DF807B000BD000040410052FF
:105520007801002410B500240023012211461846FA
:1055300000F01AF84FF4FA70FFF7CEFD00230122B5
:105540000221184600F010F8002308220321184613
:1055500000F00AF84FF408742346012204210020C9
:1055600000F002F810BD00002DE9FF4104460D4691
:1055700016461F464FF0000814B94FF0100803E01C
:10558000012C01D14FF008080095CDF80480029657
:1055900003974FF4805269460448FDF7E4FF18B9B9
:1055A000002004B0BDE8F0810120FAE77801002472
:1055B00070B500240025002600BF05E0A4F180405E
:1055C00005606D1C04F58044B4F1007FF6D300241F
:1055D00010E0A4F1804005680CB92E4602E0B54207
:1055E00000D80AE0A81B401C010105A0FAF746FFFD
:1055F00004F58044B4F1007FEBD300BF70BD000020
:10560000534452414D2043617061636974793A2576
:10561000644B420D0A00000010B500BF4C48006802
:1056200000F4003000B139E000BF00BF00BFBFF39D
:105630004F8F00BF00BF00BF00BF00BF00BFBFF360
:105640006F8F00BF00BF00BF00204249086000BF4D
:1056500000BF00BFBFF34F8F00BF00BF00BF00BF40
:1056600000BF00BFBFF36F8F00BF00BF00BF38484F
:10567000006840F400303649086000BF00BF00BF3A
:10568000BFF34F8F00BF00BF00BF00BF00BF00BF10
:10569000BFF36F8F00BF00BF00BF00BF00BF2C4B28
:1056A0001B6803F4803303B148E00023284C7034B6
:1056B000236000BF00BF00BFBFF34F8F00BF00BF1C
:1056C00000BF231F1868C0F34E3100BFC0F3C902EA
:1056D00000BF43F6E07303EA41134FF0404404EA8D
:1056E000827423431B4C1034236000BF00BF131E81
:1056F000A2F10102EDD10B1EA1F10101E6D100BF23
:1057000000BF00BFBFF34F8F00BF00BF00BF104BF3
:105710001B6843F480330E4C236000BF00BF00BF02
:10572000BFF34F8F00BF00BF00BF00BF00BF00BF6F
:10573000BFF36F8F00BF00BF00BF00BF05484C30F4
:10574000006840F0040003494C31086010BD0000BF
:1057500014ED00E050EF00E02DE9F041CCB08046C0
:105760000D4616461F4600240220FBF7F9FE00BF37
:105770004E48006840F002004C4908600846006846
:1057800000F00200019000BF00BF00BF00200190A8
:105790004748006840F440404549086008460068B2
:1057A00000F4404001904348006840F00100414946
:1057B00008600846006800F00100019000BF00BFCB
:1057C00000BF3B48006800F40050B0F5005FF8D11E
:1057D000212031904FF48030329000203490389066
:1057E0000120379002203A90022131A88162CDF841
:1057F000F480C56246638763002141640821016427
:1058000000218164FDF7CAF904461CB101204CB0A7
:10581000BDE8F0813F204490032045900020469051
:10582000082047904020499000014A90402048902D
:105830004B90042144A8FCF7C1FE04460CB10120A2
:10584000E5E74FF080700290192003904FF4DC716F
:1058500004910221059107910021089109910A9173
:105860000220139002A8FCF7F7F804460CB10120BF
:10587000CDE7FBF7A5FE0D48F438006840F0800046
:105880000A49F439086000BF0848006840F0020087
:10589000064908600846006800F00200019000BF59
:1058A00000BFFBF7FFFB0020B1E70000F444025803
:1058B000184802582C04005810B5044609480A49F3
:1058C00008600846446000218160C1600161816117
:1058D0000C214161FEF7BAF8012204490248FEF7A3
:1058E00051F910BD00100140E8000024120000240E
:1058F0004FF04070E1EE100A704700000000010216
:105900000304010203040607080901000200040061
:10591000060008000A000C00100020004000800073
:10592000000100004459000800000024200000008D
:10593000D40200086459000820000024F009000087
:10594000F00200080090D0030090D0030000000097
:105950000000000000000000000000001000000037
:045960000101000041
:040000050800029954
:00000001FF
