:020000040800F2
:10000000181D00204D030008293F0008833E00080A
:10001000893E0008750A00088D660008000000008F
:10002000000000000000000000000000BD450008C6
:10003000790A0008000000002B3F0008BF450008B7
:1000400067030008670300086703000867030008E8
:1000500067030008670300086703000867030008D8
:1000600067030008670300086703000867030008C8
:1000700067030008670300086703000867030008B8
:1000800067030008670300086703000867030008A8
:100090006703000867030008670300086703000898
:1000A0006703000867030008670300086703000888
:1000B0006703000867030008670300086703000878
:1000C0006703000867030008670300086703000868
:1000D000670300087D6600086703000867030008DF
:1000E00067030008670300080000000067030008BA
:1000F0006703000867030008670300086703000838
:100100006703000867030008670300086703000827
:100110006703000867030008670300086703000817
:100120006703000867030008670300086703000807
:1001300067030008670300086703000867030008F7
:1001400000000000000000000000000000000000AF
:1001500067030008670300086703000867030008D7
:1001600067030008670300086703000867030008C7
:1001700067030008670300086703000867030008B7
:1001800067030008670300086703000867030008A7
:100190006703000867030008670300086703000897
:1001A0006703000867030008670300086703000887
:1001B0006703000867030008670300086703000877
:1001C0006703000867030008670300086703000867
:1001D0006703000867030008670300086703000857
:1001E0006703000867030008670300086703000847
:1001F0006703000867030008670300086703000837
:100200006703000867030008670300086703000826
:100210006703000867030008670300086703000816
:100220006703000867030008670300080000000078
:100230006703000867030008000000006703000868
:1002400067030008670300086703000867030008E6
:1002500067030008670300086703000867030008D6
:1002600067030008670300086703000867030008C6
:100270006703000867030008670300080000000028
:100280006703000867030008670300080000000018
:10029000000000006703000800F002F800F047F8D3
:1002A0000AA090E8000C82448344AAF10107DA45D1
:1002B00001D100F03CF8AFF2090EBAE80F0013F0DC
:1002C000010F18BFFB1A43F001031847880801000B
:1002D000A8080100103A24BF78C878C1FAD852079C
:1002E00024BF30C830C144BF04680C6070470000B0
:1002F0000023002400250026103A28BF78C1FBD82F
:10030000520728BF30C148BF0B607047752900F005
:100310000581782900F03E81732900F05E8300207A
:1003200070471FB50BF038FB1FBD10B510BD00F0B6
:100330006FFB1146FFF7F5FF0AF0DAFD00F08DFBC9
:1003400003B4FFF7F2FF03BC06F0C5F90948804784
:1003500009480047FEE7FEE7FEE7FEE7FEE7FEE7A7
:10036000FEE7FEE7FEE7FEE704480549054A064BBF
:1003700070470000C94500089902000818130020C2
:10038000181D00201815002018150020704753EA8A
:10039000020C00F069802DE9F04B4FF00006002BB5
:1003A0001FBFB3FA83F503FA05F424FA05F65E409D
:1003B00012BF1643B2FA82F502FA05F4C5F1200520
:1003C0001EBF22FA05FC44EA0C04203556EA044C10
:1003D0004FEA144418BF641C4FF000084FF00009A6
:1003E000904271EB030C39D3002919BFB1FA81F7A0
:1003F00001FA07F6B0FA80F700FA07F6C7F120070E
:100400001EBF20FA07FC46EA0C062037B6FBF4FCB8
:10041000A7EB0507103F07F01F0BCBF120060CFAE6
:100420000BFB2CFA06F644BFB3460026202FA4BFD0
:100430005E464FF0000B5BEA060C08BF4FF0010B65
:1004400019EB0B09ABFB027C48EB0608C01B06FB53
:1004500002CC0BFB03CC71EB0C01C1E70B4602464F
:1004600041464846BDE8F08B13B54FF000004FF011
:100470000001AFF30080BDE81C4070470FB4044991
:1004800010B503AA029800F0ADFA10BC5DF814FB99
:10049000200000200FB41CB50C0007AA009001D06A
:1004A0002044401E074B7B4469460190069800F0AB
:1004B00062FA002C03D06946002000F06FFA1CBCE1
:1004C0005DF814FBFD04000070B50C460546012ADA
:1004D00005D02878800600D5EA69002302E00123D0
:1004E00005E05B1C934202D2E05C0028F9D1A869C8
:1004F000E618C01AA861286A184428622846AFF393
:10050000008004E0D5E9012114F8010B9047B442C2
:10051000F8D32846AFF3008070BD00002DE9F0410C
:100520000646002410687529314616A510D0AFF391
:100530000080002802DA404213A507E031688A07EC
:1005400001D512A502E0490704D511A5012401E057
:10055000AFF3008000210A2206F1240709E0B0FB76
:10056000F2FCB0FBF2F302FB1C003030785418466A
:10057000491C0028F3D123462A463046BDE8F04105
:1005800000F09AB9000000002D0000002B000000D0
:100590002000000070B504460D4621461068AFF3F8
:1005A00000802188090502D50F4A7A4402E00E4AEC
:1005B0007A440E32002104F1240305E000F00F0616
:1005C0000009965D5E54491C0028F7D1207800236D
:1005D000000704D5702D02D009B102231132204644
:1005E000BDE8704000F068B96C0501002DE9F05FCE
:1005F000894604464FF0000ADFF874B1FB44C0F8A6
:1006000020A02046E1688847002874D0252806D01D
:10061000D4E901219047206A401C2062F1E70026BE
:100620005F462046E16888472028054607DB312DD4
:1006300005D2781910F8200C08B10643F1E7B0078D
:1006400001D526F00406C4F81CA00027C4F818A0A1
:100650002A2D09D0284606F037F838B304EB87086E
:10066000303DC8F8185019E059F8041B204604EB37
:1006700087029161E1688847012F054618D1E0693A
:10068000002820DA26F020061DE0D8F8180000EB3C
:10069000800005EB40003038C8F818002046E168BB
:1006A0008847054606F010F80028EED1012F0AD041
:1006B0002E2D08D12046E16888477F1C0546022F71
:1006C00046F02006C4DBA069002803DA404246F069
:1006D0000106A061F00701D026F010066C2D0BD0AA
:1006E000682D09D04C2D39D06A2D35D0742D35D0D8
:1006F0007A2D33D016E038E0E1682F46204688474F
:10070000B842054609D16C2F26D04FF48060E168CD
:10071000064320468847054604E06C2F1AD04FF464
:10072000807006430DB3A5F14100192802D8203589
:1007300046F400664A462946204626604E46FFF7A4
:10074000E5FD80B101280BD0F61D26F0070000F171
:10075000080956E74020E4E78020D8E70020D6E7E4
:1007600006F104094DE7284652E7206ABDE8F09FEC
:1007700042050100032A40F2308010F0030C00F023
:10078000158011F8013BBCF1020F624498BF11F8CB
:1007900001CB00F8013B38BF11F8013BA2F1040284
:1007A00098BF00F801CB38BF00F8013B11F00303FC
:1007B00000F02580083AC0F0088051F8043B083A60
:1007C00051F804CBA0E80810F5E7121D5CBF51F802
:1007D000043B40F8043BAFF30080D20724BF11F87C
:1007E000013B11F801CB48BF11F8012B24BF00F8E1
:1007F000013B00F801CB48BF00F8012B704710B552
:10080000203AC0F00B80B1E81850203AA0E8185008
:10081000B1E81850A0E81850BFF4F5AF5FEA027CC9
:1008200024BFB1E81850A0E8185044BF18C918C038
:10083000BDE810405FEA827C24BF51F8043B40F8D9
:10084000043B08BF7047D20728BF31F8023B48BFBE
:1008500011F8012B28BF20F8023B48BF00F8012BFC
:1008600070474FF0000200B5134694469646203973
:1008700022BFA0E80C50A0E80C50B1F12001BFF459
:10088000F7AF090728BFA0E80C5048BF0CC05DF8BF
:1008900004EB890028BF40F8042B08BF704748BF0D
:1008A00020F8022B11F0804F18BF00F8012B704781
:1008B00070477047704770472DE9F0470D469946DD
:1008C0009246044600F124080168880604D5E069D0
:1008D00021F01001216000E00120A84201DD471B4A
:1008E00000E00027A1697A1902EB0900081AA0614B
:1008F0002078C00602D42046AFF30080002608E02E
:10090000D4E901211AF806009047206A401C761CA1
:1009100020624E45F4DB2078C0060AD52046AFF3AE
:10092000008006E0D4E9012130209047206A401C75
:100930002062381EA7F10107F4DC07E0D4E90121A9
:1009400018F805009047206A401C2062281EA5F177
:100950000105F3DC2046AFF300802078000602D5C5
:100960000220BDE8F0870120FBE7000001694A1C76
:1009700002610878704700B58FB0CDE901310021E0
:10098000059105497944CDE9031011466846FFF702
:100990002DFE0FB000BD0000E5FFFFFF0A6802F862
:1009A000010B0A607047D1E900239A4202D2531C1E
:1009B0000B601070704710B5436913B1AFF300803E
:1009C00001E0FFF781FD012010BD127800F1240144
:1009D0000A7000224A700122EDE711684FF0FF32E1
:1009E000E9E70000074B70B50D467B44FFF7C3FFF6
:1009F0000446284600F008F810B14FF0FF3070BDF3
:100A0000204670BDEB6E0000007B00F08000704758
:100A1000754600F02BF8AE4605006946534620F0B7
:100A20000700854618B020B5FFF79EFCBDE82040C2
:100A30004FF000064FF000074FF000084FF0000B9A
:100A400021F00701AC46ACE8C009ACE8C009ACE84D
:100A5000C009ACE8C0098D46704710B50446AFF335
:100A600000802046BDE81040FFF76ABC0048704790
:100A7000B812002000BFFEE77047000070B50446C2
:100A8000B3F5804F13D1D1E9000540EA05108D6818
:100A900040EA05208D6928438D8940EA054054F8D5
:100AA0002250064E3540284344F8220003E06FF000
:100AB000704044F82200002070BD00000000F0CF1C
:100AC00030B50246086852F8200020F001000C689A
:100AD00042F824008868082801D1402300E0002360
:100AE000486818438C682043CC6820430C69204335
:100AF0004C6920438C692043CC6920430C6A204315
:100B00004C6A20438C6A2043CC6A20430C6B204300
:100B10004C6B20438C6B20430C6852F824400D4DE5
:100B20002C4020430C6842F82400086BB0F5801F6D
:100B300007D1086828B1106820F480100C6B20439E
:100B40001060086818B110684C6B204310600020DA
:100B500030BD00008004C0FF30B50346D1E9000578
:100B600040EA05108D6840EA05208D8940EA054578
:100B7000088A401E45EA0055087D801E45EA00604F
:100B80008D692843551C53F8255005F040452843EE
:100B9000551C43F82500186800F48010B0F5801F3C
:100BA0000BD1586820F47004088A401E44EA0054AF
:100BB000586820F4700020435860002030BD0000C9
:100BC00070B504460CB9012070BD94F835000228B8
:100BD00003D0802060650120F6E7DC492068884268
:100BE00049D0DA4918312068884244D0D749303199
:100BF000206888423FD0D5494831206888423AD0A1
:100C0000D24960312068884235D0D0497831206897
:100C1000884230D0CD499031206888422BD0CB49D2
:100C2000A8312068884226D0C9492068884222D04D
:100C3000C7491831206888421DD0C5493031206825
:100C4000884218D0C24948312068884213D0C04930
:100C50006031206888420ED0BD49783120688842D2
:100C600009D0BB4990312068884204D0B849A831E6
:100C70002068884201D1012000E00020F0B3042068
:100C800084F83500B149206888424BD0AF4918310B
:100C90002068884246D0AD4930312068884241D032
:100CA000AA494831206888423CD0A8496031206870
:100CB000884237D0A54978312068884232D0A3498C
:100CC0009031206888422DD0A049A8312068884200
:100CD00028D09F492068884224D09D491831206837
:100CE00088421FD09A493031206888421AD09849EA
:100CF00048312068884215D0954900E020E06031F5
:100D0000206888420ED0924978312068884209D004
:100D10008F4990312068884204D08D49A8312068DD
:100D2000884206D12068006820F001002168086030
:100D300009E12068006820F001002168086002E1F4
:100D40002068006820F00E00216808607F49206854
:100D5000884249D07D4918312068884244D07B4977
:100D60003031206888423FD0784948312068884235
:100D70003AD0764960312068884235D0734978315D
:100D80002068884230D071499031206888422BD049
:100D90006E49A8312068884226D06D492068884273
:100DA00022D06B491831206888421DD06849303103
:100DB0002068884218D0664948312068884213D09C
:100DC00063496031206888420ED0614978312068DB
:100DD000884209D05E4990312068884204D05C493D
:100DE000A8312068884206D12068006820F0010000
:100DF0002168086005E02068006820F00100216893
:100E0000086052492068884270D0504918312068E3
:100E100088426BD04D4930312068884266D04B49BA
:100E200048312068884261D0484960312068884252
:100E30005CD0464978312068884257D04349903188
:100E40002068884252D04149A831206888424DD05C
:100E50003F492068884249D03D491831206888427E
:100E600044D03B493031206888423FD0384948312E
:100E7000206888423AD0364960312068884235D0AF
:100E8000334978312068884230D031499031206828
:100E900088422BD02E49A8312068884226D02D497F
:100EA0002068884222D02B491431206888421DD006
:100EB000284928312068884218D026493C312068CA
:100EC000884213D023495031206888420ED02149EE
:100ED00064312068884209D01E49783120688842F0
:100EE00004D01C498C312068884201D1012000E0E7
:100EF0000020D8B1206E006820F48070216E086058
:100F0000A56D94F85C0000F01F0101208840686026
:100F1000D4E919104860E06E40B1E06E006820F43A
:100F20008070E16E0860D4E91C10486000BF0020AA
:100F300084F8340000BF012084F83500206D10B122
:100F40002046216D884700203EE600001000024048
:100F500010040240085402580348006840F00100A1
:100F6000014908607047000020040058F8B50246A7
:100F70000023734DDEE001279F400E6806EA070458
:100F8000002C71D04E68022E02D04E68122E13D162
:100F9000DF0802F1200656F827005E07F70E0F263D
:100FA000BE40B0435F07FF0E0E69BE403043DF080E
:100FB00002F1200646F8270010685F000326BE40B5
:100FC000B0430E7906F003065F00BE403043106068
:100FD0004E68012E08D04E68022E05D04E68112EA4
:100FE00002D04E68122E13D190685F000326BE40D7
:100FF000B0435F00CE68BE40304390605068012629
:101000009E40B0430E79C6F300169E4030435060B8
:10101000D0685F000326BE40B0435F008E68BE40CC
:101020003043D0604E6806F08056B6F1805F1BD129
:1010300000BF444E366846F00206424F3E603E46D0
:10104000366806F00206009600BF00BF3E4E9F08BD
:1010500056F827009E07370F0F26BE40B0433B4E81
:10106000B24202D100262EE063E0394EB24201D1F5
:10107000012628E0374EB24201D1022623E0364E47
:10108000B24201D103261EE0344EB24201D1042601
:1010900019E0334EB24201D1052614E0314EB2427E
:1010A00001D106260FE0304EB24201D107260AE0F8
:1010B0002E4EB24201D1082605E02D4EB24201D19A
:1010C000092600E00A269F073F0FBE4030431E4E10
:1010D0009F0846F827002868A0434E6806F480362B
:1010E000B6F5803F00D1204328606868A0434E6871
:1010F00006F40036B6F5003F00D1204368604FF09B
:10110000B0463068A0434E6806F48016B6F5801FDE
:1011100000D120434FF0B04630607068A0434E6865
:1011200006F40016B6F5001F00D120434FF0B0467C
:1011300070605B1C0E68DE40002E7FF41CAFF8BDB3
:1011400080000058F4440258080400580000025877
:101150000004025800080258000C025800100258FF
:101160000014025800180258001C025800200258AF
:1011700000240258024613690B400BB1012000E025
:10118000002070470AB1816101E00B048361704760
:1011900001480068000C70470010005C01480068BE
:1011A00070470000280000200348006803490978C0
:1011B00008440149086070472800002030000020E2
:1011C00010B5052000F00AF901F0E4FC10490968A7
:1011D000C1F303210F4A515C01F01F01C8400E49C1
:1011E00008600B48006800F00F001146085C00F032
:1011F0001F0109480068C840084908600F2000F036
:101200000FF808B1012010BD00F09AF80020FAE7AD
:1012100018440258A2B90008140000201800002049
:1012200070B504461148007808B9012070BD0F4818
:1012300000784FF47A71B1FBF0F00D490968B1FB09
:10124000F0F5284602F000FA08B10120EEE7102C74
:1012500007D200222146501E00F083F805480460A2
:1012600001E00120E2E70020E0E70000300000207C
:10127000140000202C0000204178154A11600178EC
:10128000F9B1121D41681160017B0907C27A41EA78
:101290000261827A41EAC241427B41EA8241827B19
:1012A00041EA4241C27B41EA0241427A41EA0221DB
:1012B000027A41EA420102781143054A083211607C
:1012C00005E00021024A121D1160121D11607047D5
:1012D00098ED00E000BF00BF00BFBFF35F8F00BF0D
:1012E00000BF00BF0548006820F480300349086053
:1012F00000200249703108607047000024ED00E0D2
:1013000040F001010D4A11600C497039096841F43F
:1013100080310A4A703A116000BF00BF00BFBFF3BE
:101320004F8F00BF00BF00BF00BF00BF00BFBFF3B3
:101330006F8F00BF00BF00BF7047000094ED00E05A
:10134000704701460846002809DB00F01F03012210
:101350009A4043099B0003F1E023C3F8002100BF3A
:1013600070472DE9F05F80460D46164605F090F96E
:10137000074639462A46334601F00700C0F1070AFE
:10138000BAF1040F02D94FF0040A01E0C0F1070AD4
:10139000D14600F1040ABAF1070F02D24FF0000A59
:1013A00001E0A0F1030AD4464FF0010A0AFA09FA53
:1013B000AAF1010A0AEA020A0AFA0CFA4FF0010B32
:1013C0000BFA0CFBABF1010B0BEA030B4AEA0B0423
:1013D0002146404605F064F9BDE8F09F00BF00F0EB
:1013E0000702064B19684FF6FF031940044B0B43E5
:1013F00043EA0221014B196000BF70470CED00E089
:101400000000FA050348006840F080700149086058
:10141000704700000C4802582DE9F84304460D4679
:101420001746FFF7BBFE8046A86900B100BFE86918
:1014300000B100BF286A00B100BF00BF94F84000AF
:10144000012802D10220BDE8F883012084F8400081
:1014500000BF94F84100012828D1002060640220D8
:1014600084F841004346002220212046009702F0E4
:1014700051FE0646DEB900222946204602F056FDFE
:10148000686A78B94346012202212046009702F09B
:1014900041FE06465EB902202168C860012084F83A
:1014A000410004E0012084F8410000E0022600BF72
:1014B000002084F8400000BF3046C4E7F8B5044679
:1014C000FFF76CFE06460CB90120F8BD206A4028E3
:1014D00000D000BF00BF94F84000012801D10220D5
:1014E000F3E7012084F8400000BF94F8410050B9B0
:1014F000002084F84000204600F04CF841F288318A
:10150000204600F035F92068006820F47061A0687A
:10151000401E41EA002021680860A06C334600228A
:1015200020210090204602F0F5FD054635BB2179CB
:10153000E06840EA0160E1690843216A08432168E4
:101540000968124A1140084321680860208A6169CD
:1015500041EA0040A1690843216849680C4A1140EA
:101560000843216848602068006840F00100216855
:10157000086000206064012084F8410000BF002062
:1015800084F8400000BF28469FE700002FFFFF00BF
:10159000FEF8E0FF10B586B0044600BF374800688B
:1015A00040F48040354908600846006800F48040F7
:1015B000009000BF00BF00BF30480C30006840F012
:1015C00002002E490C3108600846006800F0020055
:1015D000009000BF00BF00BF0846006840F0080050
:1015E00008600846006800F00800009000BF00BFD7
:1015F00000BF0846006840F0100008600846006818
:1016000000F01000009000BF00BF402001900220B9
:10161000029001200390032004900A20059001A964
:101620001748FFF7A3FC042001900220029001203C
:101630000390032004900920059001A91048FFF7AA
:1016400095FC4FF40060019001A90E48FFF78EFC55
:101650004FF48050019001A90A48FFF787FC4FF42E
:101660000050019001A90748FFF780FC0420019079
:1016700001A90548FFF77AFC06B010BDD444025812
:1016800000040258000C0258001002582DE9F84FCF
:1016900004460E4617460025FFF780FD8046206869
:1016A000D0F81890206800F1200A00BF94F840009C
:1016B000012802D10220BDE8F88F012084F8400003
:1016C00000BF94F8410001284AD100206064002E38
:1016D00040D0222084F8410020680069401CA063AB
:1016E00020680069401C606326632068406920F020
:1016F000406040F08060216848612068C0F8189020
:1017000013E04346012206212046009702F002FD25
:10171000054605B10CE09AF80000216B0870206BBB
:10172000401C2063A06B401EA063A06B0028E8D182
:1017300000BF5DB94346012202212046009702F016
:10174000E9FC054615B902202168C860012084F82B
:10175000410006E0606C40F008006064012500E094
:10176000022500BF002084F8400000BF2846A2E701
:10177000816470472DE9F84304460E46174600255C
:10178000FFF70CFD8046206800F1200900BF94F8A7
:101790004000012802D10220BDE8F883012084F82E
:1017A000400000BF94F84100012845D1002060644A
:1017B000002E3BD0122084F8410020680069401CB4
:1017C000E06220680069401CA0626662206840698F
:1017D00020F040602168486113E043460122042163
:1017E0002046009702F096FC054605B10CE0606AC1
:1017F000007889F80000606A401C6062E06A401E60
:10180000E062E06A0028E8D100BF5DB943460122EA
:1018100002212046009702F07DFC054615B9022002
:101820002168C860012084F8410006E0606C40F047
:1018300008006064012500E0022500BF002084F854
:10184000400000BF2846A7E710B501F0A3F90749FB
:101850000968C1F30321064A515C01F01F01C84029
:10186000044908600846006810BD0000184402588A
:10187000A2B900081400002010B501F04FF9054985
:101880000968C1F30211044A515C01F01F01C8400C
:1018900010BD000020440258A2B9000870B50146EE
:1018A000844D2D6805F00303824D2D68C5F3053086
:1018B000804D2D1D2D68C5F300147E4D14352D6807
:1018C000C5F3CC0515FB04F501EE105AB8EE411A2C
:1018D000F0EE410A00286FD023B1012B4ED0022B2D
:1018E0006BD16BE0734D283D2D68C5F340153DB3BA
:1018F000704D283D2D68C5F3C1066F4D25FA06F2DF
:1019000001EE102AF8EE411A01EE100AB8EE411A63
:1019100081EE812A9FED691AC0EE811A654D10355E
:101920002D68C5F3080501EE105AB8EE411A31EEE4
:10193000811AF7EE001A31EE211A22EE010A1CE09C
:1019400001EE100AB8EE411ADFED5D1A81EE812A30
:101950009FED5A1AC0EE811A564D10352D68C5F309
:10196000080501EE105AB8EE411A31EE811AF7EE71
:10197000001A31EE211A22EE010A5BE001EE100A94
:10198000B8EE411ADFED4F1A81EE812A9FED4B1A16
:10199000C0EE811A474D10352D68C5F3080501EEDC
:1019A000105AB8EE411A31EE811AF7EE001A31EEF4
:1019B000211A22EE010A3DE077E01DE001EE100A57
:1019C000B8EE411A9FED402AC2EE011A9FED3B1A74
:1019D00080EE812A374D10352D68C5F3080501EEDC
:1019E000105AB8EE411A32EE011AB7EE002A31EE63
:1019F000021A21EE810A1DE001EE100AB8EE411A2A
:101A0000DFED301A81EE812A9FED2C1AC0EE811A8B
:101A1000284D10352D68C5F3080501EE105AB8EEB3
:101A2000411A31EE811AF7EE001A31EE211A22EE38
:101A3000010A00BF00BF1F4D10352D68C5F34625B4
:101A400001EE105AB8EE411AF7EE001A31EE211AE3
:101A5000C0EE011ABCEEE11A81ED001A154D1035E9
:101A60002D68C5F3064501EE105AB8EE411AF7EE9F
:101A7000001A31EE211AC0EE011ABCEEE11A81ED16
:101A8000011A0C4D10352D68C5F3066501EE105A8C
:101A9000B8EE411AF7EE001A31EE211AC0EE011A23
:101AA000BCEEE11A81ED021A03E000250D604D60E5
:101AB0008D6070BD284402580090D003000000469D
:101AC0000024744C0024744A0024F44A70B5014682
:101AD000844D2D6805F00303824D2D68C5F3055034
:101AE000804D2D1D2D68C5F300247E4D1C352D68BD
:101AF000C5F3CC0515FB04F501EE105AB8EE411AFA
:101B0000F0EE410A00286FD023B1012B4ED0022BFA
:101B10006BD16BE0734D283D2D68C5F340153DB387
:101B2000704D283D2D68C5F3C1066F4D25FA06F2AC
:101B300001EE102AF8EE411A01EE100AB8EE411A31
:101B400081EE812A9FED691AC0EE811A654D183524
:101B50002D68C5F3080501EE105AB8EE411A31EEB2
:101B6000811AF7EE001A31EE211A22EE010A1CE06A
:101B700001EE100AB8EE411ADFED5D1A81EE812AFE
:101B80009FED5A1AC0EE811A564D18352D68C5F3CF
:101B9000080501EE105AB8EE411A31EE811AF7EE3F
:101BA000001A31EE211A22EE010A5BE001EE100A62
:101BB000B8EE411ADFED4F1A81EE812A9FED4B1AE4
:101BC000C0EE811A474D18352D68C5F3080501EEA2
:101BD000105AB8EE411A31EE811AF7EE001A31EEC2
:101BE000211A22EE010A3DE077E01DE001EE100A25
:101BF000B8EE411A9FED402AC2EE011A9FED3B1A42
:101C000080EE812A374D18352D68C5F3080501EEA1
:101C1000105AB8EE411A32EE011AB7EE002A31EE30
:101C2000021A21EE810A1DE001EE100AB8EE411AF7
:101C3000DFED301A81EE812A9FED2C1AC0EE811A59
:101C4000284D18352D68C5F3080501EE105AB8EE79
:101C5000411A31EE811AF7EE001A31EE211A22EE06
:101C6000010A00BF00BF1F4D18352D68C5F346257A
:101C700001EE105AB8EE411AF7EE001A31EE211AB1
:101C8000C0EE011ABCEEE11A81ED001A154D1835AF
:101C90002D68C5F3064501EE105AB8EE411AF7EE6D
:101CA000001A31EE211AC0EE011ABCEEE11A81EDE4
:101CB000011A0C4D18352D68C5F3066501EE105A52
:101CC000B8EE411AF7EE001A31EE211AC0EE011AF1
:101CD000BCEEE11A81ED021A03E000250D604D60B3
:101CE0008D6070BD284402580090D003000000466B
:101CF0000024744C0024744A0024F44A2DE9F04175
:101D000004460025A846206800F00060B0F1006F8E
:101D100030D1606E48B1B0F5801F0DD0B0F5001F16
:101D200010D0B0F5401F15D113E0F948006840F419
:101D30000030F74908600FE00221201D02F010FA80
:101D4000054609E0022104F1240002F0BBFA054631
:101D500002E001E0012500BF00BF55B9EC48243086
:101D6000006820F44010616E0843E949243108609E
:101D700000E0A846208800F48070B0F5807F2DD167
:101D8000606D05281AD2DFE800F0030A101718006A
:101D9000DF48006840F40030DD49086010E00021B1
:101DA000201D02F0DDF905460AE0002104F12400BF
:101DB00002F088FA054603E002E001E0012500BFD9
:101DC00000BF55B9D2482430006820F00700616D8B
:101DD0000843CF492431086000E0A846208800F479
:101DE0000070B0F5007F33D1A06D802817D003DCE0
:101DF00040B140281CD10CE0C02817D0B0F5807F3E
:101E000016D114E0C248006840F40030C0490860B0
:101E100010E00021201D02F0A3F905460AE0002190
:101E200004F1240002F04EFA054603E002E001E06E
:101E3000012500BF00BF55B9B5482430006820F423
:101E4000E070A16D0843B2492431086000E0A84663
:101E5000208800F48060B0F5806F38D1D4F8A400F9
:101E6000B0F5800F19D004DC50B1B0F5001F1DD1C2
:101E70000DE0B0F5C00F17D0B0F5000F16D114E08B
:101E8000A348006840F40030A149086010E0002138
:101E9000201D02F065F905460AE0002104F1240046
:101EA00002F010FA054603E002E001E0012500BF60
:101EB00000BF5DB996482C30006820F46000D4F86B
:101EC000A410084392492C31086000E0A8462088FD
:101ED00000F40060B0F5006F38D1D4F8A800B0F17C
:101EE000007F19D004DC50B1B0F1807F1DD10DE02E
:101EF000B0F1407F17D0B0F1806F16D114E0844864
:101F0000006840F400308249086010E00021201D84
:101F100002F026F905460AE0002104F1240002F04F
:101F2000D1F9054603E002E001E0012500BF00BF52
:101F30005DB977482C30006820F0E060D4F8A81034
:101F4000084373492C31086000E0A846206800F07F
:101F50000070B0F1007F27D1A06CA0B1102804D090
:101F6000202809D030280FD10CE06948006840F4DF
:101F700000306749086009E00221201D02F0F0F8F6
:101F8000054603E002E001E0012500BF00BF55B9AE
:101F90005F482030006820F03000A16C08435C49A5
:101FA0002031086000E0A846208800F48050B0F599
:101FB000805F36D1E06DB0F5005F19D004DC50B120
:101FC000B0F5805F1DD10DE0B0F5405F17D0B0F5E2
:101FD000804F16D114E04E48006840F400304C4960
:101FE000086010E00021201D02F0BAF805460AE062
:101FF000002104F1240002F065F9054603E002E047
:1020000001E0012500BF00BF55B9414824300068F8
:1020100020F4E040E16D08433D492431086000E0D0
:10202000A846208800F40050B0F5005F34D1206E3F
:10203000B0F5403F1DD007DC68B1B0F5803F0BD054
:10204000B0F5003F18D10DE0B0F5802F12D0B0F5FB
:10205000A02F11D10FE011E00121201D02F080F826
:1020600005460BE0012104F1240002F02BF905469E
:1020700004E003E002E001E0012500BF00BF55B924
:1020800023482430006820F4E020216E08432049D2
:102090002431086000E0A846208800F48040B0F5B4
:1020A000804F38D1D4F8AC00B0F1405F1DD007DCD0
:1020B00068B1B0F1805F0BD0B0F1005F18D10DE0D6
:1020C000B0F1804F12D0B0F1A04F11D10FE011E06C
:1020D0000121201D02F044F805460BE0012104F126
:1020E000240002F0EFF8054604E003E002E001E01E
:1020F000012500BF00BF6DB905482C30006820F0F5
:10210000E040D4F8AC10084301492C31086002E0EB
:102110002C440258A846208800F40040B0F5004F37
:1021200026D1E06E98B1B0F1805F03D0B0F1005FCE
:102130000ED106E0F948006840F40030F749086025
:1021400008E00121201D02F00BF8054602E001E045
:10215000012500BF00BF55B9F0482430006820F0C9
:102160004050E16E0843ED492431086000E0A84684
:10217000206800F08070B0F1807F27D1606CA0B142
:10218000012804D0022809D003280FD10CE0E3482D
:10219000006840F40030E149086009E00221201D98
:1021A00001F0DEFF054603E002E001E0012500BF8B
:1021B00000BF55B9D9482030006820F00300616C99
:1021C0000843D6492031086000E0A846206800F4A2
:1021D0008000B0F5800F7DD1D148006840F4807058
:1021E000CF490860FEF7DAFF064606E0FEF7D6FFA5
:1021F000801B642801D9032505E0C948006800F464
:1022000080700028F2D000BF85BBC448443000680D
:1022100000F44070B4F8B01001F44071884213D05B
:10222000BE484430006820F44077BC484430006821
:1022300040F48030B949443108600846006820F411
:102240008030086008460760D4F8B000B0F5807FA1
:1022500015D1FEF7A3FF064609E0FEF79FFF801B9E
:1022600041F28831884202D9032507E038E0AB48C3
:1022700044300068C0F340000028EED000BF55BBDA
:1022800000BFB4F8B00000F44070B0F5407F0ED14C
:10229000A2481C38006820F47C51A24AD4F8B0004F
:1022A000104041EA10109D491C39086007E09B4826
:1022B0001C38006820F47C5098491C390860974805
:1022C00044300068B4F8B010C1F30B0108439349DF
:1022D000443101E005E001E0086002E0A84600E0CA
:1022E000A846207800F0010068B3A06F182819D024
:1022F00005DC48B1082808D0102816D10BE02028AA
:1023000011D0282811D10FE011E00121201D01F08A
:1023100027FF05460BE0012104F1240001F0D2FF64
:10232000054604E003E002E001E0012500BF00BF34
:1023300055B97A482830006820F03800A16F08436A
:1023400076492831086000E0A846207800F00200B5
:10235000022828D1606F062815D2DFE800F00304B8
:102360000A11121311E00121201D01F0F9FE0546AA
:102370000BE0012104F1240001F0A4FF054604E074
:1023800003E002E001E0012500BF00BF55B963484A
:102390002830006820F00700616F08435F4928314A
:1023A000086000E0A846207800F0040004282AD144
:1023B000D4F89000062815D2DFE800F003040A11D3
:1023C000121311E00121201D01F0CAFE05460BE0A9
:1023D000012104F1240001F075FF054604E003E04B
:1023E00002E001E0012500BF00BF5DB94B482C3081
:1023F000006820F00700D4F89010084347492C31BA
:10240000086000E0A846207800F02000202836D19F
:10241000D4F88C00B0F1405F1DD007DC68B1B0F19A
:10242000805F0BD0B0F1005F18D10DE0B0F1804FAC
:1024300012D0B0F1A04F11D10FE011E00021201D0A
:1024400001F08EFE05460BE0022104F1240001F0AC
:1024500039FF054604E003E002E001E0012500BF8A
:1024600000BF5DB92D482830006820F0E040D4F866
:102470008C10084329492831086000E0A8462078DC
:1024800000F04000402836D1D4F89800B0F5406FF5
:102490001DD007DC68B1B0F5806F0BD0B0F5006FD0
:1024A00018D10DE0B0F5805F12D0B0F5A05F11D16A
:1024B0000FE011E00021201D01F052FE05460BE067
:1024C000022104F1240001F0FDFE054604E003E0D2
:1024D00002E001E0012500BF00BF5DB90F482C30CC
:1024E000006820F4E050D4F8981008430B492C31D0
:1024F000086000E0A846207800F0800080283AD1EB
:10250000D4F89C00B0F5C04F23D00DDC98B1B0F5E5
:10251000005F11D0B0F5804F1ED113E02C4402585B
:1025200000480258FFFCFF0FB0F5004F12D0B0F585
:10253000204F11D10FE011E00021201D01F010FE0D
:1025400005460BE0022104F1240001F0BBFE054624
:1025500004E003E002E001E0012500BF00BF4DB947
:10256000AD48006820F46040D4F89C100843AA49A4
:10257000086000E0A846207800F00800082817D17D
:10258000D4F88000B0F5805F07D1022104F1240067
:1025900001F098FE08B14FF001089F48001F006845
:1025A00020F44050D4F8801008439B49091F08606C
:1025B000207800F01000102815D1D4F89400B0F560
:1025C000807F07D1022104F1240001F07BFE08B1D5
:1025D0004FF001089048006820F44070D4F894103F
:1025E00008438D490860206800F40020B0F5002FF2
:1025F00026D1D4F8A00030B1B0F5803F09D0B0F5B5
:10260000003F0ED10CE00021201D01F0A9FD054680
:1026100009E0022104F1240001F054FE054602E025
:1026200001E0012500BF00BF4DB97B48006820F4E0
:102630004030D4F8A01008437749086000E0A8466D
:10264000206800F48020B0F5802F2DD1D4F88400CC
:10265000B0F5801F06D0B0F5001F0CD0B0F5401FBC
:1026600011D10FE06C482C38006840F400306A4902
:102670002C39086009E0012104F1240001F022FE58
:10268000054602E001E0012500BF00BF5DB96248D8
:10269000001F006820F44010D4F8841008435E49FD
:1026A000091F086000E0A846206800F48030B0F5FB
:1026B000803F24D1E06C18B1B0F5803F0FD108E025
:1026C00055482C38006840F4003053492C390860D4
:1026D00007E00221201D01F043FD054601E0012530
:1026E00000BF00BF55B94C480C38006820F480305A
:1026F000E16C084348490C39086000E0A8462068AE
:1027000000F00050B0F1005F07D1022104F1240075
:1027100001F0D8FD08B14FF00108206800F4003046
:10272000B0F5003F27D1E06FA0B1B0F5807F06D0B3
:10273000B0F5007F0CD0B0F5407F0CD109E03648F1
:102740002C38006840F4003033492C39086004E02C
:1027500003E002E001E0012500BF00BF55B92E48AB
:10276000001F006820F44070E16F08432A49091FE8
:10277000086000E0A846206800F48010B0F5801FD3
:1027800009D125480838006820F00040216F08432F
:10279000214908390860206800F40010B0F5001FD6
:1027A00009D11D480838006820F08070A16E0843E8
:1027B000194908390860206800F08040B0F1804F66
:1027C00011D100BF14484838006820F40040124975
:1027D0004839086008460068D4F8B81008430E4924
:1027E0004839086000BF206800F00040B0F1004F99
:1027F00009D109480C38006820F04050216D084389
:1028000005490C390860B8F1000F02D10020BDE87D
:10281000F0810120FBE70000584402582DE9F04107
:1028200004460D4614B90120BDE8F081B6480068A1
:1028300000F00F00A8420ED2B348006820F00F004D
:102840002843B14908600846006800F00F00A8421C
:1028500001D00120E8E7207800F0040004280ED120
:10286000AA492069096801F07001884207D9A74880
:10287000006820F0700021690843A44908602078AE
:1028800000F00800082811D1A049091D60690968F5
:1028900001F07001884209D99C48001D006820F0B1
:1028A0007000616908439949091D0860207800F0AB
:1028B0001000102811D19549091DA069096801F47B
:1028C000E061884209D99148001D006820F4E06069
:1028D000A16908438D49091D0860207800F0200097
:1028E000202811D189490831E069096801F0700197
:1028F000884209D985480830006820F07000E169F5
:102900000843824908310860207800F0020002285C
:102910000ED17E49E068096801F00F01884207D9AD
:102920007A48006820F00F00E168084377490860A2
:10293000207800F00100002850D07448006820F48E
:102940007060A1680843714908606068022807D177
:102950006E4818380068C0F34040F8B9012063E7BA
:102960006068032807D1694818380068C0F34060E0
:10297000A0B9012058E76068012807D163481838DA
:102980000068C0F3002048B901204DE75F481838BF
:102990000068C0F3800008B9012045E75B480838AB
:1029A000006820F00700616808435849083908604A
:1029B000FEF7F4FB064608E0FEF7F0FB801B41F251
:1029C0008831884201D903202EE750480838006832
:1029D00000F038006168B0EBC10FEDD1207800F055
:1029E000020002280ED14949E068096801F00F0190
:1029F000884207D24548006820F00F00E16808438C
:102A0000424908604048006800F00F00A8420ED913
:102A10003D48006820F00F0028433B490860084605
:102A2000006800F00F00A84201D00120FCE62078E9
:102A300000F0040004280ED134492069096801F02F
:102A40007001884207D23148006820F07000216987
:102A500008432E490860207800F00800082811D1AA
:102A60002A49091D6069096801F07001884209D28C
:102A70002648001D006820F0700061690843234962
:102A8000091D0860207800F01000102811D11F499E
:102A9000091DA069096801F4E061884209D21B4858
:102AA000001D006820F4E060A16908431749091D72
:102AB0000860207800F02000202811D11349083147
:102AC000E069096801F07001884209D20F480830B6
:102AD000006820F07000E16908430C490831086083
:102AE00000F058F809490968C1F30321084A515C0C
:102AF00001F01F01C8400749086007480068FEF759
:102B00008FFB074638468FE60020005218440258D3
:102B1000A2B90008140000202C00002010B5FEF718
:102B200093FE0749096801F00F01064A515C01F064
:102B30001F01C840044908600846006810BD000035
:102B400018440258A2B900081800002010B5FFF779
:102B5000E5FF05490968C1F30211044A515C01F01F
:102B60001F01C84010BD00001C440258A2B9000853
:102B700010B5FFF7D3FF05490968C1F30221044AE4
:102B8000515C01F01F01C84010BD00001C440258F8
:102B9000A2B90008F0B5824E366806F0380636B1A4
:102BA000082E15D0102E15D0182E7DD114E07C4E95
:102BB000103E3668C6F3401646B1794E103E366870
:102BC000C6F3C107774E26FA07F000E07548E5E046
:102BD0007548E3E07548E1E0714E1836366806F056
:102BE00003046F4E18363668C6F305116C4E1C365A
:102BF000366806F001056A4E24363668C6F3CC0600
:102C000016FB05F601EE106AB8EE410A002971D0F4
:102C100024B1012C50D0022C6DD16DE0604E103EDD
:102C20003668C6F340163EB35D4E103E3668C6F3B6
:102C3000C1075C4E26FA07F301EE103AF8EE411A8E
:102C400001EE101AB8EE411A81EE812A9FED581A52
:102C5000C0EE011A524E20363668C6F3080601EE61
:102C6000106AB8EE411A31EE811AF7EE001A31EE11
:102C7000211A62EE010A1EE001EE101AB8EE411AA6
:102C8000DFED4C1A81EE812A9FED491AC0EE011A40
:102C9000434E20363668C6F3080601EE106AB8EED9
:102CA000411A31EE811A00E076E0F7EE001A31EEBB
:102CB000211A62EE010A5BE001EE101AB8EE411A29
:102CC0009FED3D2AC2EE011A9FED391A80EE012ACE
:102CD000334E20363668C6F3080601EE106AB8EEA9
:102CE000411A32EE011AB7EE002A31EE021A61EEF5
:102CF000810A3DE04EE01DE001EE101AB8EE411AE7
:102D0000DFED2E1A81EE812A9FED291AC0EE011AFD
:102D1000234E20363668C6F3080601EE106AB8EE78
:102D2000411A31EE811AF7EE001A31EE211A62EEE5
:102D3000010A1DE001EE101AB8EE411A9FED1E2A9D
:102D4000C2EE011A9FED1A1A80EE012A144E2036A7
:102D50003668C6F3080601EE106AB8EE411A32EE84
:102D6000011AB7EE002A31EE021A61EE810A00BFA5
:102D700000BF0B4E20363668C6F34626721C01EEA5
:102D8000102AB8EE411AC0EE811ABCEEE11A11EE1B
:102D9000100A00E0002001E0034800BF00BFF0BDC2
:102DA000104402580090D00300093D0000127A0040
:102DB000000000460024744C0024744A0024F44AA5
:102DC0002DE9F047044614B90120BDE8F0872078CA
:102DD00000F00100002872D0F948006800F03808BF
:102DE000F7481830D0F80090B8F1100F06D0B8F1BD
:102DF000180F0FD109F0030002280BD1F04810384A
:102E00000068C0F3404000286ED0606800286BD195
:102E10000120DAE700BF6068B0F5803F08D1E848DC
:102E20001038006840F48030E549103908602EE021
:102E3000606868B9E2481038006820F48030E049E2
:102E4000103908600846006820F4802008601EE001
:102E50006068B0F5A02F0DD1D9481038006840F453
:102E60008020D749103908600846006840F4803057
:102E700008600CE0D2481038006820F48030D04957
:102E8000103908600846006820F48020086000BF00
:102E90006068A8B1FEF782F9054608E0FEF77EF902
:102EA000401B41F28831884201D903208DE7C44894
:102EB00010380068C0F340400028EFD014E014E060
:102EC000FEF76CF9054608E0FEF768F9401B41F291
:102ED0008831884201D9032077E7B9481038006863
:102EE000C0F340400028EFD100BF207800F002007E
:102EF00002286BD1B248006800F03808B04818309A
:102F0000D0F80090B8F1000F05D0B8F1180F2BD110
:102F100009F0030040BBAA4810380068C0F38000E5
:102F200018B1E06808B901204FE700BFFEF730F99B
:102F300041F2030188420BD8A1480C38006820F404
:102F40007C30216940EA01309D490C3908600AE073
:102F50009B480C38006820F0FE40217C40EA01606C
:102F600097490C39086058E0E06870B3944810380D
:102F7000006820F01900E1680843914910390860A1
:102F8000FEF70CF9054606E0FEF708F9401B02289B
:102F900001D9032019E78A4810380068C0F380007F
:102FA0000028F1D000BFFEF7F3F841F20301884298
:102FB0000DD883480C38006820F47C30216940EA41
:102FC00001307F490C3908600CE00CE026E07C48B9
:102FD0000C38006820F0FE40217C40EA016078490E
:102FE0000C39086019E076481038006820F00100BC
:102FF000734910390860FEF7D1F8054606E0FEF780
:10300000CDF8401B022801D90320DEE66C481038B9
:103010000068C0F380000028F1D100BF207800F0E4
:10302000100010286ED16648006800F03808644827
:103030001830D0F80090B8F1080F06D0B8F1180F8A
:103040002FD109F0030001282BD15D48103800680A
:10305000C0F3002020B1E069802801D00120B4E64F
:1030600000BFFEF795F841F2030188420CD854489E
:103070000C38006820F0F84094F8201040EA816095
:103080004F490C3908600BE04D48001F006820F0E4
:103090007C5094F8201040EA01604949091F0860FB
:1030A00058E0E06968B346481038006840F0800096
:1030B000434910390860FEF771F8054606E0FEF74F
:1030C0006DF8401B022801D903207EE63C481038E9
:1030D0000068C0F300200028F1D000BFFEF758F8C8
:1030E00041F2030188420ED835480C38006820F0C0
:1030F000F84094F8201040EA816031490C390860AA
:103100000DE00DE027E02E48001F006820F07C5005
:1031100094F8201040EA01602949091F086019E06D
:1031200027481038006820F08000254910390860D1
:10313000FEF734F8054606E0FEF730F8401B02289B
:1031400001D9032041E61E4810380068C0F3002072
:103150000028F1D100BF207800F00800082837D1FE
:103160006069D0B116486430006840F0010014492D
:1031700064310860FEF712F8054606E0FEF70EF827
:10318000401B022801D903201FE60D486430006867
:10319000C0F340000028F1D01AE00948643000680C
:1031A00020F00100064964310860FDF7F7FF05468D
:1031B00008E0FDF7F3FF401B022803D9032004E6D3
:1031C00010440258DC480068C0F340000028F0D1E9
:1031D000207800F02000202836D1A069D0B1D64850
:1031E0007438006840F48050D34974390860FDF7A2
:1031F000D5FF054606E0FDF7D1FF401B022801D9A7
:103200000320E2E5CC4874380068C0F34030002861
:10321000F1D019E0C8487438006820F48050C649DD
:1032200074390860FDF7BAFF054606E0FDF7B6FF02
:10323000401B022801D90320C7E5BF487438006845
:10324000C0F340300028F1D1207800F004000428B9
:103250007DD1BA48006840F48070B8490860FDF735
:103260009DFF054606E0FDF799FF401B642801D944
:103270000320AAE5B148006800F480700028F2D06D
:1032800000BFA068012808D1AB48001F006840F0CB
:103290000100A949091F08602DE0A06868B9A64887
:1032A000001F006820F00100A349091F08600846BC
:1032B000006820F0040008601DE0A06805280DD11A
:1032C0009D48001F006840F004009B49091F0860EA
:1032D0000846006840F0010008600CE09648001FB6
:1032E000006820F001009449091F08600846006842
:1032F00020F00400086000BFA068A0B1FDF74EFFF9
:10330000054608E0FDF74AFF401B41F2883188423C
:1033100001D9032059E58848001F0068C0F3400028
:103320000028EFD013E0FDF739FF054608E0FDF770
:1033300035FF401B41F28831884201D9032044E522
:103340007D48001F0068C0F340000028EFD1606A8C
:1033500000287DD078486438006800F038001828CC
:1033600077D0606A022875D173487438006820F0FD
:103370008070714974390860FDF710FF054606E05A
:10338000FDF70CFF401B022801D903201DE56A4808
:1033900074380068C0F340600028F1D100BFD4E960
:1033A0000A1041EA001064494C39096840F2F332CE
:1033B0009143084360494C390860208E401EC0F399
:1033C0000800616B491E4FF47E4202EA4121084326
:1033D000218F491ED20102EA014108433C21095DC7
:1033E000491E120202EA0161084353494439086048
:1033F00000BF081F006820F00100091F08604E4848
:10340000403800684FF6F8718843A16C40EAC1006B
:1034100049494039086048484838006820F00C00A5
:10342000216C08434449483908600846006820F088
:103430000200616C0843404948390860084600684A
:1034400040F4803008600846006840F4003002E034
:103450006FE041E025E008600846006840F4802005
:1034600008600846006840F001000860324874387F
:10347000006840F08070304974390860FDF78EFEB6
:10348000054606E0FDF78AFE401B022801D903200D
:103490009BE4294874380068C0F340600028F1D0EC
:1034A00047E025487438006820F08070224974395C
:1034B0000860FDF773FE054606E0FDF76FFE401B52
:1034C000022801D9032080E41B4874380068C0F347
:1034D00040600028F1D12CE017484C3807681648A6
:1034E00044380668606A012821D007F00301A06A09
:1034F00081421CD1C7F30511E06A884217D1C6F397
:103500000801206B401E814211D1606B401EC6F342
:10351000462188420BD1A06B401EC6F3064188426B
:1035200005D1E06B401EC6F30661884201D0012040
:103530004BE4002049E4000074440258004802585B
:1035400070B504460E4615460CB9012070BD94F8BE
:10355000450028B9002084F84400204600F028F8EF
:1035600004F108012068FDF7ABFA3146A268206833
:10357000FDF7F2FA2946E36AD4E90102FDF77EFA83
:10358000A168206850F8210040F00100A26821687D
:1035900041F822000548006840F0004003490860F7
:1035A000012084F845000020D0E7000000400052D0
:1035B00010B586B0044600BF2048006840F4805033
:1035C0001E4908600846006800F48050009000BF63
:1035D00000BF00BF19480C30006840F008001749D0
:1035E0000C3108600846006800F00800009000BF39
:1035F00000BF00BF0846006840F0100008600846A1
:10360000006800F01000009000BF00BF4CF2037093
:1036100001900220029001200390032004900C20CE
:10362000059001A90648FDF7A1FC4FF680700190B6
:1036300001A90448FDF79AFC06B010BDD444025815
:10364000000C02580010025870B504462546681E4A
:10365000B0F1807F01D301200FE0681E4FF0E02120
:1036600048610F214FF0FF3003F01AF800204FF0AF
:10367000E021886107200861002070BD70B5044614
:103680000D46164600BF94F83C00012801D10220E7
:1036900070BD012084F83C0000BF022084F83D008A
:1036A0000C2E51D005DC4EB1042E1ED0082E7AD13E
:1036B00033E0102E60D0142EF9D175E02946206831
:1036C00001F04EF82068806940F0080021688861A8
:1036D0002068806920F00400216888612068806982
:1036E000296908432168886177E02946206801F04C
:1036F0008DF82068806940F4006021688861206846
:10370000806920F480602168886120688069296967
:1037100040EA0120216888615FE02946206801F0C5
:10372000CFF82068C06940F008002168C8612068AF
:10373000C06920F004002168C8612068C069296957
:1037400008432168C86148E02946206801F010F963
:103750002068C06940F400602168C8612068C069C1
:1037600020F480602168C8612068C069296940EA46
:1037700001202168C86130E02946206801F030F955
:103780002068406D40F00800216848652068406D61
:1037900020F00400216848652068406D29690843CD
:1037A0002168486519E017E02946206801F04EF9C4
:1037B0002068406D40F40060216848652068406DD5
:1037C00020F48060216848652068406D296940EADE
:1037D00001202168486500E000BF00BF012084F897
:1037E0003D0000BF002084F83C0000BF00BF4FE751
:1037F00010B504460CB9012010BD94F83D0028B95D
:10380000002084F83C00204600F00CF8022084F8E8
:103810003D00211D206800F02BFF012084F83D00B1
:103820000020E9E77047000070B504460E4601220B
:103830003146206800F082FF1749206888420FD087
:103840001649206888420BD015492068884207D065
:1038500014492068884203D013492068884201D166
:10386000012000E0002028B12068406C40F40040B6
:1038700021684864206880680C4900EA0105062D2B
:1038800008D0B5F5803F05D02068006840F0010001
:1038900021680860002070BD000001400004014064
:1038A0000040014000440140004801400700010081
:1038B00030B504460D4600222946206800F03EFF40
:1038C0002149206888420FD02049206888420BD0C7
:1038D0001F492068884207D01E492068884203D0CB
:1038E0001D492068884201D1012000E0002090B1EC
:1038F00000BF2068006A41F21111084050B92068E9
:10390000006A8910084028B92068406C20F4004003
:103910002168486400BF00BF2068006A41F21111AD
:10392000084050B92068006A8910084028B920680A
:10393000006820F001002168086000BF012084F8C1
:103940003D00002030BD00000000014000040140A7
:10395000004001400044014000480140704770476A
:10396000704770472DE9F04704462068C569206814
:1039700006682068876840F60F0005EA0008B8F17D
:10398000000F0FD105F0200060B106F0200010B943
:1039900007F0805030B1E06E10B12046E16E8847EC
:1039A000BDE8F087B8F1000F7ED06E48384018B9F6
:1039B0006D4830400028F7D005F0010058B106F4FA
:1039C000807040B1012021680862D4F8880040F07E
:1039D0000100C4F8880005F0020058B107F00100AA
:1039E00040B1022021680862D4F8880040F0040049
:1039F000C4F8880005F0040058B107F0010040B198
:103A0000042021680862D4F8880040F00200C4F85D
:103A1000880005F0080070B106F0200010B9514888
:103A2000384040B1082021680862D4F8880040F08E
:103A30000800C4F8880005F4006060B106F08060FA
:103A400048B14FF4006021680862D4F8880040F063
:103A50002000C4F88800D4F88800002844D005F07D
:103A6000200050B106F0200010B907F0805020B1BE
:103A7000E06E10B12046E16E8847D4F88890206847
:103A8000806800F04000402802D009F0280028B3E8
:103A9000204601F0D3F82068806800F040004028FC
:103AA00018D12068806800E01FE020F04000216805
:103AB0008860A06F50B12D48A16F0865A06FFDF719
:103AC0007FF888B1A06F016D88470DE02046FFF7B1
:103AD00048FF09E02046FFF744FF05E02046FFF7D6
:103AE00040FF0020C4F888005AE705F4801050B168
:103AF00007F4800038B14FF4801021680862204636
:103B0000FFF72EFF4CE705F0800058B106F080006B
:103B100010B907F4000028B1206F10B12046216FC2
:103B200088473DE705F0400030B106F0400018B18D
:103B3000204601F097F833E705F4000030B106F0B5
:103B4000804018B12046FFF70AFF29E705F0807092
:103B500030B106F0004018B12046FFF7FFFE1FE726
:103B600000BF1DE70100001020010004254C0008E3
:103B700010B504460CB9012010BDA06900B100E0E9
:103B800000BFD4F8800028B9002084F87C002046CB
:103B900000F02AF82420C4F880002068006820F093
:103BA000010021680860204601F090F9012800D149
:103BB000E2E7A06A10B1204600F07EFF206840686E
:103BC00020F49040216848602068806820F02A0036
:103BD000216888602068006840F001002168086062
:103BE000204600F0E5FFC7E710B586B004462B4934
:103BF0002068884250D100BF00BF2948006840F0CB
:103C00001000274908600846006800F01000009086
:103C100000BF00BF00BF00BF00BF214810380068D0
:103C200040F001001E49103908600846006800F0A5
:103C30000100009000BF00BF00BF00BF00BF0846EA
:103C4000006840F0010008600846006800F00100CC
:103C5000009000BF00BF00BF4FF400700190022031
:103C6000029001200390022004900720059001A9F2
:103C70000C48FDF77BF94FF4806001900720059018
:103C800001A90848FDF772F92520FDF75AFB032228
:103C900011462520FDF765FB06B010BD0010014060
:103CA000F04402580000025810B50346D3F88400CF
:103CB000202874D101B10AB9012010BD00BF93F8CA
:103CC0007C00012801D10220F7E7012083F87C0065
:103CD00000BF9965A3F85C20A3F85E200020D86699
:103CE00000BF9868B0F5805F0AD1186920B940F22A
:103CF000FF10A3F8600020E0FF20A3F860001CE0A4
:103D0000986848B9186918B9FF20A3F8600014E052
:103D10007F20A3F8600010E09868B0F1805F09D1BF
:103D2000186918B97F20A3F8600006E03F20A3F8C7
:103D3000600002E00020A3F8600000BF0020C3F88C
:103D400088002220C3F884001868806840F00100D1
:103D50001C68A060586EB0F1005F21D1B3F8680014
:103D600090421DDC9868B0F5805F04D1186910B9E5
:103D70001848D86601E01848D86600BF002083F8CC
:103D80007C0000BF1868006840F480701C682060E8
:103D90001868806840F080501C68A06016E017E04A
:103DA0009868B0F5805F04D1186910B90B48D866DF
:103DB00001E00B48D86600BF002083F87C0000BFFC
:103DC0001868006840F490701C682060002074E758
:103DD000022072E7F94C0008194E0008874C0008D1
:103DE000AD4D000810B504462049206888423BD1FB
:103DF0001F48008800F4004088BB1D48008800F47C
:103E0000804070B11B4800780A2803D00020184970
:103E1000088024E01648008840F4004014490880D7
:103E20001DE0144800780D2806D11148008840F4A0
:103E300080400F49088012E00E4800780C4909883C
:103E4000C1F30D010C4A505409480088401C084930
:103E5000088008460088C72801DD0020088001226C
:103E600004490648FFF720FF10BD00000010014084
:103E700024000020260000206C00002034010020D7
:103E8000704700BFFEE7000000BF00224021184835
:103E9000FDF778F900BF17A0FCF7F0FA4FF47A703D
:103EA00003F03CF919A0FCF7E9FA4FF47A7003F03B
:103EB00035F900BF00BF00BF00BF00BFBFF34F8F89
:103EC00000BF00BF00BF1648006800F4E06015495D
:103ED0000843001D1249086000BF00BF00BFBFF3C8
:103EE0004F8F00BF00BF00BF00BF00BFFDE7000055
:103EF000001002584D656D20416363657373204562
:103F000072726F7221210D0A00000000536F6674F7
:103F1000205265736574696E672E2E2E0D0A00009F
:103F20000CED00E00000FA057047704710B54B6AD1
:103F300033B1B2F1406F03D08B6A5B1E046823611A
:103F40008B69002B76D00B6AE3B38B680468E3615E
:103F5000CB69FBB1D1E90B3423434C6B23434C6A4F
:103F600023438C8A43EA84430C6923430C6A23432A
:103F7000CC682343CC6923438C6923430C682343D7
:103F8000134304686361B2F1406F02D04B68046868
:103F9000A361BEE0D1E90B3423434C6B23434C6A4D
:103FA00023438C8A43EA84430C6923430C6A2343EA
:103FB000CC6923438C6923430C682343134304686F
:103FC0006361A6E0FFE7CB69EBB1D1E90B34234392
:103FD0004C6B23434C6A23438C8A43EA84430C6A28
:103FE0002343CC682343CC6923438C6923430C6867
:103FF0002343134304686361B2F1406FC9D04B6837
:104000000468A36185E0D1E90B3423434C6B23435F
:104010004C6A23438C8A43EA84430C6A2343CC6969
:1040200023438C6923430C6823431343046863616F
:104030006FE0FFE70B6AC3B38B680468E361CB6989
:10404000EBB1D1E90B3423434C6B23434C6A23433C
:104050008C8A43EA84430C6923430C6A2343CC686B
:104060002343CC6923438C6923431343046863616E
:10407000B2F1406F4DD04B680468A36149E0D1E9CB
:104080000B3423434C6B23434C6A23438C8A43EA0F
:1040900084430C6923430C6A2343CC6923438C6912
:1040A000234313430468636133E0FFE7CB69DBB16B
:1040B000D1E90B3423434C6B23434C6A23438C8A52
:1040C00043EA84430C6A2343CC682343CC692343EB
:1040D0008C692343134304686361B2F1406F18D0C5
:1040E0004B680468A36114E04B6A93B1D1E90B34C7
:1040F00023434C6B23434C6A23438C8A43EA844317
:104100000C6A2343CC6923438C692343134304681B
:10411000636110BD2DE9F04104460E4617469846EE
:10412000069D12E0681C80B1FDF738F8A0EB08008E
:10413000A84200D84DB9042084F84100606C40F0DA
:10414000010060640120BDE8F08120688068304093
:1041500008B1012000E00020B842E3D10020F2E7DE
:104160002DE9F04104460E4600275548006800F04E
:104170000300032802D10120BDE8F081504828380F
:10418000006820F080604E4928390860FDF706F885
:10419000054606E0FDF702F8401B022801D903207E
:1041A000EAE7474828380068C0F3C0600028F1D12A
:1041B00000BF4348006820F47C30216840EA0130A9
:1041C0003F490860A088401EC0F30800A168491E4E
:1041D0004FF47E4202EA41210843A189491ED201DF
:1041E00002EA01410843217C491E120202EA0161F0
:1041F000084333491031086000BF3148001D006892
:1042000020F0C000616908432D49091D0860084677
:10421000006820F02000A16908432949091D0860B1
:104220000846006820F01000086025481430006837
:104230004FF6F8718843E16940EAC1002049143122
:1042400008601F48001D006840F010001C49091D4F
:1042500008602EB90846006840F40020086012E0AB
:10426000012E08D11648001D006840F48010144942
:10427000091D086007E01248001D006840F40010A6
:104280000F49091D08600E482838006840F080601A
:104290000B4928390860FCF781FF054606E0FCF76A
:1042A0007DFF401B022801D9032065E70448283818
:1042B0000068C0F3C0600028F1D038465CE7000019
:1042C000284402582DE9F04104460E46002755487F
:1042D000006800F00300032802D10120BDE8F0814E
:1042E00050482838006820F080504E49283908602E
:1042F000FCF754FF054606E0FCF750FF401B022880
:1043000001D90320EAE7474828380068C0F3407025
:104310000028F1D100BF4348006820F07C7021885C
:1043200040EA01503F490860A088401EC0F30800E1
:10433000A168491E4FF47E4202EA41210843A18947
:10434000491ED20102EA01410843217C491E1202A2
:1043500002EA0161084333491831086000BF31485F
:10436000001D006820F44060616908432D49091D63
:1043700008600846006820F40070A16908432949D4
:10438000091D08600846006820F480700860254810
:104390001C3000684FF6F8718843E16940EAC100BB
:1043A00020491C3108601F48001D006840F48070DF
:1043B0001C49091D08602EB90846006840F48000B9
:1043C000086012E0012E08D11648001D006840F474
:1043D00000001449091D086007E01248001D00682C
:1043E00040F080700F49091D08600E4828380068A9
:1043F00040F080500B4928390860FCF7CFFE054695
:1044000006E0FCF7CBFE401B022801D9032065E73C
:10441000044828380068C0F340700028F1D03846BE
:104420005CE700002844025810B50023234C2360A9
:1044300000BF00BF00BFBFF34F8F00BF00BF00BF72
:10444000231F1868C0F34E3100BFC0F3C90200BF7C
:1044500043F6E07303EA41134FF0404404EA8274E8
:104460002343174C236000BF00BF131EA2F10102BB
:10447000EED10B1EA1F10101E7D100BF00BF00BFCB
:10448000BFF34F8F00BF00BF00BF0C4B703B1B68DA
:1044900043F48033094C703C236000BF00BF00BF71
:1044A000BFF34F8F00BF00BF00BF00BF00BF00BF02
:1044B000BFF36F8F00BF00BF00BF10BD84ED00E0F1
:1044C00060EF00E000BF00BF00BFBFF34F8F00BF31
:1044D00000BF00BF00BF00BF00BFBFF36F8F00BFB2
:1044E00000BF00BF00201449086000BF00BF00BF2C
:1044F000BFF34F8F00BF00BF00BF00BF00BF00BFB2
:10450000BFF36F8F00BF00BF00BF0C48006840F4CE
:1045100000300A49086000BF00BF00BFBFF34F8FE3
:1045200000BF00BF00BF00BF00BF00BFBFF36F8F61
:1045300000BF00BF00BF704750EF00E014ED00E087
:1045400010B500231B4C236000BF00BF00BFBFF3AA
:104550004F8F00BF00BF00BF231F1868C0F34E314C
:1045600000BFC0F3C90200BF43F6E07303EA411382
:104570004FF0404404EA827423430F4C236000BF91
:1045800000BF131EA2F10102EED10B1EA1F1010129
:10459000E7D100BF00BF00BFBFF34F8F00BF00BF18
:1045A00000BF00BF00BF00BFBFF36F8F00BF00BFE1
:1045B00000BF10BD84ED00E060EF00E0704710B573
:1045C000FCF7F2FD10BD00002448006840F47000C4
:1045D000224908602248006840F001002049086034
:1045E00000201F49103108601D4800681D4908401F
:1045F0001B49086000201A4918310860091D08602D
:10460000091D0860164928310860091D0860091D48
:104610000860091D0860091D0860091D0860091D62
:104620000860091D08600E48006820F480200C49CD
:10463000086000200A49603108600B4800686FF389
:104640000F00B0F1005F02D20120084908604FF06E
:1046500000600249803908607047000088ED00E082
:10466000004402587FEDF6EA0010005C088100511A
:1046700010B50268294B98420ED0B0F1804F0BD094
:10468000274B984208D0274B984205D0264B98429A
:1046900002D0264B984203D122F070024B681A4395
:1046A0001E4B984217D0B0F1804F14D01C4B98424B
:1046B00011D01C4B98420ED01B4B98420BD01B4B79
:1046C000984208D01A4B984205D01A4B984202D013
:1046D000194B984203D122F44072CB681A4322F05E
:1046E00080034C6943EA040202608B68C3620B6872
:1046F00083620A4B98420BD00C4B984208D00C4B6B
:10470000984205D00B4B984202D00B4B984201D1F6
:104710000B6903630123436110BD000000000140E9
:104720000004004000080040000C0040000401406C
:1047300000400140004401400048014030B501F014
:104740001F05012404FA05F3046A9C430462046A09
:1047500001F01F0502FA05F52C43046230BD00008C
:1047600030B5056A25F001050562026A436884696F
:10477000204D2C4024F003040D682C4322F002024B
:104780008D682A431C4DA84200D10FE01B4DA84262
:1047900000D10BE01A4DA84200D107E0194DA84204
:1047A00000D103E0184DA84206D100BF22F0080254
:1047B000CD682A4322F004020F4DA8420BD00F4DC2
:1047C000A84208D00E4DA84205D00E4DA84202D0F6
:1047D0000D4DA84207D123F4807323F400734D6973
:1047E0002B438D692B43436084614D6845630262AE
:1047F00030BD00008FFFFEFF0000014000040140BB
:1048000000400140004401400048014030B5056AC5
:1048100025F010050562026A43688469224D2C4028
:1048200024F440740D6844EA052422F020028D68C7
:1048300042EA05121D4DA84200D10FE01C4DA842CE
:1048400000D10BE01B4DA84200D100BF1A4DA84279
:1048500000D100BF194DA84207D106E022F0800226
:10486000CD6842EA051222F04002104DA8420BD05A
:104870000F4DA84208D00F4DA84205D00E4DA842BA
:1048800002D00E4DA84209D123F4806323F40063C3
:104890004D6943EA85038D6943EA8503436084617A
:1048A0004D688563026230BDFF8FFFFE000001404E
:1048B0000004014000400140004401400048014024
:1048C00030B5056A25F480750562026A4368C469DB
:1048D00024F0700424F003040D682C4322F40072C9
:1048E0008D6842EA05221D4DA84200D10FE01C4D03
:1048F000A84200D10BE01B4DA84200D100BF1A4DC9
:10490000A84200D100BF194DA84207D106E022F409
:104910000062CD6842EA052222F480620F4DA8426F
:104920000BD00F4DA84208D00E4DA84205D00E4D19
:10493000A84202D00D4DA84209D123F4805323F49C
:1049400000534D6943EA05138D6943EA051343603B
:10495000C4614D68C563026230BD000000000140C3
:104960000004014000400140004401400048014073
:1049700030B5056A25F480550562036A4468C2694A
:1049800022F4E04222F440720D6842EA052223F448
:1049900000538D6843EA05330C4DA8420BD00C4DF3
:1049A000A84208D00B4DA84205D00B4DA84202D01A
:1049B0000A4DA84204D124F480444D6944EA851488
:1049C0004460C2614D680564036230BD000001406F
:1049D0000004014000400140004401400048014003
:1049E00030B5056A25F480350562046A4268436D76
:1049F00023F070030D682B4324F400340D8944EA3E
:104A000005440D4DA8420BD00C4DA84208D00C4DCA
:104A1000A84205D00B4DA84202D00B4DA84204D1AC
:104A200022F480324D6942EA0522426043654D68B6
:104A30008565046230BD00000000014000040140B3
:104A400000400140004401400048014030B5056A83
:104A500025F480150562036A4468426D22F4E04241
:104A60000D6842EA052223F400130D8943EA055339
:104A70000C4DA8420BD00C4DA84208D00B4DA842BB
:104A800005D00B4DA84202D00A4DA84204D124F40F
:104A900000344D6944EA8524446042654D68C5652B
:104AA000036230BD000001400004014000400140AD
:104AB000004401400048014090F8281001F0010135
:104AC00039B10168496821F40031C26A11430268B2
:104AD000516090F8281001F00201022907D1016805
:104AE000496821F48031026B11430268516090F8EB
:104AF000281001F00401042907D10168496821F454
:104B00008021426B11430268516090F8281001F037
:104B10000801082907D10168496821F40041826B26
:104B200011430268516090F8281001F0100110291B
:104B300007D10168896821F48051C26B1143026872
:104B4000916090F8281001F02001202907D1016818
:104B5000896821F40051026C11430268916090F859
:104B6000281001F04001402913D10168496821F45F
:104B70008011426C114302685160416CB1F5801F95
:104B800007D10168496821F4C001826C11430268B1
:104B9000516090F8281001F08001802907D1016848
:104BA000496821F40021C26C1143026851607047CA
:104BB00038B504460020C4F88800FCF7EFFA054633
:104BC0002068006800F0080008280CD16FF07E40D3
:104BD0002B4600224FF400110090204601F0EEFC1D
:104BE00008B1032038BD2068006800F004000428E4
:104BF0000CD16FF07E402B4600224FF480010090D4
:104C0000204601F0DBFC08B10320EBE72020C4F8CC
:104C10008000C4F8840000BF002084F87C0000BF3E
:104C200000BFDFE770B50546AC6B0020A4F85E005E
:104C3000A4F856002046FEF794FE70BD016809688E
:104C400021F490710268116001688968044A11407A
:104C5000026891602021C0F884100021C16670476D
:104C6000FEFFFFEF10B504462068006820F040000A
:104C7000216808602020C4F88000002020672046BA
:104C8000FFF7FEF810BD2DE9F0410446B4F860705E
:104C9000D4F88400222826D12068406A86B2A56D07
:104CA00006EA07002880A06D801CA065B4F85E00AD
:104CB000401EA4F85E00B4F85E00D0B92068006819
:104CC00020F49070216808602068806820F001005E
:104CD000216888602020C4F884000020E066204617
:104CE000FFF780F805E02068806940F0080021683F
:104CF0008861BDE8F08100002DE9F0470446B4F872
:104D00006090D4F88400222843D1B4F8685028E099
:104D10002068406A1FFA80F8A76D08EA0900388009
:104D2000A06D801CA065B4F85E00401EA4F85E0073
:104D3000B4F85E0098B92068006820F4807021689B
:104D40000860206880681749084021688860202032
:104D5000C4F884000020E0662046FFF743F8681E90
:104D600085B2002DD4D1B4F85E60C6B1B4F8680045
:104D7000B04214DD2068806820F08050216888608F
:104D80000948E0662068006840F02000216808605B
:104D900005E02068806940F0080021688861BDE86E
:104DA000F0870000FEFFFFEF874C000870B5044657
:104DB000B4F86060D4F88400222826D12068406AC4
:104DC00085B2F0B22840A16D0870A06D401CA065AE
:104DD000B4F85E00401EA4F85E00B4F85E00D0B9DE
:104DE0002068006820F4907021680860206880685E
:104DF00020F00100216888602020C4F88400002091
:104E0000E0662046FEF7EEFF05E02068806940F08E
:104E100008002168886170BD2DE9F0410446B4F8AE
:104E20006080D4F88400222843D1B4F8685028E088
:104E30002068406A87B208F0FF003840A16D087012
:104E4000A06D401CA065B4F85E00401EA4F85E0092
:104E5000B4F85E0098B92068006820F4807021687A
:104E60000860206880681749084021688860202011
:104E7000C4F884000020E0662046FEF7B3FF681EF9
:104E800085B2002DD4D1B4F85E60C6B1B4F8680024
:104E9000B04214DD2068806820F08050216888606E
:104EA0000948E0662068006840F02000216808603A
:104EB00005E02068806940F0080021688861BDE84D
:104EC000F0810000FEFFFFEFAD4D00082DE9F04F2F
:104ED00089B004464FF00009002007908346F94945
:104EE0002068884200D100E000BF2169A068084323
:104EF00061690843E16940EA010A606E40EA0A0A12
:104F000020680068F049084040EA0A00216808600B
:104F10002068406820F44050E168084321684860F8
:104F2000D4F818A0E7492068884202D0206A40EAF5
:104F30000A0A20688068E549084040EA0A002168BA
:104F400088602068C06A20F00F00616A0843216809
:104F5000C86200BFDE492068884220D1DD48006871
:104F600000F03800182811D005DC48B1082809D015
:104F7000102811D108E020280AD028280CD109E0F7
:104F800001250BE0042509E0082507E0102505E0D0
:104F9000202503E0402501E0802500BFF8E0CE4950
:104FA0002068884219D1CB48006800F00700062825
:104FB00010D2DFE800F0030507090B0D00250BE018
:104FC000042509E0082507E0102505E0202503E079
:104FD000402501E0802500BFDAE0C0492068884212
:104FE00019D1BC48006800F00700062810D2DFE89D
:104FF00000F0030507090B0D00250BE0042509E06F
:10500000082507E0102505E0202503E0402501E004
:10501000802500BFBCE0B2492068884219D1AD4864
:10502000006800F00700062810D2DFE800F0030552
:1050300007090B0D00250BE0042509E0082507E012
:10504000102505E0202503E0402501E0802500BF74
:105050009EE0A4492068884219D19E48006800F06B
:105060000700062810D2DFE800F0030507090B0D42
:1050700000250BE0042509E0082507E0102505E0E0
:10508000202503E0402501E0802500BF80E096490F
:105090002068884220D18F48006800F03800182826
:1050A00011D005DC48B1082809D0102811D108E03A
:1050B00020280AD028280CD109E001250BE004257E
:1050C00009E0082507E0102505E0202503E040253C
:1050D00001E0802500BF5BE084492068884219D147
:1050E0007C48006800F00700062810D2DFE800F0D6
:1050F000030507090B0D00250BE0042509E0082531
:1051000007E0102505E0202503E0402501E080258B
:1051100000BF3DE076492068884219D16D4800689B
:1051200000F00700062810D2DFE800F003050709A9
:105130000B0D00250BE0042509E0082507E01025EC
:1051400005E0202503E0402501E0802500BF1FE0A9
:105150005C49206888421AD15E48001D006800F052
:105160000700062810D2DFE800F0030507090B0D41
:1051700002250BE0042509E0082507E0102505E0DD
:10518000202503E0402501E0802500BF00E08025C8
:1051900000BF4C492068884271D1102D70D006DCC8
:1051A000022D09D0042D49D0082D6AD1A6E0202D6A
:1051B00068D0402DF9D1B3E1FCF75EFB616A09B913
:1051C000012138E0616A012901D1022133E0616ADD
:1051D000022901D104212EE0616A032901D10621AF
:1051E00029E0616A042901D1082124E0616A0529C6
:1051F00001D10A211FE0616A062901D10C211AE0C0
:10520000616A072901D1102115E0616A082901D1DD
:10521000202110E0616A092901D140210BE0616A77
:105220000A2901D1802106E0616A0B2902D14FF4DD
:10523000807100E00121B0FBF1FBB6E104A8FCF7AE
:105240002DFB0598616A09B9012154E0616A0129C1
:1052500001D102214FE0616A022901D104214AE013
:10526000616A032901D1062145E0616A042901D15F
:10527000082140E0616A052905D10A213BE0FDE3F0
:1052800080E08FE10BE1616A062901D10C2132E057
:10529000616A072901D110212DE0616A082901D135
:1052A000202128E0616A092901D1402123E0616AB7
:1052B0000A2901D180211EE0616A0B291AD14FF41D
:1052C000807118E0000C0058F369FFCFFFF4FF1164
:1052D000001001405444025800440040004800407F
:1052E000004C004000500040001401400078004095
:1052F000007C00400121B0FBF1FB56E101A8FCF766
:10530000E5FB0298616A09B9012138E0616A012967
:1053100001D1022133E0616A022901D104212EE08A
:10532000616A032901D1062129E0616A042901D1BA
:10533000082124E0616A052901D10A211FE0616A80
:10534000062901D10C211AE0616A072901D1102137
:1053500015E0616A082901D1202110E0616A09295C
:1053600001D140210BE0616A0A2901D1802106E0C8
:10537000616A0B2902D14FF4807100E00121B0FB7A
:10538000F1FB12E1FA480068C0F3401088B3F84816
:105390000068C0F3C101F748C840616A09B901213A
:1053A00039E0616A012901D1022134E0616A0229F0
:1053B00001D104212FE0616A032901D106212AE0ED
:1053C000616A042901D1082125E0616A052901D11A
:1053D0000A2120E0616A062901D10C211BE0616AE3
:1053E000072901D1102116E0616A082902D1202184
:1053F00011E013E0616A092901D140210BE0616AE3
:105400000A2901D1802106E0616A0B2902D14FF4FB
:10541000807100E00121B0FBF1FB3FE0606A08B958
:10542000012038E0606A012801D1022033E0606A7F
:10543000022801D104202EE0606A032801D1062051
:1054400029E0606A042801D1082024E0606A052868
:1054500001D10A201FE0606A062801D10C201AE061
:10546000606A072801D1102015E0606A082801D180
:10547000202010E0606A092801D140200BE0606A1A
:105480000A2801D1802006E0606A0B2802D14FF47F
:10549000807000E00120B749B1FBF0FB85E0606A55
:1054A00008B9012038E0606A012801D1022033E008
:1054B000606A022801D104202EE0606A032801D12D
:1054C000062029E0606A042801D1082024E0606AEF
:1054D000052801D10A201FE0606A062801D10C20AE
:1054E0001AE0606A072801D1102015E0606A0828D8
:1054F00001D1202010E0606A092801D140200BE092
:10550000606A0A2801D1802006E0606A0B2802D177
:105510004FF4807000E001209749B1FBF0FB44E0BC
:10552000606A08B9012038E0606A012801D10220D0
:1055300033E0606A022801D104202EE0606A03286B
:1055400001D1062029E0606A042801D1082024E066
:10555000606A052801D10A201FE0606A062801D18F
:105560000C201AE0606A072801D1102015E0606A5B
:10557000082801D1202010E0606A092801D14020CC
:105580000BE0606A0A2801D1802006E0606A0B28DF
:1055900002D14FF4807000E001204FF40041B1FBD4
:1055A000F0FB02E00120079000BF00BFBBF1000F3D
:1055B00000F0F287606800EB4000584503D860684F
:1055C0000003584503D20120079000F0E5BF102DDD
:1055D00075D006DC022D09D0042D67D0082D6FD1BF
:1055E000CCE0202D6DD0402DF9D14DE2FCF744F9EF
:1055F0008046606A08B9012238E0606A012801D15A
:10560000022233E0606A022801D104222EE0606A9F
:10561000032801D1062229E0606A042801D108226A
:1056200024E0606A052801D10A221FE0606A06288A
:1056300001D10C221AE0606A072801D1102215E07E
:10564000606A082801D1202210E0606A092801D18F
:1056500040220BE0606A0A2801D1802206E0606ADD
:105660000B2802D14FF4807200E0012294460023FF
:1056700040461946FAF78BFE4FF4807300228C46A1
:10568000A0FB031E0CFB03E300FB02336068400831
:105690008C461CEB000643EB0201D4F804C06246C2
:1056A00000233046FAF773FE81464EE204A8FCF769
:1056B000F5F8DDF814E0606A20B901223BE0BFE0B4
:1056C00040E282E1606A012801D1022233E0606A8F
:1056D000022801D104222EE0606A032801D10622AB
:1056E00029E0606A042801D1082224E0606A0528C4
:1056F00001D10A221FE0606A062801D10C221AE0BB
:10570000606A072801D1102215E0606A082801D1DB
:10571000202210E0606A092801D140220BE0606A73
:105720000A2801D1802206E0606A0B2802D14FF4DA
:10573000807200E001229446002370461946FAF771
:1057400026FE4FF4807C0022A0FB0C3E01FB0CE106
:1057500000FB0211606840081E185141D4F804C0D3
:10576000624600233046FAF712FE8146EDE1000062
:10577000004402580090D00300093D0001A8FCF746
:10578000A5F9DDF808C0606A08B9012238E0606A4E
:10579000012801D1022233E0606A022801D10422EB
:1057A0002EE0606A032801D1062229E0606A0428FD
:1057B00001D1082224E0606A052801D10A221FE0F5
:1057C000606A062801D10C221AE0606A072801D11C
:1057D000102215E0606A082801D1202210E0606ADA
:1057E000092801D140220BE0606A0A2801D18022F9
:1057F00006E0606A0B2802D14FF4807200E00122BB
:105800009646002360461946FAF7C1FD4FF48073AF
:1058100000228C46A0FB031E0CFB03E300FB0233BB
:10582000606840088C461CEB000643EB0201D4F88C
:1058300004C0624600233046FAF7A9FD814684E1A0
:10584000F8480068C0F3401090B3F6480068C0F311
:10585000C101F54820FA01FE606A08B9012239E069
:10586000606A012801D1022234E0606A022801D175
:1058700004222FE0606A032801D106222AE0606A30
:10588000042801D1082225E0606A052801D10A22F6
:1058900020E0606A062801D10C221BE0606A07281C
:1058A00001D1102216E0606A082802D1202211E0FE
:1058B00030E0606A092801D140220BE0606A0A28C2
:1058C00001D1802206E0606A0B2802D14FF4807279
:1058D00000E001229446002370461946FAF757FD6E
:1058E0004FF4807300228C46A0FB031E0CFB03E3E5
:1058F00000FB0233606840088C461CEB000643EB5B
:105900000201D4F804C0624600233046FAF73FFD96
:10591000814659E0606A08B9012238E0606A0128CE
:1059200001D1022233E0606A022801D104222EE074
:10593000606A032801D1062229E0606A042801D1A7
:10594000082224E0606A052801D10A221FE0606A6B
:10595000062801D10C221AE0606A072801D1102222
:1059600015E0606A082801D1202210E0606A092849
:1059700001D140220BE0606A0A2801D1802206E0B2
:10598000606A0B2802D14FF4807200E00122944635
:105990000023A5481946FAF7FAFC4FF48073002259
:1059A0008C46A0FB031E0CFB03E300FB0233606884
:1059B00040080E1843EB0201D4F804C062460023ED
:1059C0003046FAF7E4FC8146BFE0606A08B901227C
:1059D00038E0606A012801D1022233E0606A0228BF
:1059E00001D104222EE0606A032801D1062229E0B9
:1059F000606A042801D1082224E0606A052801D1E8
:105A00000A221FE0606A062801D10C221AE0606AAF
:105A1000072801D1102215E0606A082801D1202250
:105A200010E0606A092801D140220BE0606A0A2870
:105A300001D1802206E0606A0B2802D14FF4807207
:105A400000E001229446002378481946FAF79FFCAB
:105A50004FF4807300228C46A0FB031E0CFB03E373
:105A600000FB0233606840088C461CEB000643EBE9
:105A70000201D4F804C06246002300E073E030461F
:105A8000FAF785FC814660E0606A08B9012238E0D7
:105A9000606A012801D1022233E0606A022801D144
:105AA00004222EE0606A032801D1062229E0606A00
:105AB000042801D1082224E0606A052801D10A22C5
:105AC0001FE0606A062801D10C221AE0606A0728EC
:105AD00001D1102215E0606A082801D1202210E0CF
